{"contracts/RandomArtNFT.sol":{"RandomArtNFT":{"abi":[{"inputs":[{"internalType":"string","name":"name","type":"string"},{"internalType":"string","name":"symbol","type":"string"},{"internalType":"string","name":"baseURI","type":"string"},{"internalType":"uint256","name":"_maxSupply","type":"uint256"},{"internalType":"address","name":"initialOwner","type":"address"}],"stateMutability":"nonpayable","type":"constructor"},{"inputs":[],"name":"ERC721EnumerableForbiddenBatchMint","type":"error"},{"inputs":[{"internalType":"address","name":"sender","type":"address"},{"internalType":"uint256","name":"tokenId","type":"uint256"},{"internalType":"address","name":"owner","type":"address"}],"name":"ERC721IncorrectOwner","type":"error"},{"inputs":[{"internalType":"address","name":"operator","type":"address"},{"internalType":"uint256","name":"tokenId","type":"uint256"}],"name":"ERC721InsufficientApproval","type":"error"},{"inputs":[{"internalType":"address","name":"approver","type":"address"}],"name":"ERC721InvalidApprover","type":"error"},{"inputs":[{"internalType":"address","name":"operator","type":"address"}],"name":"ERC721InvalidOperator","type":"error"},{"inputs":[{"internalType":"address","name":"owner","type":"address"}],"name":"ERC721InvalidOwner","type":"error"},{"inputs":[{"internalType":"address","name":"receiver","type":"address"}],"name":"ERC721InvalidReceiver","type":"error"},{"inputs":[{"internalType":"address","name":"sender","type":"address"}],"name":"ERC721InvalidSender","type":"error"},{"inputs":[{"internalType":"uint256","name":"tokenId","type":"uint256"}],"name":"ERC721NonexistentToken","type":"error"},{"inputs":[{"internalType":"address","name":"owner","type":"address"},{"internalType":"uint256","name":"index","type":"uint256"}],"name":"ERC721OutOfBoundsIndex","type":"error"},{"inputs":[{"internalType":"address","name":"owner","type":"address"}],"name":"OwnableInvalidOwner","type":"error"},{"inputs":[{"internalType":"address","name":"account","type":"address"}],"name":"OwnableUnauthorizedAccount","type":"error"},{"anonymous":false,"inputs":[{"indexed":true,"internalType":"address","name":"owner","type":"address"},{"indexed":true,"internalType":"address","name":"approved","type":"address"},{"indexed":true,"internalType":"uint256","name":"tokenId","type":"uint256"}],"name":"Approval","type":"event"},{"anonymous":false,"inputs":[{"indexed":true,"internalType":"address","name":"owner","type":"address"},{"indexed":true,"internalType":"address","name":"operator","type":"address"},{"indexed":false,"internalType":"bool","name":"approved","type":"bool"}],"name":"ApprovalForAll","type":"event"},{"anonymous":false,"inputs":[{"indexed":true,"internalType":"address","name":"to","type":"address"},{"indexed":true,"internalType":"uint256","name":"tokenId","type":"uint256"}],"name":"NFTMinted","type":"event"},{"anonymous":false,"inputs":[{"indexed":true,"internalType":"address","name":"previousOwner","type":"address"},{"indexed":true,"internalType":"address","name":"newOwner","type":"address"}],"name":"OwnershipTransferred","type":"event"},{"anonymous":false,"inputs":[{"indexed":true,"internalType":"address","name":"from","type":"address"},{"indexed":true,"internalType":"address","name":"to","type":"address"},{"indexed":true,"internalType":"uint256","name":"tokenId","type":"uint256"}],"name":"Transfer","type":"event"},{"inputs":[{"internalType":"address","name":"to","type":"address"},{"internalType":"uint256","name":"tokenId","type":"uint256"}],"name":"approve","outputs":[],"stateMutability":"nonpayable","type":"function"},{"inputs":[{"internalType":"address","name":"owner","type":"address"}],"name":"balanceOf","outputs":[{"internalType":"uint256","name":"","type":"uint256"}],"stateMutability":"view","type":"function"},{"inputs":[{"internalType":"uint256","name":"tokenId","type":"uint256"}],"name":"getApproved","outputs":[{"internalType":"address","name":"","type":"address"}],"stateMutability":"view","type":"function"},{"inputs":[{"internalType":"address","name":"owner","type":"address"},{"internalType":"address","name":"operator","type":"address"}],"name":"isApprovedForAll","outputs":[{"internalType":"bool","name":"","type":"bool"}],"stateMutability":"view","type":"function"},{"inputs":[],"name":"maxSupply","outputs":[{"internalType":"uint256","name":"","type":"uint256"}],"stateMutability":"view","type":"function"},{"inputs":[{"internalType":"address","name":"to","type":"address"}],"name":"mint","outputs":[],"stateMutability":"nonpayable","type":"function"},{"inputs":[{"internalType":"address","name":"to","type":"address"},{"internalType":"uint256","name":"quantity","type":"uint256"}],"name":"mintBatch","outputs":[],"stateMutability":"nonpayable","type":"function"},{"inputs":[],"name":"name","outputs":[{"internalType":"string","name":"","type":"string"}],"stateMutability":"view","type":"function"},{"inputs":[],"name":"owner","outputs":[{"internalType":"address","name":"","type":"address"}],"stateMutability":"view","type":"function"},{"inputs":[{"internalType":"uint256","name":"tokenId","type":"uint256"}],"name":"ownerOf","outputs":[{"internalType":"address","name":"","type":"address"}],"stateMutability":"view","type":"function"},{"inputs":[],"name":"paused","outputs":[{"internalType":"bool","name":"","type":"bool"}],"stateMutability":"view","type":"function"},{"inputs":[],"name":"renounceOwnership","outputs":[],"stateMutability":"nonpayable","type":"function"},{"inputs":[{"internalType":"address","name":"from","type":"address"},{"internalType":"address","name":"to","type":"address"},{"internalType":"uint256","name":"tokenId","type":"uint256"}],"name":"safeTransferFrom","outputs":[],"stateMutability":"nonpayable","type":"function"},{"inputs":[{"internalType":"address","name":"from","type":"address"},{"internalType":"address","name":"to","type":"address"},{"internalType":"uint256","name":"tokenId","type":"uint256"},{"internalType":"bytes","name":"data","type":"bytes"}],"name":"safeTransferFrom","outputs":[],"stateMutability":"nonpayable","type":"function"},{"inputs":[{"internalType":"address","name":"operator","type":"address"},{"internalType":"bool","name":"approved","type":"bool"}],"name":"setApprovalForAll","outputs":[],"stateMutability":"nonpayable","type":"function"},{"inputs":[{"internalType":"string","name":"baseURI","type":"string"}],"name":"setBaseURI","outputs":[],"stateMutability":"nonpayable","type":"function"},{"inputs":[{"internalType":"bool","name":"_paused","type":"bool"}],"name":"setPaused","outputs":[],"stateMutability":"nonpayable","type":"function"},{"inputs":[{"internalType":"bytes4","name":"interfaceId","type":"bytes4"}],"name":"supportsInterface","outputs":[{"internalType":"bool","name":"","type":"bool"}],"stateMutability":"view","type":"function"},{"inputs":[],"name":"symbol","outputs":[{"internalType":"string","name":"","type":"string"}],"stateMutability":"view","type":"function"},{"inputs":[{"internalType":"uint256","name":"index","type":"uint256"}],"name":"tokenByIndex","outputs":[{"internalType":"uint256","name":"","type":"uint256"}],"stateMutability":"view","type":"function"},{"inputs":[{"internalType":"address","name":"owner","type":"address"},{"internalType":"uint256","name":"index","type":"uint256"}],"name":"tokenOfOwnerByIndex","outputs":[{"internalType":"uint256","name":"","type":"uint256"}],"stateMutability":"view","type":"function"},{"inputs":[{"internalType":"uint256","name":"tokenId","type":"uint256"}],"name":"tokenURI","outputs":[{"internalType":"string","name":"","type":"string"}],"stateMutability":"view","type":"function"},{"inputs":[],"name":"totalSupply","outputs":[{"internalType":"uint256","name":"","type":"uint256"}],"stateMutability":"view","type":"function"},{"inputs":[{"internalType":"address","name":"from","type":"address"},{"internalType":"address","name":"to","type":"address"},{"internalType":"uint256","name":"tokenId","type":"uint256"}],"name":"transferFrom","outputs":[],"stateMutability":"nonpayable","type":"function"},{"inputs":[{"internalType":"address","name":"newOwner","type":"address"}],"name":"transferOwnership","outputs":[],"stateMutability":"nonpayable","type":"function"}],"evm":{"bytecode":{"linkReferences":{},"object":"60806040523480156200001157600080fd5b5060405162002ce838038062002ce8833981016040819052620000349162000227565b808585600062000045838262000375565b50600162000054828262000375565b5050506001600160a01b0381166200008657604051631e4fbdf760e01b81526000600482015260240160405180910390fd5b620000918162000110565b50600c620000a0848262000375565b50600d8290556001600b55600e805460ff19169055604051620000e990429044903390602001928352602083019190915260601b6001600160601b031916604082015260540190565b60408051601f198184030181529190528051602090910120600f5550620004419350505050565b600a80546001600160a01b038381166001600160a01b0319831681179093556040519116919082907f8be0079c531659141344cd1fd0a4f28419497f9722a3daafe3b4186f6b6457e090600090a35050565b634e487b7160e01b600052604160045260246000fd5b600082601f8301126200018a57600080fd5b81516001600160401b0380821115620001a757620001a762000162565b604051601f8301601f19908116603f01168101908282118183101715620001d257620001d262000162565b81604052838152602092508683858801011115620001ef57600080fd5b600091505b83821015620002135785820183015181830184015290820190620001f4565b600093810190920192909252949350505050565b600080600080600060a086880312156200024057600080fd5b85516001600160401b03808211156200025857600080fd5b6200026689838a0162000178565b965060208801519150808211156200027d57600080fd5b6200028b89838a0162000178565b95506040880151915080821115620002a257600080fd5b50620002b18882890162000178565b60608801516080890151919550935090506001600160a01b0381168114620002d857600080fd5b809150509295509295909350565b600181811c90821680620002fb57607f821691505b6020821081036200031c57634e487b7160e01b600052602260045260246000fd5b50919050565b601f8211156200037057600081815260208120601f850160051c810160208610156200034b5750805b601f850160051c820191505b818110156200036c5782815560010162000357565b5050505b505050565b81516001600160401b0381111562000391576200039162000162565b620003a981620003a28454620002e6565b8462000322565b602080601f831160018114620003e15760008415620003c85750858301515b600019600386901b1c1916600185901b1785556200036c565b600085815260208120601f198616915b828110156200041257888601518255948401946001909101908401620003f1565b5085821015620004315787850151600019600388901b60f8161c191681555b5050505050600190811b01905550565b61289780620004516000396000f3fe608060405234801561001057600080fd5b50600436106101735760003560e01c80635c975abb116100de57806395d89b4111610097578063c87b56dd11610071578063c87b56dd14610319578063d5abeb011461032c578063e985e9c514610335578063f2fde38b1461034857600080fd5b806395d89b41146102eb578063a22cb465146102f3578063b88d4fde1461030657600080fd5b80635c975abb1461028c5780636352211e146102995780636a627842146102ac57806370a08231146102bf578063715018a6146102d25780638da5cb5b146102da57600080fd5b806323b872dd1161013057806323b872dd1461021a578063248b71fc1461022d5780632f745c591461024057806342842e0e146102535780634f6ccce71461026657806355f804b31461027957600080fd5b806301ffc9a71461017857806306fdde03146101a0578063081812fc146101b5578063095ea7b3146101e057806316c38b3c146101f557806318160ddd14610208575b600080fd5b61018b610186366004611ddc565b61035b565b60405190151581526020015b60405180910390f35b6101a861036c565b6040516101979190611e49565b6101c86101c3366004611e5c565b6103fe565b6040516001600160a01b039091168152602001610197565b6101f36101ee366004611e91565b610427565b005b6101f3610203366004611ecb565b610436565b6008545b604051908152602001610197565b6101f3610228366004611ee6565b610451565b6101f361023b366004611e91565b6104e1565b61020c61024e366004611e91565b6106e6565b6101f3610261366004611ee6565b61074b565b61020c610274366004611e5c565b610766565b6101f3610287366004611fae565b6107bf565b600e5461018b9060ff1681565b6101c86102a7366004611e5c565b6107d3565b6101f36102ba366004611fff565b6107de565b61020c6102cd366004611fff565b61095d565b6101f36109a5565b600a546001600160a01b03166101c8565b6101a86109b9565b6101f361030136600461201a565b6109c8565b6101f361031436600461204d565b6109d3565b6101a8610327366004611e5c565b6109ea565b61020c600d5481565b61018b6103433660046120c9565b610b72565b6101f3610356366004611fff565b610ba0565b600061036682610bde565b92915050565b60606000805461037b906120f3565b80601f01602080910402602001604051908101604052809291908181526020018280546103a7906120f3565b80156103f45780601f106103c9576101008083540402835291602001916103f4565b820191906000526020600020905b8154815290600101906020018083116103d757829003601f168201915b5050505050905090565b600061040982610c03565b506000828152600460205260409020546001600160a01b0316610366565b610432828233610c3c565b5050565b61043e610c49565b600e805460ff1916911515919091179055565b6001600160a01b03821661048057604051633250574960e11b8152600060048201526024015b60405180910390fd5b600061048d838333610c76565b9050836001600160a01b0316816001600160a01b0316146104db576040516364283d7b60e01b81526001600160a01b0380861660048301526024820184905282166044820152606401610477565b50505050565b6104e9610c49565b600e5460ff16156105305760405162461bcd60e51b8152602060048201526011602482015270135a5b9d1a5b99c81a5cc81c185d5cd959607a1b6044820152606401610477565b600d54600182600b546105439190612143565b61054d9190612156565b11156105905760405162461bcd60e51b815260206004820152601260248201527145786365656473206d617820737570706c7960701b6044820152606401610477565b6001600160a01b0382166105e65760405162461bcd60e51b815260206004820152601b60248201527f43616e6e6f74206d696e7420746f207a65726f206164647265737300000000006044820152606401610477565b600081116106365760405162461bcd60e51b815260206004820152601f60248201527f5175616e74697479206d7573742062652067726561746572207468616e2030006044820152606401610477565b60005b818110156106e157600b8054908190600061065383612169565b91905055506106628482610c8d565b600f54604080516020810192909252810182905242606082015260800160408051601f19818403018152908290528051602090910120600f5581906001600160a01b038616907f4cc0a9c4a99ddc700de1af2c9f916a7cbfdb71f14801ccff94061ad1ef8a804090600090a350806106d981612169565b915050610639565b505050565b60006106f18361095d565b82106107225760405163295f44f760e21b81526001600160a01b038416600482015260248101839052604401610477565b506001600160a01b03919091166000908152600660209081526040808320938352929052205490565b6106e1838383604051806020016040528060008152506109d3565b600061077160085490565b821061079a5760405163295f44f760e21b81526000600482015260248101839052604401610477565b600882815481106107ad576107ad612182565b90600052602060002001549050919050565b6107c7610c49565b600c61043282826121e6565b600061036682610c03565b6107e6610c49565b600e5460ff161561082d5760405162461bcd60e51b8152602060048201526011602482015270135a5b9d1a5b99c81a5cc81c185d5cd959607a1b6044820152606401610477565b600d54600b5411156108765760405162461bcd60e51b815260206004820152601260248201527113585e081cdd5c1c1b1e481c995858da195960721b6044820152606401610477565b6001600160a01b0381166108cc5760405162461bcd60e51b815260206004820152601b60248201527f43616e6e6f74206d696e7420746f207a65726f206164647265737300000000006044820152606401610477565b600b805490819060006108de83612169565b91905055506108ed8282610c8d565b600f54604080516020810192909252810182905242606082015260800160408051601f19818403018152908290528051602090910120600f5581906001600160a01b038416907f4cc0a9c4a99ddc700de1af2c9f916a7cbfdb71f14801ccff94061ad1ef8a804090600090a35050565b60006001600160a01b038216610989576040516322718ad960e21b815260006004820152602401610477565b506001600160a01b031660009081526003602052604090205490565b6109ad610c49565b6109b76000610ca7565b565b60606001805461037b906120f3565b610432338383610cf9565b6109de848484610451565b6104db84848484610d98565b6000818152600260205260409020546060906001600160a01b0316610a485760405162461bcd60e51b8152602060048201526014602482015273151bdad95b88191bd95cc81b9bdd08195e1a5cdd60621b6044820152606401610477565b600f54604080516020810192909252810183905242606082015260009060800160408051601f19818403018152919052805160209091012090506000610a90610100836122bc565b90506000610aa4610100600885901c6122bc565b90506000610ab8610100601086901c6122bc565b90506000610acb600a601887901c6122bc565b90506000610ade6008602088901c6122bc565b90506000610aeb86610ec1565b610af486610ec1565b610afd86610ec1565b610b0886868c610f54565b610b118d610ec1565b604051602001610b259594939291906122ec565b60405160208183030381529060405290506000610b418261114e565b905080604051602001610b5491906124d1565b60405160208183030381529060405298505050505050505050919050565b6001600160a01b03918216600090815260056020908152604080832093909416825291909152205460ff1690565b610ba8610c49565b6001600160a01b038116610bd257604051631e4fbdf760e01b815260006004820152602401610477565b610bdb81610ca7565b50565b60006001600160e01b0319821663780e9d6360e01b14806103665750610366826116ff565b6000818152600260205260408120546001600160a01b03168061036657604051637e27328960e01b815260048101849052602401610477565b6106e1838383600161174f565b600a546001600160a01b031633146109b75760405163118cdaa760e01b8152336004820152602401610477565b6000610c83848484611855565b90505b9392505050565b610432828260405180602001604052806000815250611922565b600a80546001600160a01b038381166001600160a01b0319831681179093556040519116919082907f8be0079c531659141344cd1fd0a4f28419497f9722a3daafe3b4186f6b6457e090600090a35050565b6001600160a01b038216610d2b57604051630b61174360e31b81526001600160a01b0383166004820152602401610477565b6001600160a01b03838116600081815260056020908152604080832094871680845294825291829020805460ff191686151590811790915591519182527f17307eab39ab6107e8899845ad3d59bd9653f200f220920489ca2b5937696c31910160405180910390a3505050565b6001600160a01b0383163b156104db57604051630a85bd0160e11b81526001600160a01b0384169063150b7a0290610dda903390889087908790600401612516565b6020604051808303816000875af1925050508015610e15575060408051601f3d908101601f19168201909252610e1291810190612553565b60015b610e7e573d808015610e43576040519150601f19603f3d011682016040523d82523d6000602084013e610e48565b606091505b508051600003610e7657604051633250574960e11b81526001600160a01b0385166004820152602401610477565b805181602001fd5b6001600160e01b03198116630a85bd0160e11b14610eba57604051633250574960e11b81526001600160a01b0385166004820152602401610477565b5050505050565b60606000610ece83611939565b600101905060008167ffffffffffffffff811115610eee57610eee611f22565b6040519080825280601f01601f191660200182016040528015610f18576020820181803683370190505b5090508181016020015b600019016f181899199a1a9b1b9c1cb0b131b232b360811b600a86061a8153600a8504945084610f2257509392505050565b60606003841015610ffd576000610f6d61012c846122bc565b610f78906032612143565b90506000610f8c61012c600886901c6122bc565b610f97906032612143565b90506000610faa6050601087901c6122bc565b610fb5906014612143565b9050610fc083610ec1565b610fc983610ec1565b610fd283610ec1565b604051602001610fe493929190612570565b6040516020818303038152906040529350505050610c86565b60068410156110cb57600061101360fa846122bc565b61101e906032612143565b9050600061103160fa600886901c6122bc565b61103c906032612143565b9050600061104f6064601087901c6122bc565b61105a906032612143565b9050600061106d6064601888901c6122bc565b611078906032612143565b905061108384610ec1565b61108c84610ec1565b61109584610ec1565b61109e84610ec1565b6040516020016110b1949392919061261b565b604051602081830303815290604052945050505050610c86565b60006110d9610190846122bc565b905060006110ed610190600886901c6122bc565b90506000611101610190601087901c6122bc565b90506000611115610190601888901c6122bc565b905061112084610ec1565b61112984610ec1565b61113284610ec1565b61113b84610ec1565b6040516020016110b194939291906126f2565b60606000604051806060016040528060408152602001612822604091399050600060038451600261117f9190612143565b61118991906127e0565b6111949060046127f4565b905060008167ffffffffffffffff8111156111b1576111b1611f22565b6040519080825280601f01601f1916602001820160405280156111db576020820181803683370190505b5090506000805b86516111ef836003612143565b116113f657600087838151811061120857611208612182565b016020015160f81c9050600088611220856001612143565b8151811061123057611230612182565b016020015160f81c9050600089611248866002612143565b8151811061125857611258612182565b0160200151885160f89190911c9150601084901b600884901b178217908990601283901c90811061128b5761128b612182565b01602001516001600160f81b03191687866112a581612169565b9750815181106112b7576112b7612182565b60200101906001600160f81b031916908160001a90535088600c82901c603f16815181106112e7576112e7612182565b01602001516001600160f81b031916878661130181612169565b97508151811061131357611313612182565b60200101906001600160f81b031916908160001a90535088600682901c603f168151811061134357611343612182565b01602001516001600160f81b031916878661135d81612169565b97508151811061136f5761136f612182565b60200101906001600160f81b031916908160001a9053508881603f168151811061139b5761139b612182565b01602001516001600160f81b03191687866113b581612169565b9750815181106113c7576113c7612182565b60200101906001600160f81b031916908160001a905350505050506003826113ef9190612143565b91506111e2565b86518210156116f457600087838151811061141357611413612182565b602091010151885160f882901c925060e89190911c62ff00001690611439856001612143565b10156115c95760008961144d866001612143565b8151811061145d5761145d612182565b602001015160f81c60f81b60f81c60ff169050600881901b8217915087601283901c8151811061148f5761148f612182565b01602001516001600160f81b03191686856114a981612169565b9650815181106114bb576114bb612182565b60200101906001600160f81b031916908160001a90535087600c83901c603f16815181106114eb576114eb612182565b01602001516001600160f81b031916868561150581612169565b96508151811061151757611517612182565b60200101906001600160f81b031916908160001a90535087600683901c603f168151811061154757611547612182565b01602001516001600160f81b031916868561156181612169565b96508151811061157357611573612182565b60200101906001600160f81b031916908160001a905350603d60f81b868561159a81612169565b9650815181106115ac576115ac612182565b60200101906001600160f81b031916908160001a905350506116f1565b86601282901c815181106115df576115df612182565b01602001516001600160f81b03191685846115f981612169565b95508151811061160b5761160b612182565b60200101906001600160f81b031916908160001a90535086600c82901c603f168151811061163b5761163b612182565b01602001516001600160f81b031916858461165581612169565b95508151811061166757611667612182565b60200101906001600160f81b031916908160001a905350603d60f81b858461168e81612169565b9550815181106116a0576116a0612182565b60200101906001600160f81b031916908160001a905350603d60f81b85846116c781612169565b9550815181106116d9576116d9612182565b60200101906001600160f81b031916908160001a9053505b50505b509095945050505050565b60006001600160e01b031982166380ac58cd60e01b148061173057506001600160e01b03198216635b5e139f60e01b145b8061036657506301ffc9a760e01b6001600160e01b0319831614610366565b808061176357506001600160a01b03821615155b1561182557600061177384610c03565b90506001600160a01b0383161580159061179f5750826001600160a01b0316816001600160a01b031614155b80156117b257506117b08184610b72565b155b156117db5760405163a9fbf51f60e01b81526001600160a01b0384166004820152602401610477565b81156118235783856001600160a01b0316826001600160a01b03167f8c5be1e5ebec7d5bd14f71427d1e84f3dd0314c0f7b2291e5b200ac8c7c3b92560405160405180910390a45b505b5050600090815260046020526040902080546001600160a01b0319166001600160a01b0392909216919091179055565b600080611863858585611a11565b90506001600160a01b0381166118c0576118bb84600880546000838152600960205260408120829055600182018355919091527ff3f7a9fe364faab93b216da50a3214154f22a0a2b415b23a84c8169e8b636ee30155565b6118e3565b846001600160a01b0316816001600160a01b0316146118e3576118e38185611b0a565b6001600160a01b0385166118ff576118fa84611b9b565b610c83565b846001600160a01b0316816001600160a01b031614610c8357610c838585611c4a565b61192c8383611c9a565b6106e16000848484610d98565b60008072184f03e93ff9f4daa797ed6e38ed64bf6a1f0160401b83106119785772184f03e93ff9f4daa797ed6e38ed64bf6a1f0160401b830492506040015b6d04ee2d6d415b85acef810000000083106119a4576d04ee2d6d415b85acef8100000000830492506020015b662386f26fc1000083106119c257662386f26fc10000830492506010015b6305f5e10083106119da576305f5e100830492506008015b61271083106119ee57612710830492506004015b60648310611a00576064830492506002015b600a83106103665760010192915050565b6000828152600260205260408120546001600160a01b0390811690831615611a3e57611a3e818486611cff565b6001600160a01b03811615611a7c57611a5b60008560008061174f565b6001600160a01b038116600090815260036020526040902080546000190190555b6001600160a01b03851615611aab576001600160a01b0385166000908152600360205260409020805460010190555b60008481526002602052604080822080546001600160a01b0319166001600160a01b0389811691821790925591518793918516917fddf252ad1be2c89b69c2b068fc378daa952ba7f163c4a11628f55a4df523b3ef91a4949350505050565b6000611b158361095d565b600083815260076020526040902054909150808214611b68576001600160a01b03841660009081526006602090815260408083208584528252808320548484528184208190558352600790915290208190555b5060009182526007602090815260408084208490556001600160a01b039094168352600681528383209183525290812055565b600854600090611bad90600190612156565b60008381526009602052604081205460088054939450909284908110611bd557611bd5612182565b906000526020600020015490508060088381548110611bf657611bf6612182565b6000918252602080832090910192909255828152600990915260408082208490558582528120556008805480611c2e57611c2e61280b565b6001900381819060005260206000200160009055905550505050565b60006001611c578461095d565b611c619190612156565b6001600160a01b039093166000908152600660209081526040808320868452825280832085905593825260079052919091209190915550565b6001600160a01b038216611cc457604051633250574960e11b815260006004820152602401610477565b6000611cd283836000610c76565b90506001600160a01b038116156106e1576040516339e3563760e11b815260006004820152602401610477565b611d0a838383611d63565b6106e1576001600160a01b038316611d3857604051637e27328960e01b815260048101829052602401610477565b60405163177e802f60e01b81526001600160a01b038316600482015260248101829052604401610477565b60006001600160a01b03831615801590610c835750826001600160a01b0316846001600160a01b03161480611d9d5750611d9d8484610b72565b80610c835750506000908152600460205260409020546001600160a01b03908116911614919050565b6001600160e01b031981168114610bdb57600080fd5b600060208284031215611dee57600080fd5b8135610c8681611dc6565b60005b83811015611e14578181015183820152602001611dfc565b50506000910152565b60008151808452611e35816020860160208601611df9565b601f01601f19169290920160200192915050565b602081526000610c866020830184611e1d565b600060208284031215611e6e57600080fd5b5035919050565b80356001600160a01b0381168114611e8c57600080fd5b919050565b60008060408385031215611ea457600080fd5b611ead83611e75565b946020939093013593505050565b80358015158114611e8c57600080fd5b600060208284031215611edd57600080fd5b610c8682611ebb565b600080600060608486031215611efb57600080fd5b611f0484611e75565b9250611f1260208501611e75565b9150604084013590509250925092565b634e487b7160e01b600052604160045260246000fd5b600067ffffffffffffffff80841115611f5357611f53611f22565b604051601f8501601f19908116603f01168101908282118183101715611f7b57611f7b611f22565b81604052809350858152868686011115611f9457600080fd5b858560208301376000602087830101525050509392505050565b600060208284031215611fc057600080fd5b813567ffffffffffffffff811115611fd757600080fd5b8201601f81018413611fe857600080fd5b611ff784823560208401611f38565b949350505050565b60006020828403121561201157600080fd5b610c8682611e75565b6000806040838503121561202d57600080fd5b61203683611e75565b915061204460208401611ebb565b90509250929050565b6000806000806080858703121561206357600080fd5b61206c85611e75565b935061207a60208601611e75565b925060408501359150606085013567ffffffffffffffff81111561209d57600080fd5b8501601f810187136120ae57600080fd5b6120bd87823560208401611f38565b91505092959194509250565b600080604083850312156120dc57600080fd5b6120e583611e75565b915061204460208401611e75565b600181811c9082168061210757607f821691505b60208210810361212757634e487b7160e01b600052602260045260246000fd5b50919050565b634e487b7160e01b600052601160045260246000fd5b808201808211156103665761036661212d565b818103818111156103665761036661212d565b60006001820161217b5761217b61212d565b5060010190565b634e487b7160e01b600052603260045260246000fd5b601f8211156106e157600081815260208120601f850160051c810160208610156121bf5750805b601f850160051c820191505b818110156121de578281556001016121cb565b505050505050565b815167ffffffffffffffff81111561220057612200611f22565b6122148161220e84546120f3565b84612198565b602080601f83116001811461224957600084156122315750858301515b600019600386901b1c1916600185901b1785556121de565b600085815260208120601f198616915b8281101561227857888601518255948401946001909101908401612259565b50858210156122965787850151600019600388901b60f8161c191681555b5050505050600190811b01905550565b634e487b7160e01b600052601260045260246000fd5b6000826122cb576122cb6122a6565b500690565b600081516122e2818560208601611df9565b9290920192915050565b7f3c73766720786d6c6e733d22687474703a2f2f7777772e77332e6f72672f323081527f30302f737667222077696474683d2234303022206865696768743d223430302260208201527f2076696577426f783d223020302034303020343030223e00000000000000000060408201527f3c726563742077696474683d2234303022206865696768743d223430302220666057820152680d2d8d87a44e4cec4560bb1b6077820152600086516123a8816080850160208b01611df9565b8083019050600b60fa1b80608083015287516123cb816081850160208c01611df9565b608192019182015285516123e6816082840160208a01611df9565b6124c46124b261249f61249961248c6124176124116082888a0101631491179f60e11b815260040190565b8c6122d0565b7f3c7465787420783d223230302220793d223230302220666f6e742d66616d696c81527f793d22417269616c2220666f6e742d73697a653d223234222066696c6c3d227760208201527f686974652220746578742d616e63686f723d226d6964646c65223e00000000006040820152605b0190565b602360f81b815260010190565b886122d0565b661e17ba32bc3a1f60c91b815260070190565b651e17b9bb339f60d11b815260060190565b9998505050505050505050565b7f646174613a696d6167652f7376672b786d6c3b6261736536342c00000000000081526000825161250981601a850160208701611df9565b91909101601a0192915050565b6001600160a01b038581168252841660208201526040810183905260806060820181905260009061254990830184611e1d565b9695505050505050565b60006020828403121561256557600080fd5b8151610c8681611dc6565b6b1e31b4b931b6329031bc1e9160a11b8152835160009061259881600c850160208901611df9565b65111031bc9e9160d11b600c9184019182015284516125be816012840160208901611df9565b641110391e9160d91b6012929091019182015283516125e4816017840160208801611df9565b7f222066696c6c3d2272676261283235352c3235352c3235352c302e3329222f3e6017929091019182015260370195945050505050565b681e3932b1ba103c1e9160b91b81528451600090612640816009850160208a01611df9565b6411103c9e9160d91b600991840191820152855161266581600e840160208a01611df9565b6811103bb4b23a341e9160b91b600e9290910191820152845161268f816017840160208901611df9565b6911103432b4b3b43a1e9160b11b6017929091019182015283516126ba816021840160208801611df9565b7f222066696c6c3d2272676261283235352c3235352c3235352c302e3229222f3e602192909101918201526041019695505050505050565b691e3634b732903c189e9160b11b8152845160009061271881600a850160208a01611df9565b6511103c989e9160d11b600a91840191820152855161273e816010840160208a01611df9565b6511103c191e9160d11b601092909101918201528451612765816016840160208901611df9565b6511103c991e9160d11b60169290910191820152835161278c81601c840160208801611df9565b7f22207374726f6b653d2272676261283235352c3235352c3235352c302e342922601c9290910191820152721039ba3937b5b296bbb4b23a341e911911179f60691b603c820152604f019695505050505050565b6000826127ef576127ef6122a6565b500490565b80820281158282048414176103665761036661212d565b634e487b7160e01b600052603160045260246000fdfe4142434445464748494a4b4c4d4e4f505152535455565758595a6162636465666768696a6b6c6d6e6f707172737475767778797a303132333435363738392b2fa2646970667358221220d4577e76d04cdd9fb535f1b905c91bb25c06846f31ac7a065787b61dd0f8ffa364736f6c63430008150033","opcodes":"PUSH1 0x80 PUSH1 0x40 MSTORE CALLVALUE DUP1 ISZERO PUSH3 0x11 JUMPI PUSH1 0x0 DUP1 REVERT JUMPDEST POP PUSH1 0x40 MLOAD PUSH3 0x2CE8 CODESIZE SUB DUP1 PUSH3 0x2CE8 DUP4 CODECOPY DUP2 ADD PUSH1 0x40 DUP2 SWAP1 MSTORE PUSH3 0x34 SWAP2 PUSH3 0x227 JUMP JUMPDEST DUP1 DUP6 DUP6 PUSH1 0x0 PUSH3 0x45 DUP4 DUP3 PUSH3 0x375 JUMP JUMPDEST POP PUSH1 0x1 PUSH3 0x54 DUP3 DUP3 PUSH3 0x375 JUMP JUMPDEST POP POP POP PUSH1 0x1 PUSH1 0x1 PUSH1 0xA0 SHL SUB DUP2 AND PUSH3 0x86 JUMPI PUSH1 0x40 MLOAD PUSH4 0x1E4FBDF7 PUSH1 0xE0 SHL DUP2 MSTORE PUSH1 0x0 PUSH1 0x4 DUP3 ADD MSTORE PUSH1 0x24 ADD PUSH1 0x40 MLOAD DUP1 SWAP2 SUB SWAP1 REVERT JUMPDEST PUSH3 0x91 DUP2 PUSH3 0x110 JUMP JUMPDEST POP PUSH1 0xC PUSH3 0xA0 DUP5 DUP3 PUSH3 0x375 JUMP JUMPDEST POP PUSH1 0xD DUP3 SWAP1 SSTORE PUSH1 0x1 PUSH1 0xB SSTORE PUSH1 0xE DUP1 SLOAD PUSH1 0xFF NOT AND SWAP1 SSTORE PUSH1 0x40 MLOAD PUSH3 0xE9 SWAP1 TIMESTAMP SWAP1 PREVRANDAO SWAP1 CALLER SWAP1 PUSH1 0x20 ADD SWAP3 DUP4 MSTORE PUSH1 0x20 DUP4 ADD SWAP2 SWAP1 SWAP2 MSTORE PUSH1 0x60 SHL PUSH1 0x1 PUSH1 0x1 PUSH1 0x60 SHL SUB NOT AND PUSH1 0x40 DUP3 ADD MSTORE PUSH1 0x54 ADD SWAP1 JUMP JUMPDEST PUSH1 0x40 DUP1 MLOAD PUSH1 0x1F NOT DUP2 DUP5 SUB ADD DUP2 MSTORE SWAP2 SWAP1 MSTORE DUP1 MLOAD PUSH1 0x20 SWAP1 SWAP2 ADD KECCAK256 PUSH1 0xF SSTORE POP PUSH3 0x441 SWAP4 POP POP POP POP JUMP JUMPDEST PUSH1 0xA DUP1 SLOAD PUSH1 0x1 PUSH1 0x1 PUSH1 0xA0 SHL SUB DUP4 DUP2 AND PUSH1 0x1 PUSH1 0x1 PUSH1 0xA0 SHL SUB NOT DUP4 AND DUP2 OR SWAP1 SWAP4 SSTORE PUSH1 0x40 MLOAD SWAP2 AND SWAP2 SWAP1 DUP3 SWAP1 PUSH32 0x8BE0079C531659141344CD1FD0A4F28419497F9722A3DAAFE3B4186F6B6457E0 SWAP1 PUSH1 0x0 SWAP1 LOG3 POP POP JUMP JUMPDEST PUSH4 0x4E487B71 PUSH1 0xE0 SHL PUSH1 0x0 MSTORE PUSH1 0x41 PUSH1 0x4 MSTORE PUSH1 0x24 PUSH1 0x0 REVERT JUMPDEST PUSH1 0x0 DUP3 PUSH1 0x1F DUP4 ADD SLT PUSH3 0x18A JUMPI PUSH1 0x0 DUP1 REVERT JUMPDEST DUP2 MLOAD PUSH1 0x1 PUSH1 0x1 PUSH1 0x40 SHL SUB DUP1 DUP3 GT ISZERO PUSH3 0x1A7 JUMPI PUSH3 0x1A7 PUSH3 0x162 JUMP JUMPDEST PUSH1 0x40 MLOAD PUSH1 0x1F DUP4 ADD PUSH1 0x1F NOT SWAP1 DUP2 AND PUSH1 0x3F ADD AND DUP2 ADD SWAP1 DUP3 DUP3 GT DUP2 DUP4 LT OR ISZERO PUSH3 0x1D2 JUMPI PUSH3 0x1D2 PUSH3 0x162 JUMP JUMPDEST DUP2 PUSH1 0x40 MSTORE DUP4 DUP2 MSTORE PUSH1 0x20 SWAP3 POP DUP7 DUP4 DUP6 DUP9 ADD ADD GT ISZERO PUSH3 0x1EF JUMPI PUSH1 0x0 DUP1 REVERT JUMPDEST PUSH1 0x0 SWAP2 POP JUMPDEST DUP4 DUP3 LT ISZERO PUSH3 0x213 JUMPI DUP6 DUP3 ADD DUP4 ADD MLOAD DUP2 DUP4 ADD DUP5 ADD MSTORE SWAP1 DUP3 ADD SWAP1 PUSH3 0x1F4 JUMP JUMPDEST PUSH1 0x0 SWAP4 DUP2 ADD SWAP1 SWAP3 ADD SWAP3 SWAP1 SWAP3 MSTORE SWAP5 SWAP4 POP POP POP POP JUMP JUMPDEST PUSH1 0x0 DUP1 PUSH1 0x0 DUP1 PUSH1 0x0 PUSH1 0xA0 DUP7 DUP9 SUB SLT ISZERO PUSH3 0x240 JUMPI PUSH1 0x0 DUP1 REVERT JUMPDEST DUP6 MLOAD PUSH1 0x1 PUSH1 0x1 PUSH1 0x40 SHL SUB DUP1 DUP3 GT ISZERO PUSH3 0x258 JUMPI PUSH1 0x0 DUP1 REVERT JUMPDEST PUSH3 0x266 DUP10 DUP4 DUP11 ADD PUSH3 0x178 JUMP JUMPDEST SWAP7 POP PUSH1 0x20 DUP9 ADD MLOAD SWAP2 POP DUP1 DUP3 GT ISZERO PUSH3 0x27D JUMPI PUSH1 0x0 DUP1 REVERT JUMPDEST PUSH3 0x28B DUP10 DUP4 DUP11 ADD PUSH3 0x178 JUMP JUMPDEST SWAP6 POP PUSH1 0x40 DUP9 ADD MLOAD SWAP2 POP DUP1 DUP3 GT ISZERO PUSH3 0x2A2 JUMPI PUSH1 0x0 DUP1 REVERT JUMPDEST POP PUSH3 0x2B1 DUP9 DUP3 DUP10 ADD PUSH3 0x178 JUMP JUMPDEST PUSH1 0x60 DUP9 ADD MLOAD PUSH1 0x80 DUP10 ADD MLOAD SWAP2 SWAP6 POP SWAP4 POP SWAP1 POP PUSH1 0x1 PUSH1 0x1 PUSH1 0xA0 SHL SUB DUP2 AND DUP2 EQ PUSH3 0x2D8 JUMPI PUSH1 0x0 DUP1 REVERT JUMPDEST DUP1 SWAP2 POP POP SWAP3 SWAP6 POP SWAP3 SWAP6 SWAP1 SWAP4 POP JUMP JUMPDEST PUSH1 0x1 DUP2 DUP2 SHR SWAP1 DUP3 AND DUP1 PUSH3 0x2FB JUMPI PUSH1 0x7F DUP3 AND SWAP2 POP JUMPDEST PUSH1 0x20 DUP3 LT DUP2 SUB PUSH3 0x31C JUMPI PUSH4 0x4E487B71 PUSH1 0xE0 SHL PUSH1 0x0 MSTORE PUSH1 0x22 PUSH1 0x4 MSTORE PUSH1 0x24 PUSH1 0x0 REVERT JUMPDEST POP SWAP2 SWAP1 POP JUMP JUMPDEST PUSH1 0x1F DUP3 GT ISZERO PUSH3 0x370 JUMPI PUSH1 0x0 DUP2 DUP2 MSTORE PUSH1 0x20 DUP2 KECCAK256 PUSH1 0x1F DUP6 ADD PUSH1 0x5 SHR DUP2 ADD PUSH1 0x20 DUP7 LT ISZERO PUSH3 0x34B JUMPI POP DUP1 JUMPDEST PUSH1 0x1F DUP6 ADD PUSH1 0x5 SHR DUP3 ADD SWAP2 POP JUMPDEST DUP2 DUP2 LT ISZERO PUSH3 0x36C JUMPI DUP3 DUP2 SSTORE PUSH1 0x1 ADD PUSH3 0x357 JUMP JUMPDEST POP POP POP JUMPDEST POP POP POP JUMP JUMPDEST DUP2 MLOAD PUSH1 0x1 PUSH1 0x1 PUSH1 0x40 SHL SUB DUP2 GT ISZERO PUSH3 0x391 JUMPI PUSH3 0x391 PUSH3 0x162 JUMP JUMPDEST PUSH3 0x3A9 DUP2 PUSH3 0x3A2 DUP5 SLOAD PUSH3 0x2E6 JUMP JUMPDEST DUP5 PUSH3 0x322 JUMP JUMPDEST PUSH1 0x20 DUP1 PUSH1 0x1F DUP4 GT PUSH1 0x1 DUP2 EQ PUSH3 0x3E1 JUMPI PUSH1 0x0 DUP5 ISZERO PUSH3 0x3C8 JUMPI POP DUP6 DUP4 ADD MLOAD JUMPDEST PUSH1 0x0 NOT PUSH1 0x3 DUP7 SWAP1 SHL SHR NOT AND PUSH1 0x1 DUP6 SWAP1 SHL OR DUP6 SSTORE PUSH3 0x36C JUMP JUMPDEST PUSH1 0x0 DUP6 DUP2 MSTORE PUSH1 0x20 DUP2 KECCAK256 PUSH1 0x1F NOT DUP7 AND SWAP2 JUMPDEST DUP3 DUP2 LT ISZERO PUSH3 0x412 JUMPI DUP9 DUP7 ADD MLOAD DUP3 SSTORE SWAP5 DUP5 ADD SWAP5 PUSH1 0x1 SWAP1 SWAP2 ADD SWAP1 DUP5 ADD PUSH3 0x3F1 JUMP JUMPDEST POP DUP6 DUP3 LT ISZERO PUSH3 0x431 JUMPI DUP8 DUP6 ADD MLOAD PUSH1 0x0 NOT PUSH1 0x3 DUP9 SWAP1 SHL PUSH1 0xF8 AND SHR NOT AND DUP2 SSTORE JUMPDEST POP POP POP POP POP PUSH1 0x1 SWAP1 DUP2 SHL ADD SWAP1 SSTORE POP JUMP JUMPDEST PUSH2 0x2897 DUP1 PUSH3 0x451 PUSH1 0x0 CODECOPY PUSH1 0x0 RETURN INVALID PUSH1 0x80 PUSH1 0x40 MSTORE CALLVALUE DUP1 ISZERO PUSH2 0x10 JUMPI PUSH1 0x0 DUP1 REVERT JUMPDEST POP PUSH1 0x4 CALLDATASIZE LT PUSH2 0x173 JUMPI PUSH1 0x0 CALLDATALOAD PUSH1 0xE0 SHR DUP1 PUSH4 0x5C975ABB GT PUSH2 0xDE JUMPI DUP1 PUSH4 0x95D89B41 GT PUSH2 0x97 JUMPI DUP1 PUSH4 0xC87B56DD GT PUSH2 0x71 JUMPI DUP1 PUSH4 0xC87B56DD EQ PUSH2 0x319 JUMPI DUP1 PUSH4 0xD5ABEB01 EQ PUSH2 0x32C JUMPI DUP1 PUSH4 0xE985E9C5 EQ PUSH2 0x335 JUMPI DUP1 PUSH4 0xF2FDE38B EQ PUSH2 0x348 JUMPI PUSH1 0x0 DUP1 REVERT JUMPDEST DUP1 PUSH4 0x95D89B41 EQ PUSH2 0x2EB JUMPI DUP1 PUSH4 0xA22CB465 EQ PUSH2 0x2F3 JUMPI DUP1 PUSH4 0xB88D4FDE EQ PUSH2 0x306 JUMPI PUSH1 0x0 DUP1 REVERT JUMPDEST DUP1 PUSH4 0x5C975ABB EQ PUSH2 0x28C JUMPI DUP1 PUSH4 0x6352211E EQ PUSH2 0x299 JUMPI DUP1 PUSH4 0x6A627842 EQ PUSH2 0x2AC JUMPI DUP1 PUSH4 0x70A08231 EQ PUSH2 0x2BF JUMPI DUP1 PUSH4 0x715018A6 EQ PUSH2 0x2D2 JUMPI DUP1 PUSH4 0x8DA5CB5B EQ PUSH2 0x2DA JUMPI PUSH1 0x0 DUP1 REVERT JUMPDEST DUP1 PUSH4 0x23B872DD GT PUSH2 0x130 JUMPI DUP1 PUSH4 0x23B872DD EQ PUSH2 0x21A JUMPI DUP1 PUSH4 0x248B71FC EQ PUSH2 0x22D JUMPI DUP1 PUSH4 0x2F745C59 EQ PUSH2 0x240 JUMPI DUP1 PUSH4 0x42842E0E EQ PUSH2 0x253 JUMPI DUP1 PUSH4 0x4F6CCCE7 EQ PUSH2 0x266 JUMPI DUP1 PUSH4 0x55F804B3 EQ PUSH2 0x279 JUMPI PUSH1 0x0 DUP1 REVERT JUMPDEST DUP1 PUSH4 0x1FFC9A7 EQ PUSH2 0x178 JUMPI DUP1 PUSH4 0x6FDDE03 EQ PUSH2 0x1A0 JUMPI DUP1 PUSH4 0x81812FC EQ PUSH2 0x1B5 JUMPI DUP1 PUSH4 0x95EA7B3 EQ PUSH2 0x1E0 JUMPI DUP1 PUSH4 0x16C38B3C EQ PUSH2 0x1F5 JUMPI DUP1 PUSH4 0x18160DDD EQ PUSH2 0x208 JUMPI JUMPDEST PUSH1 0x0 DUP1 REVERT JUMPDEST PUSH2 0x18B PUSH2 0x186 CALLDATASIZE PUSH1 0x4 PUSH2 0x1DDC JUMP JUMPDEST PUSH2 0x35B JUMP JUMPDEST PUSH1 0x40 MLOAD SWAP1 ISZERO ISZERO DUP2 MSTORE PUSH1 0x20 ADD JUMPDEST PUSH1 0x40 MLOAD DUP1 SWAP2 SUB SWAP1 RETURN JUMPDEST PUSH2 0x1A8 PUSH2 0x36C JUMP JUMPDEST PUSH1 0x40 MLOAD PUSH2 0x197 SWAP2 SWAP1 PUSH2 0x1E49 JUMP JUMPDEST PUSH2 0x1C8 PUSH2 0x1C3 CALLDATASIZE PUSH1 0x4 PUSH2 0x1E5C JUMP JUMPDEST PUSH2 0x3FE JUMP JUMPDEST PUSH1 0x40 MLOAD PUSH1 0x1 PUSH1 0x1 PUSH1 0xA0 SHL SUB SWAP1 SWAP2 AND DUP2 MSTORE PUSH1 0x20 ADD PUSH2 0x197 JUMP JUMPDEST PUSH2 0x1F3 PUSH2 0x1EE CALLDATASIZE PUSH1 0x4 PUSH2 0x1E91 JUMP JUMPDEST PUSH2 0x427 JUMP JUMPDEST STOP JUMPDEST PUSH2 0x1F3 PUSH2 0x203 CALLDATASIZE PUSH1 0x4 PUSH2 0x1ECB JUMP JUMPDEST PUSH2 0x436 JUMP JUMPDEST PUSH1 0x8 SLOAD JUMPDEST PUSH1 0x40 MLOAD SWAP1 DUP2 MSTORE PUSH1 0x20 ADD PUSH2 0x197 JUMP JUMPDEST PUSH2 0x1F3 PUSH2 0x228 CALLDATASIZE PUSH1 0x4 PUSH2 0x1EE6 JUMP JUMPDEST PUSH2 0x451 JUMP JUMPDEST PUSH2 0x1F3 PUSH2 0x23B CALLDATASIZE PUSH1 0x4 PUSH2 0x1E91 JUMP JUMPDEST PUSH2 0x4E1 JUMP JUMPDEST PUSH2 0x20C PUSH2 0x24E CALLDATASIZE PUSH1 0x4 PUSH2 0x1E91 JUMP JUMPDEST PUSH2 0x6E6 JUMP JUMPDEST PUSH2 0x1F3 PUSH2 0x261 CALLDATASIZE PUSH1 0x4 PUSH2 0x1EE6 JUMP JUMPDEST PUSH2 0x74B JUMP JUMPDEST PUSH2 0x20C PUSH2 0x274 CALLDATASIZE PUSH1 0x4 PUSH2 0x1E5C JUMP JUMPDEST PUSH2 0x766 JUMP JUMPDEST PUSH2 0x1F3 PUSH2 0x287 CALLDATASIZE PUSH1 0x4 PUSH2 0x1FAE JUMP JUMPDEST PUSH2 0x7BF JUMP JUMPDEST PUSH1 0xE SLOAD PUSH2 0x18B SWAP1 PUSH1 0xFF AND DUP2 JUMP JUMPDEST PUSH2 0x1C8 PUSH2 0x2A7 CALLDATASIZE PUSH1 0x4 PUSH2 0x1E5C JUMP JUMPDEST PUSH2 0x7D3 JUMP JUMPDEST PUSH2 0x1F3 PUSH2 0x2BA CALLDATASIZE PUSH1 0x4 PUSH2 0x1FFF JUMP JUMPDEST PUSH2 0x7DE JUMP JUMPDEST PUSH2 0x20C PUSH2 0x2CD CALLDATASIZE PUSH1 0x4 PUSH2 0x1FFF JUMP JUMPDEST PUSH2 0x95D JUMP JUMPDEST PUSH2 0x1F3 PUSH2 0x9A5 JUMP JUMPDEST PUSH1 0xA SLOAD PUSH1 0x1 PUSH1 0x1 PUSH1 0xA0 SHL SUB AND PUSH2 0x1C8 JUMP JUMPDEST PUSH2 0x1A8 PUSH2 0x9B9 JUMP JUMPDEST PUSH2 0x1F3 PUSH2 0x301 CALLDATASIZE PUSH1 0x4 PUSH2 0x201A JUMP JUMPDEST PUSH2 0x9C8 JUMP JUMPDEST PUSH2 0x1F3 PUSH2 0x314 CALLDATASIZE PUSH1 0x4 PUSH2 0x204D JUMP JUMPDEST PUSH2 0x9D3 JUMP JUMPDEST PUSH2 0x1A8 PUSH2 0x327 CALLDATASIZE PUSH1 0x4 PUSH2 0x1E5C JUMP JUMPDEST PUSH2 0x9EA JUMP JUMPDEST PUSH2 0x20C PUSH1 0xD SLOAD DUP2 JUMP JUMPDEST PUSH2 0x18B PUSH2 0x343 CALLDATASIZE PUSH1 0x4 PUSH2 0x20C9 JUMP JUMPDEST PUSH2 0xB72 JUMP JUMPDEST PUSH2 0x1F3 PUSH2 0x356 CALLDATASIZE PUSH1 0x4 PUSH2 0x1FFF JUMP JUMPDEST PUSH2 0xBA0 JUMP JUMPDEST PUSH1 0x0 PUSH2 0x366 DUP3 PUSH2 0xBDE JUMP JUMPDEST SWAP3 SWAP2 POP POP JUMP JUMPDEST PUSH1 0x60 PUSH1 0x0 DUP1 SLOAD PUSH2 0x37B SWAP1 PUSH2 0x20F3 JUMP JUMPDEST DUP1 PUSH1 0x1F ADD PUSH1 0x20 DUP1 SWAP2 DIV MUL PUSH1 0x20 ADD PUSH1 0x40 MLOAD SWAP1 DUP2 ADD PUSH1 0x40 MSTORE DUP1 SWAP3 SWAP2 SWAP1 DUP2 DUP2 MSTORE PUSH1 0x20 ADD DUP3 DUP1 SLOAD PUSH2 0x3A7 SWAP1 PUSH2 0x20F3 JUMP JUMPDEST DUP1 ISZERO PUSH2 0x3F4 JUMPI DUP1 PUSH1 0x1F LT PUSH2 0x3C9 JUMPI PUSH2 0x100 DUP1 DUP4 SLOAD DIV MUL DUP4 MSTORE SWAP2 PUSH1 0x20 ADD SWAP2 PUSH2 0x3F4 JUMP JUMPDEST DUP3 ADD SWAP2 SWAP1 PUSH1 0x0 MSTORE PUSH1 0x20 PUSH1 0x0 KECCAK256 SWAP1 JUMPDEST DUP2 SLOAD DUP2 MSTORE SWAP1 PUSH1 0x1 ADD SWAP1 PUSH1 0x20 ADD DUP1 DUP4 GT PUSH2 0x3D7 JUMPI DUP3 SWAP1 SUB PUSH1 0x1F AND DUP3 ADD SWAP2 JUMPDEST POP POP POP POP POP SWAP1 POP SWAP1 JUMP JUMPDEST PUSH1 0x0 PUSH2 0x409 DUP3 PUSH2 0xC03 JUMP JUMPDEST POP PUSH1 0x0 DUP3 DUP2 MSTORE PUSH1 0x4 PUSH1 0x20 MSTORE PUSH1 0x40 SWAP1 KECCAK256 SLOAD PUSH1 0x1 PUSH1 0x1 PUSH1 0xA0 SHL SUB AND PUSH2 0x366 JUMP JUMPDEST PUSH2 0x432 DUP3 DUP3 CALLER PUSH2 0xC3C JUMP JUMPDEST POP POP JUMP JUMPDEST PUSH2 0x43E PUSH2 0xC49 JUMP JUMPDEST PUSH1 0xE DUP1 SLOAD PUSH1 0xFF NOT AND SWAP2 ISZERO ISZERO SWAP2 SWAP1 SWAP2 OR SWAP1 SSTORE JUMP JUMPDEST PUSH1 0x1 PUSH1 0x1 PUSH1 0xA0 SHL SUB DUP3 AND PUSH2 0x480 JUMPI PUSH1 0x40 MLOAD PUSH4 0x32505749 PUSH1 0xE1 SHL DUP2 MSTORE PUSH1 0x0 PUSH1 0x4 DUP3 ADD MSTORE PUSH1 0x24 ADD JUMPDEST PUSH1 0x40 MLOAD DUP1 SWAP2 SUB SWAP1 REVERT JUMPDEST PUSH1 0x0 PUSH2 0x48D DUP4 DUP4 CALLER PUSH2 0xC76 JUMP JUMPDEST SWAP1 POP DUP4 PUSH1 0x1 PUSH1 0x1 PUSH1 0xA0 SHL SUB AND DUP2 PUSH1 0x1 PUSH1 0x1 PUSH1 0xA0 SHL SUB AND EQ PUSH2 0x4DB JUMPI PUSH1 0x40 MLOAD PUSH4 0x64283D7B PUSH1 0xE0 SHL DUP2 MSTORE PUSH1 0x1 PUSH1 0x1 PUSH1 0xA0 SHL SUB DUP1 DUP7 AND PUSH1 0x4 DUP4 ADD MSTORE PUSH1 0x24 DUP3 ADD DUP5 SWAP1 MSTORE DUP3 AND PUSH1 0x44 DUP3 ADD MSTORE PUSH1 0x64 ADD PUSH2 0x477 JUMP JUMPDEST POP POP POP POP JUMP JUMPDEST PUSH2 0x4E9 PUSH2 0xC49 JUMP JUMPDEST PUSH1 0xE SLOAD PUSH1 0xFF AND ISZERO PUSH2 0x530 JUMPI PUSH1 0x40 MLOAD PUSH3 0x461BCD PUSH1 0xE5 SHL DUP2 MSTORE PUSH1 0x20 PUSH1 0x4 DUP3 ADD MSTORE PUSH1 0x11 PUSH1 0x24 DUP3 ADD MSTORE PUSH17 0x135A5B9D1A5B99C81A5CC81C185D5CD959 PUSH1 0x7A SHL PUSH1 0x44 DUP3 ADD MSTORE PUSH1 0x64 ADD PUSH2 0x477 JUMP JUMPDEST PUSH1 0xD SLOAD PUSH1 0x1 DUP3 PUSH1 0xB SLOAD PUSH2 0x543 SWAP2 SWAP1 PUSH2 0x2143 JUMP JUMPDEST PUSH2 0x54D SWAP2 SWAP1 PUSH2 0x2156 JUMP JUMPDEST GT ISZERO PUSH2 0x590 JUMPI PUSH1 0x40 MLOAD PUSH3 0x461BCD PUSH1 0xE5 SHL DUP2 MSTORE PUSH1 0x20 PUSH1 0x4 DUP3 ADD MSTORE PUSH1 0x12 PUSH1 0x24 DUP3 ADD MSTORE PUSH18 0x45786365656473206D617820737570706C79 PUSH1 0x70 SHL PUSH1 0x44 DUP3 ADD MSTORE PUSH1 0x64 ADD PUSH2 0x477 JUMP JUMPDEST PUSH1 0x1 PUSH1 0x1 PUSH1 0xA0 SHL SUB DUP3 AND PUSH2 0x5E6 JUMPI PUSH1 0x40 MLOAD PUSH3 0x461BCD PUSH1 0xE5 SHL DUP2 MSTORE PUSH1 0x20 PUSH1 0x4 DUP3 ADD MSTORE PUSH1 0x1B PUSH1 0x24 DUP3 ADD MSTORE PUSH32 0x43616E6E6F74206D696E7420746F207A65726F20616464726573730000000000 PUSH1 0x44 DUP3 ADD MSTORE PUSH1 0x64 ADD PUSH2 0x477 JUMP JUMPDEST PUSH1 0x0 DUP2 GT PUSH2 0x636 JUMPI PUSH1 0x40 MLOAD PUSH3 0x461BCD PUSH1 0xE5 SHL DUP2 MSTORE PUSH1 0x20 PUSH1 0x4 DUP3 ADD MSTORE PUSH1 0x1F PUSH1 0x24 DUP3 ADD MSTORE PUSH32 0x5175616E74697479206D7573742062652067726561746572207468616E203000 PUSH1 0x44 DUP3 ADD MSTORE PUSH1 0x64 ADD PUSH2 0x477 JUMP JUMPDEST PUSH1 0x0 JUMPDEST DUP2 DUP2 LT ISZERO PUSH2 0x6E1 JUMPI PUSH1 0xB DUP1 SLOAD SWAP1 DUP2 SWAP1 PUSH1 0x0 PUSH2 0x653 DUP4 PUSH2 0x2169 JUMP JUMPDEST SWAP2 SWAP1 POP SSTORE POP PUSH2 0x662 DUP5 DUP3 PUSH2 0xC8D JUMP JUMPDEST PUSH1 0xF SLOAD PUSH1 0x40 DUP1 MLOAD PUSH1 0x20 DUP2 ADD SWAP3 SWAP1 SWAP3 MSTORE DUP2 ADD DUP3 SWAP1 MSTORE TIMESTAMP PUSH1 0x60 DUP3 ADD MSTORE PUSH1 0x80 ADD PUSH1 0x40 DUP1 MLOAD PUSH1 0x1F NOT DUP2 DUP5 SUB ADD DUP2 MSTORE SWAP1 DUP3 SWAP1 MSTORE DUP1 MLOAD PUSH1 0x20 SWAP1 SWAP2 ADD KECCAK256 PUSH1 0xF SSTORE DUP2 SWAP1 PUSH1 0x1 PUSH1 0x1 PUSH1 0xA0 SHL SUB DUP7 AND SWAP1 PUSH32 0x4CC0A9C4A99DDC700DE1AF2C9F916A7CBFDB71F14801CCFF94061AD1EF8A8040 SWAP1 PUSH1 0x0 SWAP1 LOG3 POP DUP1 PUSH2 0x6D9 DUP2 PUSH2 0x2169 JUMP JUMPDEST SWAP2 POP POP PUSH2 0x639 JUMP JUMPDEST POP POP POP JUMP JUMPDEST PUSH1 0x0 PUSH2 0x6F1 DUP4 PUSH2 0x95D JUMP JUMPDEST DUP3 LT PUSH2 0x722 JUMPI PUSH1 0x40 MLOAD PUSH4 0x295F44F7 PUSH1 0xE2 SHL DUP2 MSTORE PUSH1 0x1 PUSH1 0x1 PUSH1 0xA0 SHL SUB DUP5 AND PUSH1 0x4 DUP3 ADD MSTORE PUSH1 0x24 DUP2 ADD DUP4 SWAP1 MSTORE PUSH1 0x44 ADD PUSH2 0x477 JUMP JUMPDEST POP PUSH1 0x1 PUSH1 0x1 PUSH1 0xA0 SHL SUB SWAP2 SWAP1 SWAP2 AND PUSH1 0x0 SWAP1 DUP2 MSTORE PUSH1 0x6 PUSH1 0x20 SWAP1 DUP2 MSTORE PUSH1 0x40 DUP1 DUP4 KECCAK256 SWAP4 DUP4 MSTORE SWAP3 SWAP1 MSTORE KECCAK256 SLOAD SWAP1 JUMP JUMPDEST PUSH2 0x6E1 DUP4 DUP4 DUP4 PUSH1 0x40 MLOAD DUP1 PUSH1 0x20 ADD PUSH1 0x40 MSTORE DUP1 PUSH1 0x0 DUP2 MSTORE POP PUSH2 0x9D3 JUMP JUMPDEST PUSH1 0x0 PUSH2 0x771 PUSH1 0x8 SLOAD SWAP1 JUMP JUMPDEST DUP3 LT PUSH2 0x79A JUMPI PUSH1 0x40 MLOAD PUSH4 0x295F44F7 PUSH1 0xE2 SHL DUP2 MSTORE PUSH1 0x0 PUSH1 0x4 DUP3 ADD MSTORE PUSH1 0x24 DUP2 ADD DUP4 SWAP1 MSTORE PUSH1 0x44 ADD PUSH2 0x477 JUMP JUMPDEST PUSH1 0x8 DUP3 DUP2 SLOAD DUP2 LT PUSH2 0x7AD JUMPI PUSH2 0x7AD PUSH2 0x2182 JUMP JUMPDEST SWAP1 PUSH1 0x0 MSTORE PUSH1 0x20 PUSH1 0x0 KECCAK256 ADD SLOAD SWAP1 POP SWAP2 SWAP1 POP JUMP JUMPDEST PUSH2 0x7C7 PUSH2 0xC49 JUMP JUMPDEST PUSH1 0xC PUSH2 0x432 DUP3 DUP3 PUSH2 0x21E6 JUMP JUMPDEST PUSH1 0x0 PUSH2 0x366 DUP3 PUSH2 0xC03 JUMP JUMPDEST PUSH2 0x7E6 PUSH2 0xC49 JUMP JUMPDEST PUSH1 0xE SLOAD PUSH1 0xFF AND ISZERO PUSH2 0x82D JUMPI PUSH1 0x40 MLOAD PUSH3 0x461BCD PUSH1 0xE5 SHL DUP2 MSTORE PUSH1 0x20 PUSH1 0x4 DUP3 ADD MSTORE PUSH1 0x11 PUSH1 0x24 DUP3 ADD MSTORE PUSH17 0x135A5B9D1A5B99C81A5CC81C185D5CD959 PUSH1 0x7A SHL PUSH1 0x44 DUP3 ADD MSTORE PUSH1 0x64 ADD PUSH2 0x477 JUMP JUMPDEST PUSH1 0xD SLOAD PUSH1 0xB SLOAD GT ISZERO PUSH2 0x876 JUMPI PUSH1 0x40 MLOAD PUSH3 0x461BCD PUSH1 0xE5 SHL DUP2 MSTORE PUSH1 0x20 PUSH1 0x4 DUP3 ADD MSTORE PUSH1 0x12 PUSH1 0x24 DUP3 ADD MSTORE PUSH18 0x13585E081CDD5C1C1B1E481C995858DA1959 PUSH1 0x72 SHL PUSH1 0x44 DUP3 ADD MSTORE PUSH1 0x64 ADD PUSH2 0x477 JUMP JUMPDEST PUSH1 0x1 PUSH1 0x1 PUSH1 0xA0 SHL SUB DUP2 AND PUSH2 0x8CC JUMPI PUSH1 0x40 MLOAD PUSH3 0x461BCD PUSH1 0xE5 SHL DUP2 MSTORE PUSH1 0x20 PUSH1 0x4 DUP3 ADD MSTORE PUSH1 0x1B PUSH1 0x24 DUP3 ADD MSTORE PUSH32 0x43616E6E6F74206D696E7420746F207A65726F20616464726573730000000000 PUSH1 0x44 DUP3 ADD MSTORE PUSH1 0x64 ADD PUSH2 0x477 JUMP JUMPDEST PUSH1 0xB DUP1 SLOAD SWAP1 DUP2 SWAP1 PUSH1 0x0 PUSH2 0x8DE DUP4 PUSH2 0x2169 JUMP JUMPDEST SWAP2 SWAP1 POP SSTORE POP PUSH2 0x8ED DUP3 DUP3 PUSH2 0xC8D JUMP JUMPDEST PUSH1 0xF SLOAD PUSH1 0x40 DUP1 MLOAD PUSH1 0x20 DUP2 ADD SWAP3 SWAP1 SWAP3 MSTORE DUP2 ADD DUP3 SWAP1 MSTORE TIMESTAMP PUSH1 0x60 DUP3 ADD MSTORE PUSH1 0x80 ADD PUSH1 0x40 DUP1 MLOAD PUSH1 0x1F NOT DUP2 DUP5 SUB ADD DUP2 MSTORE SWAP1 DUP3 SWAP1 MSTORE DUP1 MLOAD PUSH1 0x20 SWAP1 SWAP2 ADD KECCAK256 PUSH1 0xF SSTORE DUP2 SWAP1 PUSH1 0x1 PUSH1 0x1 PUSH1 0xA0 SHL SUB DUP5 AND SWAP1 PUSH32 0x4CC0A9C4A99DDC700DE1AF2C9F916A7CBFDB71F14801CCFF94061AD1EF8A8040 SWAP1 PUSH1 0x0 SWAP1 LOG3 POP POP JUMP JUMPDEST PUSH1 0x0 PUSH1 0x1 PUSH1 0x1 PUSH1 0xA0 SHL SUB DUP3 AND PUSH2 0x989 JUMPI PUSH1 0x40 MLOAD PUSH4 0x22718AD9 PUSH1 0xE2 SHL DUP2 MSTORE PUSH1 0x0 PUSH1 0x4 DUP3 ADD MSTORE PUSH1 0x24 ADD PUSH2 0x477 JUMP JUMPDEST POP PUSH1 0x1 PUSH1 0x1 PUSH1 0xA0 SHL SUB AND PUSH1 0x0 SWAP1 DUP2 MSTORE PUSH1 0x3 PUSH1 0x20 MSTORE PUSH1 0x40 SWAP1 KECCAK256 SLOAD SWAP1 JUMP JUMPDEST PUSH2 0x9AD PUSH2 0xC49 JUMP JUMPDEST PUSH2 0x9B7 PUSH1 0x0 PUSH2 0xCA7 JUMP JUMPDEST JUMP JUMPDEST PUSH1 0x60 PUSH1 0x1 DUP1 SLOAD PUSH2 0x37B SWAP1 PUSH2 0x20F3 JUMP JUMPDEST PUSH2 0x432 CALLER DUP4 DUP4 PUSH2 0xCF9 JUMP JUMPDEST PUSH2 0x9DE DUP5 DUP5 DUP5 PUSH2 0x451 JUMP JUMPDEST PUSH2 0x4DB DUP5 DUP5 DUP5 DUP5 PUSH2 0xD98 JUMP JUMPDEST PUSH1 0x0 DUP2 DUP2 MSTORE PUSH1 0x2 PUSH1 0x20 MSTORE PUSH1 0x40 SWAP1 KECCAK256 SLOAD PUSH1 0x60 SWAP1 PUSH1 0x1 PUSH1 0x1 PUSH1 0xA0 SHL SUB AND PUSH2 0xA48 JUMPI PUSH1 0x40 MLOAD PUSH3 0x461BCD PUSH1 0xE5 SHL DUP2 MSTORE PUSH1 0x20 PUSH1 0x4 DUP3 ADD MSTORE PUSH1 0x14 PUSH1 0x24 DUP3 ADD MSTORE PUSH20 0x151BDAD95B88191BD95CC81B9BDD08195E1A5CDD PUSH1 0x62 SHL PUSH1 0x44 DUP3 ADD MSTORE PUSH1 0x64 ADD PUSH2 0x477 JUMP JUMPDEST PUSH1 0xF SLOAD PUSH1 0x40 DUP1 MLOAD PUSH1 0x20 DUP2 ADD SWAP3 SWAP1 SWAP3 MSTORE DUP2 ADD DUP4 SWAP1 MSTORE TIMESTAMP PUSH1 0x60 DUP3 ADD MSTORE PUSH1 0x0 SWAP1 PUSH1 0x80 ADD PUSH1 0x40 DUP1 MLOAD PUSH1 0x1F NOT DUP2 DUP5 SUB ADD DUP2 MSTORE SWAP2 SWAP1 MSTORE DUP1 MLOAD PUSH1 0x20 SWAP1 SWAP2 ADD KECCAK256 SWAP1 POP PUSH1 0x0 PUSH2 0xA90 PUSH2 0x100 DUP4 PUSH2 0x22BC JUMP JUMPDEST SWAP1 POP PUSH1 0x0 PUSH2 0xAA4 PUSH2 0x100 PUSH1 0x8 DUP6 SWAP1 SHR PUSH2 0x22BC JUMP JUMPDEST SWAP1 POP PUSH1 0x0 PUSH2 0xAB8 PUSH2 0x100 PUSH1 0x10 DUP7 SWAP1 SHR PUSH2 0x22BC JUMP JUMPDEST SWAP1 POP PUSH1 0x0 PUSH2 0xACB PUSH1 0xA PUSH1 0x18 DUP8 SWAP1 SHR PUSH2 0x22BC JUMP JUMPDEST SWAP1 POP PUSH1 0x0 PUSH2 0xADE PUSH1 0x8 PUSH1 0x20 DUP9 SWAP1 SHR PUSH2 0x22BC JUMP JUMPDEST SWAP1 POP PUSH1 0x0 PUSH2 0xAEB DUP7 PUSH2 0xEC1 JUMP JUMPDEST PUSH2 0xAF4 DUP7 PUSH2 0xEC1 JUMP JUMPDEST PUSH2 0xAFD DUP7 PUSH2 0xEC1 JUMP JUMPDEST PUSH2 0xB08 DUP7 DUP7 DUP13 PUSH2 0xF54 JUMP JUMPDEST PUSH2 0xB11 DUP14 PUSH2 0xEC1 JUMP JUMPDEST PUSH1 0x40 MLOAD PUSH1 0x20 ADD PUSH2 0xB25 SWAP6 SWAP5 SWAP4 SWAP3 SWAP2 SWAP1 PUSH2 0x22EC JUMP JUMPDEST PUSH1 0x40 MLOAD PUSH1 0x20 DUP2 DUP4 SUB SUB DUP2 MSTORE SWAP1 PUSH1 0x40 MSTORE SWAP1 POP PUSH1 0x0 PUSH2 0xB41 DUP3 PUSH2 0x114E JUMP JUMPDEST SWAP1 POP DUP1 PUSH1 0x40 MLOAD PUSH1 0x20 ADD PUSH2 0xB54 SWAP2 SWAP1 PUSH2 0x24D1 JUMP JUMPDEST PUSH1 0x40 MLOAD PUSH1 0x20 DUP2 DUP4 SUB SUB DUP2 MSTORE SWAP1 PUSH1 0x40 MSTORE SWAP9 POP POP POP POP POP POP POP POP POP SWAP2 SWAP1 POP JUMP JUMPDEST PUSH1 0x1 PUSH1 0x1 PUSH1 0xA0 SHL SUB SWAP2 DUP3 AND PUSH1 0x0 SWAP1 DUP2 MSTORE PUSH1 0x5 PUSH1 0x20 SWAP1 DUP2 MSTORE PUSH1 0x40 DUP1 DUP4 KECCAK256 SWAP4 SWAP1 SWAP5 AND DUP3 MSTORE SWAP2 SWAP1 SWAP2 MSTORE KECCAK256 SLOAD PUSH1 0xFF AND SWAP1 JUMP JUMPDEST PUSH2 0xBA8 PUSH2 0xC49 JUMP JUMPDEST PUSH1 0x1 PUSH1 0x1 PUSH1 0xA0 SHL SUB DUP2 AND PUSH2 0xBD2 JUMPI PUSH1 0x40 MLOAD PUSH4 0x1E4FBDF7 PUSH1 0xE0 SHL DUP2 MSTORE PUSH1 0x0 PUSH1 0x4 DUP3 ADD MSTORE PUSH1 0x24 ADD PUSH2 0x477 JUMP JUMPDEST PUSH2 0xBDB DUP2 PUSH2 0xCA7 JUMP JUMPDEST POP JUMP JUMPDEST PUSH1 0x0 PUSH1 0x1 PUSH1 0x1 PUSH1 0xE0 SHL SUB NOT DUP3 AND PUSH4 0x780E9D63 PUSH1 0xE0 SHL EQ DUP1 PUSH2 0x366 JUMPI POP PUSH2 0x366 DUP3 PUSH2 0x16FF JUMP JUMPDEST PUSH1 0x0 DUP2 DUP2 MSTORE PUSH1 0x2 PUSH1 0x20 MSTORE PUSH1 0x40 DUP2 KECCAK256 SLOAD PUSH1 0x1 PUSH1 0x1 PUSH1 0xA0 SHL SUB AND DUP1 PUSH2 0x366 JUMPI PUSH1 0x40 MLOAD PUSH4 0x7E273289 PUSH1 0xE0 SHL DUP2 MSTORE PUSH1 0x4 DUP2 ADD DUP5 SWAP1 MSTORE PUSH1 0x24 ADD PUSH2 0x477 JUMP JUMPDEST PUSH2 0x6E1 DUP4 DUP4 DUP4 PUSH1 0x1 PUSH2 0x174F JUMP JUMPDEST PUSH1 0xA SLOAD PUSH1 0x1 PUSH1 0x1 PUSH1 0xA0 SHL SUB AND CALLER EQ PUSH2 0x9B7 JUMPI PUSH1 0x40 MLOAD PUSH4 0x118CDAA7 PUSH1 0xE0 SHL DUP2 MSTORE CALLER PUSH1 0x4 DUP3 ADD MSTORE PUSH1 0x24 ADD PUSH2 0x477 JUMP JUMPDEST PUSH1 0x0 PUSH2 0xC83 DUP5 DUP5 DUP5 PUSH2 0x1855 JUMP JUMPDEST SWAP1 POP JUMPDEST SWAP4 SWAP3 POP POP POP JUMP JUMPDEST PUSH2 0x432 DUP3 DUP3 PUSH1 0x40 MLOAD DUP1 PUSH1 0x20 ADD PUSH1 0x40 MSTORE DUP1 PUSH1 0x0 DUP2 MSTORE POP PUSH2 0x1922 JUMP JUMPDEST PUSH1 0xA DUP1 SLOAD PUSH1 0x1 PUSH1 0x1 PUSH1 0xA0 SHL SUB DUP4 DUP2 AND PUSH1 0x1 PUSH1 0x1 PUSH1 0xA0 SHL SUB NOT DUP4 AND DUP2 OR SWAP1 SWAP4 SSTORE PUSH1 0x40 MLOAD SWAP2 AND SWAP2 SWAP1 DUP3 SWAP1 PUSH32 0x8BE0079C531659141344CD1FD0A4F28419497F9722A3DAAFE3B4186F6B6457E0 SWAP1 PUSH1 0x0 SWAP1 LOG3 POP POP JUMP JUMPDEST PUSH1 0x1 PUSH1 0x1 PUSH1 0xA0 SHL SUB DUP3 AND PUSH2 0xD2B JUMPI PUSH1 0x40 MLOAD PUSH4 0xB611743 PUSH1 0xE3 SHL DUP2 MSTORE PUSH1 0x1 PUSH1 0x1 PUSH1 0xA0 SHL SUB DUP4 AND PUSH1 0x4 DUP3 ADD MSTORE PUSH1 0x24 ADD PUSH2 0x477 JUMP JUMPDEST PUSH1 0x1 PUSH1 0x1 PUSH1 0xA0 SHL SUB DUP4 DUP2 AND PUSH1 0x0 DUP2 DUP2 MSTORE PUSH1 0x5 PUSH1 0x20 SWAP1 DUP2 MSTORE PUSH1 0x40 DUP1 DUP4 KECCAK256 SWAP5 DUP8 AND DUP1 DUP5 MSTORE SWAP5 DUP3 MSTORE SWAP2 DUP3 SWAP1 KECCAK256 DUP1 SLOAD PUSH1 0xFF NOT AND DUP7 ISZERO ISZERO SWAP1 DUP2 OR SWAP1 SWAP2 SSTORE SWAP2 MLOAD SWAP2 DUP3 MSTORE PUSH32 0x17307EAB39AB6107E8899845AD3D59BD9653F200F220920489CA2B5937696C31 SWAP2 ADD PUSH1 0x40 MLOAD DUP1 SWAP2 SUB SWAP1 LOG3 POP POP POP JUMP JUMPDEST PUSH1 0x1 PUSH1 0x1 PUSH1 0xA0 SHL SUB DUP4 AND EXTCODESIZE ISZERO PUSH2 0x4DB JUMPI PUSH1 0x40 MLOAD PUSH4 0xA85BD01 PUSH1 0xE1 SHL DUP2 MSTORE PUSH1 0x1 PUSH1 0x1 PUSH1 0xA0 SHL SUB DUP5 AND SWAP1 PUSH4 0x150B7A02 SWAP1 PUSH2 0xDDA SWAP1 CALLER SWAP1 DUP9 SWAP1 DUP8 SWAP1 DUP8 SWAP1 PUSH1 0x4 ADD PUSH2 0x2516 JUMP JUMPDEST PUSH1 0x20 PUSH1 0x40 MLOAD DUP1 DUP4 SUB DUP2 PUSH1 0x0 DUP8 GAS CALL SWAP3 POP POP POP DUP1 ISZERO PUSH2 0xE15 JUMPI POP PUSH1 0x40 DUP1 MLOAD PUSH1 0x1F RETURNDATASIZE SWAP1 DUP2 ADD PUSH1 0x1F NOT AND DUP3 ADD SWAP1 SWAP3 MSTORE PUSH2 0xE12 SWAP2 DUP2 ADD SWAP1 PUSH2 0x2553 JUMP JUMPDEST PUSH1 0x1 JUMPDEST PUSH2 0xE7E JUMPI RETURNDATASIZE DUP1 DUP1 ISZERO PUSH2 0xE43 JUMPI PUSH1 0x40 MLOAD SWAP2 POP PUSH1 0x1F NOT PUSH1 0x3F RETURNDATASIZE ADD AND DUP3 ADD PUSH1 0x40 MSTORE RETURNDATASIZE DUP3 MSTORE RETURNDATASIZE PUSH1 0x0 PUSH1 0x20 DUP5 ADD RETURNDATACOPY PUSH2 0xE48 JUMP JUMPDEST PUSH1 0x60 SWAP2 POP JUMPDEST POP DUP1 MLOAD PUSH1 0x0 SUB PUSH2 0xE76 JUMPI PUSH1 0x40 MLOAD PUSH4 0x32505749 PUSH1 0xE1 SHL DUP2 MSTORE PUSH1 0x1 PUSH1 0x1 PUSH1 0xA0 SHL SUB DUP6 AND PUSH1 0x4 DUP3 ADD MSTORE PUSH1 0x24 ADD PUSH2 0x477 JUMP JUMPDEST DUP1 MLOAD DUP2 PUSH1 0x20 ADD REVERT JUMPDEST PUSH1 0x1 PUSH1 0x1 PUSH1 0xE0 SHL SUB NOT DUP2 AND PUSH4 0xA85BD01 PUSH1 0xE1 SHL EQ PUSH2 0xEBA JUMPI PUSH1 0x40 MLOAD PUSH4 0x32505749 PUSH1 0xE1 SHL DUP2 MSTORE PUSH1 0x1 PUSH1 0x1 PUSH1 0xA0 SHL SUB DUP6 AND PUSH1 0x4 DUP3 ADD MSTORE PUSH1 0x24 ADD PUSH2 0x477 JUMP JUMPDEST POP POP POP POP POP JUMP JUMPDEST PUSH1 0x60 PUSH1 0x0 PUSH2 0xECE DUP4 PUSH2 0x1939 JUMP JUMPDEST PUSH1 0x1 ADD SWAP1 POP PUSH1 0x0 DUP2 PUSH8 0xFFFFFFFFFFFFFFFF DUP2 GT ISZERO PUSH2 0xEEE JUMPI PUSH2 0xEEE PUSH2 0x1F22 JUMP JUMPDEST PUSH1 0x40 MLOAD SWAP1 DUP1 DUP3 MSTORE DUP1 PUSH1 0x1F ADD PUSH1 0x1F NOT AND PUSH1 0x20 ADD DUP3 ADD PUSH1 0x40 MSTORE DUP1 ISZERO PUSH2 0xF18 JUMPI PUSH1 0x20 DUP3 ADD DUP2 DUP1 CALLDATASIZE DUP4 CALLDATACOPY ADD SWAP1 POP JUMPDEST POP SWAP1 POP DUP2 DUP2 ADD PUSH1 0x20 ADD JUMPDEST PUSH1 0x0 NOT ADD PUSH16 0x181899199A1A9B1B9C1CB0B131B232B3 PUSH1 0x81 SHL PUSH1 0xA DUP7 MOD BYTE DUP2 MSTORE8 PUSH1 0xA DUP6 DIV SWAP5 POP DUP5 PUSH2 0xF22 JUMPI POP SWAP4 SWAP3 POP POP POP JUMP JUMPDEST PUSH1 0x60 PUSH1 0x3 DUP5 LT ISZERO PUSH2 0xFFD JUMPI PUSH1 0x0 PUSH2 0xF6D PUSH2 0x12C DUP5 PUSH2 0x22BC JUMP JUMPDEST PUSH2 0xF78 SWAP1 PUSH1 0x32 PUSH2 0x2143 JUMP JUMPDEST SWAP1 POP PUSH1 0x0 PUSH2 0xF8C PUSH2 0x12C PUSH1 0x8 DUP7 SWAP1 SHR PUSH2 0x22BC JUMP JUMPDEST PUSH2 0xF97 SWAP1 PUSH1 0x32 PUSH2 0x2143 JUMP JUMPDEST SWAP1 POP PUSH1 0x0 PUSH2 0xFAA PUSH1 0x50 PUSH1 0x10 DUP8 SWAP1 SHR PUSH2 0x22BC JUMP JUMPDEST PUSH2 0xFB5 SWAP1 PUSH1 0x14 PUSH2 0x2143 JUMP JUMPDEST SWAP1 POP PUSH2 0xFC0 DUP4 PUSH2 0xEC1 JUMP JUMPDEST PUSH2 0xFC9 DUP4 PUSH2 0xEC1 JUMP JUMPDEST PUSH2 0xFD2 DUP4 PUSH2 0xEC1 JUMP JUMPDEST PUSH1 0x40 MLOAD PUSH1 0x20 ADD PUSH2 0xFE4 SWAP4 SWAP3 SWAP2 SWAP1 PUSH2 0x2570 JUMP JUMPDEST PUSH1 0x40 MLOAD PUSH1 0x20 DUP2 DUP4 SUB SUB DUP2 MSTORE SWAP1 PUSH1 0x40 MSTORE SWAP4 POP POP POP POP PUSH2 0xC86 JUMP JUMPDEST PUSH1 0x6 DUP5 LT ISZERO PUSH2 0x10CB JUMPI PUSH1 0x0 PUSH2 0x1013 PUSH1 0xFA DUP5 PUSH2 0x22BC JUMP JUMPDEST PUSH2 0x101E SWAP1 PUSH1 0x32 PUSH2 0x2143 JUMP JUMPDEST SWAP1 POP PUSH1 0x0 PUSH2 0x1031 PUSH1 0xFA PUSH1 0x8 DUP7 SWAP1 SHR PUSH2 0x22BC JUMP JUMPDEST PUSH2 0x103C SWAP1 PUSH1 0x32 PUSH2 0x2143 JUMP JUMPDEST SWAP1 POP PUSH1 0x0 PUSH2 0x104F PUSH1 0x64 PUSH1 0x10 DUP8 SWAP1 SHR PUSH2 0x22BC JUMP JUMPDEST PUSH2 0x105A SWAP1 PUSH1 0x32 PUSH2 0x2143 JUMP JUMPDEST SWAP1 POP PUSH1 0x0 PUSH2 0x106D PUSH1 0x64 PUSH1 0x18 DUP9 SWAP1 SHR PUSH2 0x22BC JUMP JUMPDEST PUSH2 0x1078 SWAP1 PUSH1 0x32 PUSH2 0x2143 JUMP JUMPDEST SWAP1 POP PUSH2 0x1083 DUP5 PUSH2 0xEC1 JUMP JUMPDEST PUSH2 0x108C DUP5 PUSH2 0xEC1 JUMP JUMPDEST PUSH2 0x1095 DUP5 PUSH2 0xEC1 JUMP JUMPDEST PUSH2 0x109E DUP5 PUSH2 0xEC1 JUMP JUMPDEST PUSH1 0x40 MLOAD PUSH1 0x20 ADD PUSH2 0x10B1 SWAP5 SWAP4 SWAP3 SWAP2 SWAP1 PUSH2 0x261B JUMP JUMPDEST PUSH1 0x40 MLOAD PUSH1 0x20 DUP2 DUP4 SUB SUB DUP2 MSTORE SWAP1 PUSH1 0x40 MSTORE SWAP5 POP POP POP POP POP PUSH2 0xC86 JUMP JUMPDEST PUSH1 0x0 PUSH2 0x10D9 PUSH2 0x190 DUP5 PUSH2 0x22BC JUMP JUMPDEST SWAP1 POP PUSH1 0x0 PUSH2 0x10ED PUSH2 0x190 PUSH1 0x8 DUP7 SWAP1 SHR PUSH2 0x22BC JUMP JUMPDEST SWAP1 POP PUSH1 0x0 PUSH2 0x1101 PUSH2 0x190 PUSH1 0x10 DUP8 SWAP1 SHR PUSH2 0x22BC JUMP JUMPDEST SWAP1 POP PUSH1 0x0 PUSH2 0x1115 PUSH2 0x190 PUSH1 0x18 DUP9 SWAP1 SHR PUSH2 0x22BC JUMP JUMPDEST SWAP1 POP PUSH2 0x1120 DUP5 PUSH2 0xEC1 JUMP JUMPDEST PUSH2 0x1129 DUP5 PUSH2 0xEC1 JUMP JUMPDEST PUSH2 0x1132 DUP5 PUSH2 0xEC1 JUMP JUMPDEST PUSH2 0x113B DUP5 PUSH2 0xEC1 JUMP JUMPDEST PUSH1 0x40 MLOAD PUSH1 0x20 ADD PUSH2 0x10B1 SWAP5 SWAP4 SWAP3 SWAP2 SWAP1 PUSH2 0x26F2 JUMP JUMPDEST PUSH1 0x60 PUSH1 0x0 PUSH1 0x40 MLOAD DUP1 PUSH1 0x60 ADD PUSH1 0x40 MSTORE DUP1 PUSH1 0x40 DUP2 MSTORE PUSH1 0x20 ADD PUSH2 0x2822 PUSH1 0x40 SWAP2 CODECOPY SWAP1 POP PUSH1 0x0 PUSH1 0x3 DUP5 MLOAD PUSH1 0x2 PUSH2 0x117F SWAP2 SWAP1 PUSH2 0x2143 JUMP JUMPDEST PUSH2 0x1189 SWAP2 SWAP1 PUSH2 0x27E0 JUMP JUMPDEST PUSH2 0x1194 SWAP1 PUSH1 0x4 PUSH2 0x27F4 JUMP JUMPDEST SWAP1 POP PUSH1 0x0 DUP2 PUSH8 0xFFFFFFFFFFFFFFFF DUP2 GT ISZERO PUSH2 0x11B1 JUMPI PUSH2 0x11B1 PUSH2 0x1F22 JUMP JUMPDEST PUSH1 0x40 MLOAD SWAP1 DUP1 DUP3 MSTORE DUP1 PUSH1 0x1F ADD PUSH1 0x1F NOT AND PUSH1 0x20 ADD DUP3 ADD PUSH1 0x40 MSTORE DUP1 ISZERO PUSH2 0x11DB JUMPI PUSH1 0x20 DUP3 ADD DUP2 DUP1 CALLDATASIZE DUP4 CALLDATACOPY ADD SWAP1 POP JUMPDEST POP SWAP1 POP PUSH1 0x0 DUP1 JUMPDEST DUP7 MLOAD PUSH2 0x11EF DUP4 PUSH1 0x3 PUSH2 0x2143 JUMP JUMPDEST GT PUSH2 0x13F6 JUMPI PUSH1 0x0 DUP8 DUP4 DUP2 MLOAD DUP2 LT PUSH2 0x1208 JUMPI PUSH2 0x1208 PUSH2 0x2182 JUMP JUMPDEST ADD PUSH1 0x20 ADD MLOAD PUSH1 0xF8 SHR SWAP1 POP PUSH1 0x0 DUP9 PUSH2 0x1220 DUP6 PUSH1 0x1 PUSH2 0x2143 JUMP JUMPDEST DUP2 MLOAD DUP2 LT PUSH2 0x1230 JUMPI PUSH2 0x1230 PUSH2 0x2182 JUMP JUMPDEST ADD PUSH1 0x20 ADD MLOAD PUSH1 0xF8 SHR SWAP1 POP PUSH1 0x0 DUP10 PUSH2 0x1248 DUP7 PUSH1 0x2 PUSH2 0x2143 JUMP JUMPDEST DUP2 MLOAD DUP2 LT PUSH2 0x1258 JUMPI PUSH2 0x1258 PUSH2 0x2182 JUMP JUMPDEST ADD PUSH1 0x20 ADD MLOAD DUP9 MLOAD PUSH1 0xF8 SWAP2 SWAP1 SWAP2 SHR SWAP2 POP PUSH1 0x10 DUP5 SWAP1 SHL PUSH1 0x8 DUP5 SWAP1 SHL OR DUP3 OR SWAP1 DUP10 SWAP1 PUSH1 0x12 DUP4 SWAP1 SHR SWAP1 DUP2 LT PUSH2 0x128B JUMPI PUSH2 0x128B PUSH2 0x2182 JUMP JUMPDEST ADD PUSH1 0x20 ADD MLOAD PUSH1 0x1 PUSH1 0x1 PUSH1 0xF8 SHL SUB NOT AND DUP8 DUP7 PUSH2 0x12A5 DUP2 PUSH2 0x2169 JUMP JUMPDEST SWAP8 POP DUP2 MLOAD DUP2 LT PUSH2 0x12B7 JUMPI PUSH2 0x12B7 PUSH2 0x2182 JUMP JUMPDEST PUSH1 0x20 ADD ADD SWAP1 PUSH1 0x1 PUSH1 0x1 PUSH1 0xF8 SHL SUB NOT AND SWAP1 DUP2 PUSH1 0x0 BYTE SWAP1 MSTORE8 POP DUP9 PUSH1 0xC DUP3 SWAP1 SHR PUSH1 0x3F AND DUP2 MLOAD DUP2 LT PUSH2 0x12E7 JUMPI PUSH2 0x12E7 PUSH2 0x2182 JUMP JUMPDEST ADD PUSH1 0x20 ADD MLOAD PUSH1 0x1 PUSH1 0x1 PUSH1 0xF8 SHL SUB NOT AND DUP8 DUP7 PUSH2 0x1301 DUP2 PUSH2 0x2169 JUMP JUMPDEST SWAP8 POP DUP2 MLOAD DUP2 LT PUSH2 0x1313 JUMPI PUSH2 0x1313 PUSH2 0x2182 JUMP JUMPDEST PUSH1 0x20 ADD ADD SWAP1 PUSH1 0x1 PUSH1 0x1 PUSH1 0xF8 SHL SUB NOT AND SWAP1 DUP2 PUSH1 0x0 BYTE SWAP1 MSTORE8 POP DUP9 PUSH1 0x6 DUP3 SWAP1 SHR PUSH1 0x3F AND DUP2 MLOAD DUP2 LT PUSH2 0x1343 JUMPI PUSH2 0x1343 PUSH2 0x2182 JUMP JUMPDEST ADD PUSH1 0x20 ADD MLOAD PUSH1 0x1 PUSH1 0x1 PUSH1 0xF8 SHL SUB NOT AND DUP8 DUP7 PUSH2 0x135D DUP2 PUSH2 0x2169 JUMP JUMPDEST SWAP8 POP DUP2 MLOAD DUP2 LT PUSH2 0x136F JUMPI PUSH2 0x136F PUSH2 0x2182 JUMP JUMPDEST PUSH1 0x20 ADD ADD SWAP1 PUSH1 0x1 PUSH1 0x1 PUSH1 0xF8 SHL SUB NOT AND SWAP1 DUP2 PUSH1 0x0 BYTE SWAP1 MSTORE8 POP DUP9 DUP2 PUSH1 0x3F AND DUP2 MLOAD DUP2 LT PUSH2 0x139B JUMPI PUSH2 0x139B PUSH2 0x2182 JUMP JUMPDEST ADD PUSH1 0x20 ADD MLOAD PUSH1 0x1 PUSH1 0x1 PUSH1 0xF8 SHL SUB NOT AND DUP8 DUP7 PUSH2 0x13B5 DUP2 PUSH2 0x2169 JUMP JUMPDEST SWAP8 POP DUP2 MLOAD DUP2 LT PUSH2 0x13C7 JUMPI PUSH2 0x13C7 PUSH2 0x2182 JUMP JUMPDEST PUSH1 0x20 ADD ADD SWAP1 PUSH1 0x1 PUSH1 0x1 PUSH1 0xF8 SHL SUB NOT AND SWAP1 DUP2 PUSH1 0x0 BYTE SWAP1 MSTORE8 POP POP POP POP POP PUSH1 0x3 DUP3 PUSH2 0x13EF SWAP2 SWAP1 PUSH2 0x2143 JUMP JUMPDEST SWAP2 POP PUSH2 0x11E2 JUMP JUMPDEST DUP7 MLOAD DUP3 LT ISZERO PUSH2 0x16F4 JUMPI PUSH1 0x0 DUP8 DUP4 DUP2 MLOAD DUP2 LT PUSH2 0x1413 JUMPI PUSH2 0x1413 PUSH2 0x2182 JUMP JUMPDEST PUSH1 0x20 SWAP2 ADD ADD MLOAD DUP9 MLOAD PUSH1 0xF8 DUP3 SWAP1 SHR SWAP3 POP PUSH1 0xE8 SWAP2 SWAP1 SWAP2 SHR PUSH3 0xFF0000 AND SWAP1 PUSH2 0x1439 DUP6 PUSH1 0x1 PUSH2 0x2143 JUMP JUMPDEST LT ISZERO PUSH2 0x15C9 JUMPI PUSH1 0x0 DUP10 PUSH2 0x144D DUP7 PUSH1 0x1 PUSH2 0x2143 JUMP JUMPDEST DUP2 MLOAD DUP2 LT PUSH2 0x145D JUMPI PUSH2 0x145D PUSH2 0x2182 JUMP JUMPDEST PUSH1 0x20 ADD ADD MLOAD PUSH1 0xF8 SHR PUSH1 0xF8 SHL PUSH1 0xF8 SHR PUSH1 0xFF AND SWAP1 POP PUSH1 0x8 DUP2 SWAP1 SHL DUP3 OR SWAP2 POP DUP8 PUSH1 0x12 DUP4 SWAP1 SHR DUP2 MLOAD DUP2 LT PUSH2 0x148F JUMPI PUSH2 0x148F PUSH2 0x2182 JUMP JUMPDEST ADD PUSH1 0x20 ADD MLOAD PUSH1 0x1 PUSH1 0x1 PUSH1 0xF8 SHL SUB NOT AND DUP7 DUP6 PUSH2 0x14A9 DUP2 PUSH2 0x2169 JUMP JUMPDEST SWAP7 POP DUP2 MLOAD DUP2 LT PUSH2 0x14BB JUMPI PUSH2 0x14BB PUSH2 0x2182 JUMP JUMPDEST PUSH1 0x20 ADD ADD SWAP1 PUSH1 0x1 PUSH1 0x1 PUSH1 0xF8 SHL SUB NOT AND SWAP1 DUP2 PUSH1 0x0 BYTE SWAP1 MSTORE8 POP DUP8 PUSH1 0xC DUP4 SWAP1 SHR PUSH1 0x3F AND DUP2 MLOAD DUP2 LT PUSH2 0x14EB JUMPI PUSH2 0x14EB PUSH2 0x2182 JUMP JUMPDEST ADD PUSH1 0x20 ADD MLOAD PUSH1 0x1 PUSH1 0x1 PUSH1 0xF8 SHL SUB NOT AND DUP7 DUP6 PUSH2 0x1505 DUP2 PUSH2 0x2169 JUMP JUMPDEST SWAP7 POP DUP2 MLOAD DUP2 LT PUSH2 0x1517 JUMPI PUSH2 0x1517 PUSH2 0x2182 JUMP JUMPDEST PUSH1 0x20 ADD ADD SWAP1 PUSH1 0x1 PUSH1 0x1 PUSH1 0xF8 SHL SUB NOT AND SWAP1 DUP2 PUSH1 0x0 BYTE SWAP1 MSTORE8 POP DUP8 PUSH1 0x6 DUP4 SWAP1 SHR PUSH1 0x3F AND DUP2 MLOAD DUP2 LT PUSH2 0x1547 JUMPI PUSH2 0x1547 PUSH2 0x2182 JUMP JUMPDEST ADD PUSH1 0x20 ADD MLOAD PUSH1 0x1 PUSH1 0x1 PUSH1 0xF8 SHL SUB NOT AND DUP7 DUP6 PUSH2 0x1561 DUP2 PUSH2 0x2169 JUMP JUMPDEST SWAP7 POP DUP2 MLOAD DUP2 LT PUSH2 0x1573 JUMPI PUSH2 0x1573 PUSH2 0x2182 JUMP JUMPDEST PUSH1 0x20 ADD ADD SWAP1 PUSH1 0x1 PUSH1 0x1 PUSH1 0xF8 SHL SUB NOT AND SWAP1 DUP2 PUSH1 0x0 BYTE SWAP1 MSTORE8 POP PUSH1 0x3D PUSH1 0xF8 SHL DUP7 DUP6 PUSH2 0x159A DUP2 PUSH2 0x2169 JUMP JUMPDEST SWAP7 POP DUP2 MLOAD DUP2 LT PUSH2 0x15AC JUMPI PUSH2 0x15AC PUSH2 0x2182 JUMP JUMPDEST PUSH1 0x20 ADD ADD SWAP1 PUSH1 0x1 PUSH1 0x1 PUSH1 0xF8 SHL SUB NOT AND SWAP1 DUP2 PUSH1 0x0 BYTE SWAP1 MSTORE8 POP POP PUSH2 0x16F1 JUMP JUMPDEST DUP7 PUSH1 0x12 DUP3 SWAP1 SHR DUP2 MLOAD DUP2 LT PUSH2 0x15DF JUMPI PUSH2 0x15DF PUSH2 0x2182 JUMP JUMPDEST ADD PUSH1 0x20 ADD MLOAD PUSH1 0x1 PUSH1 0x1 PUSH1 0xF8 SHL SUB NOT AND DUP6 DUP5 PUSH2 0x15F9 DUP2 PUSH2 0x2169 JUMP JUMPDEST SWAP6 POP DUP2 MLOAD DUP2 LT PUSH2 0x160B JUMPI PUSH2 0x160B PUSH2 0x2182 JUMP JUMPDEST PUSH1 0x20 ADD ADD SWAP1 PUSH1 0x1 PUSH1 0x1 PUSH1 0xF8 SHL SUB NOT AND SWAP1 DUP2 PUSH1 0x0 BYTE SWAP1 MSTORE8 POP DUP7 PUSH1 0xC DUP3 SWAP1 SHR PUSH1 0x3F AND DUP2 MLOAD DUP2 LT PUSH2 0x163B JUMPI PUSH2 0x163B PUSH2 0x2182 JUMP JUMPDEST ADD PUSH1 0x20 ADD MLOAD PUSH1 0x1 PUSH1 0x1 PUSH1 0xF8 SHL SUB NOT AND DUP6 DUP5 PUSH2 0x1655 DUP2 PUSH2 0x2169 JUMP JUMPDEST SWAP6 POP DUP2 MLOAD DUP2 LT PUSH2 0x1667 JUMPI PUSH2 0x1667 PUSH2 0x2182 JUMP JUMPDEST PUSH1 0x20 ADD ADD SWAP1 PUSH1 0x1 PUSH1 0x1 PUSH1 0xF8 SHL SUB NOT AND SWAP1 DUP2 PUSH1 0x0 BYTE SWAP1 MSTORE8 POP PUSH1 0x3D PUSH1 0xF8 SHL DUP6 DUP5 PUSH2 0x168E DUP2 PUSH2 0x2169 JUMP JUMPDEST SWAP6 POP DUP2 MLOAD DUP2 LT PUSH2 0x16A0 JUMPI PUSH2 0x16A0 PUSH2 0x2182 JUMP JUMPDEST PUSH1 0x20 ADD ADD SWAP1 PUSH1 0x1 PUSH1 0x1 PUSH1 0xF8 SHL SUB NOT AND SWAP1 DUP2 PUSH1 0x0 BYTE SWAP1 MSTORE8 POP PUSH1 0x3D PUSH1 0xF8 SHL DUP6 DUP5 PUSH2 0x16C7 DUP2 PUSH2 0x2169 JUMP JUMPDEST SWAP6 POP DUP2 MLOAD DUP2 LT PUSH2 0x16D9 JUMPI PUSH2 0x16D9 PUSH2 0x2182 JUMP JUMPDEST PUSH1 0x20 ADD ADD SWAP1 PUSH1 0x1 PUSH1 0x1 PUSH1 0xF8 SHL SUB NOT AND SWAP1 DUP2 PUSH1 0x0 BYTE SWAP1 MSTORE8 POP JUMPDEST POP POP JUMPDEST POP SWAP1 SWAP6 SWAP5 POP POP POP POP POP JUMP JUMPDEST PUSH1 0x0 PUSH1 0x1 PUSH1 0x1 PUSH1 0xE0 SHL SUB NOT DUP3 AND PUSH4 0x80AC58CD PUSH1 0xE0 SHL EQ DUP1 PUSH2 0x1730 JUMPI POP PUSH1 0x1 PUSH1 0x1 PUSH1 0xE0 SHL SUB NOT DUP3 AND PUSH4 0x5B5E139F PUSH1 0xE0 SHL EQ JUMPDEST DUP1 PUSH2 0x366 JUMPI POP PUSH4 0x1FFC9A7 PUSH1 0xE0 SHL PUSH1 0x1 PUSH1 0x1 PUSH1 0xE0 SHL SUB NOT DUP4 AND EQ PUSH2 0x366 JUMP JUMPDEST DUP1 DUP1 PUSH2 0x1763 JUMPI POP PUSH1 0x1 PUSH1 0x1 PUSH1 0xA0 SHL SUB DUP3 AND ISZERO ISZERO JUMPDEST ISZERO PUSH2 0x1825 JUMPI PUSH1 0x0 PUSH2 0x1773 DUP5 PUSH2 0xC03 JUMP JUMPDEST SWAP1 POP PUSH1 0x1 PUSH1 0x1 PUSH1 0xA0 SHL SUB DUP4 AND ISZERO DUP1 ISZERO SWAP1 PUSH2 0x179F JUMPI POP DUP3 PUSH1 0x1 PUSH1 0x1 PUSH1 0xA0 SHL SUB AND DUP2 PUSH1 0x1 PUSH1 0x1 PUSH1 0xA0 SHL SUB AND EQ ISZERO JUMPDEST DUP1 ISZERO PUSH2 0x17B2 JUMPI POP PUSH2 0x17B0 DUP2 DUP5 PUSH2 0xB72 JUMP JUMPDEST ISZERO JUMPDEST ISZERO PUSH2 0x17DB JUMPI PUSH1 0x40 MLOAD PUSH4 0xA9FBF51F PUSH1 0xE0 SHL DUP2 MSTORE PUSH1 0x1 PUSH1 0x1 PUSH1 0xA0 SHL SUB DUP5 AND PUSH1 0x4 DUP3 ADD MSTORE PUSH1 0x24 ADD PUSH2 0x477 JUMP JUMPDEST DUP2 ISZERO PUSH2 0x1823 JUMPI DUP4 DUP6 PUSH1 0x1 PUSH1 0x1 PUSH1 0xA0 SHL SUB AND DUP3 PUSH1 0x1 PUSH1 0x1 PUSH1 0xA0 SHL SUB AND PUSH32 0x8C5BE1E5EBEC7D5BD14F71427D1E84F3DD0314C0F7B2291E5B200AC8C7C3B925 PUSH1 0x40 MLOAD PUSH1 0x40 MLOAD DUP1 SWAP2 SUB SWAP1 LOG4 JUMPDEST POP JUMPDEST POP POP PUSH1 0x0 SWAP1 DUP2 MSTORE PUSH1 0x4 PUSH1 0x20 MSTORE PUSH1 0x40 SWAP1 KECCAK256 DUP1 SLOAD PUSH1 0x1 PUSH1 0x1 PUSH1 0xA0 SHL SUB NOT AND PUSH1 0x1 PUSH1 0x1 PUSH1 0xA0 SHL SUB SWAP3 SWAP1 SWAP3 AND SWAP2 SWAP1 SWAP2 OR SWAP1 SSTORE JUMP JUMPDEST PUSH1 0x0 DUP1 PUSH2 0x1863 DUP6 DUP6 DUP6 PUSH2 0x1A11 JUMP JUMPDEST SWAP1 POP PUSH1 0x1 PUSH1 0x1 PUSH1 0xA0 SHL SUB DUP2 AND PUSH2 0x18C0 JUMPI PUSH2 0x18BB DUP5 PUSH1 0x8 DUP1 SLOAD PUSH1 0x0 DUP4 DUP2 MSTORE PUSH1 0x9 PUSH1 0x20 MSTORE PUSH1 0x40 DUP2 KECCAK256 DUP3 SWAP1 SSTORE PUSH1 0x1 DUP3 ADD DUP4 SSTORE SWAP2 SWAP1 SWAP2 MSTORE PUSH32 0xF3F7A9FE364FAAB93B216DA50A3214154F22A0A2B415B23A84C8169E8B636EE3 ADD SSTORE JUMP JUMPDEST PUSH2 0x18E3 JUMP JUMPDEST DUP5 PUSH1 0x1 PUSH1 0x1 PUSH1 0xA0 SHL SUB AND DUP2 PUSH1 0x1 PUSH1 0x1 PUSH1 0xA0 SHL SUB AND EQ PUSH2 0x18E3 JUMPI PUSH2 0x18E3 DUP2 DUP6 PUSH2 0x1B0A JUMP JUMPDEST PUSH1 0x1 PUSH1 0x1 PUSH1 0xA0 SHL SUB DUP6 AND PUSH2 0x18FF JUMPI PUSH2 0x18FA DUP5 PUSH2 0x1B9B JUMP JUMPDEST PUSH2 0xC83 JUMP JUMPDEST DUP5 PUSH1 0x1 PUSH1 0x1 PUSH1 0xA0 SHL SUB AND DUP2 PUSH1 0x1 PUSH1 0x1 PUSH1 0xA0 SHL SUB AND EQ PUSH2 0xC83 JUMPI PUSH2 0xC83 DUP6 DUP6 PUSH2 0x1C4A JUMP JUMPDEST PUSH2 0x192C DUP4 DUP4 PUSH2 0x1C9A JUMP JUMPDEST PUSH2 0x6E1 PUSH1 0x0 DUP5 DUP5 DUP5 PUSH2 0xD98 JUMP JUMPDEST PUSH1 0x0 DUP1 PUSH19 0x184F03E93FF9F4DAA797ED6E38ED64BF6A1F01 PUSH1 0x40 SHL DUP4 LT PUSH2 0x1978 JUMPI PUSH19 0x184F03E93FF9F4DAA797ED6E38ED64BF6A1F01 PUSH1 0x40 SHL DUP4 DIV SWAP3 POP PUSH1 0x40 ADD JUMPDEST PUSH14 0x4EE2D6D415B85ACEF8100000000 DUP4 LT PUSH2 0x19A4 JUMPI PUSH14 0x4EE2D6D415B85ACEF8100000000 DUP4 DIV SWAP3 POP PUSH1 0x20 ADD JUMPDEST PUSH7 0x2386F26FC10000 DUP4 LT PUSH2 0x19C2 JUMPI PUSH7 0x2386F26FC10000 DUP4 DIV SWAP3 POP PUSH1 0x10 ADD JUMPDEST PUSH4 0x5F5E100 DUP4 LT PUSH2 0x19DA JUMPI PUSH4 0x5F5E100 DUP4 DIV SWAP3 POP PUSH1 0x8 ADD JUMPDEST PUSH2 0x2710 DUP4 LT PUSH2 0x19EE JUMPI PUSH2 0x2710 DUP4 DIV SWAP3 POP PUSH1 0x4 ADD JUMPDEST PUSH1 0x64 DUP4 LT PUSH2 0x1A00 JUMPI PUSH1 0x64 DUP4 DIV SWAP3 POP PUSH1 0x2 ADD JUMPDEST PUSH1 0xA DUP4 LT PUSH2 0x366 JUMPI PUSH1 0x1 ADD SWAP3 SWAP2 POP POP JUMP JUMPDEST PUSH1 0x0 DUP3 DUP2 MSTORE PUSH1 0x2 PUSH1 0x20 MSTORE PUSH1 0x40 DUP2 KECCAK256 SLOAD PUSH1 0x1 PUSH1 0x1 PUSH1 0xA0 SHL SUB SWAP1 DUP2 AND SWAP1 DUP4 AND ISZERO PUSH2 0x1A3E JUMPI PUSH2 0x1A3E DUP2 DUP5 DUP7 PUSH2 0x1CFF JUMP JUMPDEST PUSH1 0x1 PUSH1 0x1 PUSH1 0xA0 SHL SUB DUP2 AND ISZERO PUSH2 0x1A7C JUMPI PUSH2 0x1A5B PUSH1 0x0 DUP6 PUSH1 0x0 DUP1 PUSH2 0x174F JUMP JUMPDEST PUSH1 0x1 PUSH1 0x1 PUSH1 0xA0 SHL SUB DUP2 AND PUSH1 0x0 SWAP1 DUP2 MSTORE PUSH1 0x3 PUSH1 0x20 MSTORE PUSH1 0x40 SWAP1 KECCAK256 DUP1 SLOAD PUSH1 0x0 NOT ADD SWAP1 SSTORE JUMPDEST PUSH1 0x1 PUSH1 0x1 PUSH1 0xA0 SHL SUB DUP6 AND ISZERO PUSH2 0x1AAB JUMPI PUSH1 0x1 PUSH1 0x1 PUSH1 0xA0 SHL SUB DUP6 AND PUSH1 0x0 SWAP1 DUP2 MSTORE PUSH1 0x3 PUSH1 0x20 MSTORE PUSH1 0x40 SWAP1 KECCAK256 DUP1 SLOAD PUSH1 0x1 ADD SWAP1 SSTORE JUMPDEST PUSH1 0x0 DUP5 DUP2 MSTORE PUSH1 0x2 PUSH1 0x20 MSTORE PUSH1 0x40 DUP1 DUP3 KECCAK256 DUP1 SLOAD PUSH1 0x1 PUSH1 0x1 PUSH1 0xA0 SHL SUB NOT AND PUSH1 0x1 PUSH1 0x1 PUSH1 0xA0 SHL SUB DUP10 DUP2 AND SWAP2 DUP3 OR SWAP1 SWAP3 SSTORE SWAP2 MLOAD DUP8 SWAP4 SWAP2 DUP6 AND SWAP2 PUSH32 0xDDF252AD1BE2C89B69C2B068FC378DAA952BA7F163C4A11628F55A4DF523B3EF SWAP2 LOG4 SWAP5 SWAP4 POP POP POP POP JUMP JUMPDEST PUSH1 0x0 PUSH2 0x1B15 DUP4 PUSH2 0x95D JUMP JUMPDEST PUSH1 0x0 DUP4 DUP2 MSTORE PUSH1 0x7 PUSH1 0x20 MSTORE PUSH1 0x40 SWAP1 KECCAK256 SLOAD SWAP1 SWAP2 POP DUP1 DUP3 EQ PUSH2 0x1B68 JUMPI PUSH1 0x1 PUSH1 0x1 PUSH1 0xA0 SHL SUB DUP5 AND PUSH1 0x0 SWAP1 DUP2 MSTORE PUSH1 0x6 PUSH1 0x20 SWAP1 DUP2 MSTORE PUSH1 0x40 DUP1 DUP4 KECCAK256 DUP6 DUP5 MSTORE DUP3 MSTORE DUP1 DUP4 KECCAK256 SLOAD DUP5 DUP5 MSTORE DUP2 DUP5 KECCAK256 DUP2 SWAP1 SSTORE DUP4 MSTORE PUSH1 0x7 SWAP1 SWAP2 MSTORE SWAP1 KECCAK256 DUP2 SWAP1 SSTORE JUMPDEST POP PUSH1 0x0 SWAP2 DUP3 MSTORE PUSH1 0x7 PUSH1 0x20 SWAP1 DUP2 MSTORE PUSH1 0x40 DUP1 DUP5 KECCAK256 DUP5 SWAP1 SSTORE PUSH1 0x1 PUSH1 0x1 PUSH1 0xA0 SHL SUB SWAP1 SWAP5 AND DUP4 MSTORE PUSH1 0x6 DUP2 MSTORE DUP4 DUP4 KECCAK256 SWAP2 DUP4 MSTORE MSTORE SWAP1 DUP2 KECCAK256 SSTORE JUMP JUMPDEST PUSH1 0x8 SLOAD PUSH1 0x0 SWAP1 PUSH2 0x1BAD SWAP1 PUSH1 0x1 SWAP1 PUSH2 0x2156 JUMP JUMPDEST PUSH1 0x0 DUP4 DUP2 MSTORE PUSH1 0x9 PUSH1 0x20 MSTORE PUSH1 0x40 DUP2 KECCAK256 SLOAD PUSH1 0x8 DUP1 SLOAD SWAP4 SWAP5 POP SWAP1 SWAP3 DUP5 SWAP1 DUP2 LT PUSH2 0x1BD5 JUMPI PUSH2 0x1BD5 PUSH2 0x2182 JUMP JUMPDEST SWAP1 PUSH1 0x0 MSTORE PUSH1 0x20 PUSH1 0x0 KECCAK256 ADD SLOAD SWAP1 POP DUP1 PUSH1 0x8 DUP4 DUP2 SLOAD DUP2 LT PUSH2 0x1BF6 JUMPI PUSH2 0x1BF6 PUSH2 0x2182 JUMP JUMPDEST PUSH1 0x0 SWAP2 DUP3 MSTORE PUSH1 0x20 DUP1 DUP4 KECCAK256 SWAP1 SWAP2 ADD SWAP3 SWAP1 SWAP3 SSTORE DUP3 DUP2 MSTORE PUSH1 0x9 SWAP1 SWAP2 MSTORE PUSH1 0x40 DUP1 DUP3 KECCAK256 DUP5 SWAP1 SSTORE DUP6 DUP3 MSTORE DUP2 KECCAK256 SSTORE PUSH1 0x8 DUP1 SLOAD DUP1 PUSH2 0x1C2E JUMPI PUSH2 0x1C2E PUSH2 0x280B JUMP JUMPDEST PUSH1 0x1 SWAP1 SUB DUP2 DUP2 SWAP1 PUSH1 0x0 MSTORE PUSH1 0x20 PUSH1 0x0 KECCAK256 ADD PUSH1 0x0 SWAP1 SSTORE SWAP1 SSTORE POP POP POP POP JUMP JUMPDEST PUSH1 0x0 PUSH1 0x1 PUSH2 0x1C57 DUP5 PUSH2 0x95D JUMP JUMPDEST PUSH2 0x1C61 SWAP2 SWAP1 PUSH2 0x2156 JUMP JUMPDEST PUSH1 0x1 PUSH1 0x1 PUSH1 0xA0 SHL SUB SWAP1 SWAP4 AND PUSH1 0x0 SWAP1 DUP2 MSTORE PUSH1 0x6 PUSH1 0x20 SWAP1 DUP2 MSTORE PUSH1 0x40 DUP1 DUP4 KECCAK256 DUP7 DUP5 MSTORE DUP3 MSTORE DUP1 DUP4 KECCAK256 DUP6 SWAP1 SSTORE SWAP4 DUP3 MSTORE PUSH1 0x7 SWAP1 MSTORE SWAP2 SWAP1 SWAP2 KECCAK256 SWAP2 SWAP1 SWAP2 SSTORE POP JUMP JUMPDEST PUSH1 0x1 PUSH1 0x1 PUSH1 0xA0 SHL SUB DUP3 AND PUSH2 0x1CC4 JUMPI PUSH1 0x40 MLOAD PUSH4 0x32505749 PUSH1 0xE1 SHL DUP2 MSTORE PUSH1 0x0 PUSH1 0x4 DUP3 ADD MSTORE PUSH1 0x24 ADD PUSH2 0x477 JUMP JUMPDEST PUSH1 0x0 PUSH2 0x1CD2 DUP4 DUP4 PUSH1 0x0 PUSH2 0xC76 JUMP JUMPDEST SWAP1 POP PUSH1 0x1 PUSH1 0x1 PUSH1 0xA0 SHL SUB DUP2 AND ISZERO PUSH2 0x6E1 JUMPI PUSH1 0x40 MLOAD PUSH4 0x39E35637 PUSH1 0xE1 SHL DUP2 MSTORE PUSH1 0x0 PUSH1 0x4 DUP3 ADD MSTORE PUSH1 0x24 ADD PUSH2 0x477 JUMP JUMPDEST PUSH2 0x1D0A DUP4 DUP4 DUP4 PUSH2 0x1D63 JUMP JUMPDEST PUSH2 0x6E1 JUMPI PUSH1 0x1 PUSH1 0x1 PUSH1 0xA0 SHL SUB DUP4 AND PUSH2 0x1D38 JUMPI PUSH1 0x40 MLOAD PUSH4 0x7E273289 PUSH1 0xE0 SHL DUP2 MSTORE PUSH1 0x4 DUP2 ADD DUP3 SWAP1 MSTORE PUSH1 0x24 ADD PUSH2 0x477 JUMP JUMPDEST PUSH1 0x40 MLOAD PUSH4 0x177E802F PUSH1 0xE0 SHL DUP2 MSTORE PUSH1 0x1 PUSH1 0x1 PUSH1 0xA0 SHL SUB DUP4 AND PUSH1 0x4 DUP3 ADD MSTORE PUSH1 0x24 DUP2 ADD DUP3 SWAP1 MSTORE PUSH1 0x44 ADD PUSH2 0x477 JUMP JUMPDEST PUSH1 0x0 PUSH1 0x1 PUSH1 0x1 PUSH1 0xA0 SHL SUB DUP4 AND ISZERO DUP1 ISZERO SWAP1 PUSH2 0xC83 JUMPI POP DUP3 PUSH1 0x1 PUSH1 0x1 PUSH1 0xA0 SHL SUB AND DUP5 PUSH1 0x1 PUSH1 0x1 PUSH1 0xA0 SHL SUB AND EQ DUP1 PUSH2 0x1D9D JUMPI POP PUSH2 0x1D9D DUP5 DUP5 PUSH2 0xB72 JUMP JUMPDEST DUP1 PUSH2 0xC83 JUMPI POP POP PUSH1 0x0 SWAP1 DUP2 MSTORE PUSH1 0x4 PUSH1 0x20 MSTORE PUSH1 0x40 SWAP1 KECCAK256 SLOAD PUSH1 0x1 PUSH1 0x1 PUSH1 0xA0 SHL SUB SWAP1 DUP2 AND SWAP2 AND EQ SWAP2 SWAP1 POP JUMP JUMPDEST PUSH1 0x1 PUSH1 0x1 PUSH1 0xE0 SHL SUB NOT DUP2 AND DUP2 EQ PUSH2 0xBDB JUMPI PUSH1 0x0 DUP1 REVERT JUMPDEST PUSH1 0x0 PUSH1 0x20 DUP3 DUP5 SUB SLT ISZERO PUSH2 0x1DEE JUMPI PUSH1 0x0 DUP1 REVERT JUMPDEST DUP2 CALLDATALOAD PUSH2 0xC86 DUP2 PUSH2 0x1DC6 JUMP JUMPDEST PUSH1 0x0 JUMPDEST DUP4 DUP2 LT ISZERO PUSH2 0x1E14 JUMPI DUP2 DUP2 ADD MLOAD DUP4 DUP3 ADD MSTORE PUSH1 0x20 ADD PUSH2 0x1DFC JUMP JUMPDEST POP POP PUSH1 0x0 SWAP2 ADD MSTORE JUMP JUMPDEST PUSH1 0x0 DUP2 MLOAD DUP1 DUP5 MSTORE PUSH2 0x1E35 DUP2 PUSH1 0x20 DUP7 ADD PUSH1 0x20 DUP7 ADD PUSH2 0x1DF9 JUMP JUMPDEST PUSH1 0x1F ADD PUSH1 0x1F NOT AND SWAP3 SWAP1 SWAP3 ADD PUSH1 0x20 ADD SWAP3 SWAP2 POP POP JUMP JUMPDEST PUSH1 0x20 DUP2 MSTORE PUSH1 0x0 PUSH2 0xC86 PUSH1 0x20 DUP4 ADD DUP5 PUSH2 0x1E1D JUMP JUMPDEST PUSH1 0x0 PUSH1 0x20 DUP3 DUP5 SUB SLT ISZERO PUSH2 0x1E6E JUMPI PUSH1 0x0 DUP1 REVERT JUMPDEST POP CALLDATALOAD SWAP2 SWAP1 POP JUMP JUMPDEST DUP1 CALLDATALOAD PUSH1 0x1 PUSH1 0x1 PUSH1 0xA0 SHL SUB DUP2 AND DUP2 EQ PUSH2 0x1E8C JUMPI PUSH1 0x0 DUP1 REVERT JUMPDEST SWAP2 SWAP1 POP JUMP JUMPDEST PUSH1 0x0 DUP1 PUSH1 0x40 DUP4 DUP6 SUB SLT ISZERO PUSH2 0x1EA4 JUMPI PUSH1 0x0 DUP1 REVERT JUMPDEST PUSH2 0x1EAD DUP4 PUSH2 0x1E75 JUMP JUMPDEST SWAP5 PUSH1 0x20 SWAP4 SWAP1 SWAP4 ADD CALLDATALOAD SWAP4 POP POP POP JUMP JUMPDEST DUP1 CALLDATALOAD DUP1 ISZERO ISZERO DUP2 EQ PUSH2 0x1E8C JUMPI PUSH1 0x0 DUP1 REVERT JUMPDEST PUSH1 0x0 PUSH1 0x20 DUP3 DUP5 SUB SLT ISZERO PUSH2 0x1EDD JUMPI PUSH1 0x0 DUP1 REVERT JUMPDEST PUSH2 0xC86 DUP3 PUSH2 0x1EBB JUMP JUMPDEST PUSH1 0x0 DUP1 PUSH1 0x0 PUSH1 0x60 DUP5 DUP7 SUB SLT ISZERO PUSH2 0x1EFB JUMPI PUSH1 0x0 DUP1 REVERT JUMPDEST PUSH2 0x1F04 DUP5 PUSH2 0x1E75 JUMP JUMPDEST SWAP3 POP PUSH2 0x1F12 PUSH1 0x20 DUP6 ADD PUSH2 0x1E75 JUMP JUMPDEST SWAP2 POP PUSH1 0x40 DUP5 ADD CALLDATALOAD SWAP1 POP SWAP3 POP SWAP3 POP SWAP3 JUMP JUMPDEST PUSH4 0x4E487B71 PUSH1 0xE0 SHL PUSH1 0x0 MSTORE PUSH1 0x41 PUSH1 0x4 MSTORE PUSH1 0x24 PUSH1 0x0 REVERT JUMPDEST PUSH1 0x0 PUSH8 0xFFFFFFFFFFFFFFFF DUP1 DUP5 GT ISZERO PUSH2 0x1F53 JUMPI PUSH2 0x1F53 PUSH2 0x1F22 JUMP JUMPDEST PUSH1 0x40 MLOAD PUSH1 0x1F DUP6 ADD PUSH1 0x1F NOT SWAP1 DUP2 AND PUSH1 0x3F ADD AND DUP2 ADD SWAP1 DUP3 DUP3 GT DUP2 DUP4 LT OR ISZERO PUSH2 0x1F7B JUMPI PUSH2 0x1F7B PUSH2 0x1F22 JUMP JUMPDEST DUP2 PUSH1 0x40 MSTORE DUP1 SWAP4 POP DUP6 DUP2 MSTORE DUP7 DUP7 DUP7 ADD GT ISZERO PUSH2 0x1F94 JUMPI PUSH1 0x0 DUP1 REVERT JUMPDEST DUP6 DUP6 PUSH1 0x20 DUP4 ADD CALLDATACOPY PUSH1 0x0 PUSH1 0x20 DUP8 DUP4 ADD ADD MSTORE POP POP POP SWAP4 SWAP3 POP POP POP JUMP JUMPDEST PUSH1 0x0 PUSH1 0x20 DUP3 DUP5 SUB SLT ISZERO PUSH2 0x1FC0 JUMPI PUSH1 0x0 DUP1 REVERT JUMPDEST DUP2 CALLDATALOAD PUSH8 0xFFFFFFFFFFFFFFFF DUP2 GT ISZERO PUSH2 0x1FD7 JUMPI PUSH1 0x0 DUP1 REVERT JUMPDEST DUP3 ADD PUSH1 0x1F DUP2 ADD DUP5 SGT PUSH2 0x1FE8 JUMPI PUSH1 0x0 DUP1 REVERT JUMPDEST PUSH2 0x1FF7 DUP5 DUP3 CALLDATALOAD PUSH1 0x20 DUP5 ADD PUSH2 0x1F38 JUMP JUMPDEST SWAP5 SWAP4 POP POP POP POP JUMP JUMPDEST PUSH1 0x0 PUSH1 0x20 DUP3 DUP5 SUB SLT ISZERO PUSH2 0x2011 JUMPI PUSH1 0x0 DUP1 REVERT JUMPDEST PUSH2 0xC86 DUP3 PUSH2 0x1E75 JUMP JUMPDEST PUSH1 0x0 DUP1 PUSH1 0x40 DUP4 DUP6 SUB SLT ISZERO PUSH2 0x202D JUMPI PUSH1 0x0 DUP1 REVERT JUMPDEST PUSH2 0x2036 DUP4 PUSH2 0x1E75 JUMP JUMPDEST SWAP2 POP PUSH2 0x2044 PUSH1 0x20 DUP5 ADD PUSH2 0x1EBB JUMP JUMPDEST SWAP1 POP SWAP3 POP SWAP3 SWAP1 POP JUMP JUMPDEST PUSH1 0x0 DUP1 PUSH1 0x0 DUP1 PUSH1 0x80 DUP6 DUP8 SUB SLT ISZERO PUSH2 0x2063 JUMPI PUSH1 0x0 DUP1 REVERT JUMPDEST PUSH2 0x206C DUP6 PUSH2 0x1E75 JUMP JUMPDEST SWAP4 POP PUSH2 0x207A PUSH1 0x20 DUP7 ADD PUSH2 0x1E75 JUMP JUMPDEST SWAP3 POP PUSH1 0x40 DUP6 ADD CALLDATALOAD SWAP2 POP PUSH1 0x60 DUP6 ADD CALLDATALOAD PUSH8 0xFFFFFFFFFFFFFFFF DUP2 GT ISZERO PUSH2 0x209D JUMPI PUSH1 0x0 DUP1 REVERT JUMPDEST DUP6 ADD PUSH1 0x1F DUP2 ADD DUP8 SGT PUSH2 0x20AE JUMPI PUSH1 0x0 DUP1 REVERT JUMPDEST PUSH2 0x20BD DUP8 DUP3 CALLDATALOAD PUSH1 0x20 DUP5 ADD PUSH2 0x1F38 JUMP JUMPDEST SWAP2 POP POP SWAP3 SWAP6 SWAP2 SWAP5 POP SWAP3 POP JUMP JUMPDEST PUSH1 0x0 DUP1 PUSH1 0x40 DUP4 DUP6 SUB SLT ISZERO PUSH2 0x20DC JUMPI PUSH1 0x0 DUP1 REVERT JUMPDEST PUSH2 0x20E5 DUP4 PUSH2 0x1E75 JUMP JUMPDEST SWAP2 POP PUSH2 0x2044 PUSH1 0x20 DUP5 ADD PUSH2 0x1E75 JUMP JUMPDEST PUSH1 0x1 DUP2 DUP2 SHR SWAP1 DUP3 AND DUP1 PUSH2 0x2107 JUMPI PUSH1 0x7F DUP3 AND SWAP2 POP JUMPDEST PUSH1 0x20 DUP3 LT DUP2 SUB PUSH2 0x2127 JUMPI PUSH4 0x4E487B71 PUSH1 0xE0 SHL PUSH1 0x0 MSTORE PUSH1 0x22 PUSH1 0x4 MSTORE PUSH1 0x24 PUSH1 0x0 REVERT JUMPDEST POP SWAP2 SWAP1 POP JUMP JUMPDEST PUSH4 0x4E487B71 PUSH1 0xE0 SHL PUSH1 0x0 MSTORE PUSH1 0x11 PUSH1 0x4 MSTORE PUSH1 0x24 PUSH1 0x0 REVERT JUMPDEST DUP1 DUP3 ADD DUP1 DUP3 GT ISZERO PUSH2 0x366 JUMPI PUSH2 0x366 PUSH2 0x212D JUMP JUMPDEST DUP2 DUP2 SUB DUP2 DUP2 GT ISZERO PUSH2 0x366 JUMPI PUSH2 0x366 PUSH2 0x212D JUMP JUMPDEST PUSH1 0x0 PUSH1 0x1 DUP3 ADD PUSH2 0x217B JUMPI PUSH2 0x217B PUSH2 0x212D JUMP JUMPDEST POP PUSH1 0x1 ADD SWAP1 JUMP JUMPDEST PUSH4 0x4E487B71 PUSH1 0xE0 SHL PUSH1 0x0 MSTORE PUSH1 0x32 PUSH1 0x4 MSTORE PUSH1 0x24 PUSH1 0x0 REVERT JUMPDEST PUSH1 0x1F DUP3 GT ISZERO PUSH2 0x6E1 JUMPI PUSH1 0x0 DUP2 DUP2 MSTORE PUSH1 0x20 DUP2 KECCAK256 PUSH1 0x1F DUP6 ADD PUSH1 0x5 SHR DUP2 ADD PUSH1 0x20 DUP7 LT ISZERO PUSH2 0x21BF JUMPI POP DUP1 JUMPDEST PUSH1 0x1F DUP6 ADD PUSH1 0x5 SHR DUP3 ADD SWAP2 POP JUMPDEST DUP2 DUP2 LT ISZERO PUSH2 0x21DE JUMPI DUP3 DUP2 SSTORE PUSH1 0x1 ADD PUSH2 0x21CB JUMP JUMPDEST POP POP POP POP POP POP JUMP JUMPDEST DUP2 MLOAD PUSH8 0xFFFFFFFFFFFFFFFF DUP2 GT ISZERO PUSH2 0x2200 JUMPI PUSH2 0x2200 PUSH2 0x1F22 JUMP JUMPDEST PUSH2 0x2214 DUP2 PUSH2 0x220E DUP5 SLOAD PUSH2 0x20F3 JUMP JUMPDEST DUP5 PUSH2 0x2198 JUMP JUMPDEST PUSH1 0x20 DUP1 PUSH1 0x1F DUP4 GT PUSH1 0x1 DUP2 EQ PUSH2 0x2249 JUMPI PUSH1 0x0 DUP5 ISZERO PUSH2 0x2231 JUMPI POP DUP6 DUP4 ADD MLOAD JUMPDEST PUSH1 0x0 NOT PUSH1 0x3 DUP7 SWAP1 SHL SHR NOT AND PUSH1 0x1 DUP6 SWAP1 SHL OR DUP6 SSTORE PUSH2 0x21DE JUMP JUMPDEST PUSH1 0x0 DUP6 DUP2 MSTORE PUSH1 0x20 DUP2 KECCAK256 PUSH1 0x1F NOT DUP7 AND SWAP2 JUMPDEST DUP3 DUP2 LT ISZERO PUSH2 0x2278 JUMPI DUP9 DUP7 ADD MLOAD DUP3 SSTORE SWAP5 DUP5 ADD SWAP5 PUSH1 0x1 SWAP1 SWAP2 ADD SWAP1 DUP5 ADD PUSH2 0x2259 JUMP JUMPDEST POP DUP6 DUP3 LT ISZERO PUSH2 0x2296 JUMPI DUP8 DUP6 ADD MLOAD PUSH1 0x0 NOT PUSH1 0x3 DUP9 SWAP1 SHL PUSH1 0xF8 AND SHR NOT AND DUP2 SSTORE JUMPDEST POP POP POP POP POP PUSH1 0x1 SWAP1 DUP2 SHL ADD SWAP1 SSTORE POP JUMP JUMPDEST PUSH4 0x4E487B71 PUSH1 0xE0 SHL PUSH1 0x0 MSTORE PUSH1 0x12 PUSH1 0x4 MSTORE PUSH1 0x24 PUSH1 0x0 REVERT JUMPDEST PUSH1 0x0 DUP3 PUSH2 0x22CB JUMPI PUSH2 0x22CB PUSH2 0x22A6 JUMP JUMPDEST POP MOD SWAP1 JUMP JUMPDEST PUSH1 0x0 DUP2 MLOAD PUSH2 0x22E2 DUP2 DUP6 PUSH1 0x20 DUP7 ADD PUSH2 0x1DF9 JUMP JUMPDEST SWAP3 SWAP1 SWAP3 ADD SWAP3 SWAP2 POP POP JUMP JUMPDEST PUSH32 0x3C73766720786D6C6E733D22687474703A2F2F7777772E77332E6F72672F3230 DUP2 MSTORE PUSH32 0x30302F737667222077696474683D2234303022206865696768743D2234303022 PUSH1 0x20 DUP3 ADD MSTORE PUSH32 0x2076696577426F783D223020302034303020343030223E000000000000000000 PUSH1 0x40 DUP3 ADD MSTORE PUSH32 0x3C726563742077696474683D2234303022206865696768743D22343030222066 PUSH1 0x57 DUP3 ADD MSTORE PUSH9 0xD2D8D87A44E4CEC45 PUSH1 0xBB SHL PUSH1 0x77 DUP3 ADD MSTORE PUSH1 0x0 DUP7 MLOAD PUSH2 0x23A8 DUP2 PUSH1 0x80 DUP6 ADD PUSH1 0x20 DUP12 ADD PUSH2 0x1DF9 JUMP JUMPDEST DUP1 DUP4 ADD SWAP1 POP PUSH1 0xB PUSH1 0xFA SHL DUP1 PUSH1 0x80 DUP4 ADD MSTORE DUP8 MLOAD PUSH2 0x23CB DUP2 PUSH1 0x81 DUP6 ADD PUSH1 0x20 DUP13 ADD PUSH2 0x1DF9 JUMP JUMPDEST PUSH1 0x81 SWAP3 ADD SWAP2 DUP3 ADD MSTORE DUP6 MLOAD PUSH2 0x23E6 DUP2 PUSH1 0x82 DUP5 ADD PUSH1 0x20 DUP11 ADD PUSH2 0x1DF9 JUMP JUMPDEST PUSH2 0x24C4 PUSH2 0x24B2 PUSH2 0x249F PUSH2 0x2499 PUSH2 0x248C PUSH2 0x2417 PUSH2 0x2411 PUSH1 0x82 DUP9 DUP11 ADD ADD PUSH4 0x1491179F PUSH1 0xE1 SHL DUP2 MSTORE PUSH1 0x4 ADD SWAP1 JUMP JUMPDEST DUP13 PUSH2 0x22D0 JUMP JUMPDEST PUSH32 0x3C7465787420783D223230302220793D223230302220666F6E742D66616D696C DUP2 MSTORE PUSH32 0x793D22417269616C2220666F6E742D73697A653D223234222066696C6C3D2277 PUSH1 0x20 DUP3 ADD MSTORE PUSH32 0x686974652220746578742D616E63686F723D226D6964646C65223E0000000000 PUSH1 0x40 DUP3 ADD MSTORE PUSH1 0x5B ADD SWAP1 JUMP JUMPDEST PUSH1 0x23 PUSH1 0xF8 SHL DUP2 MSTORE PUSH1 0x1 ADD SWAP1 JUMP JUMPDEST DUP9 PUSH2 0x22D0 JUMP JUMPDEST PUSH7 0x1E17BA32BC3A1F PUSH1 0xC9 SHL DUP2 MSTORE PUSH1 0x7 ADD SWAP1 JUMP JUMPDEST PUSH6 0x1E17B9BB339F PUSH1 0xD1 SHL DUP2 MSTORE PUSH1 0x6 ADD SWAP1 JUMP JUMPDEST SWAP10 SWAP9 POP POP POP POP POP POP POP POP POP JUMP JUMPDEST PUSH32 0x646174613A696D6167652F7376672B786D6C3B6261736536342C000000000000 DUP2 MSTORE PUSH1 0x0 DUP3 MLOAD PUSH2 0x2509 DUP2 PUSH1 0x1A DUP6 ADD PUSH1 0x20 DUP8 ADD PUSH2 0x1DF9 JUMP JUMPDEST SWAP2 SWAP1 SWAP2 ADD PUSH1 0x1A ADD SWAP3 SWAP2 POP POP JUMP JUMPDEST PUSH1 0x1 PUSH1 0x1 PUSH1 0xA0 SHL SUB DUP6 DUP2 AND DUP3 MSTORE DUP5 AND PUSH1 0x20 DUP3 ADD MSTORE PUSH1 0x40 DUP2 ADD DUP4 SWAP1 MSTORE PUSH1 0x80 PUSH1 0x60 DUP3 ADD DUP2 SWAP1 MSTORE PUSH1 0x0 SWAP1 PUSH2 0x2549 SWAP1 DUP4 ADD DUP5 PUSH2 0x1E1D JUMP JUMPDEST SWAP7 SWAP6 POP POP POP POP POP POP JUMP JUMPDEST PUSH1 0x0 PUSH1 0x20 DUP3 DUP5 SUB SLT ISZERO PUSH2 0x2565 JUMPI PUSH1 0x0 DUP1 REVERT JUMPDEST DUP2 MLOAD PUSH2 0xC86 DUP2 PUSH2 0x1DC6 JUMP JUMPDEST PUSH12 0x1E31B4B931B6329031BC1E91 PUSH1 0xA1 SHL DUP2 MSTORE DUP4 MLOAD PUSH1 0x0 SWAP1 PUSH2 0x2598 DUP2 PUSH1 0xC DUP6 ADD PUSH1 0x20 DUP10 ADD PUSH2 0x1DF9 JUMP JUMPDEST PUSH6 0x111031BC9E91 PUSH1 0xD1 SHL PUSH1 0xC SWAP2 DUP5 ADD SWAP2 DUP3 ADD MSTORE DUP5 MLOAD PUSH2 0x25BE DUP2 PUSH1 0x12 DUP5 ADD PUSH1 0x20 DUP10 ADD PUSH2 0x1DF9 JUMP JUMPDEST PUSH5 0x1110391E91 PUSH1 0xD9 SHL PUSH1 0x12 SWAP3 SWAP1 SWAP2 ADD SWAP2 DUP3 ADD MSTORE DUP4 MLOAD PUSH2 0x25E4 DUP2 PUSH1 0x17 DUP5 ADD PUSH1 0x20 DUP9 ADD PUSH2 0x1DF9 JUMP JUMPDEST PUSH32 0x222066696C6C3D2272676261283235352C3235352C3235352C302E3329222F3E PUSH1 0x17 SWAP3 SWAP1 SWAP2 ADD SWAP2 DUP3 ADD MSTORE PUSH1 0x37 ADD SWAP6 SWAP5 POP POP POP POP POP JUMP JUMPDEST PUSH9 0x1E3932B1BA103C1E91 PUSH1 0xB9 SHL DUP2 MSTORE DUP5 MLOAD PUSH1 0x0 SWAP1 PUSH2 0x2640 DUP2 PUSH1 0x9 DUP6 ADD PUSH1 0x20 DUP11 ADD PUSH2 0x1DF9 JUMP JUMPDEST PUSH5 0x11103C9E91 PUSH1 0xD9 SHL PUSH1 0x9 SWAP2 DUP5 ADD SWAP2 DUP3 ADD MSTORE DUP6 MLOAD PUSH2 0x2665 DUP2 PUSH1 0xE DUP5 ADD PUSH1 0x20 DUP11 ADD PUSH2 0x1DF9 JUMP JUMPDEST PUSH9 0x11103BB4B23A341E91 PUSH1 0xB9 SHL PUSH1 0xE SWAP3 SWAP1 SWAP2 ADD SWAP2 DUP3 ADD MSTORE DUP5 MLOAD PUSH2 0x268F DUP2 PUSH1 0x17 DUP5 ADD PUSH1 0x20 DUP10 ADD PUSH2 0x1DF9 JUMP JUMPDEST PUSH10 0x11103432B4B3B43A1E91 PUSH1 0xB1 SHL PUSH1 0x17 SWAP3 SWAP1 SWAP2 ADD SWAP2 DUP3 ADD MSTORE DUP4 MLOAD PUSH2 0x26BA DUP2 PUSH1 0x21 DUP5 ADD PUSH1 0x20 DUP9 ADD PUSH2 0x1DF9 JUMP JUMPDEST PUSH32 0x222066696C6C3D2272676261283235352C3235352C3235352C302E3229222F3E PUSH1 0x21 SWAP3 SWAP1 SWAP2 ADD SWAP2 DUP3 ADD MSTORE PUSH1 0x41 ADD SWAP7 SWAP6 POP POP POP POP POP POP JUMP JUMPDEST PUSH10 0x1E3634B732903C189E91 PUSH1 0xB1 SHL DUP2 MSTORE DUP5 MLOAD PUSH1 0x0 SWAP1 PUSH2 0x2718 DUP2 PUSH1 0xA DUP6 ADD PUSH1 0x20 DUP11 ADD PUSH2 0x1DF9 JUMP JUMPDEST PUSH6 0x11103C989E91 PUSH1 0xD1 SHL PUSH1 0xA SWAP2 DUP5 ADD SWAP2 DUP3 ADD MSTORE DUP6 MLOAD PUSH2 0x273E DUP2 PUSH1 0x10 DUP5 ADD PUSH1 0x20 DUP11 ADD PUSH2 0x1DF9 JUMP JUMPDEST PUSH6 0x11103C191E91 PUSH1 0xD1 SHL PUSH1 0x10 SWAP3 SWAP1 SWAP2 ADD SWAP2 DUP3 ADD MSTORE DUP5 MLOAD PUSH2 0x2765 DUP2 PUSH1 0x16 DUP5 ADD PUSH1 0x20 DUP10 ADD PUSH2 0x1DF9 JUMP JUMPDEST PUSH6 0x11103C991E91 PUSH1 0xD1 SHL PUSH1 0x16 SWAP3 SWAP1 SWAP2 ADD SWAP2 DUP3 ADD MSTORE DUP4 MLOAD PUSH2 0x278C DUP2 PUSH1 0x1C DUP5 ADD PUSH1 0x20 DUP9 ADD PUSH2 0x1DF9 JUMP JUMPDEST PUSH32 0x22207374726F6B653D2272676261283235352C3235352C3235352C302E342922 PUSH1 0x1C SWAP3 SWAP1 SWAP2 ADD SWAP2 DUP3 ADD MSTORE PUSH19 0x1039BA3937B5B296BBB4B23A341E911911179F PUSH1 0x69 SHL PUSH1 0x3C DUP3 ADD MSTORE PUSH1 0x4F ADD SWAP7 SWAP6 POP POP POP POP POP POP JUMP JUMPDEST PUSH1 0x0 DUP3 PUSH2 0x27EF JUMPI PUSH2 0x27EF PUSH2 0x22A6 JUMP JUMPDEST POP DIV SWAP1 JUMP JUMPDEST DUP1 DUP3 MUL DUP2 ISZERO DUP3 DUP3 DIV DUP5 EQ OR PUSH2 0x366 JUMPI PUSH2 0x366 PUSH2 0x212D JUMP JUMPDEST PUSH4 0x4E487B71 PUSH1 0xE0 SHL PUSH1 0x0 MSTORE PUSH1 0x31 PUSH1 0x4 MSTORE PUSH1 0x24 PUSH1 0x0 REVERT INVALID COINBASE TIMESTAMP NUMBER PREVRANDAO GASLIMIT CHAINID SELFBALANCE BASEFEE 0x49 0x4A 0x4B 0x4C 0x4D 0x4E 0x4F POP MLOAD MSTORE MSTORE8 SLOAD SSTORE JUMP JUMPI PC MSIZE GAS PUSH2 0x6263 PUSH5 0x6566676869 PUSH11 0x6B6C6D6E6F707172737475 PUSH23 0x7778797A303132333435363738392B2FA2646970667358 0x22 SLT KECCAK256 0xD4 JUMPI PUSH31 0x76D04CDD9FB535F1B905C91BB25C06846F31AC7A065787B61DD0F8FFA36473 PUSH16 0x6C634300081500330000000000000000 "},"methodIdentifiers":{"approve(address,uint256)":"095ea7b3","balanceOf(address)":"70a08231","getApproved(uint256)":"081812fc","isApprovedForAll(address,address)":"e985e9c5","maxSupply()":"d5abeb01","mint(address)":"6a627842","mintBatch(address,uint256)":"248b71fc","name()":"06fdde03","owner()":"8da5cb5b","ownerOf(uint256)":"6352211e","paused()":"5c975abb","renounceOwnership()":"715018a6","safeTransferFrom(address,address,uint256)":"42842e0e","safeTransferFrom(address,address,uint256,bytes)":"b88d4fde","setApprovalForAll(address,bool)":"a22cb465","setBaseURI(string)":"55f804b3","setPaused(bool)":"16c38b3c","supportsInterface(bytes4)":"01ffc9a7","symbol()":"95d89b41","tokenByIndex(uint256)":"4f6ccce7","tokenOfOwnerByIndex(address,uint256)":"2f745c59","tokenURI(uint256)":"c87b56dd","totalSupply()":"18160ddd","transferFrom(address,address,uint256)":"23b872dd","transferOwnership(address)":"f2fde38b"}},"storageLayout":{"storage":[{"astId":1438,"contract":"contracts/RandomArtNFT.sol:RandomArtNFT","label":"_name","offset":0,"slot":"0","type":"t_string_storage"},{"astId":1440,"contract":"contracts/RandomArtNFT.sol:RandomArtNFT","label":"_symbol","offset":0,"slot":"1","type":"t_string_storage"},{"astId":1444,"contract":"contracts/RandomArtNFT.sol:RandomArtNFT","label":"_owners","offset":0,"slot":"2","type":"t_mapping(t_uint256,t_address)"},{"astId":1448,"contract":"contracts/RandomArtNFT.sol:RandomArtNFT","label":"_balances","offset":0,"slot":"3","type":"t_mapping(t_address,t_uint256)"},{"astId":1452,"contract":"contracts/RandomArtNFT.sol:RandomArtNFT","label":"_tokenApprovals","offset":0,"slot":"4","type":"t_mapping(t_uint256,t_address)"},{"astId":1458,"contract":"contracts/RandomArtNFT.sol:RandomArtNFT","label":"_operatorApprovals","offset":0,"slot":"5","type":"t_mapping(t_address,t_mapping(t_address,t_bool))"},{"astId":2568,"contract":"contracts/RandomArtNFT.sol:RandomArtNFT","label":"_ownedTokens","offset":0,"slot":"6","type":"t_mapping(t_address,t_mapping(t_uint256,t_uint256))"},{"astId":2572,"contract":"contracts/RandomArtNFT.sol:RandomArtNFT","label":"_ownedTokensIndex","offset":0,"slot":"7","type":"t_mapping(t_uint256,t_uint256)"},{"astId":2575,"contract":"contracts/RandomArtNFT.sol:RandomArtNFT","label":"_allTokens","offset":0,"slot":"8","type":"t_array(t_uint256)dyn_storage"},{"astId":2579,"contract":"contracts/RandomArtNFT.sol:RandomArtNFT","label":"_allTokensIndex","offset":0,"slot":"9","type":"t_mapping(t_uint256,t_uint256)"},{"astId":806,"contract":"contracts/RandomArtNFT.sol:RandomArtNFT","label":"_owner","offset":0,"slot":"10","type":"t_address"},{"astId":6835,"contract":"contracts/RandomArtNFT.sol:RandomArtNFT","label":"_nextTokenId","offset":0,"slot":"11","type":"t_uint256"},{"astId":6837,"contract":"contracts/RandomArtNFT.sol:RandomArtNFT","label":"_baseTokenURI","offset":0,"slot":"12","type":"t_string_storage"},{"astId":6839,"contract":"contracts/RandomArtNFT.sol:RandomArtNFT","label":"maxSupply","offset":0,"slot":"13","type":"t_uint256"},{"astId":6841,"contract":"contracts/RandomArtNFT.sol:RandomArtNFT","label":"paused","offset":0,"slot":"14","type":"t_bool"},{"astId":6843,"contract":"contracts/RandomArtNFT.sol:RandomArtNFT","label":"_seed","offset":0,"slot":"15","type":"t_uint256"}],"types":{"t_address":{"encoding":"inplace","label":"address","numberOfBytes":"20"},"t_array(t_uint256)dyn_storage":{"base":"t_uint256","encoding":"dynamic_array","label":"uint256[]","numberOfBytes":"32"},"t_bool":{"encoding":"inplace","label":"bool","numberOfBytes":"1"},"t_mapping(t_address,t_bool)":{"encoding":"mapping","key":"t_address","label":"mapping(address => bool)","numberOfBytes":"32","value":"t_bool"},"t_mapping(t_address,t_mapping(t_address,t_bool))":{"encoding":"mapping","key":"t_address","label":"mapping(address => mapping(address => bool))","numberOfBytes":"32","value":"t_mapping(t_address,t_bool)"},"t_mapping(t_address,t_mapping(t_uint256,t_uint256))":{"encoding":"mapping","key":"t_address","label":"mapping(address => mapping(uint256 => uint256))","numberOfBytes":"32","value":"t_mapping(t_uint256,t_uint256)"},"t_mapping(t_address,t_uint256)":{"encoding":"mapping","key":"t_address","label":"mapping(address => uint256)","numberOfBytes":"32","value":"t_uint256"},"t_mapping(t_uint256,t_address)":{"encoding":"mapping","key":"t_uint256","label":"mapping(uint256 => address)","numberOfBytes":"32","value":"t_address"},"t_mapping(t_uint256,t_uint256)":{"encoding":"mapping","key":"t_uint256","label":"mapping(uint256 => uint256)","numberOfBytes":"32","value":"t_uint256"},"t_string_storage":{"encoding":"bytes","label":"string","numberOfBytes":"32"},"t_uint256":{"encoding":"inplace","label":"uint256","numberOfBytes":"32"}}}}}}