{"contracts/RandomArtNFT.sol":{"RandomArtNFT":{"abi":[{"inputs":[{"internalType":"string","name":"name","type":"string"},{"internalType":"string","name":"symbol","type":"string"},{"internalType":"string","name":"baseURI","type":"string"},{"internalType":"uint256","name":"_maxSupply","type":"uint256"},{"internalType":"address","name":"initialOwner","type":"address"}],"stateMutability":"nonpayable","type":"constructor"},{"inputs":[],"name":"ERC721EnumerableForbiddenBatchMint","type":"error"},{"inputs":[{"internalType":"address","name":"sender","type":"address"},{"internalType":"uint256","name":"tokenId","type":"uint256"},{"internalType":"address","name":"owner","type":"address"}],"name":"ERC721IncorrectOwner","type":"error"},{"inputs":[{"internalType":"address","name":"operator","type":"address"},{"internalType":"uint256","name":"tokenId","type":"uint256"}],"name":"ERC721InsufficientApproval","type":"error"},{"inputs":[{"internalType":"address","name":"approver","type":"address"}],"name":"ERC721InvalidApprover","type":"error"},{"inputs":[{"internalType":"address","name":"operator","type":"address"}],"name":"ERC721InvalidOperator","type":"error"},{"inputs":[{"internalType":"address","name":"owner","type":"address"}],"name":"ERC721InvalidOwner","type":"error"},{"inputs":[{"internalType":"address","name":"receiver","type":"address"}],"name":"ERC721InvalidReceiver","type":"error"},{"inputs":[{"internalType":"address","name":"sender","type":"address"}],"name":"ERC721InvalidSender","type":"error"},{"inputs":[{"internalType":"uint256","name":"tokenId","type":"uint256"}],"name":"ERC721NonexistentToken","type":"error"},{"inputs":[{"internalType":"address","name":"owner","type":"address"},{"internalType":"uint256","name":"index","type":"uint256"}],"name":"ERC721OutOfBoundsIndex","type":"error"},{"inputs":[{"internalType":"address","name":"owner","type":"address"}],"name":"OwnableInvalidOwner","type":"error"},{"inputs":[{"internalType":"address","name":"account","type":"address"}],"name":"OwnableUnauthorizedAccount","type":"error"},{"anonymous":false,"inputs":[{"indexed":true,"internalType":"address","name":"owner","type":"address"},{"indexed":true,"internalType":"address","name":"approved","type":"address"},{"indexed":true,"internalType":"uint256","name":"tokenId","type":"uint256"}],"name":"Approval","type":"event"},{"anonymous":false,"inputs":[{"indexed":true,"internalType":"address","name":"owner","type":"address"},{"indexed":true,"internalType":"address","name":"operator","type":"address"},{"indexed":false,"internalType":"bool","name":"approved","type":"bool"}],"name":"ApprovalForAll","type":"event"},{"anonymous":false,"inputs":[{"indexed":true,"internalType":"address","name":"to","type":"address"},{"indexed":true,"internalType":"uint256","name":"tokenId","type":"uint256"}],"name":"NFTMinted","type":"event"},{"anonymous":false,"inputs":[{"indexed":true,"internalType":"address","name":"previousOwner","type":"address"},{"indexed":true,"internalType":"address","name":"newOwner","type":"address"}],"name":"OwnershipTransferred","type":"event"},{"anonymous":false,"inputs":[{"indexed":true,"internalType":"address","name":"from","type":"address"},{"indexed":true,"internalType":"address","name":"to","type":"address"},{"indexed":true,"internalType":"uint256","name":"tokenId","type":"uint256"}],"name":"Transfer","type":"event"},{"inputs":[{"internalType":"address","name":"to","type":"address"},{"internalType":"uint256","name":"tokenId","type":"uint256"}],"name":"approve","outputs":[],"stateMutability":"nonpayable","type":"function"},{"inputs":[{"internalType":"address","name":"owner","type":"address"}],"name":"balanceOf","outputs":[{"internalType":"uint256","name":"","type":"uint256"}],"stateMutability":"view","type":"function"},{"inputs":[{"internalType":"uint256","name":"tokenId","type":"uint256"}],"name":"getApproved","outputs":[{"internalType":"address","name":"","type":"address"}],"stateMutability":"view","type":"function"},{"inputs":[{"internalType":"address","name":"owner","type":"address"},{"internalType":"address","name":"operator","type":"address"}],"name":"isApprovedForAll","outputs":[{"internalType":"bool","name":"","type":"bool"}],"stateMutability":"view","type":"function"},{"inputs":[],"name":"maxSupply","outputs":[{"internalType":"uint256","name":"","type":"uint256"}],"stateMutability":"view","type":"function"},{"inputs":[{"internalType":"address","name":"to","type":"address"}],"name":"mint","outputs":[],"stateMutability":"nonpayable","type":"function"},{"inputs":[{"internalType":"address","name":"to","type":"address"},{"internalType":"uint256","name":"quantity","type":"uint256"}],"name":"mintBatch","outputs":[],"stateMutability":"nonpayable","type":"function"},{"inputs":[],"name":"name","outputs":[{"internalType":"string","name":"","type":"string"}],"stateMutability":"view","type":"function"},{"inputs":[],"name":"owner","outputs":[{"internalType":"address","name":"","type":"address"}],"stateMutability":"view","type":"function"},{"inputs":[{"internalType":"uint256","name":"tokenId","type":"uint256"}],"name":"ownerOf","outputs":[{"internalType":"address","name":"","type":"address"}],"stateMutability":"view","type":"function"},{"inputs":[],"name":"paused","outputs":[{"internalType":"bool","name":"","type":"bool"}],"stateMutability":"view","type":"function"},{"inputs":[],"name":"renounceOwnership","outputs":[],"stateMutability":"nonpayable","type":"function"},{"inputs":[{"internalType":"address","name":"from","type":"address"},{"internalType":"address","name":"to","type":"address"},{"internalType":"uint256","name":"tokenId","type":"uint256"}],"name":"safeTransferFrom","outputs":[],"stateMutability":"nonpayable","type":"function"},{"inputs":[{"internalType":"address","name":"from","type":"address"},{"internalType":"address","name":"to","type":"address"},{"internalType":"uint256","name":"tokenId","type":"uint256"},{"internalType":"bytes","name":"data","type":"bytes"}],"name":"safeTransferFrom","outputs":[],"stateMutability":"nonpayable","type":"function"},{"inputs":[{"internalType":"address","name":"operator","type":"address"},{"internalType":"bool","name":"approved","type":"bool"}],"name":"setApprovalForAll","outputs":[],"stateMutability":"nonpayable","type":"function"},{"inputs":[{"internalType":"string","name":"baseURI","type":"string"}],"name":"setBaseURI","outputs":[],"stateMutability":"nonpayable","type":"function"},{"inputs":[{"internalType":"bool","name":"_paused","type":"bool"}],"name":"setPaused","outputs":[],"stateMutability":"nonpayable","type":"function"},{"inputs":[{"internalType":"bytes4","name":"interfaceId","type":"bytes4"}],"name":"supportsInterface","outputs":[{"internalType":"bool","name":"","type":"bool"}],"stateMutability":"view","type":"function"},{"inputs":[],"name":"symbol","outputs":[{"internalType":"string","name":"","type":"string"}],"stateMutability":"view","type":"function"},{"inputs":[{"internalType":"uint256","name":"index","type":"uint256"}],"name":"tokenByIndex","outputs":[{"internalType":"uint256","name":"","type":"uint256"}],"stateMutability":"view","type":"function"},{"inputs":[{"internalType":"address","name":"owner","type":"address"},{"internalType":"uint256","name":"index","type":"uint256"}],"name":"tokenOfOwnerByIndex","outputs":[{"internalType":"uint256","name":"","type":"uint256"}],"stateMutability":"view","type":"function"},{"inputs":[{"internalType":"uint256","name":"tokenId","type":"uint256"}],"name":"tokenURI","outputs":[{"internalType":"string","name":"","type":"string"}],"stateMutability":"view","type":"function"},{"inputs":[],"name":"totalSupply","outputs":[{"internalType":"uint256","name":"","type":"uint256"}],"stateMutability":"view","type":"function"},{"inputs":[{"internalType":"address","name":"from","type":"address"},{"internalType":"address","name":"to","type":"address"},{"internalType":"uint256","name":"tokenId","type":"uint256"}],"name":"transferFrom","outputs":[],"stateMutability":"nonpayable","type":"function"},{"inputs":[{"internalType":"address","name":"newOwner","type":"address"}],"name":"transferOwnership","outputs":[],"stateMutability":"nonpayable","type":"function"}],"evm":{"bytecode":{"linkReferences":{},"object":"60806040523480156200001157600080fd5b5060405162002cd438038062002cd4833981016040819052620000349162000227565b808585600062000045838262000375565b50600162000054828262000375565b5050506001600160a01b0381166200008657604051631e4fbdf760e01b81526000600482015260240160405180910390fd5b620000918162000110565b50600c620000a0848262000375565b50600d8290556001600b55600e805460ff19169055604051620000e990429044903390602001928352602083019190915260601b6001600160601b031916604082015260540190565b60408051601f198184030181529190528051602090910120600f5550620004419350505050565b600a80546001600160a01b038381166001600160a01b0319831681179093556040519116919082907f8be0079c531659141344cd1fd0a4f28419497f9722a3daafe3b4186f6b6457e090600090a35050565b634e487b7160e01b600052604160045260246000fd5b600082601f8301126200018a57600080fd5b81516001600160401b0380821115620001a757620001a762000162565b604051601f8301601f19908116603f01168101908282118183101715620001d257620001d262000162565b81604052838152602092508683858801011115620001ef57600080fd5b600091505b83821015620002135785820183015181830184015290820190620001f4565b600093810190920192909252949350505050565b600080600080600060a086880312156200024057600080fd5b85516001600160401b03808211156200025857600080fd5b6200026689838a0162000178565b965060208801519150808211156200027d57600080fd5b6200028b89838a0162000178565b95506040880151915080821115620002a257600080fd5b50620002b18882890162000178565b60608801516080890151919550935090506001600160a01b0381168114620002d857600080fd5b809150509295509295909350565b600181811c90821680620002fb57607f821691505b6020821081036200031c57634e487b7160e01b600052602260045260246000fd5b50919050565b601f8211156200037057600081815260208120601f850160051c810160208610156200034b5750805b601f850160051c820191505b818110156200036c5782815560010162000357565b5050505b505050565b81516001600160401b0381111562000391576200039162000162565b620003a981620003a28454620002e6565b8462000322565b602080601f831160018114620003e15760008415620003c85750858301515b600019600386901b1c1916600185901b1785556200036c565b600085815260208120601f198616915b828110156200041257888601518255948401946001909101908401620003f1565b5085821015620004315787850151600019600388901b60f8161c191681555b5050505050600190811b01905550565b61288380620004516000396000f3fe608060405234801561001057600080fd5b50600436106101735760003560e01c80635c975abb116100de57806395d89b4111610097578063c87b56dd11610071578063c87b56dd14610319578063d5abeb011461032c578063e985e9c514610335578063f2fde38b1461034857600080fd5b806395d89b41146102eb578063a22cb465146102f3578063b88d4fde1461030657600080fd5b80635c975abb1461028c5780636352211e146102995780636a627842146102ac57806370a08231146102bf578063715018a6146102d25780638da5cb5b146102da57600080fd5b806323b872dd1161013057806323b872dd1461021a578063248b71fc1461022d5780632f745c591461024057806342842e0e146102535780634f6ccce71461026657806355f804b31461027957600080fd5b806301ffc9a71461017857806306fdde03146101a0578063081812fc146101b5578063095ea7b3146101e057806316c38b3c146101f557806318160ddd14610208575b600080fd5b61018b610186366004611dd0565b61035b565b60405190151581526020015b60405180910390f35b6101a861036c565b6040516101979190611e3d565b6101c86101c3366004611e50565b6103fe565b6040516001600160a01b039091168152602001610197565b6101f36101ee366004611e85565b610427565b005b6101f3610203366004611ebf565b610436565b6008545b604051908152602001610197565b6101f3610228366004611eda565b610451565b6101f361023b366004611e85565b6104e1565b61020c61024e366004611e85565b6106e6565b6101f3610261366004611eda565b61074b565b61020c610274366004611e50565b610766565b6101f3610287366004611fa2565b6107bf565b600e5461018b9060ff1681565b6101c86102a7366004611e50565b6107d3565b6101f36102ba366004611ff3565b6107de565b61020c6102cd366004611ff3565b61095d565b6101f36109a5565b600a546001600160a01b03166101c8565b6101a86109b9565b6101f361030136600461200e565b6109c8565b6101f3610314366004612041565b6109d3565b6101a8610327366004611e50565b6109eb565b61020c600d5481565b61018b6103433660046120bd565b610b73565b6101f3610356366004611ff3565b610ba1565b600061036682610bdf565b92915050565b60606000805461037b906120e7565b80601f01602080910402602001604051908101604052809291908181526020018280546103a7906120e7565b80156103f45780601f106103c9576101008083540402835291602001916103f4565b820191906000526020600020905b8154815290600101906020018083116103d757829003601f168201915b5050505050905090565b600061040982610c04565b506000828152600460205260409020546001600160a01b0316610366565b610432828233610c3d565b5050565b61043e610c4a565b600e805460ff1916911515919091179055565b6001600160a01b03821661048057604051633250574960e11b8152600060048201526024015b60405180910390fd5b600061048d838333610c77565b9050836001600160a01b0316816001600160a01b0316146104db576040516364283d7b60e01b81526001600160a01b0380861660048301526024820184905282166044820152606401610477565b50505050565b6104e9610c4a565b600e5460ff16156105305760405162461bcd60e51b8152602060048201526011602482015270135a5b9d1a5b99c81a5cc81c185d5cd959607a1b6044820152606401610477565b600d54600182600b546105439190612137565b61054d919061214a565b11156105905760405162461bcd60e51b815260206004820152601260248201527145786365656473206d617820737570706c7960701b6044820152606401610477565b6001600160a01b0382166105e65760405162461bcd60e51b815260206004820152601b60248201527f43616e6e6f74206d696e7420746f207a65726f206164647265737300000000006044820152606401610477565b600081116106365760405162461bcd60e51b815260206004820152601f60248201527f5175616e74697479206d7573742062652067726561746572207468616e2030006044820152606401610477565b60005b818110156106e157600b805490819060006106538361215d565b91905055506106628482610c8e565b600f54604080516020810192909252810182905242606082015260800160408051601f19818403018152908290528051602090910120600f5581906001600160a01b038616907f4cc0a9c4a99ddc700de1af2c9f916a7cbfdb71f14801ccff94061ad1ef8a804090600090a350806106d98161215d565b915050610639565b505050565b60006106f18361095d565b82106107225760405163295f44f760e21b81526001600160a01b038416600482015260248101839052604401610477565b506001600160a01b03919091166000908152600660209081526040808320938352929052205490565b6106e1838383604051806020016040528060008152506109d3565b600061077160085490565b821061079a5760405163295f44f760e21b81526000600482015260248101839052604401610477565b600882815481106107ad576107ad612176565b90600052602060002001549050919050565b6107c7610c4a565b600c61043282826121d2565b600061036682610c04565b6107e6610c4a565b600e5460ff161561082d5760405162461bcd60e51b8152602060048201526011602482015270135a5b9d1a5b99c81a5cc81c185d5cd959607a1b6044820152606401610477565b600d54600b5411156108765760405162461bcd60e51b815260206004820152601260248201527113585e081cdd5c1c1b1e481c995858da195960721b6044820152606401610477565b6001600160a01b0381166108cc5760405162461bcd60e51b815260206004820152601b60248201527f43616e6e6f74206d696e7420746f207a65726f206164647265737300000000006044820152606401610477565b600b805490819060006108de8361215d565b91905055506108ed8282610c8e565b600f54604080516020810192909252810182905242606082015260800160408051601f19818403018152908290528051602090910120600f5581906001600160a01b038416907f4cc0a9c4a99ddc700de1af2c9f916a7cbfdb71f14801ccff94061ad1ef8a804090600090a35050565b60006001600160a01b038216610989576040516322718ad960e21b815260006004820152602401610477565b506001600160a01b031660009081526003602052604090205490565b6109ad610c4a565b6109b76000610ca8565b565b60606001805461037b906120e7565b610432338383610cfa565b6109de848484610451565b6104db3385858585610d99565b6000818152600260205260409020546060906001600160a01b0316610a495760405162461bcd60e51b8152602060048201526014602482015273151bdad95b88191bd95cc81b9bdd08195e1a5cdd60621b6044820152606401610477565b600f54604080516020810192909252810183905242606082015260009060800160408051601f19818403018152919052805160209091012090506000610a91610100836122a8565b90506000610aa5610100600885901c6122a8565b90506000610ab9610100601086901c6122a8565b90506000610acc600a601887901c6122a8565b90506000610adf6008602088901c6122a8565b90506000610aec86610ec4565b610af586610ec4565b610afe86610ec4565b610b0986868c610f57565b610b128d610ec4565b604051602001610b269594939291906122d8565b60405160208183030381529060405290506000610b4282611151565b905080604051602001610b5591906124bd565b60405160208183030381529060405298505050505050505050919050565b6001600160a01b03918216600090815260056020908152604080832093909416825291909152205460ff1690565b610ba9610c4a565b6001600160a01b038116610bd357604051631e4fbdf760e01b815260006004820152602401610477565b610bdc81610ca8565b50565b60006001600160e01b0319821663780e9d6360e01b1480610366575061036682611702565b6000818152600260205260408120546001600160a01b03168061036657604051637e27328960e01b815260048101849052602401610477565b6106e18383836001611752565b600a546001600160a01b031633146109b75760405163118cdaa760e01b8152336004820152602401610477565b6000610c84848484611858565b90505b9392505050565b610432828260405180602001604052806000815250611925565b600a80546001600160a01b038381166001600160a01b0319831681179093556040519116919082907f8be0079c531659141344cd1fd0a4f28419497f9722a3daafe3b4186f6b6457e090600090a35050565b6001600160a01b038216610d2c57604051630b61174360e31b81526001600160a01b0383166004820152602401610477565b6001600160a01b03838116600081815260056020908152604080832094871680845294825291829020805460ff191686151590811790915591519182527f17307eab39ab6107e8899845ad3d59bd9653f200f220920489ca2b5937696c31910160405180910390a3505050565b6001600160a01b0383163b15610ebd57604051630a85bd0160e11b81526001600160a01b0384169063150b7a0290610ddb908890889087908790600401612502565b6020604051808303816000875af1925050508015610e16575060408051601f3d908101601f19168201909252610e139181019061253f565b60015b610e7f573d808015610e44576040519150601f19603f3d011682016040523d82523d6000602084013e610e49565b606091505b508051600003610e7757604051633250574960e11b81526001600160a01b0385166004820152602401610477565b805160208201fd5b6001600160e01b03198116630a85bd0160e11b14610ebb57604051633250574960e11b81526001600160a01b0385166004820152602401610477565b505b5050505050565b60606000610ed18361193d565b600101905060008167ffffffffffffffff811115610ef157610ef1611f16565b6040519080825280601f01601f191660200182016040528015610f1b576020820181803683370190505b5090508181016020015b600019016f181899199a1a9b1b9c1cb0b131b232b360811b600a86061a8153600a8504945084610f2557509392505050565b60606003841015611000576000610f7061012c846122a8565b610f7b906032612137565b90506000610f8f61012c600886901c6122a8565b610f9a906032612137565b90506000610fad6050601087901c6122a8565b610fb8906014612137565b9050610fc383610ec4565b610fcc83610ec4565b610fd583610ec4565b604051602001610fe79392919061255c565b6040516020818303038152906040529350505050610c87565b60068410156110ce57600061101660fa846122a8565b611021906032612137565b9050600061103460fa600886901c6122a8565b61103f906032612137565b905060006110526064601087901c6122a8565b61105d906032612137565b905060006110706064601888901c6122a8565b61107b906032612137565b905061108684610ec4565b61108f84610ec4565b61109884610ec4565b6110a184610ec4565b6040516020016110b49493929190612607565b604051602081830303815290604052945050505050610c87565b60006110dc610190846122a8565b905060006110f0610190600886901c6122a8565b90506000611104610190601087901c6122a8565b90506000611118610190601888901c6122a8565b905061112384610ec4565b61112c84610ec4565b61113584610ec4565b61113e84610ec4565b6040516020016110b494939291906126de565b6060600060405180606001604052806040815260200161280e60409139905060006003845160026111829190612137565b61118c91906127cc565b6111979060046127e0565b905060008167ffffffffffffffff8111156111b4576111b4611f16565b6040519080825280601f01601f1916602001820160405280156111de576020820181803683370190505b5090506000805b86516111f2836003612137565b116113f957600087838151811061120b5761120b612176565b016020015160f81c9050600088611223856001612137565b8151811061123357611233612176565b016020015160f81c905060008961124b866002612137565b8151811061125b5761125b612176565b0160200151885160f89190911c9150601084901b600884901b178217908990601283901c90811061128e5761128e612176565b01602001516001600160f81b03191687866112a88161215d565b9750815181106112ba576112ba612176565b60200101906001600160f81b031916908160001a90535088600c82901c603f16815181106112ea576112ea612176565b01602001516001600160f81b03191687866113048161215d565b97508151811061131657611316612176565b60200101906001600160f81b031916908160001a90535088600682901c603f168151811061134657611346612176565b01602001516001600160f81b03191687866113608161215d565b97508151811061137257611372612176565b60200101906001600160f81b031916908160001a9053508881603f168151811061139e5761139e612176565b01602001516001600160f81b03191687866113b88161215d565b9750815181106113ca576113ca612176565b60200101906001600160f81b031916908160001a905350505050506003826113f29190612137565b91506111e5565b86518210156116f757600087838151811061141657611416612176565b602091010151885160f882901c925060e89190911c62ff0000169061143c856001612137565b10156115cc57600089611450866001612137565b8151811061146057611460612176565b602001015160f81c60f81b60f81c60ff169050600881901b8217915087601283901c8151811061149257611492612176565b01602001516001600160f81b03191686856114ac8161215d565b9650815181106114be576114be612176565b60200101906001600160f81b031916908160001a90535087600c83901c603f16815181106114ee576114ee612176565b01602001516001600160f81b03191686856115088161215d565b96508151811061151a5761151a612176565b60200101906001600160f81b031916908160001a90535087600683901c603f168151811061154a5761154a612176565b01602001516001600160f81b03191686856115648161215d565b96508151811061157657611576612176565b60200101906001600160f81b031916908160001a905350603d60f81b868561159d8161215d565b9650815181106115af576115af612176565b60200101906001600160f81b031916908160001a905350506116f4565b86601282901c815181106115e2576115e2612176565b01602001516001600160f81b03191685846115fc8161215d565b95508151811061160e5761160e612176565b60200101906001600160f81b031916908160001a90535086600c82901c603f168151811061163e5761163e612176565b01602001516001600160f81b03191685846116588161215d565b95508151811061166a5761166a612176565b60200101906001600160f81b031916908160001a905350603d60f81b85846116918161215d565b9550815181106116a3576116a3612176565b60200101906001600160f81b031916908160001a905350603d60f81b85846116ca8161215d565b9550815181106116dc576116dc612176565b60200101906001600160f81b031916908160001a9053505b50505b509095945050505050565b60006001600160e01b031982166380ac58cd60e01b148061173357506001600160e01b03198216635b5e139f60e01b145b8061036657506301ffc9a760e01b6001600160e01b0319831614610366565b808061176657506001600160a01b03821615155b1561182857600061177684610c04565b90506001600160a01b038316158015906117a25750826001600160a01b0316816001600160a01b031614155b80156117b557506117b38184610b73565b155b156117de5760405163a9fbf51f60e01b81526001600160a01b0384166004820152602401610477565b81156118265783856001600160a01b0316826001600160a01b03167f8c5be1e5ebec7d5bd14f71427d1e84f3dd0314c0f7b2291e5b200ac8c7c3b92560405160405180910390a45b505b5050600090815260046020526040902080546001600160a01b0319166001600160a01b0392909216919091179055565b600080611866858585611a15565b90506001600160a01b0381166118c3576118be84600880546000838152600960205260408120829055600182018355919091527ff3f7a9fe364faab93b216da50a3214154f22a0a2b415b23a84c8169e8b636ee30155565b6118e6565b846001600160a01b0316816001600160a01b0316146118e6576118e68185611b0e565b6001600160a01b038516611902576118fd84611b8f565b610c84565b846001600160a01b0316816001600160a01b031614610c8457610c848585611c3e565b61192f8383611c8e565b6106e1336000858585610d99565b60008072184f03e93ff9f4daa797ed6e38ed64bf6a1f0160401b831061197c5772184f03e93ff9f4daa797ed6e38ed64bf6a1f0160401b830492506040015b6d04ee2d6d415b85acef810000000083106119a8576d04ee2d6d415b85acef8100000000830492506020015b662386f26fc1000083106119c657662386f26fc10000830492506010015b6305f5e10083106119de576305f5e100830492506008015b61271083106119f257612710830492506004015b60648310611a04576064830492506002015b600a83106103665760010192915050565b6000828152600260205260408120546001600160a01b0390811690831615611a4257611a42818486611cf3565b6001600160a01b03811615611a8057611a5f600085600080611752565b6001600160a01b038116600090815260036020526040902080546000190190555b6001600160a01b03851615611aaf576001600160a01b0385166000908152600360205260409020805460010190555b60008481526002602052604080822080546001600160a01b0319166001600160a01b0389811691821790925591518793918516917fddf252ad1be2c89b69c2b068fc378daa952ba7f163c4a11628f55a4df523b3ef91a4949350505050565b6000611b198361095d565b6000838152600760209081526040808320546001600160a01b0388168452600690925290912091925090818314611b7057600083815260208281526040808320548584528184208190558352600790915290208290555b6000938452600760209081526040808620869055938552525081205550565b600854600090611ba19060019061214a565b60008381526009602052604081205460088054939450909284908110611bc957611bc9612176565b906000526020600020015490508060088381548110611bea57611bea612176565b6000918252602080832090910192909255828152600990915260408082208490558582528120556008805480611c2257611c226127f7565b6001900381819060005260206000200160009055905550505050565b60006001611c4b8461095d565b611c55919061214a565b6001600160a01b039093166000908152600660209081526040808320868452825280832085905593825260079052919091209190915550565b6001600160a01b038216611cb857604051633250574960e11b815260006004820152602401610477565b6000611cc683836000610c77565b90506001600160a01b038116156106e1576040516339e3563760e11b815260006004820152602401610477565b611cfe838383611d57565b6106e1576001600160a01b038316611d2c57604051637e27328960e01b815260048101829052602401610477565b60405163177e802f60e01b81526001600160a01b038316600482015260248101829052604401610477565b60006001600160a01b03831615801590610c845750826001600160a01b0316846001600160a01b03161480611d915750611d918484610b73565b80610c845750506000908152600460205260409020546001600160a01b03908116911614919050565b6001600160e01b031981168114610bdc57600080fd5b600060208284031215611de257600080fd5b8135610c8781611dba565b60005b83811015611e08578181015183820152602001611df0565b50506000910152565b60008151808452611e29816020860160208601611ded565b601f01601f19169290920160200192915050565b602081526000610c876020830184611e11565b600060208284031215611e6257600080fd5b5035919050565b80356001600160a01b0381168114611e8057600080fd5b919050565b60008060408385031215611e9857600080fd5b611ea183611e69565b946020939093013593505050565b80358015158114611e8057600080fd5b600060208284031215611ed157600080fd5b610c8782611eaf565b600080600060608486031215611eef57600080fd5b611ef884611e69565b9250611f0660208501611e69565b9150604084013590509250925092565b634e487b7160e01b600052604160045260246000fd5b600067ffffffffffffffff80841115611f4757611f47611f16565b604051601f8501601f19908116603f01168101908282118183101715611f6f57611f6f611f16565b81604052809350858152868686011115611f8857600080fd5b858560208301376000602087830101525050509392505050565b600060208284031215611fb457600080fd5b813567ffffffffffffffff811115611fcb57600080fd5b8201601f81018413611fdc57600080fd5b611feb84823560208401611f2c565b949350505050565b60006020828403121561200557600080fd5b610c8782611e69565b6000806040838503121561202157600080fd5b61202a83611e69565b915061203860208401611eaf565b90509250929050565b6000806000806080858703121561205757600080fd5b61206085611e69565b935061206e60208601611e69565b925060408501359150606085013567ffffffffffffffff81111561209157600080fd5b8501601f810187136120a257600080fd5b6120b187823560208401611f2c565b91505092959194509250565b600080604083850312156120d057600080fd5b6120d983611e69565b915061203860208401611e69565b600181811c908216806120fb57607f821691505b60208210810361211b57634e487b7160e01b600052602260045260246000fd5b50919050565b634e487b7160e01b600052601160045260246000fd5b8082018082111561036657610366612121565b8181038181111561036657610366612121565b60006001820161216f5761216f612121565b5060010190565b634e487b7160e01b600052603260045260246000fd5b601f8211156106e157600081815260208120601f850160051c810160208610156121b35750805b601f850160051c820191505b81811015610ebb578281556001016121bf565b815167ffffffffffffffff8111156121ec576121ec611f16565b612200816121fa84546120e7565b8461218c565b602080601f831160018114612235576000841561221d5750858301515b600019600386901b1c1916600185901b178555610ebb565b600085815260208120601f198616915b8281101561226457888601518255948401946001909101908401612245565b50858210156122825787850151600019600388901b60f8161c191681555b5050505050600190811b01905550565b634e487b7160e01b600052601260045260246000fd5b6000826122b7576122b7612292565b500690565b600081516122ce818560208601611ded565b9290920192915050565b7f3c73766720786d6c6e733d22687474703a2f2f7777772e77332e6f72672f323081527f30302f737667222077696474683d2234303022206865696768743d223430302260208201527f2076696577426f783d223020302034303020343030223e00000000000000000060408201527f3c726563742077696474683d2234303022206865696768743d223430302220666057820152680d2d8d87a44e4cec4560bb1b607782015260008651612394816080850160208b01611ded565b8083019050600b60fa1b80608083015287516123b7816081850160208c01611ded565b608192019182015285516123d2816082840160208a01611ded565b6124b061249e61248b6124856124786124036123fd6082888a0101631491179f60e11b815260040190565b8c6122bc565b7f3c7465787420783d223230302220793d223230302220666f6e742d66616d696c81527f793d22417269616c2220666f6e742d73697a653d223234222066696c6c3d227760208201527f686974652220746578742d616e63686f723d226d6964646c65223e00000000006040820152605b0190565b602360f81b815260010190565b886122bc565b661e17ba32bc3a1f60c91b815260070190565b651e17b9bb339f60d11b815260060190565b9998505050505050505050565b7f646174613a696d6167652f7376672b786d6c3b6261736536342c0000000000008152600082516124f581601a850160208701611ded565b91909101601a0192915050565b6001600160a01b038581168252841660208201526040810183905260806060820181905260009061253590830184611e11565b9695505050505050565b60006020828403121561255157600080fd5b8151610c8781611dba565b6b1e31b4b931b6329031bc1e9160a11b8152835160009061258481600c850160208901611ded565b65111031bc9e9160d11b600c9184019182015284516125aa816012840160208901611ded565b641110391e9160d91b6012929091019182015283516125d0816017840160208801611ded565b7f222066696c6c3d2272676261283235352c3235352c3235352c302e3329222f3e6017929091019182015260370195945050505050565b681e3932b1ba103c1e9160b91b8152845160009061262c816009850160208a01611ded565b6411103c9e9160d91b600991840191820152855161265181600e840160208a01611ded565b6811103bb4b23a341e9160b91b600e9290910191820152845161267b816017840160208901611ded565b6911103432b4b3b43a1e9160b11b6017929091019182015283516126a6816021840160208801611ded565b7f222066696c6c3d2272676261283235352c3235352c3235352c302e3229222f3e602192909101918201526041019695505050505050565b691e3634b732903c189e9160b11b8152845160009061270481600a850160208a01611ded565b6511103c989e9160d11b600a91840191820152855161272a816010840160208a01611ded565b6511103c191e9160d11b601092909101918201528451612751816016840160208901611ded565b6511103c991e9160d11b60169290910191820152835161277881601c840160208801611ded565b7f22207374726f6b653d2272676261283235352c3235352c3235352c302e342922601c9290910191820152721039ba3937b5b296bbb4b23a341e911911179f60691b603c820152604f019695505050505050565b6000826127db576127db612292565b500490565b808202811582820484141761036657610366612121565b634e487b7160e01b600052603160045260246000fdfe4142434445464748494a4b4c4d4e4f505152535455565758595a6162636465666768696a6b6c6d6e6f707172737475767778797a303132333435363738392b2fa26469706673582212202512516161fc437bb62a2e78661260800ffb71f9b5367fe409ea06c8998f963f64736f6c63430008150033","opcodes":"PUSH1 0x80 PUSH1 0x40 MSTORE CALLVALUE DUP1 ISZERO PUSH3 0x11 JUMPI PUSH1 0x0 DUP1 REVERT JUMPDEST POP PUSH1 0x40 MLOAD PUSH3 0x2CD4 CODESIZE SUB DUP1 PUSH3 0x2CD4 DUP4 CODECOPY DUP2 ADD PUSH1 0x40 DUP2 SWAP1 MSTORE PUSH3 0x34 SWAP2 PUSH3 0x227 JUMP JUMPDEST DUP1 DUP6 DUP6 PUSH1 0x0 PUSH3 0x45 DUP4 DUP3 PUSH3 0x375 JUMP JUMPDEST POP PUSH1 0x1 PUSH3 0x54 DUP3 DUP3 PUSH3 0x375 JUMP JUMPDEST POP POP POP PUSH1 0x1 PUSH1 0x1 PUSH1 0xA0 SHL SUB DUP2 AND PUSH3 0x86 JUMPI PUSH1 0x40 MLOAD PUSH4 0x1E4FBDF7 PUSH1 0xE0 SHL DUP2 MSTORE PUSH1 0x0 PUSH1 0x4 DUP3 ADD MSTORE PUSH1 0x24 ADD PUSH1 0x40 MLOAD DUP1 SWAP2 SUB SWAP1 REVERT JUMPDEST PUSH3 0x91 DUP2 PUSH3 0x110 JUMP JUMPDEST POP PUSH1 0xC PUSH3 0xA0 DUP5 DUP3 PUSH3 0x375 JUMP JUMPDEST POP PUSH1 0xD DUP3 SWAP1 SSTORE PUSH1 0x1 PUSH1 0xB SSTORE PUSH1 0xE DUP1 SLOAD PUSH1 0xFF NOT AND SWAP1 SSTORE PUSH1 0x40 MLOAD PUSH3 0xE9 SWAP1 TIMESTAMP SWAP1 PREVRANDAO SWAP1 CALLER SWAP1 PUSH1 0x20 ADD SWAP3 DUP4 MSTORE PUSH1 0x20 DUP4 ADD SWAP2 SWAP1 SWAP2 MSTORE PUSH1 0x60 SHL PUSH1 0x1 PUSH1 0x1 PUSH1 0x60 SHL SUB NOT AND PUSH1 0x40 DUP3 ADD MSTORE PUSH1 0x54 ADD SWAP1 JUMP JUMPDEST PUSH1 0x40 DUP1 MLOAD PUSH1 0x1F NOT DUP2 DUP5 SUB ADD DUP2 MSTORE SWAP2 SWAP1 MSTORE DUP1 MLOAD PUSH1 0x20 SWAP1 SWAP2 ADD KECCAK256 PUSH1 0xF SSTORE POP PUSH3 0x441 SWAP4 POP POP POP POP JUMP JUMPDEST PUSH1 0xA DUP1 SLOAD PUSH1 0x1 PUSH1 0x1 PUSH1 0xA0 SHL SUB DUP4 DUP2 AND PUSH1 0x1 PUSH1 0x1 PUSH1 0xA0 SHL SUB NOT DUP4 AND DUP2 OR SWAP1 SWAP4 SSTORE PUSH1 0x40 MLOAD SWAP2 AND SWAP2 SWAP1 DUP3 SWAP1 PUSH32 0x8BE0079C531659141344CD1FD0A4F28419497F9722A3DAAFE3B4186F6B6457E0 SWAP1 PUSH1 0x0 SWAP1 LOG3 POP POP JUMP JUMPDEST PUSH4 0x4E487B71 PUSH1 0xE0 SHL PUSH1 0x0 MSTORE PUSH1 0x41 PUSH1 0x4 MSTORE PUSH1 0x24 PUSH1 0x0 REVERT JUMPDEST PUSH1 0x0 DUP3 PUSH1 0x1F DUP4 ADD SLT PUSH3 0x18A JUMPI PUSH1 0x0 DUP1 REVERT JUMPDEST DUP2 MLOAD PUSH1 0x1 PUSH1 0x1 PUSH1 0x40 SHL SUB DUP1 DUP3 GT ISZERO PUSH3 0x1A7 JUMPI PUSH3 0x1A7 PUSH3 0x162 JUMP JUMPDEST PUSH1 0x40 MLOAD PUSH1 0x1F DUP4 ADD PUSH1 0x1F NOT SWAP1 DUP2 AND PUSH1 0x3F ADD AND DUP2 ADD SWAP1 DUP3 DUP3 GT DUP2 DUP4 LT OR ISZERO PUSH3 0x1D2 JUMPI PUSH3 0x1D2 PUSH3 0x162 JUMP JUMPDEST DUP2 PUSH1 0x40 MSTORE DUP4 DUP2 MSTORE PUSH1 0x20 SWAP3 POP DUP7 DUP4 DUP6 DUP9 ADD ADD GT ISZERO PUSH3 0x1EF JUMPI PUSH1 0x0 DUP1 REVERT JUMPDEST PUSH1 0x0 SWAP2 POP JUMPDEST DUP4 DUP3 LT ISZERO PUSH3 0x213 JUMPI DUP6 DUP3 ADD DUP4 ADD MLOAD DUP2 DUP4 ADD DUP5 ADD MSTORE SWAP1 DUP3 ADD SWAP1 PUSH3 0x1F4 JUMP JUMPDEST PUSH1 0x0 SWAP4 DUP2 ADD SWAP1 SWAP3 ADD SWAP3 SWAP1 SWAP3 MSTORE SWAP5 SWAP4 POP POP POP POP JUMP JUMPDEST PUSH1 0x0 DUP1 PUSH1 0x0 DUP1 PUSH1 0x0 PUSH1 0xA0 DUP7 DUP9 SUB SLT ISZERO PUSH3 0x240 JUMPI PUSH1 0x0 DUP1 REVERT JUMPDEST DUP6 MLOAD PUSH1 0x1 PUSH1 0x1 PUSH1 0x40 SHL SUB DUP1 DUP3 GT ISZERO PUSH3 0x258 JUMPI PUSH1 0x0 DUP1 REVERT JUMPDEST PUSH3 0x266 DUP10 DUP4 DUP11 ADD PUSH3 0x178 JUMP JUMPDEST SWAP7 POP PUSH1 0x20 DUP9 ADD MLOAD SWAP2 POP DUP1 DUP3 GT ISZERO PUSH3 0x27D JUMPI PUSH1 0x0 DUP1 REVERT JUMPDEST PUSH3 0x28B DUP10 DUP4 DUP11 ADD PUSH3 0x178 JUMP JUMPDEST SWAP6 POP PUSH1 0x40 DUP9 ADD MLOAD SWAP2 POP DUP1 DUP3 GT ISZERO PUSH3 0x2A2 JUMPI PUSH1 0x0 DUP1 REVERT JUMPDEST POP PUSH3 0x2B1 DUP9 DUP3 DUP10 ADD PUSH3 0x178 JUMP JUMPDEST PUSH1 0x60 DUP9 ADD MLOAD PUSH1 0x80 DUP10 ADD MLOAD SWAP2 SWAP6 POP SWAP4 POP SWAP1 POP PUSH1 0x1 PUSH1 0x1 PUSH1 0xA0 SHL SUB DUP2 AND DUP2 EQ PUSH3 0x2D8 JUMPI PUSH1 0x0 DUP1 REVERT JUMPDEST DUP1 SWAP2 POP POP SWAP3 SWAP6 POP SWAP3 SWAP6 SWAP1 SWAP4 POP JUMP JUMPDEST PUSH1 0x1 DUP2 DUP2 SHR SWAP1 DUP3 AND DUP1 PUSH3 0x2FB JUMPI PUSH1 0x7F DUP3 AND SWAP2 POP JUMPDEST PUSH1 0x20 DUP3 LT DUP2 SUB PUSH3 0x31C JUMPI PUSH4 0x4E487B71 PUSH1 0xE0 SHL PUSH1 0x0 MSTORE PUSH1 0x22 PUSH1 0x4 MSTORE PUSH1 0x24 PUSH1 0x0 REVERT JUMPDEST POP SWAP2 SWAP1 POP JUMP JUMPDEST PUSH1 0x1F DUP3 GT ISZERO PUSH3 0x370 JUMPI PUSH1 0x0 DUP2 DUP2 MSTORE PUSH1 0x20 DUP2 KECCAK256 PUSH1 0x1F DUP6 ADD PUSH1 0x5 SHR DUP2 ADD PUSH1 0x20 DUP7 LT ISZERO PUSH3 0x34B JUMPI POP DUP1 JUMPDEST PUSH1 0x1F DUP6 ADD PUSH1 0x5 SHR DUP3 ADD SWAP2 POP JUMPDEST DUP2 DUP2 LT ISZERO PUSH3 0x36C JUMPI DUP3 DUP2 SSTORE PUSH1 0x1 ADD PUSH3 0x357 JUMP JUMPDEST POP POP POP JUMPDEST POP POP POP JUMP JUMPDEST DUP2 MLOAD PUSH1 0x1 PUSH1 0x1 PUSH1 0x40 SHL SUB DUP2 GT ISZERO PUSH3 0x391 JUMPI PUSH3 0x391 PUSH3 0x162 JUMP JUMPDEST PUSH3 0x3A9 DUP2 PUSH3 0x3A2 DUP5 SLOAD PUSH3 0x2E6 JUMP JUMPDEST DUP5 PUSH3 0x322 JUMP JUMPDEST PUSH1 0x20 DUP1 PUSH1 0x1F DUP4 GT PUSH1 0x1 DUP2 EQ PUSH3 0x3E1 JUMPI PUSH1 0x0 DUP5 ISZERO PUSH3 0x3C8 JUMPI POP DUP6 DUP4 ADD MLOAD JUMPDEST PUSH1 0x0 NOT PUSH1 0x3 DUP7 SWAP1 SHL SHR NOT AND PUSH1 0x1 DUP6 SWAP1 SHL OR DUP6 SSTORE PUSH3 0x36C JUMP JUMPDEST PUSH1 0x0 DUP6 DUP2 MSTORE PUSH1 0x20 DUP2 KECCAK256 PUSH1 0x1F NOT DUP7 AND SWAP2 JUMPDEST DUP3 DUP2 LT ISZERO PUSH3 0x412 JUMPI DUP9 DUP7 ADD MLOAD DUP3 SSTORE SWAP5 DUP5 ADD SWAP5 PUSH1 0x1 SWAP1 SWAP2 ADD SWAP1 DUP5 ADD PUSH3 0x3F1 JUMP JUMPDEST POP DUP6 DUP3 LT ISZERO PUSH3 0x431 JUMPI DUP8 DUP6 ADD MLOAD PUSH1 0x0 NOT PUSH1 0x3 DUP9 SWAP1 SHL PUSH1 0xF8 AND SHR NOT AND DUP2 SSTORE JUMPDEST POP POP POP POP POP PUSH1 0x1 SWAP1 DUP2 SHL ADD SWAP1 SSTORE POP JUMP JUMPDEST PUSH2 0x2883 DUP1 PUSH3 0x451 PUSH1 0x0 CODECOPY PUSH1 0x0 RETURN INVALID PUSH1 0x80 PUSH1 0x40 MSTORE CALLVALUE DUP1 ISZERO PUSH2 0x10 JUMPI PUSH1 0x0 DUP1 REVERT JUMPDEST POP PUSH1 0x4 CALLDATASIZE LT PUSH2 0x173 JUMPI PUSH1 0x0 CALLDATALOAD PUSH1 0xE0 SHR DUP1 PUSH4 0x5C975ABB GT PUSH2 0xDE JUMPI DUP1 PUSH4 0x95D89B41 GT PUSH2 0x97 JUMPI DUP1 PUSH4 0xC87B56DD GT PUSH2 0x71 JUMPI DUP1 PUSH4 0xC87B56DD EQ PUSH2 0x319 JUMPI DUP1 PUSH4 0xD5ABEB01 EQ PUSH2 0x32C JUMPI DUP1 PUSH4 0xE985E9C5 EQ PUSH2 0x335 JUMPI DUP1 PUSH4 0xF2FDE38B EQ PUSH2 0x348 JUMPI PUSH1 0x0 DUP1 REVERT JUMPDEST DUP1 PUSH4 0x95D89B41 EQ PUSH2 0x2EB JUMPI DUP1 PUSH4 0xA22CB465 EQ PUSH2 0x2F3 JUMPI DUP1 PUSH4 0xB88D4FDE EQ PUSH2 0x306 JUMPI PUSH1 0x0 DUP1 REVERT JUMPDEST DUP1 PUSH4 0x5C975ABB EQ PUSH2 0x28C JUMPI DUP1 PUSH4 0x6352211E EQ PUSH2 0x299 JUMPI DUP1 PUSH4 0x6A627842 EQ PUSH2 0x2AC JUMPI DUP1 PUSH4 0x70A08231 EQ PUSH2 0x2BF JUMPI DUP1 PUSH4 0x715018A6 EQ PUSH2 0x2D2 JUMPI DUP1 PUSH4 0x8DA5CB5B EQ PUSH2 0x2DA JUMPI PUSH1 0x0 DUP1 REVERT JUMPDEST DUP1 PUSH4 0x23B872DD GT PUSH2 0x130 JUMPI DUP1 PUSH4 0x23B872DD EQ PUSH2 0x21A JUMPI DUP1 PUSH4 0x248B71FC EQ PUSH2 0x22D JUMPI DUP1 PUSH4 0x2F745C59 EQ PUSH2 0x240 JUMPI DUP1 PUSH4 0x42842E0E EQ PUSH2 0x253 JUMPI DUP1 PUSH4 0x4F6CCCE7 EQ PUSH2 0x266 JUMPI DUP1 PUSH4 0x55F804B3 EQ PUSH2 0x279 JUMPI PUSH1 0x0 DUP1 REVERT JUMPDEST DUP1 PUSH4 0x1FFC9A7 EQ PUSH2 0x178 JUMPI DUP1 PUSH4 0x6FDDE03 EQ PUSH2 0x1A0 JUMPI DUP1 PUSH4 0x81812FC EQ PUSH2 0x1B5 JUMPI DUP1 PUSH4 0x95EA7B3 EQ PUSH2 0x1E0 JUMPI DUP1 PUSH4 0x16C38B3C EQ PUSH2 0x1F5 JUMPI DUP1 PUSH4 0x18160DDD EQ PUSH2 0x208 JUMPI JUMPDEST PUSH1 0x0 DUP1 REVERT JUMPDEST PUSH2 0x18B PUSH2 0x186 CALLDATASIZE PUSH1 0x4 PUSH2 0x1DD0 JUMP JUMPDEST PUSH2 0x35B JUMP JUMPDEST PUSH1 0x40 MLOAD SWAP1 ISZERO ISZERO DUP2 MSTORE PUSH1 0x20 ADD JUMPDEST PUSH1 0x40 MLOAD DUP1 SWAP2 SUB SWAP1 RETURN JUMPDEST PUSH2 0x1A8 PUSH2 0x36C JUMP JUMPDEST PUSH1 0x40 MLOAD PUSH2 0x197 SWAP2 SWAP1 PUSH2 0x1E3D JUMP JUMPDEST PUSH2 0x1C8 PUSH2 0x1C3 CALLDATASIZE PUSH1 0x4 PUSH2 0x1E50 JUMP JUMPDEST PUSH2 0x3FE JUMP JUMPDEST PUSH1 0x40 MLOAD PUSH1 0x1 PUSH1 0x1 PUSH1 0xA0 SHL SUB SWAP1 SWAP2 AND DUP2 MSTORE PUSH1 0x20 ADD PUSH2 0x197 JUMP JUMPDEST PUSH2 0x1F3 PUSH2 0x1EE CALLDATASIZE PUSH1 0x4 PUSH2 0x1E85 JUMP JUMPDEST PUSH2 0x427 JUMP JUMPDEST STOP JUMPDEST PUSH2 0x1F3 PUSH2 0x203 CALLDATASIZE PUSH1 0x4 PUSH2 0x1EBF JUMP JUMPDEST PUSH2 0x436 JUMP JUMPDEST PUSH1 0x8 SLOAD JUMPDEST PUSH1 0x40 MLOAD SWAP1 DUP2 MSTORE PUSH1 0x20 ADD PUSH2 0x197 JUMP JUMPDEST PUSH2 0x1F3 PUSH2 0x228 CALLDATASIZE PUSH1 0x4 PUSH2 0x1EDA JUMP JUMPDEST PUSH2 0x451 JUMP JUMPDEST PUSH2 0x1F3 PUSH2 0x23B CALLDATASIZE PUSH1 0x4 PUSH2 0x1E85 JUMP JUMPDEST PUSH2 0x4E1 JUMP JUMPDEST PUSH2 0x20C PUSH2 0x24E CALLDATASIZE PUSH1 0x4 PUSH2 0x1E85 JUMP JUMPDEST PUSH2 0x6E6 JUMP JUMPDEST PUSH2 0x1F3 PUSH2 0x261 CALLDATASIZE PUSH1 0x4 PUSH2 0x1EDA JUMP JUMPDEST PUSH2 0x74B JUMP JUMPDEST PUSH2 0x20C PUSH2 0x274 CALLDATASIZE PUSH1 0x4 PUSH2 0x1E50 JUMP JUMPDEST PUSH2 0x766 JUMP JUMPDEST PUSH2 0x1F3 PUSH2 0x287 CALLDATASIZE PUSH1 0x4 PUSH2 0x1FA2 JUMP JUMPDEST PUSH2 0x7BF JUMP JUMPDEST PUSH1 0xE SLOAD PUSH2 0x18B SWAP1 PUSH1 0xFF AND DUP2 JUMP JUMPDEST PUSH2 0x1C8 PUSH2 0x2A7 CALLDATASIZE PUSH1 0x4 PUSH2 0x1E50 JUMP JUMPDEST PUSH2 0x7D3 JUMP JUMPDEST PUSH2 0x1F3 PUSH2 0x2BA CALLDATASIZE PUSH1 0x4 PUSH2 0x1FF3 JUMP JUMPDEST PUSH2 0x7DE JUMP JUMPDEST PUSH2 0x20C PUSH2 0x2CD CALLDATASIZE PUSH1 0x4 PUSH2 0x1FF3 JUMP JUMPDEST PUSH2 0x95D JUMP JUMPDEST PUSH2 0x1F3 PUSH2 0x9A5 JUMP JUMPDEST PUSH1 0xA SLOAD PUSH1 0x1 PUSH1 0x1 PUSH1 0xA0 SHL SUB AND PUSH2 0x1C8 JUMP JUMPDEST PUSH2 0x1A8 PUSH2 0x9B9 JUMP JUMPDEST PUSH2 0x1F3 PUSH2 0x301 CALLDATASIZE PUSH1 0x4 PUSH2 0x200E JUMP JUMPDEST PUSH2 0x9C8 JUMP JUMPDEST PUSH2 0x1F3 PUSH2 0x314 CALLDATASIZE PUSH1 0x4 PUSH2 0x2041 JUMP JUMPDEST PUSH2 0x9D3 JUMP JUMPDEST PUSH2 0x1A8 PUSH2 0x327 CALLDATASIZE PUSH1 0x4 PUSH2 0x1E50 JUMP JUMPDEST PUSH2 0x9EB JUMP JUMPDEST PUSH2 0x20C PUSH1 0xD SLOAD DUP2 JUMP JUMPDEST PUSH2 0x18B PUSH2 0x343 CALLDATASIZE PUSH1 0x4 PUSH2 0x20BD JUMP JUMPDEST PUSH2 0xB73 JUMP JUMPDEST PUSH2 0x1F3 PUSH2 0x356 CALLDATASIZE PUSH1 0x4 PUSH2 0x1FF3 JUMP JUMPDEST PUSH2 0xBA1 JUMP JUMPDEST PUSH1 0x0 PUSH2 0x366 DUP3 PUSH2 0xBDF JUMP JUMPDEST SWAP3 SWAP2 POP POP JUMP JUMPDEST PUSH1 0x60 PUSH1 0x0 DUP1 SLOAD PUSH2 0x37B SWAP1 PUSH2 0x20E7 JUMP JUMPDEST DUP1 PUSH1 0x1F ADD PUSH1 0x20 DUP1 SWAP2 DIV MUL PUSH1 0x20 ADD PUSH1 0x40 MLOAD SWAP1 DUP2 ADD PUSH1 0x40 MSTORE DUP1 SWAP3 SWAP2 SWAP1 DUP2 DUP2 MSTORE PUSH1 0x20 ADD DUP3 DUP1 SLOAD PUSH2 0x3A7 SWAP1 PUSH2 0x20E7 JUMP JUMPDEST DUP1 ISZERO PUSH2 0x3F4 JUMPI DUP1 PUSH1 0x1F LT PUSH2 0x3C9 JUMPI PUSH2 0x100 DUP1 DUP4 SLOAD DIV MUL DUP4 MSTORE SWAP2 PUSH1 0x20 ADD SWAP2 PUSH2 0x3F4 JUMP JUMPDEST DUP3 ADD SWAP2 SWAP1 PUSH1 0x0 MSTORE PUSH1 0x20 PUSH1 0x0 KECCAK256 SWAP1 JUMPDEST DUP2 SLOAD DUP2 MSTORE SWAP1 PUSH1 0x1 ADD SWAP1 PUSH1 0x20 ADD DUP1 DUP4 GT PUSH2 0x3D7 JUMPI DUP3 SWAP1 SUB PUSH1 0x1F AND DUP3 ADD SWAP2 JUMPDEST POP POP POP POP POP SWAP1 POP SWAP1 JUMP JUMPDEST PUSH1 0x0 PUSH2 0x409 DUP3 PUSH2 0xC04 JUMP JUMPDEST POP PUSH1 0x0 DUP3 DUP2 MSTORE PUSH1 0x4 PUSH1 0x20 MSTORE PUSH1 0x40 SWAP1 KECCAK256 SLOAD PUSH1 0x1 PUSH1 0x1 PUSH1 0xA0 SHL SUB AND PUSH2 0x366 JUMP JUMPDEST PUSH2 0x432 DUP3 DUP3 CALLER PUSH2 0xC3D JUMP JUMPDEST POP POP JUMP JUMPDEST PUSH2 0x43E PUSH2 0xC4A JUMP JUMPDEST PUSH1 0xE DUP1 SLOAD PUSH1 0xFF NOT AND SWAP2 ISZERO ISZERO SWAP2 SWAP1 SWAP2 OR SWAP1 SSTORE JUMP JUMPDEST PUSH1 0x1 PUSH1 0x1 PUSH1 0xA0 SHL SUB DUP3 AND PUSH2 0x480 JUMPI PUSH1 0x40 MLOAD PUSH4 0x32505749 PUSH1 0xE1 SHL DUP2 MSTORE PUSH1 0x0 PUSH1 0x4 DUP3 ADD MSTORE PUSH1 0x24 ADD JUMPDEST PUSH1 0x40 MLOAD DUP1 SWAP2 SUB SWAP1 REVERT JUMPDEST PUSH1 0x0 PUSH2 0x48D DUP4 DUP4 CALLER PUSH2 0xC77 JUMP JUMPDEST SWAP1 POP DUP4 PUSH1 0x1 PUSH1 0x1 PUSH1 0xA0 SHL SUB AND DUP2 PUSH1 0x1 PUSH1 0x1 PUSH1 0xA0 SHL SUB AND EQ PUSH2 0x4DB JUMPI PUSH1 0x40 MLOAD PUSH4 0x64283D7B PUSH1 0xE0 SHL DUP2 MSTORE PUSH1 0x1 PUSH1 0x1 PUSH1 0xA0 SHL SUB DUP1 DUP7 AND PUSH1 0x4 DUP4 ADD MSTORE PUSH1 0x24 DUP3 ADD DUP5 SWAP1 MSTORE DUP3 AND PUSH1 0x44 DUP3 ADD MSTORE PUSH1 0x64 ADD PUSH2 0x477 JUMP JUMPDEST POP POP POP POP JUMP JUMPDEST PUSH2 0x4E9 PUSH2 0xC4A JUMP JUMPDEST PUSH1 0xE SLOAD PUSH1 0xFF AND ISZERO PUSH2 0x530 JUMPI PUSH1 0x40 MLOAD PUSH3 0x461BCD PUSH1 0xE5 SHL DUP2 MSTORE PUSH1 0x20 PUSH1 0x4 DUP3 ADD MSTORE PUSH1 0x11 PUSH1 0x24 DUP3 ADD MSTORE PUSH17 0x135A5B9D1A5B99C81A5CC81C185D5CD959 PUSH1 0x7A SHL PUSH1 0x44 DUP3 ADD MSTORE PUSH1 0x64 ADD PUSH2 0x477 JUMP JUMPDEST PUSH1 0xD SLOAD PUSH1 0x1 DUP3 PUSH1 0xB SLOAD PUSH2 0x543 SWAP2 SWAP1 PUSH2 0x2137 JUMP JUMPDEST PUSH2 0x54D SWAP2 SWAP1 PUSH2 0x214A JUMP JUMPDEST GT ISZERO PUSH2 0x590 JUMPI PUSH1 0x40 MLOAD PUSH3 0x461BCD PUSH1 0xE5 SHL DUP2 MSTORE PUSH1 0x20 PUSH1 0x4 DUP3 ADD MSTORE PUSH1 0x12 PUSH1 0x24 DUP3 ADD MSTORE PUSH18 0x45786365656473206D617820737570706C79 PUSH1 0x70 SHL PUSH1 0x44 DUP3 ADD MSTORE PUSH1 0x64 ADD PUSH2 0x477 JUMP JUMPDEST PUSH1 0x1 PUSH1 0x1 PUSH1 0xA0 SHL SUB DUP3 AND PUSH2 0x5E6 JUMPI PUSH1 0x40 MLOAD PUSH3 0x461BCD PUSH1 0xE5 SHL DUP2 MSTORE PUSH1 0x20 PUSH1 0x4 DUP3 ADD MSTORE PUSH1 0x1B PUSH1 0x24 DUP3 ADD MSTORE PUSH32 0x43616E6E6F74206D696E7420746F207A65726F20616464726573730000000000 PUSH1 0x44 DUP3 ADD MSTORE PUSH1 0x64 ADD PUSH2 0x477 JUMP JUMPDEST PUSH1 0x0 DUP2 GT PUSH2 0x636 JUMPI PUSH1 0x40 MLOAD PUSH3 0x461BCD PUSH1 0xE5 SHL DUP2 MSTORE PUSH1 0x20 PUSH1 0x4 DUP3 ADD MSTORE PUSH1 0x1F PUSH1 0x24 DUP3 ADD MSTORE PUSH32 0x5175616E74697479206D7573742062652067726561746572207468616E203000 PUSH1 0x44 DUP3 ADD MSTORE PUSH1 0x64 ADD PUSH2 0x477 JUMP JUMPDEST PUSH1 0x0 JUMPDEST DUP2 DUP2 LT ISZERO PUSH2 0x6E1 JUMPI PUSH1 0xB DUP1 SLOAD SWAP1 DUP2 SWAP1 PUSH1 0x0 PUSH2 0x653 DUP4 PUSH2 0x215D JUMP JUMPDEST SWAP2 SWAP1 POP SSTORE POP PUSH2 0x662 DUP5 DUP3 PUSH2 0xC8E JUMP JUMPDEST PUSH1 0xF SLOAD PUSH1 0x40 DUP1 MLOAD PUSH1 0x20 DUP2 ADD SWAP3 SWAP1 SWAP3 MSTORE DUP2 ADD DUP3 SWAP1 MSTORE TIMESTAMP PUSH1 0x60 DUP3 ADD MSTORE PUSH1 0x80 ADD PUSH1 0x40 DUP1 MLOAD PUSH1 0x1F NOT DUP2 DUP5 SUB ADD DUP2 MSTORE SWAP1 DUP3 SWAP1 MSTORE DUP1 MLOAD PUSH1 0x20 SWAP1 SWAP2 ADD KECCAK256 PUSH1 0xF SSTORE DUP2 SWAP1 PUSH1 0x1 PUSH1 0x1 PUSH1 0xA0 SHL SUB DUP7 AND SWAP1 PUSH32 0x4CC0A9C4A99DDC700DE1AF2C9F916A7CBFDB71F14801CCFF94061AD1EF8A8040 SWAP1 PUSH1 0x0 SWAP1 LOG3 POP DUP1 PUSH2 0x6D9 DUP2 PUSH2 0x215D JUMP JUMPDEST SWAP2 POP POP PUSH2 0x639 JUMP JUMPDEST POP POP POP JUMP JUMPDEST PUSH1 0x0 PUSH2 0x6F1 DUP4 PUSH2 0x95D JUMP JUMPDEST DUP3 LT PUSH2 0x722 JUMPI PUSH1 0x40 MLOAD PUSH4 0x295F44F7 PUSH1 0xE2 SHL DUP2 MSTORE PUSH1 0x1 PUSH1 0x1 PUSH1 0xA0 SHL SUB DUP5 AND PUSH1 0x4 DUP3 ADD MSTORE PUSH1 0x24 DUP2 ADD DUP4 SWAP1 MSTORE PUSH1 0x44 ADD PUSH2 0x477 JUMP JUMPDEST POP PUSH1 0x1 PUSH1 0x1 PUSH1 0xA0 SHL SUB SWAP2 SWAP1 SWAP2 AND PUSH1 0x0 SWAP1 DUP2 MSTORE PUSH1 0x6 PUSH1 0x20 SWAP1 DUP2 MSTORE PUSH1 0x40 DUP1 DUP4 KECCAK256 SWAP4 DUP4 MSTORE SWAP3 SWAP1 MSTORE KECCAK256 SLOAD SWAP1 JUMP JUMPDEST PUSH2 0x6E1 DUP4 DUP4 DUP4 PUSH1 0x40 MLOAD DUP1 PUSH1 0x20 ADD PUSH1 0x40 MSTORE DUP1 PUSH1 0x0 DUP2 MSTORE POP PUSH2 0x9D3 JUMP JUMPDEST PUSH1 0x0 PUSH2 0x771 PUSH1 0x8 SLOAD SWAP1 JUMP JUMPDEST DUP3 LT PUSH2 0x79A JUMPI PUSH1 0x40 MLOAD PUSH4 0x295F44F7 PUSH1 0xE2 SHL DUP2 MSTORE PUSH1 0x0 PUSH1 0x4 DUP3 ADD MSTORE PUSH1 0x24 DUP2 ADD DUP4 SWAP1 MSTORE PUSH1 0x44 ADD PUSH2 0x477 JUMP JUMPDEST PUSH1 0x8 DUP3 DUP2 SLOAD DUP2 LT PUSH2 0x7AD JUMPI PUSH2 0x7AD PUSH2 0x2176 JUMP JUMPDEST SWAP1 PUSH1 0x0 MSTORE PUSH1 0x20 PUSH1 0x0 KECCAK256 ADD SLOAD SWAP1 POP SWAP2 SWAP1 POP JUMP JUMPDEST PUSH2 0x7C7 PUSH2 0xC4A JUMP JUMPDEST PUSH1 0xC PUSH2 0x432 DUP3 DUP3 PUSH2 0x21D2 JUMP JUMPDEST PUSH1 0x0 PUSH2 0x366 DUP3 PUSH2 0xC04 JUMP JUMPDEST PUSH2 0x7E6 PUSH2 0xC4A JUMP JUMPDEST PUSH1 0xE SLOAD PUSH1 0xFF AND ISZERO PUSH2 0x82D JUMPI PUSH1 0x40 MLOAD PUSH3 0x461BCD PUSH1 0xE5 SHL DUP2 MSTORE PUSH1 0x20 PUSH1 0x4 DUP3 ADD MSTORE PUSH1 0x11 PUSH1 0x24 DUP3 ADD MSTORE PUSH17 0x135A5B9D1A5B99C81A5CC81C185D5CD959 PUSH1 0x7A SHL PUSH1 0x44 DUP3 ADD MSTORE PUSH1 0x64 ADD PUSH2 0x477 JUMP JUMPDEST PUSH1 0xD SLOAD PUSH1 0xB SLOAD GT ISZERO PUSH2 0x876 JUMPI PUSH1 0x40 MLOAD PUSH3 0x461BCD PUSH1 0xE5 SHL DUP2 MSTORE PUSH1 0x20 PUSH1 0x4 DUP3 ADD MSTORE PUSH1 0x12 PUSH1 0x24 DUP3 ADD MSTORE PUSH18 0x13585E081CDD5C1C1B1E481C995858DA1959 PUSH1 0x72 SHL PUSH1 0x44 DUP3 ADD MSTORE PUSH1 0x64 ADD PUSH2 0x477 JUMP JUMPDEST PUSH1 0x1 PUSH1 0x1 PUSH1 0xA0 SHL SUB DUP2 AND PUSH2 0x8CC JUMPI PUSH1 0x40 MLOAD PUSH3 0x461BCD PUSH1 0xE5 SHL DUP2 MSTORE PUSH1 0x20 PUSH1 0x4 DUP3 ADD MSTORE PUSH1 0x1B PUSH1 0x24 DUP3 ADD MSTORE PUSH32 0x43616E6E6F74206D696E7420746F207A65726F20616464726573730000000000 PUSH1 0x44 DUP3 ADD MSTORE PUSH1 0x64 ADD PUSH2 0x477 JUMP JUMPDEST PUSH1 0xB DUP1 SLOAD SWAP1 DUP2 SWAP1 PUSH1 0x0 PUSH2 0x8DE DUP4 PUSH2 0x215D JUMP JUMPDEST SWAP2 SWAP1 POP SSTORE POP PUSH2 0x8ED DUP3 DUP3 PUSH2 0xC8E JUMP JUMPDEST PUSH1 0xF SLOAD PUSH1 0x40 DUP1 MLOAD PUSH1 0x20 DUP2 ADD SWAP3 SWAP1 SWAP3 MSTORE DUP2 ADD DUP3 SWAP1 MSTORE TIMESTAMP PUSH1 0x60 DUP3 ADD MSTORE PUSH1 0x80 ADD PUSH1 0x40 DUP1 MLOAD PUSH1 0x1F NOT DUP2 DUP5 SUB ADD DUP2 MSTORE SWAP1 DUP3 SWAP1 MSTORE DUP1 MLOAD PUSH1 0x20 SWAP1 SWAP2 ADD KECCAK256 PUSH1 0xF SSTORE DUP2 SWAP1 PUSH1 0x1 PUSH1 0x1 PUSH1 0xA0 SHL SUB DUP5 AND SWAP1 PUSH32 0x4CC0A9C4A99DDC700DE1AF2C9F916A7CBFDB71F14801CCFF94061AD1EF8A8040 SWAP1 PUSH1 0x0 SWAP1 LOG3 POP POP JUMP JUMPDEST PUSH1 0x0 PUSH1 0x1 PUSH1 0x1 PUSH1 0xA0 SHL SUB DUP3 AND PUSH2 0x989 JUMPI PUSH1 0x40 MLOAD PUSH4 0x22718AD9 PUSH1 0xE2 SHL DUP2 MSTORE PUSH1 0x0 PUSH1 0x4 DUP3 ADD MSTORE PUSH1 0x24 ADD PUSH2 0x477 JUMP JUMPDEST POP PUSH1 0x1 PUSH1 0x1 PUSH1 0xA0 SHL SUB AND PUSH1 0x0 SWAP1 DUP2 MSTORE PUSH1 0x3 PUSH1 0x20 MSTORE PUSH1 0x40 SWAP1 KECCAK256 SLOAD SWAP1 JUMP JUMPDEST PUSH2 0x9AD PUSH2 0xC4A JUMP JUMPDEST PUSH2 0x9B7 PUSH1 0x0 PUSH2 0xCA8 JUMP JUMPDEST JUMP JUMPDEST PUSH1 0x60 PUSH1 0x1 DUP1 SLOAD PUSH2 0x37B SWAP1 PUSH2 0x20E7 JUMP JUMPDEST PUSH2 0x432 CALLER DUP4 DUP4 PUSH2 0xCFA JUMP JUMPDEST PUSH2 0x9DE DUP5 DUP5 DUP5 PUSH2 0x451 JUMP JUMPDEST PUSH2 0x4DB CALLER DUP6 DUP6 DUP6 DUP6 PUSH2 0xD99 JUMP JUMPDEST PUSH1 0x0 DUP2 DUP2 MSTORE PUSH1 0x2 PUSH1 0x20 MSTORE PUSH1 0x40 SWAP1 KECCAK256 SLOAD PUSH1 0x60 SWAP1 PUSH1 0x1 PUSH1 0x1 PUSH1 0xA0 SHL SUB AND PUSH2 0xA49 JUMPI PUSH1 0x40 MLOAD PUSH3 0x461BCD PUSH1 0xE5 SHL DUP2 MSTORE PUSH1 0x20 PUSH1 0x4 DUP3 ADD MSTORE PUSH1 0x14 PUSH1 0x24 DUP3 ADD MSTORE PUSH20 0x151BDAD95B88191BD95CC81B9BDD08195E1A5CDD PUSH1 0x62 SHL PUSH1 0x44 DUP3 ADD MSTORE PUSH1 0x64 ADD PUSH2 0x477 JUMP JUMPDEST PUSH1 0xF SLOAD PUSH1 0x40 DUP1 MLOAD PUSH1 0x20 DUP2 ADD SWAP3 SWAP1 SWAP3 MSTORE DUP2 ADD DUP4 SWAP1 MSTORE TIMESTAMP PUSH1 0x60 DUP3 ADD MSTORE PUSH1 0x0 SWAP1 PUSH1 0x80 ADD PUSH1 0x40 DUP1 MLOAD PUSH1 0x1F NOT DUP2 DUP5 SUB ADD DUP2 MSTORE SWAP2 SWAP1 MSTORE DUP1 MLOAD PUSH1 0x20 SWAP1 SWAP2 ADD KECCAK256 SWAP1 POP PUSH1 0x0 PUSH2 0xA91 PUSH2 0x100 DUP4 PUSH2 0x22A8 JUMP JUMPDEST SWAP1 POP PUSH1 0x0 PUSH2 0xAA5 PUSH2 0x100 PUSH1 0x8 DUP6 SWAP1 SHR PUSH2 0x22A8 JUMP JUMPDEST SWAP1 POP PUSH1 0x0 PUSH2 0xAB9 PUSH2 0x100 PUSH1 0x10 DUP7 SWAP1 SHR PUSH2 0x22A8 JUMP JUMPDEST SWAP1 POP PUSH1 0x0 PUSH2 0xACC PUSH1 0xA PUSH1 0x18 DUP8 SWAP1 SHR PUSH2 0x22A8 JUMP JUMPDEST SWAP1 POP PUSH1 0x0 PUSH2 0xADF PUSH1 0x8 PUSH1 0x20 DUP9 SWAP1 SHR PUSH2 0x22A8 JUMP JUMPDEST SWAP1 POP PUSH1 0x0 PUSH2 0xAEC DUP7 PUSH2 0xEC4 JUMP JUMPDEST PUSH2 0xAF5 DUP7 PUSH2 0xEC4 JUMP JUMPDEST PUSH2 0xAFE DUP7 PUSH2 0xEC4 JUMP JUMPDEST PUSH2 0xB09 DUP7 DUP7 DUP13 PUSH2 0xF57 JUMP JUMPDEST PUSH2 0xB12 DUP14 PUSH2 0xEC4 JUMP JUMPDEST PUSH1 0x40 MLOAD PUSH1 0x20 ADD PUSH2 0xB26 SWAP6 SWAP5 SWAP4 SWAP3 SWAP2 SWAP1 PUSH2 0x22D8 JUMP JUMPDEST PUSH1 0x40 MLOAD PUSH1 0x20 DUP2 DUP4 SUB SUB DUP2 MSTORE SWAP1 PUSH1 0x40 MSTORE SWAP1 POP PUSH1 0x0 PUSH2 0xB42 DUP3 PUSH2 0x1151 JUMP JUMPDEST SWAP1 POP DUP1 PUSH1 0x40 MLOAD PUSH1 0x20 ADD PUSH2 0xB55 SWAP2 SWAP1 PUSH2 0x24BD JUMP JUMPDEST PUSH1 0x40 MLOAD PUSH1 0x20 DUP2 DUP4 SUB SUB DUP2 MSTORE SWAP1 PUSH1 0x40 MSTORE SWAP9 POP POP POP POP POP POP POP POP POP SWAP2 SWAP1 POP JUMP JUMPDEST PUSH1 0x1 PUSH1 0x1 PUSH1 0xA0 SHL SUB SWAP2 DUP3 AND PUSH1 0x0 SWAP1 DUP2 MSTORE PUSH1 0x5 PUSH1 0x20 SWAP1 DUP2 MSTORE PUSH1 0x40 DUP1 DUP4 KECCAK256 SWAP4 SWAP1 SWAP5 AND DUP3 MSTORE SWAP2 SWAP1 SWAP2 MSTORE KECCAK256 SLOAD PUSH1 0xFF AND SWAP1 JUMP JUMPDEST PUSH2 0xBA9 PUSH2 0xC4A JUMP JUMPDEST PUSH1 0x1 PUSH1 0x1 PUSH1 0xA0 SHL SUB DUP2 AND PUSH2 0xBD3 JUMPI PUSH1 0x40 MLOAD PUSH4 0x1E4FBDF7 PUSH1 0xE0 SHL DUP2 MSTORE PUSH1 0x0 PUSH1 0x4 DUP3 ADD MSTORE PUSH1 0x24 ADD PUSH2 0x477 JUMP JUMPDEST PUSH2 0xBDC DUP2 PUSH2 0xCA8 JUMP JUMPDEST POP JUMP JUMPDEST PUSH1 0x0 PUSH1 0x1 PUSH1 0x1 PUSH1 0xE0 SHL SUB NOT DUP3 AND PUSH4 0x780E9D63 PUSH1 0xE0 SHL EQ DUP1 PUSH2 0x366 JUMPI POP PUSH2 0x366 DUP3 PUSH2 0x1702 JUMP JUMPDEST PUSH1 0x0 DUP2 DUP2 MSTORE PUSH1 0x2 PUSH1 0x20 MSTORE PUSH1 0x40 DUP2 KECCAK256 SLOAD PUSH1 0x1 PUSH1 0x1 PUSH1 0xA0 SHL SUB AND DUP1 PUSH2 0x366 JUMPI PUSH1 0x40 MLOAD PUSH4 0x7E273289 PUSH1 0xE0 SHL DUP2 MSTORE PUSH1 0x4 DUP2 ADD DUP5 SWAP1 MSTORE PUSH1 0x24 ADD PUSH2 0x477 JUMP JUMPDEST PUSH2 0x6E1 DUP4 DUP4 DUP4 PUSH1 0x1 PUSH2 0x1752 JUMP JUMPDEST PUSH1 0xA SLOAD PUSH1 0x1 PUSH1 0x1 PUSH1 0xA0 SHL SUB AND CALLER EQ PUSH2 0x9B7 JUMPI PUSH1 0x40 MLOAD PUSH4 0x118CDAA7 PUSH1 0xE0 SHL DUP2 MSTORE CALLER PUSH1 0x4 DUP3 ADD MSTORE PUSH1 0x24 ADD PUSH2 0x477 JUMP JUMPDEST PUSH1 0x0 PUSH2 0xC84 DUP5 DUP5 DUP5 PUSH2 0x1858 JUMP JUMPDEST SWAP1 POP JUMPDEST SWAP4 SWAP3 POP POP POP JUMP JUMPDEST PUSH2 0x432 DUP3 DUP3 PUSH1 0x40 MLOAD DUP1 PUSH1 0x20 ADD PUSH1 0x40 MSTORE DUP1 PUSH1 0x0 DUP2 MSTORE POP PUSH2 0x1925 JUMP JUMPDEST PUSH1 0xA DUP1 SLOAD PUSH1 0x1 PUSH1 0x1 PUSH1 0xA0 SHL SUB DUP4 DUP2 AND PUSH1 0x1 PUSH1 0x1 PUSH1 0xA0 SHL SUB NOT DUP4 AND DUP2 OR SWAP1 SWAP4 SSTORE PUSH1 0x40 MLOAD SWAP2 AND SWAP2 SWAP1 DUP3 SWAP1 PUSH32 0x8BE0079C531659141344CD1FD0A4F28419497F9722A3DAAFE3B4186F6B6457E0 SWAP1 PUSH1 0x0 SWAP1 LOG3 POP POP JUMP JUMPDEST PUSH1 0x1 PUSH1 0x1 PUSH1 0xA0 SHL SUB DUP3 AND PUSH2 0xD2C JUMPI PUSH1 0x40 MLOAD PUSH4 0xB611743 PUSH1 0xE3 SHL DUP2 MSTORE PUSH1 0x1 PUSH1 0x1 PUSH1 0xA0 SHL SUB DUP4 AND PUSH1 0x4 DUP3 ADD MSTORE PUSH1 0x24 ADD PUSH2 0x477 JUMP JUMPDEST PUSH1 0x1 PUSH1 0x1 PUSH1 0xA0 SHL SUB DUP4 DUP2 AND PUSH1 0x0 DUP2 DUP2 MSTORE PUSH1 0x5 PUSH1 0x20 SWAP1 DUP2 MSTORE PUSH1 0x40 DUP1 DUP4 KECCAK256 SWAP5 DUP8 AND DUP1 DUP5 MSTORE SWAP5 DUP3 MSTORE SWAP2 DUP3 SWAP1 KECCAK256 DUP1 SLOAD PUSH1 0xFF NOT AND DUP7 ISZERO ISZERO SWAP1 DUP2 OR SWAP1 SWAP2 SSTORE SWAP2 MLOAD SWAP2 DUP3 MSTORE PUSH32 0x17307EAB39AB6107E8899845AD3D59BD9653F200F220920489CA2B5937696C31 SWAP2 ADD PUSH1 0x40 MLOAD DUP1 SWAP2 SUB SWAP1 LOG3 POP POP POP JUMP JUMPDEST PUSH1 0x1 PUSH1 0x1 PUSH1 0xA0 SHL SUB DUP4 AND EXTCODESIZE ISZERO PUSH2 0xEBD JUMPI PUSH1 0x40 MLOAD PUSH4 0xA85BD01 PUSH1 0xE1 SHL DUP2 MSTORE PUSH1 0x1 PUSH1 0x1 PUSH1 0xA0 SHL SUB DUP5 AND SWAP1 PUSH4 0x150B7A02 SWAP1 PUSH2 0xDDB SWAP1 DUP9 SWAP1 DUP9 SWAP1 DUP8 SWAP1 DUP8 SWAP1 PUSH1 0x4 ADD PUSH2 0x2502 JUMP JUMPDEST PUSH1 0x20 PUSH1 0x40 MLOAD DUP1 DUP4 SUB DUP2 PUSH1 0x0 DUP8 GAS CALL SWAP3 POP POP POP DUP1 ISZERO PUSH2 0xE16 JUMPI POP PUSH1 0x40 DUP1 MLOAD PUSH1 0x1F RETURNDATASIZE SWAP1 DUP2 ADD PUSH1 0x1F NOT AND DUP3 ADD SWAP1 SWAP3 MSTORE PUSH2 0xE13 SWAP2 DUP2 ADD SWAP1 PUSH2 0x253F JUMP JUMPDEST PUSH1 0x1 JUMPDEST PUSH2 0xE7F JUMPI RETURNDATASIZE DUP1 DUP1 ISZERO PUSH2 0xE44 JUMPI PUSH1 0x40 MLOAD SWAP2 POP PUSH1 0x1F NOT PUSH1 0x3F RETURNDATASIZE ADD AND DUP3 ADD PUSH1 0x40 MSTORE RETURNDATASIZE DUP3 MSTORE RETURNDATASIZE PUSH1 0x0 PUSH1 0x20 DUP5 ADD RETURNDATACOPY PUSH2 0xE49 JUMP JUMPDEST PUSH1 0x60 SWAP2 POP JUMPDEST POP DUP1 MLOAD PUSH1 0x0 SUB PUSH2 0xE77 JUMPI PUSH1 0x40 MLOAD PUSH4 0x32505749 PUSH1 0xE1 SHL DUP2 MSTORE PUSH1 0x1 PUSH1 0x1 PUSH1 0xA0 SHL SUB DUP6 AND PUSH1 0x4 DUP3 ADD MSTORE PUSH1 0x24 ADD PUSH2 0x477 JUMP JUMPDEST DUP1 MLOAD PUSH1 0x20 DUP3 ADD REVERT JUMPDEST PUSH1 0x1 PUSH1 0x1 PUSH1 0xE0 SHL SUB NOT DUP2 AND PUSH4 0xA85BD01 PUSH1 0xE1 SHL EQ PUSH2 0xEBB JUMPI PUSH1 0x40 MLOAD PUSH4 0x32505749 PUSH1 0xE1 SHL DUP2 MSTORE PUSH1 0x1 PUSH1 0x1 PUSH1 0xA0 SHL SUB DUP6 AND PUSH1 0x4 DUP3 ADD MSTORE PUSH1 0x24 ADD PUSH2 0x477 JUMP JUMPDEST POP JUMPDEST POP POP POP POP POP JUMP JUMPDEST PUSH1 0x60 PUSH1 0x0 PUSH2 0xED1 DUP4 PUSH2 0x193D JUMP JUMPDEST PUSH1 0x1 ADD SWAP1 POP PUSH1 0x0 DUP2 PUSH8 0xFFFFFFFFFFFFFFFF DUP2 GT ISZERO PUSH2 0xEF1 JUMPI PUSH2 0xEF1 PUSH2 0x1F16 JUMP JUMPDEST PUSH1 0x40 MLOAD SWAP1 DUP1 DUP3 MSTORE DUP1 PUSH1 0x1F ADD PUSH1 0x1F NOT AND PUSH1 0x20 ADD DUP3 ADD PUSH1 0x40 MSTORE DUP1 ISZERO PUSH2 0xF1B JUMPI PUSH1 0x20 DUP3 ADD DUP2 DUP1 CALLDATASIZE DUP4 CALLDATACOPY ADD SWAP1 POP JUMPDEST POP SWAP1 POP DUP2 DUP2 ADD PUSH1 0x20 ADD JUMPDEST PUSH1 0x0 NOT ADD PUSH16 0x181899199A1A9B1B9C1CB0B131B232B3 PUSH1 0x81 SHL PUSH1 0xA DUP7 MOD BYTE DUP2 MSTORE8 PUSH1 0xA DUP6 DIV SWAP5 POP DUP5 PUSH2 0xF25 JUMPI POP SWAP4 SWAP3 POP POP POP JUMP JUMPDEST PUSH1 0x60 PUSH1 0x3 DUP5 LT ISZERO PUSH2 0x1000 JUMPI PUSH1 0x0 PUSH2 0xF70 PUSH2 0x12C DUP5 PUSH2 0x22A8 JUMP JUMPDEST PUSH2 0xF7B SWAP1 PUSH1 0x32 PUSH2 0x2137 JUMP JUMPDEST SWAP1 POP PUSH1 0x0 PUSH2 0xF8F PUSH2 0x12C PUSH1 0x8 DUP7 SWAP1 SHR PUSH2 0x22A8 JUMP JUMPDEST PUSH2 0xF9A SWAP1 PUSH1 0x32 PUSH2 0x2137 JUMP JUMPDEST SWAP1 POP PUSH1 0x0 PUSH2 0xFAD PUSH1 0x50 PUSH1 0x10 DUP8 SWAP1 SHR PUSH2 0x22A8 JUMP JUMPDEST PUSH2 0xFB8 SWAP1 PUSH1 0x14 PUSH2 0x2137 JUMP JUMPDEST SWAP1 POP PUSH2 0xFC3 DUP4 PUSH2 0xEC4 JUMP JUMPDEST PUSH2 0xFCC DUP4 PUSH2 0xEC4 JUMP JUMPDEST PUSH2 0xFD5 DUP4 PUSH2 0xEC4 JUMP JUMPDEST PUSH1 0x40 MLOAD PUSH1 0x20 ADD PUSH2 0xFE7 SWAP4 SWAP3 SWAP2 SWAP1 PUSH2 0x255C JUMP JUMPDEST PUSH1 0x40 MLOAD PUSH1 0x20 DUP2 DUP4 SUB SUB DUP2 MSTORE SWAP1 PUSH1 0x40 MSTORE SWAP4 POP POP POP POP PUSH2 0xC87 JUMP JUMPDEST PUSH1 0x6 DUP5 LT ISZERO PUSH2 0x10CE JUMPI PUSH1 0x0 PUSH2 0x1016 PUSH1 0xFA DUP5 PUSH2 0x22A8 JUMP JUMPDEST PUSH2 0x1021 SWAP1 PUSH1 0x32 PUSH2 0x2137 JUMP JUMPDEST SWAP1 POP PUSH1 0x0 PUSH2 0x1034 PUSH1 0xFA PUSH1 0x8 DUP7 SWAP1 SHR PUSH2 0x22A8 JUMP JUMPDEST PUSH2 0x103F SWAP1 PUSH1 0x32 PUSH2 0x2137 JUMP JUMPDEST SWAP1 POP PUSH1 0x0 PUSH2 0x1052 PUSH1 0x64 PUSH1 0x10 DUP8 SWAP1 SHR PUSH2 0x22A8 JUMP JUMPDEST PUSH2 0x105D SWAP1 PUSH1 0x32 PUSH2 0x2137 JUMP JUMPDEST SWAP1 POP PUSH1 0x0 PUSH2 0x1070 PUSH1 0x64 PUSH1 0x18 DUP9 SWAP1 SHR PUSH2 0x22A8 JUMP JUMPDEST PUSH2 0x107B SWAP1 PUSH1 0x32 PUSH2 0x2137 JUMP JUMPDEST SWAP1 POP PUSH2 0x1086 DUP5 PUSH2 0xEC4 JUMP JUMPDEST PUSH2 0x108F DUP5 PUSH2 0xEC4 JUMP JUMPDEST PUSH2 0x1098 DUP5 PUSH2 0xEC4 JUMP JUMPDEST PUSH2 0x10A1 DUP5 PUSH2 0xEC4 JUMP JUMPDEST PUSH1 0x40 MLOAD PUSH1 0x20 ADD PUSH2 0x10B4 SWAP5 SWAP4 SWAP3 SWAP2 SWAP1 PUSH2 0x2607 JUMP JUMPDEST PUSH1 0x40 MLOAD PUSH1 0x20 DUP2 DUP4 SUB SUB DUP2 MSTORE SWAP1 PUSH1 0x40 MSTORE SWAP5 POP POP POP POP POP PUSH2 0xC87 JUMP JUMPDEST PUSH1 0x0 PUSH2 0x10DC PUSH2 0x190 DUP5 PUSH2 0x22A8 JUMP JUMPDEST SWAP1 POP PUSH1 0x0 PUSH2 0x10F0 PUSH2 0x190 PUSH1 0x8 DUP7 SWAP1 SHR PUSH2 0x22A8 JUMP JUMPDEST SWAP1 POP PUSH1 0x0 PUSH2 0x1104 PUSH2 0x190 PUSH1 0x10 DUP8 SWAP1 SHR PUSH2 0x22A8 JUMP JUMPDEST SWAP1 POP PUSH1 0x0 PUSH2 0x1118 PUSH2 0x190 PUSH1 0x18 DUP9 SWAP1 SHR PUSH2 0x22A8 JUMP JUMPDEST SWAP1 POP PUSH2 0x1123 DUP5 PUSH2 0xEC4 JUMP JUMPDEST PUSH2 0x112C DUP5 PUSH2 0xEC4 JUMP JUMPDEST PUSH2 0x1135 DUP5 PUSH2 0xEC4 JUMP JUMPDEST PUSH2 0x113E DUP5 PUSH2 0xEC4 JUMP JUMPDEST PUSH1 0x40 MLOAD PUSH1 0x20 ADD PUSH2 0x10B4 SWAP5 SWAP4 SWAP3 SWAP2 SWAP1 PUSH2 0x26DE JUMP JUMPDEST PUSH1 0x60 PUSH1 0x0 PUSH1 0x40 MLOAD DUP1 PUSH1 0x60 ADD PUSH1 0x40 MSTORE DUP1 PUSH1 0x40 DUP2 MSTORE PUSH1 0x20 ADD PUSH2 0x280E PUSH1 0x40 SWAP2 CODECOPY SWAP1 POP PUSH1 0x0 PUSH1 0x3 DUP5 MLOAD PUSH1 0x2 PUSH2 0x1182 SWAP2 SWAP1 PUSH2 0x2137 JUMP JUMPDEST PUSH2 0x118C SWAP2 SWAP1 PUSH2 0x27CC JUMP JUMPDEST PUSH2 0x1197 SWAP1 PUSH1 0x4 PUSH2 0x27E0 JUMP JUMPDEST SWAP1 POP PUSH1 0x0 DUP2 PUSH8 0xFFFFFFFFFFFFFFFF DUP2 GT ISZERO PUSH2 0x11B4 JUMPI PUSH2 0x11B4 PUSH2 0x1F16 JUMP JUMPDEST PUSH1 0x40 MLOAD SWAP1 DUP1 DUP3 MSTORE DUP1 PUSH1 0x1F ADD PUSH1 0x1F NOT AND PUSH1 0x20 ADD DUP3 ADD PUSH1 0x40 MSTORE DUP1 ISZERO PUSH2 0x11DE JUMPI PUSH1 0x20 DUP3 ADD DUP2 DUP1 CALLDATASIZE DUP4 CALLDATACOPY ADD SWAP1 POP JUMPDEST POP SWAP1 POP PUSH1 0x0 DUP1 JUMPDEST DUP7 MLOAD PUSH2 0x11F2 DUP4 PUSH1 0x3 PUSH2 0x2137 JUMP JUMPDEST GT PUSH2 0x13F9 JUMPI PUSH1 0x0 DUP8 DUP4 DUP2 MLOAD DUP2 LT PUSH2 0x120B JUMPI PUSH2 0x120B PUSH2 0x2176 JUMP JUMPDEST ADD PUSH1 0x20 ADD MLOAD PUSH1 0xF8 SHR SWAP1 POP PUSH1 0x0 DUP9 PUSH2 0x1223 DUP6 PUSH1 0x1 PUSH2 0x2137 JUMP JUMPDEST DUP2 MLOAD DUP2 LT PUSH2 0x1233 JUMPI PUSH2 0x1233 PUSH2 0x2176 JUMP JUMPDEST ADD PUSH1 0x20 ADD MLOAD PUSH1 0xF8 SHR SWAP1 POP PUSH1 0x0 DUP10 PUSH2 0x124B DUP7 PUSH1 0x2 PUSH2 0x2137 JUMP JUMPDEST DUP2 MLOAD DUP2 LT PUSH2 0x125B JUMPI PUSH2 0x125B PUSH2 0x2176 JUMP JUMPDEST ADD PUSH1 0x20 ADD MLOAD DUP9 MLOAD PUSH1 0xF8 SWAP2 SWAP1 SWAP2 SHR SWAP2 POP PUSH1 0x10 DUP5 SWAP1 SHL PUSH1 0x8 DUP5 SWAP1 SHL OR DUP3 OR SWAP1 DUP10 SWAP1 PUSH1 0x12 DUP4 SWAP1 SHR SWAP1 DUP2 LT PUSH2 0x128E JUMPI PUSH2 0x128E PUSH2 0x2176 JUMP JUMPDEST ADD PUSH1 0x20 ADD MLOAD PUSH1 0x1 PUSH1 0x1 PUSH1 0xF8 SHL SUB NOT AND DUP8 DUP7 PUSH2 0x12A8 DUP2 PUSH2 0x215D JUMP JUMPDEST SWAP8 POP DUP2 MLOAD DUP2 LT PUSH2 0x12BA JUMPI PUSH2 0x12BA PUSH2 0x2176 JUMP JUMPDEST PUSH1 0x20 ADD ADD SWAP1 PUSH1 0x1 PUSH1 0x1 PUSH1 0xF8 SHL SUB NOT AND SWAP1 DUP2 PUSH1 0x0 BYTE SWAP1 MSTORE8 POP DUP9 PUSH1 0xC DUP3 SWAP1 SHR PUSH1 0x3F AND DUP2 MLOAD DUP2 LT PUSH2 0x12EA JUMPI PUSH2 0x12EA PUSH2 0x2176 JUMP JUMPDEST ADD PUSH1 0x20 ADD MLOAD PUSH1 0x1 PUSH1 0x1 PUSH1 0xF8 SHL SUB NOT AND DUP8 DUP7 PUSH2 0x1304 DUP2 PUSH2 0x215D JUMP JUMPDEST SWAP8 POP DUP2 MLOAD DUP2 LT PUSH2 0x1316 JUMPI PUSH2 0x1316 PUSH2 0x2176 JUMP JUMPDEST PUSH1 0x20 ADD ADD SWAP1 PUSH1 0x1 PUSH1 0x1 PUSH1 0xF8 SHL SUB NOT AND SWAP1 DUP2 PUSH1 0x0 BYTE SWAP1 MSTORE8 POP DUP9 PUSH1 0x6 DUP3 SWAP1 SHR PUSH1 0x3F AND DUP2 MLOAD DUP2 LT PUSH2 0x1346 JUMPI PUSH2 0x1346 PUSH2 0x2176 JUMP JUMPDEST ADD PUSH1 0x20 ADD MLOAD PUSH1 0x1 PUSH1 0x1 PUSH1 0xF8 SHL SUB NOT AND DUP8 DUP7 PUSH2 0x1360 DUP2 PUSH2 0x215D JUMP JUMPDEST SWAP8 POP DUP2 MLOAD DUP2 LT PUSH2 0x1372 JUMPI PUSH2 0x1372 PUSH2 0x2176 JUMP JUMPDEST PUSH1 0x20 ADD ADD SWAP1 PUSH1 0x1 PUSH1 0x1 PUSH1 0xF8 SHL SUB NOT AND SWAP1 DUP2 PUSH1 0x0 BYTE SWAP1 MSTORE8 POP DUP9 DUP2 PUSH1 0x3F AND DUP2 MLOAD DUP2 LT PUSH2 0x139E JUMPI PUSH2 0x139E PUSH2 0x2176 JUMP JUMPDEST ADD PUSH1 0x20 ADD MLOAD PUSH1 0x1 PUSH1 0x1 PUSH1 0xF8 SHL SUB NOT AND DUP8 DUP7 PUSH2 0x13B8 DUP2 PUSH2 0x215D JUMP JUMPDEST SWAP8 POP DUP2 MLOAD DUP2 LT PUSH2 0x13CA JUMPI PUSH2 0x13CA PUSH2 0x2176 JUMP JUMPDEST PUSH1 0x20 ADD ADD SWAP1 PUSH1 0x1 PUSH1 0x1 PUSH1 0xF8 SHL SUB NOT AND SWAP1 DUP2 PUSH1 0x0 BYTE SWAP1 MSTORE8 POP POP POP POP POP PUSH1 0x3 DUP3 PUSH2 0x13F2 SWAP2 SWAP1 PUSH2 0x2137 JUMP JUMPDEST SWAP2 POP PUSH2 0x11E5 JUMP JUMPDEST DUP7 MLOAD DUP3 LT ISZERO PUSH2 0x16F7 JUMPI PUSH1 0x0 DUP8 DUP4 DUP2 MLOAD DUP2 LT PUSH2 0x1416 JUMPI PUSH2 0x1416 PUSH2 0x2176 JUMP JUMPDEST PUSH1 0x20 SWAP2 ADD ADD MLOAD DUP9 MLOAD PUSH1 0xF8 DUP3 SWAP1 SHR SWAP3 POP PUSH1 0xE8 SWAP2 SWAP1 SWAP2 SHR PUSH3 0xFF0000 AND SWAP1 PUSH2 0x143C DUP6 PUSH1 0x1 PUSH2 0x2137 JUMP JUMPDEST LT ISZERO PUSH2 0x15CC JUMPI PUSH1 0x0 DUP10 PUSH2 0x1450 DUP7 PUSH1 0x1 PUSH2 0x2137 JUMP JUMPDEST DUP2 MLOAD DUP2 LT PUSH2 0x1460 JUMPI PUSH2 0x1460 PUSH2 0x2176 JUMP JUMPDEST PUSH1 0x20 ADD ADD MLOAD PUSH1 0xF8 SHR PUSH1 0xF8 SHL PUSH1 0xF8 SHR PUSH1 0xFF AND SWAP1 POP PUSH1 0x8 DUP2 SWAP1 SHL DUP3 OR SWAP2 POP DUP8 PUSH1 0x12 DUP4 SWAP1 SHR DUP2 MLOAD DUP2 LT PUSH2 0x1492 JUMPI PUSH2 0x1492 PUSH2 0x2176 JUMP JUMPDEST ADD PUSH1 0x20 ADD MLOAD PUSH1 0x1 PUSH1 0x1 PUSH1 0xF8 SHL SUB NOT AND DUP7 DUP6 PUSH2 0x14AC DUP2 PUSH2 0x215D JUMP JUMPDEST SWAP7 POP DUP2 MLOAD DUP2 LT PUSH2 0x14BE JUMPI PUSH2 0x14BE PUSH2 0x2176 JUMP JUMPDEST PUSH1 0x20 ADD ADD SWAP1 PUSH1 0x1 PUSH1 0x1 PUSH1 0xF8 SHL SUB NOT AND SWAP1 DUP2 PUSH1 0x0 BYTE SWAP1 MSTORE8 POP DUP8 PUSH1 0xC DUP4 SWAP1 SHR PUSH1 0x3F AND DUP2 MLOAD DUP2 LT PUSH2 0x14EE JUMPI PUSH2 0x14EE PUSH2 0x2176 JUMP JUMPDEST ADD PUSH1 0x20 ADD MLOAD PUSH1 0x1 PUSH1 0x1 PUSH1 0xF8 SHL SUB NOT AND DUP7 DUP6 PUSH2 0x1508 DUP2 PUSH2 0x215D JUMP JUMPDEST SWAP7 POP DUP2 MLOAD DUP2 LT PUSH2 0x151A JUMPI PUSH2 0x151A PUSH2 0x2176 JUMP JUMPDEST PUSH1 0x20 ADD ADD SWAP1 PUSH1 0x1 PUSH1 0x1 PUSH1 0xF8 SHL SUB NOT AND SWAP1 DUP2 PUSH1 0x0 BYTE SWAP1 MSTORE8 POP DUP8 PUSH1 0x6 DUP4 SWAP1 SHR PUSH1 0x3F AND DUP2 MLOAD DUP2 LT PUSH2 0x154A JUMPI PUSH2 0x154A PUSH2 0x2176 JUMP JUMPDEST ADD PUSH1 0x20 ADD MLOAD PUSH1 0x1 PUSH1 0x1 PUSH1 0xF8 SHL SUB NOT AND DUP7 DUP6 PUSH2 0x1564 DUP2 PUSH2 0x215D JUMP JUMPDEST SWAP7 POP DUP2 MLOAD DUP2 LT PUSH2 0x1576 JUMPI PUSH2 0x1576 PUSH2 0x2176 JUMP JUMPDEST PUSH1 0x20 ADD ADD SWAP1 PUSH1 0x1 PUSH1 0x1 PUSH1 0xF8 SHL SUB NOT AND SWAP1 DUP2 PUSH1 0x0 BYTE SWAP1 MSTORE8 POP PUSH1 0x3D PUSH1 0xF8 SHL DUP7 DUP6 PUSH2 0x159D DUP2 PUSH2 0x215D JUMP JUMPDEST SWAP7 POP DUP2 MLOAD DUP2 LT PUSH2 0x15AF JUMPI PUSH2 0x15AF PUSH2 0x2176 JUMP JUMPDEST PUSH1 0x20 ADD ADD SWAP1 PUSH1 0x1 PUSH1 0x1 PUSH1 0xF8 SHL SUB NOT AND SWAP1 DUP2 PUSH1 0x0 BYTE SWAP1 MSTORE8 POP POP PUSH2 0x16F4 JUMP JUMPDEST DUP7 PUSH1 0x12 DUP3 SWAP1 SHR DUP2 MLOAD DUP2 LT PUSH2 0x15E2 JUMPI PUSH2 0x15E2 PUSH2 0x2176 JUMP JUMPDEST ADD PUSH1 0x20 ADD MLOAD PUSH1 0x1 PUSH1 0x1 PUSH1 0xF8 SHL SUB NOT AND DUP6 DUP5 PUSH2 0x15FC DUP2 PUSH2 0x215D JUMP JUMPDEST SWAP6 POP DUP2 MLOAD DUP2 LT PUSH2 0x160E JUMPI PUSH2 0x160E PUSH2 0x2176 JUMP JUMPDEST PUSH1 0x20 ADD ADD SWAP1 PUSH1 0x1 PUSH1 0x1 PUSH1 0xF8 SHL SUB NOT AND SWAP1 DUP2 PUSH1 0x0 BYTE SWAP1 MSTORE8 POP DUP7 PUSH1 0xC DUP3 SWAP1 SHR PUSH1 0x3F AND DUP2 MLOAD DUP2 LT PUSH2 0x163E JUMPI PUSH2 0x163E PUSH2 0x2176 JUMP JUMPDEST ADD PUSH1 0x20 ADD MLOAD PUSH1 0x1 PUSH1 0x1 PUSH1 0xF8 SHL SUB NOT AND DUP6 DUP5 PUSH2 0x1658 DUP2 PUSH2 0x215D JUMP JUMPDEST SWAP6 POP DUP2 MLOAD DUP2 LT PUSH2 0x166A JUMPI PUSH2 0x166A PUSH2 0x2176 JUMP JUMPDEST PUSH1 0x20 ADD ADD SWAP1 PUSH1 0x1 PUSH1 0x1 PUSH1 0xF8 SHL SUB NOT AND SWAP1 DUP2 PUSH1 0x0 BYTE SWAP1 MSTORE8 POP PUSH1 0x3D PUSH1 0xF8 SHL DUP6 DUP5 PUSH2 0x1691 DUP2 PUSH2 0x215D JUMP JUMPDEST SWAP6 POP DUP2 MLOAD DUP2 LT PUSH2 0x16A3 JUMPI PUSH2 0x16A3 PUSH2 0x2176 JUMP JUMPDEST PUSH1 0x20 ADD ADD SWAP1 PUSH1 0x1 PUSH1 0x1 PUSH1 0xF8 SHL SUB NOT AND SWAP1 DUP2 PUSH1 0x0 BYTE SWAP1 MSTORE8 POP PUSH1 0x3D PUSH1 0xF8 SHL DUP6 DUP5 PUSH2 0x16CA DUP2 PUSH2 0x215D JUMP JUMPDEST SWAP6 POP DUP2 MLOAD DUP2 LT PUSH2 0x16DC JUMPI PUSH2 0x16DC PUSH2 0x2176 JUMP JUMPDEST PUSH1 0x20 ADD ADD SWAP1 PUSH1 0x1 PUSH1 0x1 PUSH1 0xF8 SHL SUB NOT AND SWAP1 DUP2 PUSH1 0x0 BYTE SWAP1 MSTORE8 POP JUMPDEST POP POP JUMPDEST POP SWAP1 SWAP6 SWAP5 POP POP POP POP POP JUMP JUMPDEST PUSH1 0x0 PUSH1 0x1 PUSH1 0x1 PUSH1 0xE0 SHL SUB NOT DUP3 AND PUSH4 0x80AC58CD PUSH1 0xE0 SHL EQ DUP1 PUSH2 0x1733 JUMPI POP PUSH1 0x1 PUSH1 0x1 PUSH1 0xE0 SHL SUB NOT DUP3 AND PUSH4 0x5B5E139F PUSH1 0xE0 SHL EQ JUMPDEST DUP1 PUSH2 0x366 JUMPI POP PUSH4 0x1FFC9A7 PUSH1 0xE0 SHL PUSH1 0x1 PUSH1 0x1 PUSH1 0xE0 SHL SUB NOT DUP4 AND EQ PUSH2 0x366 JUMP JUMPDEST DUP1 DUP1 PUSH2 0x1766 JUMPI POP PUSH1 0x1 PUSH1 0x1 PUSH1 0xA0 SHL SUB DUP3 AND ISZERO ISZERO JUMPDEST ISZERO PUSH2 0x1828 JUMPI PUSH1 0x0 PUSH2 0x1776 DUP5 PUSH2 0xC04 JUMP JUMPDEST SWAP1 POP PUSH1 0x1 PUSH1 0x1 PUSH1 0xA0 SHL SUB DUP4 AND ISZERO DUP1 ISZERO SWAP1 PUSH2 0x17A2 JUMPI POP DUP3 PUSH1 0x1 PUSH1 0x1 PUSH1 0xA0 SHL SUB AND DUP2 PUSH1 0x1 PUSH1 0x1 PUSH1 0xA0 SHL SUB AND EQ ISZERO JUMPDEST DUP1 ISZERO PUSH2 0x17B5 JUMPI POP PUSH2 0x17B3 DUP2 DUP5 PUSH2 0xB73 JUMP JUMPDEST ISZERO JUMPDEST ISZERO PUSH2 0x17DE JUMPI PUSH1 0x40 MLOAD PUSH4 0xA9FBF51F PUSH1 0xE0 SHL DUP2 MSTORE PUSH1 0x1 PUSH1 0x1 PUSH1 0xA0 SHL SUB DUP5 AND PUSH1 0x4 DUP3 ADD MSTORE PUSH1 0x24 ADD PUSH2 0x477 JUMP JUMPDEST DUP2 ISZERO PUSH2 0x1826 JUMPI DUP4 DUP6 PUSH1 0x1 PUSH1 0x1 PUSH1 0xA0 SHL SUB AND DUP3 PUSH1 0x1 PUSH1 0x1 PUSH1 0xA0 SHL SUB AND PUSH32 0x8C5BE1E5EBEC7D5BD14F71427D1E84F3DD0314C0F7B2291E5B200AC8C7C3B925 PUSH1 0x40 MLOAD PUSH1 0x40 MLOAD DUP1 SWAP2 SUB SWAP1 LOG4 JUMPDEST POP JUMPDEST POP POP PUSH1 0x0 SWAP1 DUP2 MSTORE PUSH1 0x4 PUSH1 0x20 MSTORE PUSH1 0x40 SWAP1 KECCAK256 DUP1 SLOAD PUSH1 0x1 PUSH1 0x1 PUSH1 0xA0 SHL SUB NOT AND PUSH1 0x1 PUSH1 0x1 PUSH1 0xA0 SHL SUB SWAP3 SWAP1 SWAP3 AND SWAP2 SWAP1 SWAP2 OR SWAP1 SSTORE JUMP JUMPDEST PUSH1 0x0 DUP1 PUSH2 0x1866 DUP6 DUP6 DUP6 PUSH2 0x1A15 JUMP JUMPDEST SWAP1 POP PUSH1 0x1 PUSH1 0x1 PUSH1 0xA0 SHL SUB DUP2 AND PUSH2 0x18C3 JUMPI PUSH2 0x18BE DUP5 PUSH1 0x8 DUP1 SLOAD PUSH1 0x0 DUP4 DUP2 MSTORE PUSH1 0x9 PUSH1 0x20 MSTORE PUSH1 0x40 DUP2 KECCAK256 DUP3 SWAP1 SSTORE PUSH1 0x1 DUP3 ADD DUP4 SSTORE SWAP2 SWAP1 SWAP2 MSTORE PUSH32 0xF3F7A9FE364FAAB93B216DA50A3214154F22A0A2B415B23A84C8169E8B636EE3 ADD SSTORE JUMP JUMPDEST PUSH2 0x18E6 JUMP JUMPDEST DUP5 PUSH1 0x1 PUSH1 0x1 PUSH1 0xA0 SHL SUB AND DUP2 PUSH1 0x1 PUSH1 0x1 PUSH1 0xA0 SHL SUB AND EQ PUSH2 0x18E6 JUMPI PUSH2 0x18E6 DUP2 DUP6 PUSH2 0x1B0E JUMP JUMPDEST PUSH1 0x1 PUSH1 0x1 PUSH1 0xA0 SHL SUB DUP6 AND PUSH2 0x1902 JUMPI PUSH2 0x18FD DUP5 PUSH2 0x1B8F JUMP JUMPDEST PUSH2 0xC84 JUMP JUMPDEST DUP5 PUSH1 0x1 PUSH1 0x1 PUSH1 0xA0 SHL SUB AND DUP2 PUSH1 0x1 PUSH1 0x1 PUSH1 0xA0 SHL SUB AND EQ PUSH2 0xC84 JUMPI PUSH2 0xC84 DUP6 DUP6 PUSH2 0x1C3E JUMP JUMPDEST PUSH2 0x192F DUP4 DUP4 PUSH2 0x1C8E JUMP JUMPDEST PUSH2 0x6E1 CALLER PUSH1 0x0 DUP6 DUP6 DUP6 PUSH2 0xD99 JUMP JUMPDEST PUSH1 0x0 DUP1 PUSH19 0x184F03E93FF9F4DAA797ED6E38ED64BF6A1F01 PUSH1 0x40 SHL DUP4 LT PUSH2 0x197C JUMPI PUSH19 0x184F03E93FF9F4DAA797ED6E38ED64BF6A1F01 PUSH1 0x40 SHL DUP4 DIV SWAP3 POP PUSH1 0x40 ADD JUMPDEST PUSH14 0x4EE2D6D415B85ACEF8100000000 DUP4 LT PUSH2 0x19A8 JUMPI PUSH14 0x4EE2D6D415B85ACEF8100000000 DUP4 DIV SWAP3 POP PUSH1 0x20 ADD JUMPDEST PUSH7 0x2386F26FC10000 DUP4 LT PUSH2 0x19C6 JUMPI PUSH7 0x2386F26FC10000 DUP4 DIV SWAP3 POP PUSH1 0x10 ADD JUMPDEST PUSH4 0x5F5E100 DUP4 LT PUSH2 0x19DE JUMPI PUSH4 0x5F5E100 DUP4 DIV SWAP3 POP PUSH1 0x8 ADD JUMPDEST PUSH2 0x2710 DUP4 LT PUSH2 0x19F2 JUMPI PUSH2 0x2710 DUP4 DIV SWAP3 POP PUSH1 0x4 ADD JUMPDEST PUSH1 0x64 DUP4 LT PUSH2 0x1A04 JUMPI PUSH1 0x64 DUP4 DIV SWAP3 POP PUSH1 0x2 ADD JUMPDEST PUSH1 0xA DUP4 LT PUSH2 0x366 JUMPI PUSH1 0x1 ADD SWAP3 SWAP2 POP POP JUMP JUMPDEST PUSH1 0x0 DUP3 DUP2 MSTORE PUSH1 0x2 PUSH1 0x20 MSTORE PUSH1 0x40 DUP2 KECCAK256 SLOAD PUSH1 0x1 PUSH1 0x1 PUSH1 0xA0 SHL SUB SWAP1 DUP2 AND SWAP1 DUP4 AND ISZERO PUSH2 0x1A42 JUMPI PUSH2 0x1A42 DUP2 DUP5 DUP7 PUSH2 0x1CF3 JUMP JUMPDEST PUSH1 0x1 PUSH1 0x1 PUSH1 0xA0 SHL SUB DUP2 AND ISZERO PUSH2 0x1A80 JUMPI PUSH2 0x1A5F PUSH1 0x0 DUP6 PUSH1 0x0 DUP1 PUSH2 0x1752 JUMP JUMPDEST PUSH1 0x1 PUSH1 0x1 PUSH1 0xA0 SHL SUB DUP2 AND PUSH1 0x0 SWAP1 DUP2 MSTORE PUSH1 0x3 PUSH1 0x20 MSTORE PUSH1 0x40 SWAP1 KECCAK256 DUP1 SLOAD PUSH1 0x0 NOT ADD SWAP1 SSTORE JUMPDEST PUSH1 0x1 PUSH1 0x1 PUSH1 0xA0 SHL SUB DUP6 AND ISZERO PUSH2 0x1AAF JUMPI PUSH1 0x1 PUSH1 0x1 PUSH1 0xA0 SHL SUB DUP6 AND PUSH1 0x0 SWAP1 DUP2 MSTORE PUSH1 0x3 PUSH1 0x20 MSTORE PUSH1 0x40 SWAP1 KECCAK256 DUP1 SLOAD PUSH1 0x1 ADD SWAP1 SSTORE JUMPDEST PUSH1 0x0 DUP5 DUP2 MSTORE PUSH1 0x2 PUSH1 0x20 MSTORE PUSH1 0x40 DUP1 DUP3 KECCAK256 DUP1 SLOAD PUSH1 0x1 PUSH1 0x1 PUSH1 0xA0 SHL SUB NOT AND PUSH1 0x1 PUSH1 0x1 PUSH1 0xA0 SHL SUB DUP10 DUP2 AND SWAP2 DUP3 OR SWAP1 SWAP3 SSTORE SWAP2 MLOAD DUP8 SWAP4 SWAP2 DUP6 AND SWAP2 PUSH32 0xDDF252AD1BE2C89B69C2B068FC378DAA952BA7F163C4A11628F55A4DF523B3EF SWAP2 LOG4 SWAP5 SWAP4 POP POP POP POP JUMP JUMPDEST PUSH1 0x0 PUSH2 0x1B19 DUP4 PUSH2 0x95D JUMP JUMPDEST PUSH1 0x0 DUP4 DUP2 MSTORE PUSH1 0x7 PUSH1 0x20 SWAP1 DUP2 MSTORE PUSH1 0x40 DUP1 DUP4 KECCAK256 SLOAD PUSH1 0x1 PUSH1 0x1 PUSH1 0xA0 SHL SUB DUP9 AND DUP5 MSTORE PUSH1 0x6 SWAP1 SWAP3 MSTORE SWAP1 SWAP2 KECCAK256 SWAP2 SWAP3 POP SWAP1 DUP2 DUP4 EQ PUSH2 0x1B70 JUMPI PUSH1 0x0 DUP4 DUP2 MSTORE PUSH1 0x20 DUP3 DUP2 MSTORE PUSH1 0x40 DUP1 DUP4 KECCAK256 SLOAD DUP6 DUP5 MSTORE DUP2 DUP5 KECCAK256 DUP2 SWAP1 SSTORE DUP4 MSTORE PUSH1 0x7 SWAP1 SWAP2 MSTORE SWAP1 KECCAK256 DUP3 SWAP1 SSTORE JUMPDEST PUSH1 0x0 SWAP4 DUP5 MSTORE PUSH1 0x7 PUSH1 0x20 SWAP1 DUP2 MSTORE PUSH1 0x40 DUP1 DUP7 KECCAK256 DUP7 SWAP1 SSTORE SWAP4 DUP6 MSTORE MSTORE POP DUP2 KECCAK256 SSTORE POP JUMP JUMPDEST PUSH1 0x8 SLOAD PUSH1 0x0 SWAP1 PUSH2 0x1BA1 SWAP1 PUSH1 0x1 SWAP1 PUSH2 0x214A JUMP JUMPDEST PUSH1 0x0 DUP4 DUP2 MSTORE PUSH1 0x9 PUSH1 0x20 MSTORE PUSH1 0x40 DUP2 KECCAK256 SLOAD PUSH1 0x8 DUP1 SLOAD SWAP4 SWAP5 POP SWAP1 SWAP3 DUP5 SWAP1 DUP2 LT PUSH2 0x1BC9 JUMPI PUSH2 0x1BC9 PUSH2 0x2176 JUMP JUMPDEST SWAP1 PUSH1 0x0 MSTORE PUSH1 0x20 PUSH1 0x0 KECCAK256 ADD SLOAD SWAP1 POP DUP1 PUSH1 0x8 DUP4 DUP2 SLOAD DUP2 LT PUSH2 0x1BEA JUMPI PUSH2 0x1BEA PUSH2 0x2176 JUMP JUMPDEST PUSH1 0x0 SWAP2 DUP3 MSTORE PUSH1 0x20 DUP1 DUP4 KECCAK256 SWAP1 SWAP2 ADD SWAP3 SWAP1 SWAP3 SSTORE DUP3 DUP2 MSTORE PUSH1 0x9 SWAP1 SWAP2 MSTORE PUSH1 0x40 DUP1 DUP3 KECCAK256 DUP5 SWAP1 SSTORE DUP6 DUP3 MSTORE DUP2 KECCAK256 SSTORE PUSH1 0x8 DUP1 SLOAD DUP1 PUSH2 0x1C22 JUMPI PUSH2 0x1C22 PUSH2 0x27F7 JUMP JUMPDEST PUSH1 0x1 SWAP1 SUB DUP2 DUP2 SWAP1 PUSH1 0x0 MSTORE PUSH1 0x20 PUSH1 0x0 KECCAK256 ADD PUSH1 0x0 SWAP1 SSTORE SWAP1 SSTORE POP POP POP POP JUMP JUMPDEST PUSH1 0x0 PUSH1 0x1 PUSH2 0x1C4B DUP5 PUSH2 0x95D JUMP JUMPDEST PUSH2 0x1C55 SWAP2 SWAP1 PUSH2 0x214A JUMP JUMPDEST PUSH1 0x1 PUSH1 0x1 PUSH1 0xA0 SHL SUB SWAP1 SWAP4 AND PUSH1 0x0 SWAP1 DUP2 MSTORE PUSH1 0x6 PUSH1 0x20 SWAP1 DUP2 MSTORE PUSH1 0x40 DUP1 DUP4 KECCAK256 DUP7 DUP5 MSTORE DUP3 MSTORE DUP1 DUP4 KECCAK256 DUP6 SWAP1 SSTORE SWAP4 DUP3 MSTORE PUSH1 0x7 SWAP1 MSTORE SWAP2 SWAP1 SWAP2 KECCAK256 SWAP2 SWAP1 SWAP2 SSTORE POP JUMP JUMPDEST PUSH1 0x1 PUSH1 0x1 PUSH1 0xA0 SHL SUB DUP3 AND PUSH2 0x1CB8 JUMPI PUSH1 0x40 MLOAD PUSH4 0x32505749 PUSH1 0xE1 SHL DUP2 MSTORE PUSH1 0x0 PUSH1 0x4 DUP3 ADD MSTORE PUSH1 0x24 ADD PUSH2 0x477 JUMP JUMPDEST PUSH1 0x0 PUSH2 0x1CC6 DUP4 DUP4 PUSH1 0x0 PUSH2 0xC77 JUMP JUMPDEST SWAP1 POP PUSH1 0x1 PUSH1 0x1 PUSH1 0xA0 SHL SUB DUP2 AND ISZERO PUSH2 0x6E1 JUMPI PUSH1 0x40 MLOAD PUSH4 0x39E35637 PUSH1 0xE1 SHL DUP2 MSTORE PUSH1 0x0 PUSH1 0x4 DUP3 ADD MSTORE PUSH1 0x24 ADD PUSH2 0x477 JUMP JUMPDEST PUSH2 0x1CFE DUP4 DUP4 DUP4 PUSH2 0x1D57 JUMP JUMPDEST PUSH2 0x6E1 JUMPI PUSH1 0x1 PUSH1 0x1 PUSH1 0xA0 SHL SUB DUP4 AND PUSH2 0x1D2C JUMPI PUSH1 0x40 MLOAD PUSH4 0x7E273289 PUSH1 0xE0 SHL DUP2 MSTORE PUSH1 0x4 DUP2 ADD DUP3 SWAP1 MSTORE PUSH1 0x24 ADD PUSH2 0x477 JUMP JUMPDEST PUSH1 0x40 MLOAD PUSH4 0x177E802F PUSH1 0xE0 SHL DUP2 MSTORE PUSH1 0x1 PUSH1 0x1 PUSH1 0xA0 SHL SUB DUP4 AND PUSH1 0x4 DUP3 ADD MSTORE PUSH1 0x24 DUP2 ADD DUP3 SWAP1 MSTORE PUSH1 0x44 ADD PUSH2 0x477 JUMP JUMPDEST PUSH1 0x0 PUSH1 0x1 PUSH1 0x1 PUSH1 0xA0 SHL SUB DUP4 AND ISZERO DUP1 ISZERO SWAP1 PUSH2 0xC84 JUMPI POP DUP3 PUSH1 0x1 PUSH1 0x1 PUSH1 0xA0 SHL SUB AND DUP5 PUSH1 0x1 PUSH1 0x1 PUSH1 0xA0 SHL SUB AND EQ DUP1 PUSH2 0x1D91 JUMPI POP PUSH2 0x1D91 DUP5 DUP5 PUSH2 0xB73 JUMP JUMPDEST DUP1 PUSH2 0xC84 JUMPI POP POP PUSH1 0x0 SWAP1 DUP2 MSTORE PUSH1 0x4 PUSH1 0x20 MSTORE PUSH1 0x40 SWAP1 KECCAK256 SLOAD PUSH1 0x1 PUSH1 0x1 PUSH1 0xA0 SHL SUB SWAP1 DUP2 AND SWAP2 AND EQ SWAP2 SWAP1 POP JUMP JUMPDEST PUSH1 0x1 PUSH1 0x1 PUSH1 0xE0 SHL SUB NOT DUP2 AND DUP2 EQ PUSH2 0xBDC JUMPI PUSH1 0x0 DUP1 REVERT JUMPDEST PUSH1 0x0 PUSH1 0x20 DUP3 DUP5 SUB SLT ISZERO PUSH2 0x1DE2 JUMPI PUSH1 0x0 DUP1 REVERT JUMPDEST DUP2 CALLDATALOAD PUSH2 0xC87 DUP2 PUSH2 0x1DBA JUMP JUMPDEST PUSH1 0x0 JUMPDEST DUP4 DUP2 LT ISZERO PUSH2 0x1E08 JUMPI DUP2 DUP2 ADD MLOAD DUP4 DUP3 ADD MSTORE PUSH1 0x20 ADD PUSH2 0x1DF0 JUMP JUMPDEST POP POP PUSH1 0x0 SWAP2 ADD MSTORE JUMP JUMPDEST PUSH1 0x0 DUP2 MLOAD DUP1 DUP5 MSTORE PUSH2 0x1E29 DUP2 PUSH1 0x20 DUP7 ADD PUSH1 0x20 DUP7 ADD PUSH2 0x1DED JUMP JUMPDEST PUSH1 0x1F ADD PUSH1 0x1F NOT AND SWAP3 SWAP1 SWAP3 ADD PUSH1 0x20 ADD SWAP3 SWAP2 POP POP JUMP JUMPDEST PUSH1 0x20 DUP2 MSTORE PUSH1 0x0 PUSH2 0xC87 PUSH1 0x20 DUP4 ADD DUP5 PUSH2 0x1E11 JUMP JUMPDEST PUSH1 0x0 PUSH1 0x20 DUP3 DUP5 SUB SLT ISZERO PUSH2 0x1E62 JUMPI PUSH1 0x0 DUP1 REVERT JUMPDEST POP CALLDATALOAD SWAP2 SWAP1 POP JUMP JUMPDEST DUP1 CALLDATALOAD PUSH1 0x1 PUSH1 0x1 PUSH1 0xA0 SHL SUB DUP2 AND DUP2 EQ PUSH2 0x1E80 JUMPI PUSH1 0x0 DUP1 REVERT JUMPDEST SWAP2 SWAP1 POP JUMP JUMPDEST PUSH1 0x0 DUP1 PUSH1 0x40 DUP4 DUP6 SUB SLT ISZERO PUSH2 0x1E98 JUMPI PUSH1 0x0 DUP1 REVERT JUMPDEST PUSH2 0x1EA1 DUP4 PUSH2 0x1E69 JUMP JUMPDEST SWAP5 PUSH1 0x20 SWAP4 SWAP1 SWAP4 ADD CALLDATALOAD SWAP4 POP POP POP JUMP JUMPDEST DUP1 CALLDATALOAD DUP1 ISZERO ISZERO DUP2 EQ PUSH2 0x1E80 JUMPI PUSH1 0x0 DUP1 REVERT JUMPDEST PUSH1 0x0 PUSH1 0x20 DUP3 DUP5 SUB SLT ISZERO PUSH2 0x1ED1 JUMPI PUSH1 0x0 DUP1 REVERT JUMPDEST PUSH2 0xC87 DUP3 PUSH2 0x1EAF JUMP JUMPDEST PUSH1 0x0 DUP1 PUSH1 0x0 PUSH1 0x60 DUP5 DUP7 SUB SLT ISZERO PUSH2 0x1EEF JUMPI PUSH1 0x0 DUP1 REVERT JUMPDEST PUSH2 0x1EF8 DUP5 PUSH2 0x1E69 JUMP JUMPDEST SWAP3 POP PUSH2 0x1F06 PUSH1 0x20 DUP6 ADD PUSH2 0x1E69 JUMP JUMPDEST SWAP2 POP PUSH1 0x40 DUP5 ADD CALLDATALOAD SWAP1 POP SWAP3 POP SWAP3 POP SWAP3 JUMP JUMPDEST PUSH4 0x4E487B71 PUSH1 0xE0 SHL PUSH1 0x0 MSTORE PUSH1 0x41 PUSH1 0x4 MSTORE PUSH1 0x24 PUSH1 0x0 REVERT JUMPDEST PUSH1 0x0 PUSH8 0xFFFFFFFFFFFFFFFF DUP1 DUP5 GT ISZERO PUSH2 0x1F47 JUMPI PUSH2 0x1F47 PUSH2 0x1F16 JUMP JUMPDEST PUSH1 0x40 MLOAD PUSH1 0x1F DUP6 ADD PUSH1 0x1F NOT SWAP1 DUP2 AND PUSH1 0x3F ADD AND DUP2 ADD SWAP1 DUP3 DUP3 GT DUP2 DUP4 LT OR ISZERO PUSH2 0x1F6F JUMPI PUSH2 0x1F6F PUSH2 0x1F16 JUMP JUMPDEST DUP2 PUSH1 0x40 MSTORE DUP1 SWAP4 POP DUP6 DUP2 MSTORE DUP7 DUP7 DUP7 ADD GT ISZERO PUSH2 0x1F88 JUMPI PUSH1 0x0 DUP1 REVERT JUMPDEST DUP6 DUP6 PUSH1 0x20 DUP4 ADD CALLDATACOPY PUSH1 0x0 PUSH1 0x20 DUP8 DUP4 ADD ADD MSTORE POP POP POP SWAP4 SWAP3 POP POP POP JUMP JUMPDEST PUSH1 0x0 PUSH1 0x20 DUP3 DUP5 SUB SLT ISZERO PUSH2 0x1FB4 JUMPI PUSH1 0x0 DUP1 REVERT JUMPDEST DUP2 CALLDATALOAD PUSH8 0xFFFFFFFFFFFFFFFF DUP2 GT ISZERO PUSH2 0x1FCB JUMPI PUSH1 0x0 DUP1 REVERT JUMPDEST DUP3 ADD PUSH1 0x1F DUP2 ADD DUP5 SGT PUSH2 0x1FDC JUMPI PUSH1 0x0 DUP1 REVERT JUMPDEST PUSH2 0x1FEB DUP5 DUP3 CALLDATALOAD PUSH1 0x20 DUP5 ADD PUSH2 0x1F2C JUMP JUMPDEST SWAP5 SWAP4 POP POP POP POP JUMP JUMPDEST PUSH1 0x0 PUSH1 0x20 DUP3 DUP5 SUB SLT ISZERO PUSH2 0x2005 JUMPI PUSH1 0x0 DUP1 REVERT JUMPDEST PUSH2 0xC87 DUP3 PUSH2 0x1E69 JUMP JUMPDEST PUSH1 0x0 DUP1 PUSH1 0x40 DUP4 DUP6 SUB SLT ISZERO PUSH2 0x2021 JUMPI PUSH1 0x0 DUP1 REVERT JUMPDEST PUSH2 0x202A DUP4 PUSH2 0x1E69 JUMP JUMPDEST SWAP2 POP PUSH2 0x2038 PUSH1 0x20 DUP5 ADD PUSH2 0x1EAF JUMP JUMPDEST SWAP1 POP SWAP3 POP SWAP3 SWAP1 POP JUMP JUMPDEST PUSH1 0x0 DUP1 PUSH1 0x0 DUP1 PUSH1 0x80 DUP6 DUP8 SUB SLT ISZERO PUSH2 0x2057 JUMPI PUSH1 0x0 DUP1 REVERT JUMPDEST PUSH2 0x2060 DUP6 PUSH2 0x1E69 JUMP JUMPDEST SWAP4 POP PUSH2 0x206E PUSH1 0x20 DUP7 ADD PUSH2 0x1E69 JUMP JUMPDEST SWAP3 POP PUSH1 0x40 DUP6 ADD CALLDATALOAD SWAP2 POP PUSH1 0x60 DUP6 ADD CALLDATALOAD PUSH8 0xFFFFFFFFFFFFFFFF DUP2 GT ISZERO PUSH2 0x2091 JUMPI PUSH1 0x0 DUP1 REVERT JUMPDEST DUP6 ADD PUSH1 0x1F DUP2 ADD DUP8 SGT PUSH2 0x20A2 JUMPI PUSH1 0x0 DUP1 REVERT JUMPDEST PUSH2 0x20B1 DUP8 DUP3 CALLDATALOAD PUSH1 0x20 DUP5 ADD PUSH2 0x1F2C JUMP JUMPDEST SWAP2 POP POP SWAP3 SWAP6 SWAP2 SWAP5 POP SWAP3 POP JUMP JUMPDEST PUSH1 0x0 DUP1 PUSH1 0x40 DUP4 DUP6 SUB SLT ISZERO PUSH2 0x20D0 JUMPI PUSH1 0x0 DUP1 REVERT JUMPDEST PUSH2 0x20D9 DUP4 PUSH2 0x1E69 JUMP JUMPDEST SWAP2 POP PUSH2 0x2038 PUSH1 0x20 DUP5 ADD PUSH2 0x1E69 JUMP JUMPDEST PUSH1 0x1 DUP2 DUP2 SHR SWAP1 DUP3 AND DUP1 PUSH2 0x20FB JUMPI PUSH1 0x7F DUP3 AND SWAP2 POP JUMPDEST PUSH1 0x20 DUP3 LT DUP2 SUB PUSH2 0x211B JUMPI PUSH4 0x4E487B71 PUSH1 0xE0 SHL PUSH1 0x0 MSTORE PUSH1 0x22 PUSH1 0x4 MSTORE PUSH1 0x24 PUSH1 0x0 REVERT JUMPDEST POP SWAP2 SWAP1 POP JUMP JUMPDEST PUSH4 0x4E487B71 PUSH1 0xE0 SHL PUSH1 0x0 MSTORE PUSH1 0x11 PUSH1 0x4 MSTORE PUSH1 0x24 PUSH1 0x0 REVERT JUMPDEST DUP1 DUP3 ADD DUP1 DUP3 GT ISZERO PUSH2 0x366 JUMPI PUSH2 0x366 PUSH2 0x2121 JUMP JUMPDEST DUP2 DUP2 SUB DUP2 DUP2 GT ISZERO PUSH2 0x366 JUMPI PUSH2 0x366 PUSH2 0x2121 JUMP JUMPDEST PUSH1 0x0 PUSH1 0x1 DUP3 ADD PUSH2 0x216F JUMPI PUSH2 0x216F PUSH2 0x2121 JUMP JUMPDEST POP PUSH1 0x1 ADD SWAP1 JUMP JUMPDEST PUSH4 0x4E487B71 PUSH1 0xE0 SHL PUSH1 0x0 MSTORE PUSH1 0x32 PUSH1 0x4 MSTORE PUSH1 0x24 PUSH1 0x0 REVERT JUMPDEST PUSH1 0x1F DUP3 GT ISZERO PUSH2 0x6E1 JUMPI PUSH1 0x0 DUP2 DUP2 MSTORE PUSH1 0x20 DUP2 KECCAK256 PUSH1 0x1F DUP6 ADD PUSH1 0x5 SHR DUP2 ADD PUSH1 0x20 DUP7 LT ISZERO PUSH2 0x21B3 JUMPI POP DUP1 JUMPDEST PUSH1 0x1F DUP6 ADD PUSH1 0x5 SHR DUP3 ADD SWAP2 POP JUMPDEST DUP2 DUP2 LT ISZERO PUSH2 0xEBB JUMPI DUP3 DUP2 SSTORE PUSH1 0x1 ADD PUSH2 0x21BF JUMP JUMPDEST DUP2 MLOAD PUSH8 0xFFFFFFFFFFFFFFFF DUP2 GT ISZERO PUSH2 0x21EC JUMPI PUSH2 0x21EC PUSH2 0x1F16 JUMP JUMPDEST PUSH2 0x2200 DUP2 PUSH2 0x21FA DUP5 SLOAD PUSH2 0x20E7 JUMP JUMPDEST DUP5 PUSH2 0x218C JUMP JUMPDEST PUSH1 0x20 DUP1 PUSH1 0x1F DUP4 GT PUSH1 0x1 DUP2 EQ PUSH2 0x2235 JUMPI PUSH1 0x0 DUP5 ISZERO PUSH2 0x221D JUMPI POP DUP6 DUP4 ADD MLOAD JUMPDEST PUSH1 0x0 NOT PUSH1 0x3 DUP7 SWAP1 SHL SHR NOT AND PUSH1 0x1 DUP6 SWAP1 SHL OR DUP6 SSTORE PUSH2 0xEBB JUMP JUMPDEST PUSH1 0x0 DUP6 DUP2 MSTORE PUSH1 0x20 DUP2 KECCAK256 PUSH1 0x1F NOT DUP7 AND SWAP2 JUMPDEST DUP3 DUP2 LT ISZERO PUSH2 0x2264 JUMPI DUP9 DUP7 ADD MLOAD DUP3 SSTORE SWAP5 DUP5 ADD SWAP5 PUSH1 0x1 SWAP1 SWAP2 ADD SWAP1 DUP5 ADD PUSH2 0x2245 JUMP JUMPDEST POP DUP6 DUP3 LT ISZERO PUSH2 0x2282 JUMPI DUP8 DUP6 ADD MLOAD PUSH1 0x0 NOT PUSH1 0x3 DUP9 SWAP1 SHL PUSH1 0xF8 AND SHR NOT AND DUP2 SSTORE JUMPDEST POP POP POP POP POP PUSH1 0x1 SWAP1 DUP2 SHL ADD SWAP1 SSTORE POP JUMP JUMPDEST PUSH4 0x4E487B71 PUSH1 0xE0 SHL PUSH1 0x0 MSTORE PUSH1 0x12 PUSH1 0x4 MSTORE PUSH1 0x24 PUSH1 0x0 REVERT JUMPDEST PUSH1 0x0 DUP3 PUSH2 0x22B7 JUMPI PUSH2 0x22B7 PUSH2 0x2292 JUMP JUMPDEST POP MOD SWAP1 JUMP JUMPDEST PUSH1 0x0 DUP2 MLOAD PUSH2 0x22CE DUP2 DUP6 PUSH1 0x20 DUP7 ADD PUSH2 0x1DED JUMP JUMPDEST SWAP3 SWAP1 SWAP3 ADD SWAP3 SWAP2 POP POP JUMP JUMPDEST PUSH32 0x3C73766720786D6C6E733D22687474703A2F2F7777772E77332E6F72672F3230 DUP2 MSTORE PUSH32 0x30302F737667222077696474683D2234303022206865696768743D2234303022 PUSH1 0x20 DUP3 ADD MSTORE PUSH32 0x2076696577426F783D223020302034303020343030223E000000000000000000 PUSH1 0x40 DUP3 ADD MSTORE PUSH32 0x3C726563742077696474683D2234303022206865696768743D22343030222066 PUSH1 0x57 DUP3 ADD MSTORE PUSH9 0xD2D8D87A44E4CEC45 PUSH1 0xBB SHL PUSH1 0x77 DUP3 ADD MSTORE PUSH1 0x0 DUP7 MLOAD PUSH2 0x2394 DUP2 PUSH1 0x80 DUP6 ADD PUSH1 0x20 DUP12 ADD PUSH2 0x1DED JUMP JUMPDEST DUP1 DUP4 ADD SWAP1 POP PUSH1 0xB PUSH1 0xFA SHL DUP1 PUSH1 0x80 DUP4 ADD MSTORE DUP8 MLOAD PUSH2 0x23B7 DUP2 PUSH1 0x81 DUP6 ADD PUSH1 0x20 DUP13 ADD PUSH2 0x1DED JUMP JUMPDEST PUSH1 0x81 SWAP3 ADD SWAP2 DUP3 ADD MSTORE DUP6 MLOAD PUSH2 0x23D2 DUP2 PUSH1 0x82 DUP5 ADD PUSH1 0x20 DUP11 ADD PUSH2 0x1DED JUMP JUMPDEST PUSH2 0x24B0 PUSH2 0x249E PUSH2 0x248B PUSH2 0x2485 PUSH2 0x2478 PUSH2 0x2403 PUSH2 0x23FD PUSH1 0x82 DUP9 DUP11 ADD ADD PUSH4 0x1491179F PUSH1 0xE1 SHL DUP2 MSTORE PUSH1 0x4 ADD SWAP1 JUMP JUMPDEST DUP13 PUSH2 0x22BC JUMP JUMPDEST PUSH32 0x3C7465787420783D223230302220793D223230302220666F6E742D66616D696C DUP2 MSTORE PUSH32 0x793D22417269616C2220666F6E742D73697A653D223234222066696C6C3D2277 PUSH1 0x20 DUP3 ADD MSTORE PUSH32 0x686974652220746578742D616E63686F723D226D6964646C65223E0000000000 PUSH1 0x40 DUP3 ADD MSTORE PUSH1 0x5B ADD SWAP1 JUMP JUMPDEST PUSH1 0x23 PUSH1 0xF8 SHL DUP2 MSTORE PUSH1 0x1 ADD SWAP1 JUMP JUMPDEST DUP9 PUSH2 0x22BC JUMP JUMPDEST PUSH7 0x1E17BA32BC3A1F PUSH1 0xC9 SHL DUP2 MSTORE PUSH1 0x7 ADD SWAP1 JUMP JUMPDEST PUSH6 0x1E17B9BB339F PUSH1 0xD1 SHL DUP2 MSTORE PUSH1 0x6 ADD SWAP1 JUMP JUMPDEST SWAP10 SWAP9 POP POP POP POP POP POP POP POP POP JUMP JUMPDEST PUSH32 0x646174613A696D6167652F7376672B786D6C3B6261736536342C000000000000 DUP2 MSTORE PUSH1 0x0 DUP3 MLOAD PUSH2 0x24F5 DUP2 PUSH1 0x1A DUP6 ADD PUSH1 0x20 DUP8 ADD PUSH2 0x1DED JUMP JUMPDEST SWAP2 SWAP1 SWAP2 ADD PUSH1 0x1A ADD SWAP3 SWAP2 POP POP JUMP JUMPDEST PUSH1 0x1 PUSH1 0x1 PUSH1 0xA0 SHL SUB DUP6 DUP2 AND DUP3 MSTORE DUP5 AND PUSH1 0x20 DUP3 ADD MSTORE PUSH1 0x40 DUP2 ADD DUP4 SWAP1 MSTORE PUSH1 0x80 PUSH1 0x60 DUP3 ADD DUP2 SWAP1 MSTORE PUSH1 0x0 SWAP1 PUSH2 0x2535 SWAP1 DUP4 ADD DUP5 PUSH2 0x1E11 JUMP JUMPDEST SWAP7 SWAP6 POP POP POP POP POP POP JUMP JUMPDEST PUSH1 0x0 PUSH1 0x20 DUP3 DUP5 SUB SLT ISZERO PUSH2 0x2551 JUMPI PUSH1 0x0 DUP1 REVERT JUMPDEST DUP2 MLOAD PUSH2 0xC87 DUP2 PUSH2 0x1DBA JUMP JUMPDEST PUSH12 0x1E31B4B931B6329031BC1E91 PUSH1 0xA1 SHL DUP2 MSTORE DUP4 MLOAD PUSH1 0x0 SWAP1 PUSH2 0x2584 DUP2 PUSH1 0xC DUP6 ADD PUSH1 0x20 DUP10 ADD PUSH2 0x1DED JUMP JUMPDEST PUSH6 0x111031BC9E91 PUSH1 0xD1 SHL PUSH1 0xC SWAP2 DUP5 ADD SWAP2 DUP3 ADD MSTORE DUP5 MLOAD PUSH2 0x25AA DUP2 PUSH1 0x12 DUP5 ADD PUSH1 0x20 DUP10 ADD PUSH2 0x1DED JUMP JUMPDEST PUSH5 0x1110391E91 PUSH1 0xD9 SHL PUSH1 0x12 SWAP3 SWAP1 SWAP2 ADD SWAP2 DUP3 ADD MSTORE DUP4 MLOAD PUSH2 0x25D0 DUP2 PUSH1 0x17 DUP5 ADD PUSH1 0x20 DUP9 ADD PUSH2 0x1DED JUMP JUMPDEST PUSH32 0x222066696C6C3D2272676261283235352C3235352C3235352C302E3329222F3E PUSH1 0x17 SWAP3 SWAP1 SWAP2 ADD SWAP2 DUP3 ADD MSTORE PUSH1 0x37 ADD SWAP6 SWAP5 POP POP POP POP POP JUMP JUMPDEST PUSH9 0x1E3932B1BA103C1E91 PUSH1 0xB9 SHL DUP2 MSTORE DUP5 MLOAD PUSH1 0x0 SWAP1 PUSH2 0x262C DUP2 PUSH1 0x9 DUP6 ADD PUSH1 0x20 DUP11 ADD PUSH2 0x1DED JUMP JUMPDEST PUSH5 0x11103C9E91 PUSH1 0xD9 SHL PUSH1 0x9 SWAP2 DUP5 ADD SWAP2 DUP3 ADD MSTORE DUP6 MLOAD PUSH2 0x2651 DUP2 PUSH1 0xE DUP5 ADD PUSH1 0x20 DUP11 ADD PUSH2 0x1DED JUMP JUMPDEST PUSH9 0x11103BB4B23A341E91 PUSH1 0xB9 SHL PUSH1 0xE SWAP3 SWAP1 SWAP2 ADD SWAP2 DUP3 ADD MSTORE DUP5 MLOAD PUSH2 0x267B DUP2 PUSH1 0x17 DUP5 ADD PUSH1 0x20 DUP10 ADD PUSH2 0x1DED JUMP JUMPDEST PUSH10 0x11103432B4B3B43A1E91 PUSH1 0xB1 SHL PUSH1 0x17 SWAP3 SWAP1 SWAP2 ADD SWAP2 DUP3 ADD MSTORE DUP4 MLOAD PUSH2 0x26A6 DUP2 PUSH1 0x21 DUP5 ADD PUSH1 0x20 DUP9 ADD PUSH2 0x1DED JUMP JUMPDEST PUSH32 0x222066696C6C3D2272676261283235352C3235352C3235352C302E3229222F3E PUSH1 0x21 SWAP3 SWAP1 SWAP2 ADD SWAP2 DUP3 ADD MSTORE PUSH1 0x41 ADD SWAP7 SWAP6 POP POP POP POP POP POP JUMP JUMPDEST PUSH10 0x1E3634B732903C189E91 PUSH1 0xB1 SHL DUP2 MSTORE DUP5 MLOAD PUSH1 0x0 SWAP1 PUSH2 0x2704 DUP2 PUSH1 0xA DUP6 ADD PUSH1 0x20 DUP11 ADD PUSH2 0x1DED JUMP JUMPDEST PUSH6 0x11103C989E91 PUSH1 0xD1 SHL PUSH1 0xA SWAP2 DUP5 ADD SWAP2 DUP3 ADD MSTORE DUP6 MLOAD PUSH2 0x272A DUP2 PUSH1 0x10 DUP5 ADD PUSH1 0x20 DUP11 ADD PUSH2 0x1DED JUMP JUMPDEST PUSH6 0x11103C191E91 PUSH1 0xD1 SHL PUSH1 0x10 SWAP3 SWAP1 SWAP2 ADD SWAP2 DUP3 ADD MSTORE DUP5 MLOAD PUSH2 0x2751 DUP2 PUSH1 0x16 DUP5 ADD PUSH1 0x20 DUP10 ADD PUSH2 0x1DED JUMP JUMPDEST PUSH6 0x11103C991E91 PUSH1 0xD1 SHL PUSH1 0x16 SWAP3 SWAP1 SWAP2 ADD SWAP2 DUP3 ADD MSTORE DUP4 MLOAD PUSH2 0x2778 DUP2 PUSH1 0x1C DUP5 ADD PUSH1 0x20 DUP9 ADD PUSH2 0x1DED JUMP JUMPDEST PUSH32 0x22207374726F6B653D2272676261283235352C3235352C3235352C302E342922 PUSH1 0x1C SWAP3 SWAP1 SWAP2 ADD SWAP2 DUP3 ADD MSTORE PUSH19 0x1039BA3937B5B296BBB4B23A341E911911179F PUSH1 0x69 SHL PUSH1 0x3C DUP3 ADD MSTORE PUSH1 0x4F ADD SWAP7 SWAP6 POP POP POP POP POP POP JUMP JUMPDEST PUSH1 0x0 DUP3 PUSH2 0x27DB JUMPI PUSH2 0x27DB PUSH2 0x2292 JUMP JUMPDEST POP DIV SWAP1 JUMP JUMPDEST DUP1 DUP3 MUL DUP2 ISZERO DUP3 DUP3 DIV DUP5 EQ OR PUSH2 0x366 JUMPI PUSH2 0x366 PUSH2 0x2121 JUMP JUMPDEST PUSH4 0x4E487B71 PUSH1 0xE0 SHL PUSH1 0x0 MSTORE PUSH1 0x31 PUSH1 0x4 MSTORE PUSH1 0x24 PUSH1 0x0 REVERT INVALID COINBASE TIMESTAMP NUMBER PREVRANDAO GASLIMIT CHAINID SELFBALANCE BASEFEE 0x49 0x4A 0x4B 0x4C 0x4D 0x4E 0x4F POP MLOAD MSTORE MSTORE8 SLOAD SSTORE JUMP JUMPI PC MSIZE GAS PUSH2 0x6263 PUSH5 0x6566676869 PUSH11 0x6B6C6D6E6F707172737475 PUSH23 0x7778797A303132333435363738392B2FA2646970667358 0x22 SLT KECCAK256 0x25 SLT MLOAD PUSH2 0x61FC NUMBER PUSH28 0xB62A2E78661260800FFB71F9B5367FE409EA06C8998F963F64736F6C PUSH4 0x43000815 STOP CALLER "},"methodIdentifiers":{"approve(address,uint256)":"095ea7b3","balanceOf(address)":"70a08231","getApproved(uint256)":"081812fc","isApprovedForAll(address,address)":"e985e9c5","maxSupply()":"d5abeb01","mint(address)":"6a627842","mintBatch(address,uint256)":"248b71fc","name()":"06fdde03","owner()":"8da5cb5b","ownerOf(uint256)":"6352211e","paused()":"5c975abb","renounceOwnership()":"715018a6","safeTransferFrom(address,address,uint256)":"42842e0e","safeTransferFrom(address,address,uint256,bytes)":"b88d4fde","setApprovalForAll(address,bool)":"a22cb465","setBaseURI(string)":"55f804b3","setPaused(bool)":"16c38b3c","supportsInterface(bytes4)":"01ffc9a7","symbol()":"95d89b41","tokenByIndex(uint256)":"4f6ccce7","tokenOfOwnerByIndex(address,uint256)":"2f745c59","tokenURI(uint256)":"c87b56dd","totalSupply()":"18160ddd","transferFrom(address,address,uint256)":"23b872dd","transferOwnership(address)":"f2fde38b"}},"storageLayout":{"storage":[{"astId":317,"contract":"contracts/RandomArtNFT.sol:RandomArtNFT","label":"_name","offset":0,"slot":"0","type":"t_string_storage"},{"astId":319,"contract":"contracts/RandomArtNFT.sol:RandomArtNFT","label":"_symbol","offset":0,"slot":"1","type":"t_string_storage"},{"astId":323,"contract":"contracts/RandomArtNFT.sol:RandomArtNFT","label":"_owners","offset":0,"slot":"2","type":"t_mapping(t_uint256,t_address)"},{"astId":327,"contract":"contracts/RandomArtNFT.sol:RandomArtNFT","label":"_balances","offset":0,"slot":"3","type":"t_mapping(t_address,t_uint256)"},{"astId":331,"contract":"contracts/RandomArtNFT.sol:RandomArtNFT","label":"_tokenApprovals","offset":0,"slot":"4","type":"t_mapping(t_uint256,t_address)"},{"astId":337,"contract":"contracts/RandomArtNFT.sol:RandomArtNFT","label":"_operatorApprovals","offset":0,"slot":"5","type":"t_mapping(t_address,t_mapping(t_address,t_bool))"},{"astId":1395,"contract":"contracts/RandomArtNFT.sol:RandomArtNFT","label":"_ownedTokens","offset":0,"slot":"6","type":"t_mapping(t_address,t_mapping(t_uint256,t_uint256))"},{"astId":1399,"contract":"contracts/RandomArtNFT.sol:RandomArtNFT","label":"_ownedTokensIndex","offset":0,"slot":"7","type":"t_mapping(t_uint256,t_uint256)"},{"astId":1402,"contract":"contracts/RandomArtNFT.sol:RandomArtNFT","label":"_allTokens","offset":0,"slot":"8","type":"t_array(t_uint256)dyn_storage"},{"astId":1406,"contract":"contracts/RandomArtNFT.sol:RandomArtNFT","label":"_allTokensIndex","offset":0,"slot":"9","type":"t_mapping(t_uint256,t_uint256)"},{"astId":8,"contract":"contracts/RandomArtNFT.sol:RandomArtNFT","label":"_owner","offset":0,"slot":"10","type":"t_address"},{"astId":7921,"contract":"contracts/RandomArtNFT.sol:RandomArtNFT","label":"_nextTokenId","offset":0,"slot":"11","type":"t_uint256"},{"astId":7923,"contract":"contracts/RandomArtNFT.sol:RandomArtNFT","label":"_baseTokenURI","offset":0,"slot":"12","type":"t_string_storage"},{"astId":7925,"contract":"contracts/RandomArtNFT.sol:RandomArtNFT","label":"maxSupply","offset":0,"slot":"13","type":"t_uint256"},{"astId":7927,"contract":"contracts/RandomArtNFT.sol:RandomArtNFT","label":"paused","offset":0,"slot":"14","type":"t_bool"},{"astId":7929,"contract":"contracts/RandomArtNFT.sol:RandomArtNFT","label":"_seed","offset":0,"slot":"15","type":"t_uint256"}],"types":{"t_address":{"encoding":"inplace","label":"address","numberOfBytes":"20"},"t_array(t_uint256)dyn_storage":{"base":"t_uint256","encoding":"dynamic_array","label":"uint256[]","numberOfBytes":"32"},"t_bool":{"encoding":"inplace","label":"bool","numberOfBytes":"1"},"t_mapping(t_address,t_bool)":{"encoding":"mapping","key":"t_address","label":"mapping(address => bool)","numberOfBytes":"32","value":"t_bool"},"t_mapping(t_address,t_mapping(t_address,t_bool))":{"encoding":"mapping","key":"t_address","label":"mapping(address => mapping(address => bool))","numberOfBytes":"32","value":"t_mapping(t_address,t_bool)"},"t_mapping(t_address,t_mapping(t_uint256,t_uint256))":{"encoding":"mapping","key":"t_address","label":"mapping(address => mapping(uint256 => uint256))","numberOfBytes":"32","value":"t_mapping(t_uint256,t_uint256)"},"t_mapping(t_address,t_uint256)":{"encoding":"mapping","key":"t_address","label":"mapping(address => uint256)","numberOfBytes":"32","value":"t_uint256"},"t_mapping(t_uint256,t_address)":{"encoding":"mapping","key":"t_uint256","label":"mapping(uint256 => address)","numberOfBytes":"32","value":"t_address"},"t_mapping(t_uint256,t_uint256)":{"encoding":"mapping","key":"t_uint256","label":"mapping(uint256 => uint256)","numberOfBytes":"32","value":"t_uint256"},"t_string_storage":{"encoding":"bytes","label":"string","numberOfBytes":"32"},"t_uint256":{"encoding":"inplace","label":"uint256","numberOfBytes":"32"}}}}}}