{
  "_format": "hh-sol-artifact-1",
  "contractName": "RandomArtNFT",
  "sourceName": "contracts/RandomArtNFT.sol",
  "abi": [
    {
      "inputs": [
        {
          "internalType": "string",
          "name": "name",
          "type": "string"
        },
        {
          "internalType": "string",
          "name": "symbol",
          "type": "string"
        },
        {
          "internalType": "string",
          "name": "baseURI",
          "type": "string"
        },
        {
          "internalType": "uint256",
          "name": "_maxSupply",
          "type": "uint256"
        },
        {
          "internalType": "address",
          "name": "initialOwner",
          "type": "address"
        }
      ],
      "stateMutability": "nonpayable",
      "type": "constructor"
    },
    {
      "inputs": [],
      "name": "ERC721EnumerableForbiddenBatchMint",
      "type": "error"
    },
    {
      "inputs": [
        {
          "internalType": "address",
          "name": "sender",
          "type": "address"
        },
        {
          "internalType": "uint256",
          "name": "tokenId",
          "type": "uint256"
        },
        {
          "internalType": "address",
          "name": "owner",
          "type": "address"
        }
      ],
      "name": "ERC721IncorrectOwner",
      "type": "error"
    },
    {
      "inputs": [
        {
          "internalType": "address",
          "name": "operator",
          "type": "address"
        },
        {
          "internalType": "uint256",
          "name": "tokenId",
          "type": "uint256"
        }
      ],
      "name": "ERC721InsufficientApproval",
      "type": "error"
    },
    {
      "inputs": [
        {
          "internalType": "address",
          "name": "approver",
          "type": "address"
        }
      ],
      "name": "ERC721InvalidApprover",
      "type": "error"
    },
    {
      "inputs": [
        {
          "internalType": "address",
          "name": "operator",
          "type": "address"
        }
      ],
      "name": "ERC721InvalidOperator",
      "type": "error"
    },
    {
      "inputs": [
        {
          "internalType": "address",
          "name": "owner",
          "type": "address"
        }
      ],
      "name": "ERC721InvalidOwner",
      "type": "error"
    },
    {
      "inputs": [
        {
          "internalType": "address",
          "name": "receiver",
          "type": "address"
        }
      ],
      "name": "ERC721InvalidReceiver",
      "type": "error"
    },
    {
      "inputs": [
        {
          "internalType": "address",
          "name": "sender",
          "type": "address"
        }
      ],
      "name": "ERC721InvalidSender",
      "type": "error"
    },
    {
      "inputs": [
        {
          "internalType": "uint256",
          "name": "tokenId",
          "type": "uint256"
        }
      ],
      "name": "ERC721NonexistentToken",
      "type": "error"
    },
    {
      "inputs": [
        {
          "internalType": "address",
          "name": "owner",
          "type": "address"
        },
        {
          "internalType": "uint256",
          "name": "index",
          "type": "uint256"
        }
      ],
      "name": "ERC721OutOfBoundsIndex",
      "type": "error"
    },
    {
      "inputs": [
        {
          "internalType": "address",
          "name": "owner",
          "type": "address"
        }
      ],
      "name": "OwnableInvalidOwner",
      "type": "error"
    },
    {
      "inputs": [
        {
          "internalType": "address",
          "name": "account",
          "type": "address"
        }
      ],
      "name": "OwnableUnauthorizedAccount",
      "type": "error"
    },
    {
      "anonymous": false,
      "inputs": [
        {
          "indexed": true,
          "internalType": "address",
          "name": "owner",
          "type": "address"
        },
        {
          "indexed": true,
          "internalType": "address",
          "name": "approved",
          "type": "address"
        },
        {
          "indexed": true,
          "internalType": "uint256",
          "name": "tokenId",
          "type": "uint256"
        }
      ],
      "name": "Approval",
      "type": "event"
    },
    {
      "anonymous": false,
      "inputs": [
        {
          "indexed": true,
          "internalType": "address",
          "name": "owner",
          "type": "address"
        },
        {
          "indexed": true,
          "internalType": "address",
          "name": "operator",
          "type": "address"
        },
        {
          "indexed": false,
          "internalType": "bool",
          "name": "approved",
          "type": "bool"
        }
      ],
      "name": "ApprovalForAll",
      "type": "event"
    },
    {
      "anonymous": false,
      "inputs": [
        {
          "indexed": true,
          "internalType": "address",
          "name": "to",
          "type": "address"
        },
        {
          "indexed": true,
          "internalType": "uint256",
          "name": "tokenId",
          "type": "uint256"
        }
      ],
      "name": "NFTMinted",
      "type": "event"
    },
    {
      "anonymous": false,
      "inputs": [
        {
          "indexed": true,
          "internalType": "address",
          "name": "previousOwner",
          "type": "address"
        },
        {
          "indexed": true,
          "internalType": "address",
          "name": "newOwner",
          "type": "address"
        }
      ],
      "name": "OwnershipTransferred",
      "type": "event"
    },
    {
      "anonymous": false,
      "inputs": [
        {
          "indexed": true,
          "internalType": "address",
          "name": "from",
          "type": "address"
        },
        {
          "indexed": true,
          "internalType": "address",
          "name": "to",
          "type": "address"
        },
        {
          "indexed": true,
          "internalType": "uint256",
          "name": "tokenId",
          "type": "uint256"
        }
      ],
      "name": "Transfer",
      "type": "event"
    },
    {
      "inputs": [
        {
          "internalType": "address",
          "name": "to",
          "type": "address"
        },
        {
          "internalType": "uint256",
          "name": "tokenId",
          "type": "uint256"
        }
      ],
      "name": "approve",
      "outputs": [],
      "stateMutability": "nonpayable",
      "type": "function"
    },
    {
      "inputs": [
        {
          "internalType": "address",
          "name": "owner",
          "type": "address"
        }
      ],
      "name": "balanceOf",
      "outputs": [
        {
          "internalType": "uint256",
          "name": "",
          "type": "uint256"
        }
      ],
      "stateMutability": "view",
      "type": "function"
    },
    {
      "inputs": [
        {
          "internalType": "uint256",
          "name": "tokenId",
          "type": "uint256"
        }
      ],
      "name": "getApproved",
      "outputs": [
        {
          "internalType": "address",
          "name": "",
          "type": "address"
        }
      ],
      "stateMutability": "view",
      "type": "function"
    },
    {
      "inputs": [
        {
          "internalType": "address",
          "name": "owner",
          "type": "address"
        },
        {
          "internalType": "address",
          "name": "operator",
          "type": "address"
        }
      ],
      "name": "isApprovedForAll",
      "outputs": [
        {
          "internalType": "bool",
          "name": "",
          "type": "bool"
        }
      ],
      "stateMutability": "view",
      "type": "function"
    },
    {
      "inputs": [],
      "name": "maxSupply",
      "outputs": [
        {
          "internalType": "uint256",
          "name": "",
          "type": "uint256"
        }
      ],
      "stateMutability": "view",
      "type": "function"
    },
    {
      "inputs": [
        {
          "internalType": "address",
          "name": "to",
          "type": "address"
        }
      ],
      "name": "mint",
      "outputs": [],
      "stateMutability": "nonpayable",
      "type": "function"
    },
    {
      "inputs": [
        {
          "internalType": "address",
          "name": "to",
          "type": "address"
        },
        {
          "internalType": "uint256",
          "name": "quantity",
          "type": "uint256"
        }
      ],
      "name": "mintBatch",
      "outputs": [],
      "stateMutability": "nonpayable",
      "type": "function"
    },
    {
      "inputs": [],
      "name": "name",
      "outputs": [
        {
          "internalType": "string",
          "name": "",
          "type": "string"
        }
      ],
      "stateMutability": "view",
      "type": "function"
    },
    {
      "inputs": [],
      "name": "owner",
      "outputs": [
        {
          "internalType": "address",
          "name": "",
          "type": "address"
        }
      ],
      "stateMutability": "view",
      "type": "function"
    },
    {
      "inputs": [
        {
          "internalType": "uint256",
          "name": "tokenId",
          "type": "uint256"
        }
      ],
      "name": "ownerOf",
      "outputs": [
        {
          "internalType": "address",
          "name": "",
          "type": "address"
        }
      ],
      "stateMutability": "view",
      "type": "function"
    },
    {
      "inputs": [],
      "name": "paused",
      "outputs": [
        {
          "internalType": "bool",
          "name": "",
          "type": "bool"
        }
      ],
      "stateMutability": "view",
      "type": "function"
    },
    {
      "inputs": [],
      "name": "renounceOwnership",
      "outputs": [],
      "stateMutability": "nonpayable",
      "type": "function"
    },
    {
      "inputs": [
        {
          "internalType": "address",
          "name": "from",
          "type": "address"
        },
        {
          "internalType": "address",
          "name": "to",
          "type": "address"
        },
        {
          "internalType": "uint256",
          "name": "tokenId",
          "type": "uint256"
        }
      ],
      "name": "safeTransferFrom",
      "outputs": [],
      "stateMutability": "nonpayable",
      "type": "function"
    },
    {
      "inputs": [
        {
          "internalType": "address",
          "name": "from",
          "type": "address"
        },
        {
          "internalType": "address",
          "name": "to",
          "type": "address"
        },
        {
          "internalType": "uint256",
          "name": "tokenId",
          "type": "uint256"
        },
        {
          "internalType": "bytes",
          "name": "data",
          "type": "bytes"
        }
      ],
      "name": "safeTransferFrom",
      "outputs": [],
      "stateMutability": "nonpayable",
      "type": "function"
    },
    {
      "inputs": [
        {
          "internalType": "address",
          "name": "operator",
          "type": "address"
        },
        {
          "internalType": "bool",
          "name": "approved",
          "type": "bool"
        }
      ],
      "name": "setApprovalForAll",
      "outputs": [],
      "stateMutability": "nonpayable",
      "type": "function"
    },
    {
      "inputs": [
        {
          "internalType": "string",
          "name": "baseURI",
          "type": "string"
        }
      ],
      "name": "setBaseURI",
      "outputs": [],
      "stateMutability": "nonpayable",
      "type": "function"
    },
    {
      "inputs": [
        {
          "internalType": "bool",
          "name": "_paused",
          "type": "bool"
        }
      ],
      "name": "setPaused",
      "outputs": [],
      "stateMutability": "nonpayable",
      "type": "function"
    },
    {
      "inputs": [
        {
          "internalType": "bytes4",
          "name": "interfaceId",
          "type": "bytes4"
        }
      ],
      "name": "supportsInterface",
      "outputs": [
        {
          "internalType": "bool",
          "name": "",
          "type": "bool"
        }
      ],
      "stateMutability": "view",
      "type": "function"
    },
    {
      "inputs": [],
      "name": "symbol",
      "outputs": [
        {
          "internalType": "string",
          "name": "",
          "type": "string"
        }
      ],
      "stateMutability": "view",
      "type": "function"
    },
    {
      "inputs": [
        {
          "internalType": "uint256",
          "name": "index",
          "type": "uint256"
        }
      ],
      "name": "tokenByIndex",
      "outputs": [
        {
          "internalType": "uint256",
          "name": "",
          "type": "uint256"
        }
      ],
      "stateMutability": "view",
      "type": "function"
    },
    {
      "inputs": [
        {
          "internalType": "address",
          "name": "owner",
          "type": "address"
        },
        {
          "internalType": "uint256",
          "name": "index",
          "type": "uint256"
        }
      ],
      "name": "tokenOfOwnerByIndex",
      "outputs": [
        {
          "internalType": "uint256",
          "name": "",
          "type": "uint256"
        }
      ],
      "stateMutability": "view",
      "type": "function"
    },
    {
      "inputs": [
        {
          "internalType": "uint256",
          "name": "tokenId",
          "type": "uint256"
        }
      ],
      "name": "tokenURI",
      "outputs": [
        {
          "internalType": "string",
          "name": "",
          "type": "string"
        }
      ],
      "stateMutability": "view",
      "type": "function"
    },
    {
      "inputs": [],
      "name": "totalSupply",
      "outputs": [
        {
          "internalType": "uint256",
          "name": "",
          "type": "uint256"
        }
      ],
      "stateMutability": "view",
      "type": "function"
    },
    {
      "inputs": [
        {
          "internalType": "address",
          "name": "from",
          "type": "address"
        },
        {
          "internalType": "address",
          "name": "to",
          "type": "address"
        },
        {
          "internalType": "uint256",
          "name": "tokenId",
          "type": "uint256"
        }
      ],
      "name": "transferFrom",
      "outputs": [],
      "stateMutability": "nonpayable",
      "type": "function"
    },
    {
      "inputs": [
        {
          "internalType": "address",
          "name": "newOwner",
          "type": "address"
        }
      ],
      "name": "transferOwnership",
      "outputs": [],
      "stateMutability": "nonpayable",
      "type": "function"
    }
  ],
  "bytecode": "0x60806040523480156200001157600080fd5b5060405162002ce838038062002ce8833981016040819052620000349162000227565b808585600062000045838262000375565b50600162000054828262000375565b5050506001600160a01b0381166200008657604051631e4fbdf760e01b81526000600482015260240160405180910390fd5b620000918162000110565b50600c620000a0848262000375565b50600d8290556001600b55600e805460ff19169055604051620000e990429044903390602001928352602083019190915260601b6001600160601b031916604082015260540190565b60408051601f198184030181529190528051602090910120600f5550620004419350505050565b600a80546001600160a01b038381166001600160a01b0319831681179093556040519116919082907f8be0079c531659141344cd1fd0a4f28419497f9722a3daafe3b4186f6b6457e090600090a35050565b634e487b7160e01b600052604160045260246000fd5b600082601f8301126200018a57600080fd5b81516001600160401b0380821115620001a757620001a762000162565b604051601f8301601f19908116603f01168101908282118183101715620001d257620001d262000162565b81604052838152602092508683858801011115620001ef57600080fd5b600091505b83821015620002135785820183015181830184015290820190620001f4565b600093810190920192909252949350505050565b600080600080600060a086880312156200024057600080fd5b85516001600160401b03808211156200025857600080fd5b6200026689838a0162000178565b965060208801519150808211156200027d57600080fd5b6200028b89838a0162000178565b95506040880151915080821115620002a257600080fd5b50620002b18882890162000178565b60608801516080890151919550935090506001600160a01b0381168114620002d857600080fd5b809150509295509295909350565b600181811c90821680620002fb57607f821691505b6020821081036200031c57634e487b7160e01b600052602260045260246000fd5b50919050565b601f8211156200037057600081815260208120601f850160051c810160208610156200034b5750805b601f850160051c820191505b818110156200036c5782815560010162000357565b5050505b505050565b81516001600160401b0381111562000391576200039162000162565b620003a981620003a28454620002e6565b8462000322565b602080601f831160018114620003e15760008415620003c85750858301515b600019600386901b1c1916600185901b1785556200036c565b600085815260208120601f198616915b828110156200041257888601518255948401946001909101908401620003f1565b5085821015620004315787850151600019600388901b60f8161c191681555b5050505050600190811b01905550565b61289780620004516000396000f3fe608060405234801561001057600080fd5b50600436106101735760003560e01c80635c975abb116100de57806395d89b4111610097578063c87b56dd11610071578063c87b56dd14610319578063d5abeb011461032c578063e985e9c514610335578063f2fde38b1461034857600080fd5b806395d89b41146102eb578063a22cb465146102f3578063b88d4fde1461030657600080fd5b80635c975abb1461028c5780636352211e146102995780636a627842146102ac57806370a08231146102bf578063715018a6146102d25780638da5cb5b146102da57600080fd5b806323b872dd1161013057806323b872dd1461021a578063248b71fc1461022d5780632f745c591461024057806342842e0e146102535780634f6ccce71461026657806355f804b31461027957600080fd5b806301ffc9a71461017857806306fdde03146101a0578063081812fc146101b5578063095ea7b3146101e057806316c38b3c146101f557806318160ddd14610208575b600080fd5b61018b610186366004611ddc565b61035b565b60405190151581526020015b60405180910390f35b6101a861036c565b6040516101979190611e49565b6101c86101c3366004611e5c565b6103fe565b6040516001600160a01b039091168152602001610197565b6101f36101ee366004611e91565b610427565b005b6101f3610203366004611ecb565b610436565b6008545b604051908152602001610197565b6101f3610228366004611ee6565b610451565b6101f361023b366004611e91565b6104e1565b61020c61024e366004611e91565b6106e6565b6101f3610261366004611ee6565b61074b565b61020c610274366004611e5c565b610766565b6101f3610287366004611fae565b6107bf565b600e5461018b9060ff1681565b6101c86102a7366004611e5c565b6107d3565b6101f36102ba366004611fff565b6107de565b61020c6102cd366004611fff565b61095d565b6101f36109a5565b600a546001600160a01b03166101c8565b6101a86109b9565b6101f361030136600461201a565b6109c8565b6101f361031436600461204d565b6109d3565b6101a8610327366004611e5c565b6109ea565b61020c600d5481565b61018b6103433660046120c9565b610b72565b6101f3610356366004611fff565b610ba0565b600061036682610bde565b92915050565b60606000805461037b906120f3565b80601f01602080910402602001604051908101604052809291908181526020018280546103a7906120f3565b80156103f45780601f106103c9576101008083540402835291602001916103f4565b820191906000526020600020905b8154815290600101906020018083116103d757829003601f168201915b5050505050905090565b600061040982610c03565b506000828152600460205260409020546001600160a01b0316610366565b610432828233610c3c565b5050565b61043e610c49565b600e805460ff1916911515919091179055565b6001600160a01b03821661048057604051633250574960e11b8152600060048201526024015b60405180910390fd5b600061048d838333610c76565b9050836001600160a01b0316816001600160a01b0316146104db576040516364283d7b60e01b81526001600160a01b0380861660048301526024820184905282166044820152606401610477565b50505050565b6104e9610c49565b600e5460ff16156105305760405162461bcd60e51b8152602060048201526011602482015270135a5b9d1a5b99c81a5cc81c185d5cd959607a1b6044820152606401610477565b600d54600182600b546105439190612143565b61054d9190612156565b11156105905760405162461bcd60e51b815260206004820152601260248201527145786365656473206d617820737570706c7960701b6044820152606401610477565b6001600160a01b0382166105e65760405162461bcd60e51b815260206004820152601b60248201527f43616e6e6f74206d696e7420746f207a65726f206164647265737300000000006044820152606401610477565b600081116106365760405162461bcd60e51b815260206004820152601f60248201527f5175616e74697479206d7573742062652067726561746572207468616e2030006044820152606401610477565b60005b818110156106e157600b8054908190600061065383612169565b91905055506106628482610c8d565b600f54604080516020810192909252810182905242606082015260800160408051601f19818403018152908290528051602090910120600f5581906001600160a01b038616907f4cc0a9c4a99ddc700de1af2c9f916a7cbfdb71f14801ccff94061ad1ef8a804090600090a350806106d981612169565b915050610639565b505050565b60006106f18361095d565b82106107225760405163295f44f760e21b81526001600160a01b038416600482015260248101839052604401610477565b506001600160a01b03919091166000908152600660209081526040808320938352929052205490565b6106e1838383604051806020016040528060008152506109d3565b600061077160085490565b821061079a5760405163295f44f760e21b81526000600482015260248101839052604401610477565b600882815481106107ad576107ad612182565b90600052602060002001549050919050565b6107c7610c49565b600c61043282826121e6565b600061036682610c03565b6107e6610c49565b600e5460ff161561082d5760405162461bcd60e51b8152602060048201526011602482015270135a5b9d1a5b99c81a5cc81c185d5cd959607a1b6044820152606401610477565b600d54600b5411156108765760405162461bcd60e51b815260206004820152601260248201527113585e081cdd5c1c1b1e481c995858da195960721b6044820152606401610477565b6001600160a01b0381166108cc5760405162461bcd60e51b815260206004820152601b60248201527f43616e6e6f74206d696e7420746f207a65726f206164647265737300000000006044820152606401610477565b600b805490819060006108de83612169565b91905055506108ed8282610c8d565b600f54604080516020810192909252810182905242606082015260800160408051601f19818403018152908290528051602090910120600f5581906001600160a01b038416907f4cc0a9c4a99ddc700de1af2c9f916a7cbfdb71f14801ccff94061ad1ef8a804090600090a35050565b60006001600160a01b038216610989576040516322718ad960e21b815260006004820152602401610477565b506001600160a01b031660009081526003602052604090205490565b6109ad610c49565b6109b76000610ca7565b565b60606001805461037b906120f3565b610432338383610cf9565b6109de848484610451565b6104db84848484610d98565b6000818152600260205260409020546060906001600160a01b0316610a485760405162461bcd60e51b8152602060048201526014602482015273151bdad95b88191bd95cc81b9bdd08195e1a5cdd60621b6044820152606401610477565b600f54604080516020810192909252810183905242606082015260009060800160408051601f19818403018152919052805160209091012090506000610a90610100836122bc565b90506000610aa4610100600885901c6122bc565b90506000610ab8610100601086901c6122bc565b90506000610acb600a601887901c6122bc565b90506000610ade6008602088901c6122bc565b90506000610aeb86610ec1565b610af486610ec1565b610afd86610ec1565b610b0886868c610f54565b610b118d610ec1565b604051602001610b259594939291906122ec565b60405160208183030381529060405290506000610b418261114e565b905080604051602001610b5491906124d1565b60405160208183030381529060405298505050505050505050919050565b6001600160a01b03918216600090815260056020908152604080832093909416825291909152205460ff1690565b610ba8610c49565b6001600160a01b038116610bd257604051631e4fbdf760e01b815260006004820152602401610477565b610bdb81610ca7565b50565b60006001600160e01b0319821663780e9d6360e01b14806103665750610366826116ff565b6000818152600260205260408120546001600160a01b03168061036657604051637e27328960e01b815260048101849052602401610477565b6106e1838383600161174f565b600a546001600160a01b031633146109b75760405163118cdaa760e01b8152336004820152602401610477565b6000610c83848484611855565b90505b9392505050565b610432828260405180602001604052806000815250611922565b600a80546001600160a01b038381166001600160a01b0319831681179093556040519116919082907f8be0079c531659141344cd1fd0a4f28419497f9722a3daafe3b4186f6b6457e090600090a35050565b6001600160a01b038216610d2b57604051630b61174360e31b81526001600160a01b0383166004820152602401610477565b6001600160a01b03838116600081815260056020908152604080832094871680845294825291829020805460ff191686151590811790915591519182527f17307eab39ab6107e8899845ad3d59bd9653f200f220920489ca2b5937696c31910160405180910390a3505050565b6001600160a01b0383163b156104db57604051630a85bd0160e11b81526001600160a01b0384169063150b7a0290610dda903390889087908790600401612516565b6020604051808303816000875af1925050508015610e15575060408051601f3d908101601f19168201909252610e1291810190612553565b60015b610e7e573d808015610e43576040519150601f19603f3d011682016040523d82523d6000602084013e610e48565b606091505b508051600003610e7657604051633250574960e11b81526001600160a01b0385166004820152602401610477565b805181602001fd5b6001600160e01b03198116630a85bd0160e11b14610eba57604051633250574960e11b81526001600160a01b0385166004820152602401610477565b5050505050565b60606000610ece83611939565b600101905060008167ffffffffffffffff811115610eee57610eee611f22565b6040519080825280601f01601f191660200182016040528015610f18576020820181803683370190505b5090508181016020015b600019016f181899199a1a9b1b9c1cb0b131b232b360811b600a86061a8153600a8504945084610f2257509392505050565b60606003841015610ffd576000610f6d61012c846122bc565b610f78906032612143565b90506000610f8c61012c600886901c6122bc565b610f97906032612143565b90506000610faa6050601087901c6122bc565b610fb5906014612143565b9050610fc083610ec1565b610fc983610ec1565b610fd283610ec1565b604051602001610fe493929190612570565b6040516020818303038152906040529350505050610c86565b60068410156110cb57600061101360fa846122bc565b61101e906032612143565b9050600061103160fa600886901c6122bc565b61103c906032612143565b9050600061104f6064601087901c6122bc565b61105a906032612143565b9050600061106d6064601888901c6122bc565b611078906032612143565b905061108384610ec1565b61108c84610ec1565b61109584610ec1565b61109e84610ec1565b6040516020016110b1949392919061261b565b604051602081830303815290604052945050505050610c86565b60006110d9610190846122bc565b905060006110ed610190600886901c6122bc565b90506000611101610190601087901c6122bc565b90506000611115610190601888901c6122bc565b905061112084610ec1565b61112984610ec1565b61113284610ec1565b61113b84610ec1565b6040516020016110b194939291906126f2565b60606000604051806060016040528060408152602001612822604091399050600060038451600261117f9190612143565b61118991906127e0565b6111949060046127f4565b905060008167ffffffffffffffff8111156111b1576111b1611f22565b6040519080825280601f01601f1916602001820160405280156111db576020820181803683370190505b5090506000805b86516111ef836003612143565b116113f657600087838151811061120857611208612182565b016020015160f81c9050600088611220856001612143565b8151811061123057611230612182565b016020015160f81c9050600089611248866002612143565b8151811061125857611258612182565b0160200151885160f89190911c9150601084901b600884901b178217908990601283901c90811061128b5761128b612182565b01602001516001600160f81b03191687866112a581612169565b9750815181106112b7576112b7612182565b60200101906001600160f81b031916908160001a90535088600c82901c603f16815181106112e7576112e7612182565b01602001516001600160f81b031916878661130181612169565b97508151811061131357611313612182565b60200101906001600160f81b031916908160001a90535088600682901c603f168151811061134357611343612182565b01602001516001600160f81b031916878661135d81612169565b97508151811061136f5761136f612182565b60200101906001600160f81b031916908160001a9053508881603f168151811061139b5761139b612182565b01602001516001600160f81b03191687866113b581612169565b9750815181106113c7576113c7612182565b60200101906001600160f81b031916908160001a905350505050506003826113ef9190612143565b91506111e2565b86518210156116f457600087838151811061141357611413612182565b602091010151885160f882901c925060e89190911c62ff00001690611439856001612143565b10156115c95760008961144d866001612143565b8151811061145d5761145d612182565b602001015160f81c60f81b60f81c60ff169050600881901b8217915087601283901c8151811061148f5761148f612182565b01602001516001600160f81b03191686856114a981612169565b9650815181106114bb576114bb612182565b60200101906001600160f81b031916908160001a90535087600c83901c603f16815181106114eb576114eb612182565b01602001516001600160f81b031916868561150581612169565b96508151811061151757611517612182565b60200101906001600160f81b031916908160001a90535087600683901c603f168151811061154757611547612182565b01602001516001600160f81b031916868561156181612169565b96508151811061157357611573612182565b60200101906001600160f81b031916908160001a905350603d60f81b868561159a81612169565b9650815181106115ac576115ac612182565b60200101906001600160f81b031916908160001a905350506116f1565b86601282901c815181106115df576115df612182565b01602001516001600160f81b03191685846115f981612169565b95508151811061160b5761160b612182565b60200101906001600160f81b031916908160001a90535086600c82901c603f168151811061163b5761163b612182565b01602001516001600160f81b031916858461165581612169565b95508151811061166757611667612182565b60200101906001600160f81b031916908160001a905350603d60f81b858461168e81612169565b9550815181106116a0576116a0612182565b60200101906001600160f81b031916908160001a905350603d60f81b85846116c781612169565b9550815181106116d9576116d9612182565b60200101906001600160f81b031916908160001a9053505b50505b509095945050505050565b60006001600160e01b031982166380ac58cd60e01b148061173057506001600160e01b03198216635b5e139f60e01b145b8061036657506301ffc9a760e01b6001600160e01b0319831614610366565b808061176357506001600160a01b03821615155b1561182557600061177384610c03565b90506001600160a01b0383161580159061179f5750826001600160a01b0316816001600160a01b031614155b80156117b257506117b08184610b72565b155b156117db5760405163a9fbf51f60e01b81526001600160a01b0384166004820152602401610477565b81156118235783856001600160a01b0316826001600160a01b03167f8c5be1e5ebec7d5bd14f71427d1e84f3dd0314c0f7b2291e5b200ac8c7c3b92560405160405180910390a45b505b5050600090815260046020526040902080546001600160a01b0319166001600160a01b0392909216919091179055565b600080611863858585611a11565b90506001600160a01b0381166118c0576118bb84600880546000838152600960205260408120829055600182018355919091527ff3f7a9fe364faab93b216da50a3214154f22a0a2b415b23a84c8169e8b636ee30155565b6118e3565b846001600160a01b0316816001600160a01b0316146118e3576118e38185611b0a565b6001600160a01b0385166118ff576118fa84611b9b565b610c83565b846001600160a01b0316816001600160a01b031614610c8357610c838585611c4a565b61192c8383611c9a565b6106e16000848484610d98565b60008072184f03e93ff9f4daa797ed6e38ed64bf6a1f0160401b83106119785772184f03e93ff9f4daa797ed6e38ed64bf6a1f0160401b830492506040015b6d04ee2d6d415b85acef810000000083106119a4576d04ee2d6d415b85acef8100000000830492506020015b662386f26fc1000083106119c257662386f26fc10000830492506010015b6305f5e10083106119da576305f5e100830492506008015b61271083106119ee57612710830492506004015b60648310611a00576064830492506002015b600a83106103665760010192915050565b6000828152600260205260408120546001600160a01b0390811690831615611a3e57611a3e818486611cff565b6001600160a01b03811615611a7c57611a5b60008560008061174f565b6001600160a01b038116600090815260036020526040902080546000190190555b6001600160a01b03851615611aab576001600160a01b0385166000908152600360205260409020805460010190555b60008481526002602052604080822080546001600160a01b0319166001600160a01b0389811691821790925591518793918516917fddf252ad1be2c89b69c2b068fc378daa952ba7f163c4a11628f55a4df523b3ef91a4949350505050565b6000611b158361095d565b600083815260076020526040902054909150808214611b68576001600160a01b03841660009081526006602090815260408083208584528252808320548484528184208190558352600790915290208190555b5060009182526007602090815260408084208490556001600160a01b039094168352600681528383209183525290812055565b600854600090611bad90600190612156565b60008381526009602052604081205460088054939450909284908110611bd557611bd5612182565b906000526020600020015490508060088381548110611bf657611bf6612182565b6000918252602080832090910192909255828152600990915260408082208490558582528120556008805480611c2e57611c2e61280b565b6001900381819060005260206000200160009055905550505050565b60006001611c578461095d565b611c619190612156565b6001600160a01b039093166000908152600660209081526040808320868452825280832085905593825260079052919091209190915550565b6001600160a01b038216611cc457604051633250574960e11b815260006004820152602401610477565b6000611cd283836000610c76565b90506001600160a01b038116156106e1576040516339e3563760e11b815260006004820152602401610477565b611d0a838383611d63565b6106e1576001600160a01b038316611d3857604051637e27328960e01b815260048101829052602401610477565b60405163177e802f60e01b81526001600160a01b038316600482015260248101829052604401610477565b60006001600160a01b03831615801590610c835750826001600160a01b0316846001600160a01b03161480611d9d5750611d9d8484610b72565b80610c835750506000908152600460205260409020546001600160a01b03908116911614919050565b6001600160e01b031981168114610bdb57600080fd5b600060208284031215611dee57600080fd5b8135610c8681611dc6565b60005b83811015611e14578181015183820152602001611dfc565b50506000910152565b60008151808452611e35816020860160208601611df9565b601f01601f19169290920160200192915050565b602081526000610c866020830184611e1d565b600060208284031215611e6e57600080fd5b5035919050565b80356001600160a01b0381168114611e8c57600080fd5b919050565b60008060408385031215611ea457600080fd5b611ead83611e75565b946020939093013593505050565b80358015158114611e8c57600080fd5b600060208284031215611edd57600080fd5b610c8682611ebb565b600080600060608486031215611efb57600080fd5b611f0484611e75565b9250611f1260208501611e75565b9150604084013590509250925092565b634e487b7160e01b600052604160045260246000fd5b600067ffffffffffffffff80841115611f5357611f53611f22565b604051601f8501601f19908116603f01168101908282118183101715611f7b57611f7b611f22565b81604052809350858152868686011115611f9457600080fd5b858560208301376000602087830101525050509392505050565b600060208284031215611fc057600080fd5b813567ffffffffffffffff811115611fd757600080fd5b8201601f81018413611fe857600080fd5b611ff784823560208401611f38565b949350505050565b60006020828403121561201157600080fd5b610c8682611e75565b6000806040838503121561202d57600080fd5b61203683611e75565b915061204460208401611ebb565b90509250929050565b6000806000806080858703121561206357600080fd5b61206c85611e75565b935061207a60208601611e75565b925060408501359150606085013567ffffffffffffffff81111561209d57600080fd5b8501601f810187136120ae57600080fd5b6120bd87823560208401611f38565b91505092959194509250565b600080604083850312156120dc57600080fd5b6120e583611e75565b915061204460208401611e75565b600181811c9082168061210757607f821691505b60208210810361212757634e487b7160e01b600052602260045260246000fd5b50919050565b634e487b7160e01b600052601160045260246000fd5b808201808211156103665761036661212d565b818103818111156103665761036661212d565b60006001820161217b5761217b61212d565b5060010190565b634e487b7160e01b600052603260045260246000fd5b601f8211156106e157600081815260208120601f850160051c810160208610156121bf5750805b601f850160051c820191505b818110156121de578281556001016121cb565b505050505050565b815167ffffffffffffffff81111561220057612200611f22565b6122148161220e84546120f3565b84612198565b602080601f83116001811461224957600084156122315750858301515b600019600386901b1c1916600185901b1785556121de565b600085815260208120601f198616915b8281101561227857888601518255948401946001909101908401612259565b50858210156122965787850151600019600388901b60f8161c191681555b5050505050600190811b01905550565b634e487b7160e01b600052601260045260246000fd5b6000826122cb576122cb6122a6565b500690565b600081516122e2818560208601611df9565b9290920192915050565b7f3c73766720786d6c6e733d22687474703a2f2f7777772e77332e6f72672f323081527f30302f737667222077696474683d2234303022206865696768743d223430302260208201527f2076696577426f783d223020302034303020343030223e00000000000000000060408201527f3c726563742077696474683d2234303022206865696768743d223430302220666057820152680d2d8d87a44e4cec4560bb1b6077820152600086516123a8816080850160208b01611df9565b8083019050600b60fa1b80608083015287516123cb816081850160208c01611df9565b608192019182015285516123e6816082840160208a01611df9565b6124c46124b261249f61249961248c6124176124116082888a0101631491179f60e11b815260040190565b8c6122d0565b7f3c7465787420783d223230302220793d223230302220666f6e742d66616d696c81527f793d22417269616c2220666f6e742d73697a653d223234222066696c6c3d227760208201527f686974652220746578742d616e63686f723d226d6964646c65223e00000000006040820152605b0190565b602360f81b815260010190565b886122d0565b661e17ba32bc3a1f60c91b815260070190565b651e17b9bb339f60d11b815260060190565b9998505050505050505050565b7f646174613a696d6167652f7376672b786d6c3b6261736536342c00000000000081526000825161250981601a850160208701611df9565b91909101601a0192915050565b6001600160a01b038581168252841660208201526040810183905260806060820181905260009061254990830184611e1d565b9695505050505050565b60006020828403121561256557600080fd5b8151610c8681611dc6565b6b1e31b4b931b6329031bc1e9160a11b8152835160009061259881600c850160208901611df9565b65111031bc9e9160d11b600c9184019182015284516125be816012840160208901611df9565b641110391e9160d91b6012929091019182015283516125e4816017840160208801611df9565b7f222066696c6c3d2272676261283235352c3235352c3235352c302e3329222f3e6017929091019182015260370195945050505050565b681e3932b1ba103c1e9160b91b81528451600090612640816009850160208a01611df9565b6411103c9e9160d91b600991840191820152855161266581600e840160208a01611df9565b6811103bb4b23a341e9160b91b600e9290910191820152845161268f816017840160208901611df9565b6911103432b4b3b43a1e9160b11b6017929091019182015283516126ba816021840160208801611df9565b7f222066696c6c3d2272676261283235352c3235352c3235352c302e3229222f3e602192909101918201526041019695505050505050565b691e3634b732903c189e9160b11b8152845160009061271881600a850160208a01611df9565b6511103c989e9160d11b600a91840191820152855161273e816010840160208a01611df9565b6511103c191e9160d11b601092909101918201528451612765816016840160208901611df9565b6511103c991e9160d11b60169290910191820152835161278c81601c840160208801611df9565b7f22207374726f6b653d2272676261283235352c3235352c3235352c302e342922601c9290910191820152721039ba3937b5b296bbb4b23a341e911911179f60691b603c820152604f019695505050505050565b6000826127ef576127ef6122a6565b500490565b80820281158282048414176103665761036661212d565b634e487b7160e01b600052603160045260246000fdfe4142434445464748494a4b4c4d4e4f505152535455565758595a6162636465666768696a6b6c6d6e6f707172737475767778797a303132333435363738392b2fa2646970667358221220d4577e76d04cdd9fb535f1b905c91bb25c06846f31ac7a065787b61dd0f8ffa364736f6c63430008150033",
  "linkReferences": {},
  "deployedLinkReferences": {}
}