{
  "_format": "hh-sol-artifact-1",
  "contractName": "RandomArtNFT",
  "sourceName": "contracts/RandomArtNFT.sol",
  "abi": [
    {
      "inputs": [
        {
          "internalType": "string",
          "name": "name",
          "type": "string"
        },
        {
          "internalType": "string",
          "name": "symbol",
          "type": "string"
        },
        {
          "internalType": "string",
          "name": "baseURI",
          "type": "string"
        },
        {
          "internalType": "uint256",
          "name": "_maxSupply",
          "type": "uint256"
        },
        {
          "internalType": "address",
          "name": "initialOwner",
          "type": "address"
        }
      ],
      "stateMutability": "nonpayable",
      "type": "constructor"
    },
    {
      "inputs": [],
      "name": "ERC721EnumerableForbiddenBatchMint",
      "type": "error"
    },
    {
      "inputs": [
        {
          "internalType": "address",
          "name": "sender",
          "type": "address"
        },
        {
          "internalType": "uint256",
          "name": "tokenId",
          "type": "uint256"
        },
        {
          "internalType": "address",
          "name": "owner",
          "type": "address"
        }
      ],
      "name": "ERC721IncorrectOwner",
      "type": "error"
    },
    {
      "inputs": [
        {
          "internalType": "address",
          "name": "operator",
          "type": "address"
        },
        {
          "internalType": "uint256",
          "name": "tokenId",
          "type": "uint256"
        }
      ],
      "name": "ERC721InsufficientApproval",
      "type": "error"
    },
    {
      "inputs": [
        {
          "internalType": "address",
          "name": "approver",
          "type": "address"
        }
      ],
      "name": "ERC721InvalidApprover",
      "type": "error"
    },
    {
      "inputs": [
        {
          "internalType": "address",
          "name": "operator",
          "type": "address"
        }
      ],
      "name": "ERC721InvalidOperator",
      "type": "error"
    },
    {
      "inputs": [
        {
          "internalType": "address",
          "name": "owner",
          "type": "address"
        }
      ],
      "name": "ERC721InvalidOwner",
      "type": "error"
    },
    {
      "inputs": [
        {
          "internalType": "address",
          "name": "receiver",
          "type": "address"
        }
      ],
      "name": "ERC721InvalidReceiver",
      "type": "error"
    },
    {
      "inputs": [
        {
          "internalType": "address",
          "name": "sender",
          "type": "address"
        }
      ],
      "name": "ERC721InvalidSender",
      "type": "error"
    },
    {
      "inputs": [
        {
          "internalType": "uint256",
          "name": "tokenId",
          "type": "uint256"
        }
      ],
      "name": "ERC721NonexistentToken",
      "type": "error"
    },
    {
      "inputs": [
        {
          "internalType": "address",
          "name": "owner",
          "type": "address"
        },
        {
          "internalType": "uint256",
          "name": "index",
          "type": "uint256"
        }
      ],
      "name": "ERC721OutOfBoundsIndex",
      "type": "error"
    },
    {
      "inputs": [
        {
          "internalType": "address",
          "name": "owner",
          "type": "address"
        }
      ],
      "name": "OwnableInvalidOwner",
      "type": "error"
    },
    {
      "inputs": [
        {
          "internalType": "address",
          "name": "account",
          "type": "address"
        }
      ],
      "name": "OwnableUnauthorizedAccount",
      "type": "error"
    },
    {
      "anonymous": false,
      "inputs": [
        {
          "indexed": true,
          "internalType": "address",
          "name": "owner",
          "type": "address"
        },
        {
          "indexed": true,
          "internalType": "address",
          "name": "approved",
          "type": "address"
        },
        {
          "indexed": true,
          "internalType": "uint256",
          "name": "tokenId",
          "type": "uint256"
        }
      ],
      "name": "Approval",
      "type": "event"
    },
    {
      "anonymous": false,
      "inputs": [
        {
          "indexed": true,
          "internalType": "address",
          "name": "owner",
          "type": "address"
        },
        {
          "indexed": true,
          "internalType": "address",
          "name": "operator",
          "type": "address"
        },
        {
          "indexed": false,
          "internalType": "bool",
          "name": "approved",
          "type": "bool"
        }
      ],
      "name": "ApprovalForAll",
      "type": "event"
    },
    {
      "anonymous": false,
      "inputs": [
        {
          "indexed": true,
          "internalType": "address",
          "name": "to",
          "type": "address"
        },
        {
          "indexed": true,
          "internalType": "uint256",
          "name": "tokenId",
          "type": "uint256"
        }
      ],
      "name": "NFTMinted",
      "type": "event"
    },
    {
      "anonymous": false,
      "inputs": [
        {
          "indexed": true,
          "internalType": "address",
          "name": "previousOwner",
          "type": "address"
        },
        {
          "indexed": true,
          "internalType": "address",
          "name": "newOwner",
          "type": "address"
        }
      ],
      "name": "OwnershipTransferred",
      "type": "event"
    },
    {
      "anonymous": false,
      "inputs": [
        {
          "indexed": true,
          "internalType": "address",
          "name": "from",
          "type": "address"
        },
        {
          "indexed": true,
          "internalType": "address",
          "name": "to",
          "type": "address"
        },
        {
          "indexed": true,
          "internalType": "uint256",
          "name": "tokenId",
          "type": "uint256"
        }
      ],
      "name": "Transfer",
      "type": "event"
    },
    {
      "inputs": [
        {
          "internalType": "address",
          "name": "to",
          "type": "address"
        },
        {
          "internalType": "uint256",
          "name": "tokenId",
          "type": "uint256"
        }
      ],
      "name": "approve",
      "outputs": [],
      "stateMutability": "nonpayable",
      "type": "function"
    },
    {
      "inputs": [
        {
          "internalType": "address",
          "name": "owner",
          "type": "address"
        }
      ],
      "name": "balanceOf",
      "outputs": [
        {
          "internalType": "uint256",
          "name": "",
          "type": "uint256"
        }
      ],
      "stateMutability": "view",
      "type": "function"
    },
    {
      "inputs": [
        {
          "internalType": "uint256",
          "name": "tokenId",
          "type": "uint256"
        }
      ],
      "name": "getApproved",
      "outputs": [
        {
          "internalType": "address",
          "name": "",
          "type": "address"
        }
      ],
      "stateMutability": "view",
      "type": "function"
    },
    {
      "inputs": [
        {
          "internalType": "address",
          "name": "owner",
          "type": "address"
        },
        {
          "internalType": "address",
          "name": "operator",
          "type": "address"
        }
      ],
      "name": "isApprovedForAll",
      "outputs": [
        {
          "internalType": "bool",
          "name": "",
          "type": "bool"
        }
      ],
      "stateMutability": "view",
      "type": "function"
    },
    {
      "inputs": [],
      "name": "maxSupply",
      "outputs": [
        {
          "internalType": "uint256",
          "name": "",
          "type": "uint256"
        }
      ],
      "stateMutability": "view",
      "type": "function"
    },
    {
      "inputs": [
        {
          "internalType": "address",
          "name": "to",
          "type": "address"
        }
      ],
      "name": "mint",
      "outputs": [],
      "stateMutability": "nonpayable",
      "type": "function"
    },
    {
      "inputs": [
        {
          "internalType": "address",
          "name": "to",
          "type": "address"
        },
        {
          "internalType": "uint256",
          "name": "quantity",
          "type": "uint256"
        }
      ],
      "name": "mintBatch",
      "outputs": [],
      "stateMutability": "nonpayable",
      "type": "function"
    },
    {
      "inputs": [],
      "name": "name",
      "outputs": [
        {
          "internalType": "string",
          "name": "",
          "type": "string"
        }
      ],
      "stateMutability": "view",
      "type": "function"
    },
    {
      "inputs": [],
      "name": "owner",
      "outputs": [
        {
          "internalType": "address",
          "name": "",
          "type": "address"
        }
      ],
      "stateMutability": "view",
      "type": "function"
    },
    {
      "inputs": [
        {
          "internalType": "uint256",
          "name": "tokenId",
          "type": "uint256"
        }
      ],
      "name": "ownerOf",
      "outputs": [
        {
          "internalType": "address",
          "name": "",
          "type": "address"
        }
      ],
      "stateMutability": "view",
      "type": "function"
    },
    {
      "inputs": [],
      "name": "paused",
      "outputs": [
        {
          "internalType": "bool",
          "name": "",
          "type": "bool"
        }
      ],
      "stateMutability": "view",
      "type": "function"
    },
    {
      "inputs": [],
      "name": "renounceOwnership",
      "outputs": [],
      "stateMutability": "nonpayable",
      "type": "function"
    },
    {
      "inputs": [
        {
          "internalType": "address",
          "name": "from",
          "type": "address"
        },
        {
          "internalType": "address",
          "name": "to",
          "type": "address"
        },
        {
          "internalType": "uint256",
          "name": "tokenId",
          "type": "uint256"
        }
      ],
      "name": "safeTransferFrom",
      "outputs": [],
      "stateMutability": "nonpayable",
      "type": "function"
    },
    {
      "inputs": [
        {
          "internalType": "address",
          "name": "from",
          "type": "address"
        },
        {
          "internalType": "address",
          "name": "to",
          "type": "address"
        },
        {
          "internalType": "uint256",
          "name": "tokenId",
          "type": "uint256"
        },
        {
          "internalType": "bytes",
          "name": "data",
          "type": "bytes"
        }
      ],
      "name": "safeTransferFrom",
      "outputs": [],
      "stateMutability": "nonpayable",
      "type": "function"
    },
    {
      "inputs": [
        {
          "internalType": "address",
          "name": "operator",
          "type": "address"
        },
        {
          "internalType": "bool",
          "name": "approved",
          "type": "bool"
        }
      ],
      "name": "setApprovalForAll",
      "outputs": [],
      "stateMutability": "nonpayable",
      "type": "function"
    },
    {
      "inputs": [
        {
          "internalType": "string",
          "name": "baseURI",
          "type": "string"
        }
      ],
      "name": "setBaseURI",
      "outputs": [],
      "stateMutability": "nonpayable",
      "type": "function"
    },
    {
      "inputs": [
        {
          "internalType": "bool",
          "name": "_paused",
          "type": "bool"
        }
      ],
      "name": "setPaused",
      "outputs": [],
      "stateMutability": "nonpayable",
      "type": "function"
    },
    {
      "inputs": [
        {
          "internalType": "bytes4",
          "name": "interfaceId",
          "type": "bytes4"
        }
      ],
      "name": "supportsInterface",
      "outputs": [
        {
          "internalType": "bool",
          "name": "",
          "type": "bool"
        }
      ],
      "stateMutability": "view",
      "type": "function"
    },
    {
      "inputs": [],
      "name": "symbol",
      "outputs": [
        {
          "internalType": "string",
          "name": "",
          "type": "string"
        }
      ],
      "stateMutability": "view",
      "type": "function"
    },
    {
      "inputs": [
        {
          "internalType": "uint256",
          "name": "index",
          "type": "uint256"
        }
      ],
      "name": "tokenByIndex",
      "outputs": [
        {
          "internalType": "uint256",
          "name": "",
          "type": "uint256"
        }
      ],
      "stateMutability": "view",
      "type": "function"
    },
    {
      "inputs": [
        {
          "internalType": "address",
          "name": "owner",
          "type": "address"
        },
        {
          "internalType": "uint256",
          "name": "index",
          "type": "uint256"
        }
      ],
      "name": "tokenOfOwnerByIndex",
      "outputs": [
        {
          "internalType": "uint256",
          "name": "",
          "type": "uint256"
        }
      ],
      "stateMutability": "view",
      "type": "function"
    },
    {
      "inputs": [
        {
          "internalType": "uint256",
          "name": "tokenId",
          "type": "uint256"
        }
      ],
      "name": "tokenURI",
      "outputs": [
        {
          "internalType": "string",
          "name": "",
          "type": "string"
        }
      ],
      "stateMutability": "view",
      "type": "function"
    },
    {
      "inputs": [],
      "name": "totalSupply",
      "outputs": [
        {
          "internalType": "uint256",
          "name": "",
          "type": "uint256"
        }
      ],
      "stateMutability": "view",
      "type": "function"
    },
    {
      "inputs": [
        {
          "internalType": "address",
          "name": "from",
          "type": "address"
        },
        {
          "internalType": "address",
          "name": "to",
          "type": "address"
        },
        {
          "internalType": "uint256",
          "name": "tokenId",
          "type": "uint256"
        }
      ],
      "name": "transferFrom",
      "outputs": [],
      "stateMutability": "nonpayable",
      "type": "function"
    },
    {
      "inputs": [
        {
          "internalType": "address",
          "name": "newOwner",
          "type": "address"
        }
      ],
      "name": "transferOwnership",
      "outputs": [],
      "stateMutability": "nonpayable",
      "type": "function"
    }
  ],
  "bytecode": "0x60806040523480156200001157600080fd5b5060405162002cd438038062002cd4833981016040819052620000349162000227565b808585600062000045838262000375565b50600162000054828262000375565b5050506001600160a01b0381166200008657604051631e4fbdf760e01b81526000600482015260240160405180910390fd5b620000918162000110565b50600c620000a0848262000375565b50600d8290556001600b55600e805460ff19169055604051620000e990429044903390602001928352602083019190915260601b6001600160601b031916604082015260540190565b60408051601f198184030181529190528051602090910120600f5550620004419350505050565b600a80546001600160a01b038381166001600160a01b0319831681179093556040519116919082907f8be0079c531659141344cd1fd0a4f28419497f9722a3daafe3b4186f6b6457e090600090a35050565b634e487b7160e01b600052604160045260246000fd5b600082601f8301126200018a57600080fd5b81516001600160401b0380821115620001a757620001a762000162565b604051601f8301601f19908116603f01168101908282118183101715620001d257620001d262000162565b81604052838152602092508683858801011115620001ef57600080fd5b600091505b83821015620002135785820183015181830184015290820190620001f4565b600093810190920192909252949350505050565b600080600080600060a086880312156200024057600080fd5b85516001600160401b03808211156200025857600080fd5b6200026689838a0162000178565b965060208801519150808211156200027d57600080fd5b6200028b89838a0162000178565b95506040880151915080821115620002a257600080fd5b50620002b18882890162000178565b60608801516080890151919550935090506001600160a01b0381168114620002d857600080fd5b809150509295509295909350565b600181811c90821680620002fb57607f821691505b6020821081036200031c57634e487b7160e01b600052602260045260246000fd5b50919050565b601f8211156200037057600081815260208120601f850160051c810160208610156200034b5750805b601f850160051c820191505b818110156200036c5782815560010162000357565b5050505b505050565b81516001600160401b0381111562000391576200039162000162565b620003a981620003a28454620002e6565b8462000322565b602080601f831160018114620003e15760008415620003c85750858301515b600019600386901b1c1916600185901b1785556200036c565b600085815260208120601f198616915b828110156200041257888601518255948401946001909101908401620003f1565b5085821015620004315787850151600019600388901b60f8161c191681555b5050505050600190811b01905550565b61288380620004516000396000f3fe608060405234801561001057600080fd5b50600436106101735760003560e01c80635c975abb116100de57806395d89b4111610097578063c87b56dd11610071578063c87b56dd14610319578063d5abeb011461032c578063e985e9c514610335578063f2fde38b1461034857600080fd5b806395d89b41146102eb578063a22cb465146102f3578063b88d4fde1461030657600080fd5b80635c975abb1461028c5780636352211e146102995780636a627842146102ac57806370a08231146102bf578063715018a6146102d25780638da5cb5b146102da57600080fd5b806323b872dd1161013057806323b872dd1461021a578063248b71fc1461022d5780632f745c591461024057806342842e0e146102535780634f6ccce71461026657806355f804b31461027957600080fd5b806301ffc9a71461017857806306fdde03146101a0578063081812fc146101b5578063095ea7b3146101e057806316c38b3c146101f557806318160ddd14610208575b600080fd5b61018b610186366004611dd0565b61035b565b60405190151581526020015b60405180910390f35b6101a861036c565b6040516101979190611e3d565b6101c86101c3366004611e50565b6103fe565b6040516001600160a01b039091168152602001610197565b6101f36101ee366004611e85565b610427565b005b6101f3610203366004611ebf565b610436565b6008545b604051908152602001610197565b6101f3610228366004611eda565b610451565b6101f361023b366004611e85565b6104e1565b61020c61024e366004611e85565b6106e6565b6101f3610261366004611eda565b61074b565b61020c610274366004611e50565b610766565b6101f3610287366004611fa2565b6107bf565b600e5461018b9060ff1681565b6101c86102a7366004611e50565b6107d3565b6101f36102ba366004611ff3565b6107de565b61020c6102cd366004611ff3565b61095d565b6101f36109a5565b600a546001600160a01b03166101c8565b6101a86109b9565b6101f361030136600461200e565b6109c8565b6101f3610314366004612041565b6109d3565b6101a8610327366004611e50565b6109eb565b61020c600d5481565b61018b6103433660046120bd565b610b73565b6101f3610356366004611ff3565b610ba1565b600061036682610bdf565b92915050565b60606000805461037b906120e7565b80601f01602080910402602001604051908101604052809291908181526020018280546103a7906120e7565b80156103f45780601f106103c9576101008083540402835291602001916103f4565b820191906000526020600020905b8154815290600101906020018083116103d757829003601f168201915b5050505050905090565b600061040982610c04565b506000828152600460205260409020546001600160a01b0316610366565b610432828233610c3d565b5050565b61043e610c4a565b600e805460ff1916911515919091179055565b6001600160a01b03821661048057604051633250574960e11b8152600060048201526024015b60405180910390fd5b600061048d838333610c77565b9050836001600160a01b0316816001600160a01b0316146104db576040516364283d7b60e01b81526001600160a01b0380861660048301526024820184905282166044820152606401610477565b50505050565b6104e9610c4a565b600e5460ff16156105305760405162461bcd60e51b8152602060048201526011602482015270135a5b9d1a5b99c81a5cc81c185d5cd959607a1b6044820152606401610477565b600d54600182600b546105439190612137565b61054d919061214a565b11156105905760405162461bcd60e51b815260206004820152601260248201527145786365656473206d617820737570706c7960701b6044820152606401610477565b6001600160a01b0382166105e65760405162461bcd60e51b815260206004820152601b60248201527f43616e6e6f74206d696e7420746f207a65726f206164647265737300000000006044820152606401610477565b600081116106365760405162461bcd60e51b815260206004820152601f60248201527f5175616e74697479206d7573742062652067726561746572207468616e2030006044820152606401610477565b60005b818110156106e157600b805490819060006106538361215d565b91905055506106628482610c8e565b600f54604080516020810192909252810182905242606082015260800160408051601f19818403018152908290528051602090910120600f5581906001600160a01b038616907f4cc0a9c4a99ddc700de1af2c9f916a7cbfdb71f14801ccff94061ad1ef8a804090600090a350806106d98161215d565b915050610639565b505050565b60006106f18361095d565b82106107225760405163295f44f760e21b81526001600160a01b038416600482015260248101839052604401610477565b506001600160a01b03919091166000908152600660209081526040808320938352929052205490565b6106e1838383604051806020016040528060008152506109d3565b600061077160085490565b821061079a5760405163295f44f760e21b81526000600482015260248101839052604401610477565b600882815481106107ad576107ad612176565b90600052602060002001549050919050565b6107c7610c4a565b600c61043282826121d2565b600061036682610c04565b6107e6610c4a565b600e5460ff161561082d5760405162461bcd60e51b8152602060048201526011602482015270135a5b9d1a5b99c81a5cc81c185d5cd959607a1b6044820152606401610477565b600d54600b5411156108765760405162461bcd60e51b815260206004820152601260248201527113585e081cdd5c1c1b1e481c995858da195960721b6044820152606401610477565b6001600160a01b0381166108cc5760405162461bcd60e51b815260206004820152601b60248201527f43616e6e6f74206d696e7420746f207a65726f206164647265737300000000006044820152606401610477565b600b805490819060006108de8361215d565b91905055506108ed8282610c8e565b600f54604080516020810192909252810182905242606082015260800160408051601f19818403018152908290528051602090910120600f5581906001600160a01b038416907f4cc0a9c4a99ddc700de1af2c9f916a7cbfdb71f14801ccff94061ad1ef8a804090600090a35050565b60006001600160a01b038216610989576040516322718ad960e21b815260006004820152602401610477565b506001600160a01b031660009081526003602052604090205490565b6109ad610c4a565b6109b76000610ca8565b565b60606001805461037b906120e7565b610432338383610cfa565b6109de848484610451565b6104db3385858585610d99565b6000818152600260205260409020546060906001600160a01b0316610a495760405162461bcd60e51b8152602060048201526014602482015273151bdad95b88191bd95cc81b9bdd08195e1a5cdd60621b6044820152606401610477565b600f54604080516020810192909252810183905242606082015260009060800160408051601f19818403018152919052805160209091012090506000610a91610100836122a8565b90506000610aa5610100600885901c6122a8565b90506000610ab9610100601086901c6122a8565b90506000610acc600a601887901c6122a8565b90506000610adf6008602088901c6122a8565b90506000610aec86610ec4565b610af586610ec4565b610afe86610ec4565b610b0986868c610f57565b610b128d610ec4565b604051602001610b269594939291906122d8565b60405160208183030381529060405290506000610b4282611151565b905080604051602001610b5591906124bd565b60405160208183030381529060405298505050505050505050919050565b6001600160a01b03918216600090815260056020908152604080832093909416825291909152205460ff1690565b610ba9610c4a565b6001600160a01b038116610bd357604051631e4fbdf760e01b815260006004820152602401610477565b610bdc81610ca8565b50565b60006001600160e01b0319821663780e9d6360e01b1480610366575061036682611702565b6000818152600260205260408120546001600160a01b03168061036657604051637e27328960e01b815260048101849052602401610477565b6106e18383836001611752565b600a546001600160a01b031633146109b75760405163118cdaa760e01b8152336004820152602401610477565b6000610c84848484611858565b90505b9392505050565b610432828260405180602001604052806000815250611925565b600a80546001600160a01b038381166001600160a01b0319831681179093556040519116919082907f8be0079c531659141344cd1fd0a4f28419497f9722a3daafe3b4186f6b6457e090600090a35050565b6001600160a01b038216610d2c57604051630b61174360e31b81526001600160a01b0383166004820152602401610477565b6001600160a01b03838116600081815260056020908152604080832094871680845294825291829020805460ff191686151590811790915591519182527f17307eab39ab6107e8899845ad3d59bd9653f200f220920489ca2b5937696c31910160405180910390a3505050565b6001600160a01b0383163b15610ebd57604051630a85bd0160e11b81526001600160a01b0384169063150b7a0290610ddb908890889087908790600401612502565b6020604051808303816000875af1925050508015610e16575060408051601f3d908101601f19168201909252610e139181019061253f565b60015b610e7f573d808015610e44576040519150601f19603f3d011682016040523d82523d6000602084013e610e49565b606091505b508051600003610e7757604051633250574960e11b81526001600160a01b0385166004820152602401610477565b805160208201fd5b6001600160e01b03198116630a85bd0160e11b14610ebb57604051633250574960e11b81526001600160a01b0385166004820152602401610477565b505b5050505050565b60606000610ed18361193d565b600101905060008167ffffffffffffffff811115610ef157610ef1611f16565b6040519080825280601f01601f191660200182016040528015610f1b576020820181803683370190505b5090508181016020015b600019016f181899199a1a9b1b9c1cb0b131b232b360811b600a86061a8153600a8504945084610f2557509392505050565b60606003841015611000576000610f7061012c846122a8565b610f7b906032612137565b90506000610f8f61012c600886901c6122a8565b610f9a906032612137565b90506000610fad6050601087901c6122a8565b610fb8906014612137565b9050610fc383610ec4565b610fcc83610ec4565b610fd583610ec4565b604051602001610fe79392919061255c565b6040516020818303038152906040529350505050610c87565b60068410156110ce57600061101660fa846122a8565b611021906032612137565b9050600061103460fa600886901c6122a8565b61103f906032612137565b905060006110526064601087901c6122a8565b61105d906032612137565b905060006110706064601888901c6122a8565b61107b906032612137565b905061108684610ec4565b61108f84610ec4565b61109884610ec4565b6110a184610ec4565b6040516020016110b49493929190612607565b604051602081830303815290604052945050505050610c87565b60006110dc610190846122a8565b905060006110f0610190600886901c6122a8565b90506000611104610190601087901c6122a8565b90506000611118610190601888901c6122a8565b905061112384610ec4565b61112c84610ec4565b61113584610ec4565b61113e84610ec4565b6040516020016110b494939291906126de565b6060600060405180606001604052806040815260200161280e60409139905060006003845160026111829190612137565b61118c91906127cc565b6111979060046127e0565b905060008167ffffffffffffffff8111156111b4576111b4611f16565b6040519080825280601f01601f1916602001820160405280156111de576020820181803683370190505b5090506000805b86516111f2836003612137565b116113f957600087838151811061120b5761120b612176565b016020015160f81c9050600088611223856001612137565b8151811061123357611233612176565b016020015160f81c905060008961124b866002612137565b8151811061125b5761125b612176565b0160200151885160f89190911c9150601084901b600884901b178217908990601283901c90811061128e5761128e612176565b01602001516001600160f81b03191687866112a88161215d565b9750815181106112ba576112ba612176565b60200101906001600160f81b031916908160001a90535088600c82901c603f16815181106112ea576112ea612176565b01602001516001600160f81b03191687866113048161215d565b97508151811061131657611316612176565b60200101906001600160f81b031916908160001a90535088600682901c603f168151811061134657611346612176565b01602001516001600160f81b03191687866113608161215d565b97508151811061137257611372612176565b60200101906001600160f81b031916908160001a9053508881603f168151811061139e5761139e612176565b01602001516001600160f81b03191687866113b88161215d565b9750815181106113ca576113ca612176565b60200101906001600160f81b031916908160001a905350505050506003826113f29190612137565b91506111e5565b86518210156116f757600087838151811061141657611416612176565b602091010151885160f882901c925060e89190911c62ff0000169061143c856001612137565b10156115cc57600089611450866001612137565b8151811061146057611460612176565b602001015160f81c60f81b60f81c60ff169050600881901b8217915087601283901c8151811061149257611492612176565b01602001516001600160f81b03191686856114ac8161215d565b9650815181106114be576114be612176565b60200101906001600160f81b031916908160001a90535087600c83901c603f16815181106114ee576114ee612176565b01602001516001600160f81b03191686856115088161215d565b96508151811061151a5761151a612176565b60200101906001600160f81b031916908160001a90535087600683901c603f168151811061154a5761154a612176565b01602001516001600160f81b03191686856115648161215d565b96508151811061157657611576612176565b60200101906001600160f81b031916908160001a905350603d60f81b868561159d8161215d565b9650815181106115af576115af612176565b60200101906001600160f81b031916908160001a905350506116f4565b86601282901c815181106115e2576115e2612176565b01602001516001600160f81b03191685846115fc8161215d565b95508151811061160e5761160e612176565b60200101906001600160f81b031916908160001a90535086600c82901c603f168151811061163e5761163e612176565b01602001516001600160f81b03191685846116588161215d565b95508151811061166a5761166a612176565b60200101906001600160f81b031916908160001a905350603d60f81b85846116918161215d565b9550815181106116a3576116a3612176565b60200101906001600160f81b031916908160001a905350603d60f81b85846116ca8161215d565b9550815181106116dc576116dc612176565b60200101906001600160f81b031916908160001a9053505b50505b509095945050505050565b60006001600160e01b031982166380ac58cd60e01b148061173357506001600160e01b03198216635b5e139f60e01b145b8061036657506301ffc9a760e01b6001600160e01b0319831614610366565b808061176657506001600160a01b03821615155b1561182857600061177684610c04565b90506001600160a01b038316158015906117a25750826001600160a01b0316816001600160a01b031614155b80156117b557506117b38184610b73565b155b156117de5760405163a9fbf51f60e01b81526001600160a01b0384166004820152602401610477565b81156118265783856001600160a01b0316826001600160a01b03167f8c5be1e5ebec7d5bd14f71427d1e84f3dd0314c0f7b2291e5b200ac8c7c3b92560405160405180910390a45b505b5050600090815260046020526040902080546001600160a01b0319166001600160a01b0392909216919091179055565b600080611866858585611a15565b90506001600160a01b0381166118c3576118be84600880546000838152600960205260408120829055600182018355919091527ff3f7a9fe364faab93b216da50a3214154f22a0a2b415b23a84c8169e8b636ee30155565b6118e6565b846001600160a01b0316816001600160a01b0316146118e6576118e68185611b0e565b6001600160a01b038516611902576118fd84611b8f565b610c84565b846001600160a01b0316816001600160a01b031614610c8457610c848585611c3e565b61192f8383611c8e565b6106e1336000858585610d99565b60008072184f03e93ff9f4daa797ed6e38ed64bf6a1f0160401b831061197c5772184f03e93ff9f4daa797ed6e38ed64bf6a1f0160401b830492506040015b6d04ee2d6d415b85acef810000000083106119a8576d04ee2d6d415b85acef8100000000830492506020015b662386f26fc1000083106119c657662386f26fc10000830492506010015b6305f5e10083106119de576305f5e100830492506008015b61271083106119f257612710830492506004015b60648310611a04576064830492506002015b600a83106103665760010192915050565b6000828152600260205260408120546001600160a01b0390811690831615611a4257611a42818486611cf3565b6001600160a01b03811615611a8057611a5f600085600080611752565b6001600160a01b038116600090815260036020526040902080546000190190555b6001600160a01b03851615611aaf576001600160a01b0385166000908152600360205260409020805460010190555b60008481526002602052604080822080546001600160a01b0319166001600160a01b0389811691821790925591518793918516917fddf252ad1be2c89b69c2b068fc378daa952ba7f163c4a11628f55a4df523b3ef91a4949350505050565b6000611b198361095d565b6000838152600760209081526040808320546001600160a01b0388168452600690925290912091925090818314611b7057600083815260208281526040808320548584528184208190558352600790915290208290555b6000938452600760209081526040808620869055938552525081205550565b600854600090611ba19060019061214a565b60008381526009602052604081205460088054939450909284908110611bc957611bc9612176565b906000526020600020015490508060088381548110611bea57611bea612176565b6000918252602080832090910192909255828152600990915260408082208490558582528120556008805480611c2257611c226127f7565b6001900381819060005260206000200160009055905550505050565b60006001611c4b8461095d565b611c55919061214a565b6001600160a01b039093166000908152600660209081526040808320868452825280832085905593825260079052919091209190915550565b6001600160a01b038216611cb857604051633250574960e11b815260006004820152602401610477565b6000611cc683836000610c77565b90506001600160a01b038116156106e1576040516339e3563760e11b815260006004820152602401610477565b611cfe838383611d57565b6106e1576001600160a01b038316611d2c57604051637e27328960e01b815260048101829052602401610477565b60405163177e802f60e01b81526001600160a01b038316600482015260248101829052604401610477565b60006001600160a01b03831615801590610c845750826001600160a01b0316846001600160a01b03161480611d915750611d918484610b73565b80610c845750506000908152600460205260409020546001600160a01b03908116911614919050565b6001600160e01b031981168114610bdc57600080fd5b600060208284031215611de257600080fd5b8135610c8781611dba565b60005b83811015611e08578181015183820152602001611df0565b50506000910152565b60008151808452611e29816020860160208601611ded565b601f01601f19169290920160200192915050565b602081526000610c876020830184611e11565b600060208284031215611e6257600080fd5b5035919050565b80356001600160a01b0381168114611e8057600080fd5b919050565b60008060408385031215611e9857600080fd5b611ea183611e69565b946020939093013593505050565b80358015158114611e8057600080fd5b600060208284031215611ed157600080fd5b610c8782611eaf565b600080600060608486031215611eef57600080fd5b611ef884611e69565b9250611f0660208501611e69565b9150604084013590509250925092565b634e487b7160e01b600052604160045260246000fd5b600067ffffffffffffffff80841115611f4757611f47611f16565b604051601f8501601f19908116603f01168101908282118183101715611f6f57611f6f611f16565b81604052809350858152868686011115611f8857600080fd5b858560208301376000602087830101525050509392505050565b600060208284031215611fb457600080fd5b813567ffffffffffffffff811115611fcb57600080fd5b8201601f81018413611fdc57600080fd5b611feb84823560208401611f2c565b949350505050565b60006020828403121561200557600080fd5b610c8782611e69565b6000806040838503121561202157600080fd5b61202a83611e69565b915061203860208401611eaf565b90509250929050565b6000806000806080858703121561205757600080fd5b61206085611e69565b935061206e60208601611e69565b925060408501359150606085013567ffffffffffffffff81111561209157600080fd5b8501601f810187136120a257600080fd5b6120b187823560208401611f2c565b91505092959194509250565b600080604083850312156120d057600080fd5b6120d983611e69565b915061203860208401611e69565b600181811c908216806120fb57607f821691505b60208210810361211b57634e487b7160e01b600052602260045260246000fd5b50919050565b634e487b7160e01b600052601160045260246000fd5b8082018082111561036657610366612121565b8181038181111561036657610366612121565b60006001820161216f5761216f612121565b5060010190565b634e487b7160e01b600052603260045260246000fd5b601f8211156106e157600081815260208120601f850160051c810160208610156121b35750805b601f850160051c820191505b81811015610ebb578281556001016121bf565b815167ffffffffffffffff8111156121ec576121ec611f16565b612200816121fa84546120e7565b8461218c565b602080601f831160018114612235576000841561221d5750858301515b600019600386901b1c1916600185901b178555610ebb565b600085815260208120601f198616915b8281101561226457888601518255948401946001909101908401612245565b50858210156122825787850151600019600388901b60f8161c191681555b5050505050600190811b01905550565b634e487b7160e01b600052601260045260246000fd5b6000826122b7576122b7612292565b500690565b600081516122ce818560208601611ded565b9290920192915050565b7f3c73766720786d6c6e733d22687474703a2f2f7777772e77332e6f72672f323081527f30302f737667222077696474683d2234303022206865696768743d223430302260208201527f2076696577426f783d223020302034303020343030223e00000000000000000060408201527f3c726563742077696474683d2234303022206865696768743d223430302220666057820152680d2d8d87a44e4cec4560bb1b607782015260008651612394816080850160208b01611ded565b8083019050600b60fa1b80608083015287516123b7816081850160208c01611ded565b608192019182015285516123d2816082840160208a01611ded565b6124b061249e61248b6124856124786124036123fd6082888a0101631491179f60e11b815260040190565b8c6122bc565b7f3c7465787420783d223230302220793d223230302220666f6e742d66616d696c81527f793d22417269616c2220666f6e742d73697a653d223234222066696c6c3d227760208201527f686974652220746578742d616e63686f723d226d6964646c65223e00000000006040820152605b0190565b602360f81b815260010190565b886122bc565b661e17ba32bc3a1f60c91b815260070190565b651e17b9bb339f60d11b815260060190565b9998505050505050505050565b7f646174613a696d6167652f7376672b786d6c3b6261736536342c0000000000008152600082516124f581601a850160208701611ded565b91909101601a0192915050565b6001600160a01b038581168252841660208201526040810183905260806060820181905260009061253590830184611e11565b9695505050505050565b60006020828403121561255157600080fd5b8151610c8781611dba565b6b1e31b4b931b6329031bc1e9160a11b8152835160009061258481600c850160208901611ded565b65111031bc9e9160d11b600c9184019182015284516125aa816012840160208901611ded565b641110391e9160d91b6012929091019182015283516125d0816017840160208801611ded565b7f222066696c6c3d2272676261283235352c3235352c3235352c302e3329222f3e6017929091019182015260370195945050505050565b681e3932b1ba103c1e9160b91b8152845160009061262c816009850160208a01611ded565b6411103c9e9160d91b600991840191820152855161265181600e840160208a01611ded565b6811103bb4b23a341e9160b91b600e9290910191820152845161267b816017840160208901611ded565b6911103432b4b3b43a1e9160b11b6017929091019182015283516126a6816021840160208801611ded565b7f222066696c6c3d2272676261283235352c3235352c3235352c302e3229222f3e602192909101918201526041019695505050505050565b691e3634b732903c189e9160b11b8152845160009061270481600a850160208a01611ded565b6511103c989e9160d11b600a91840191820152855161272a816010840160208a01611ded565b6511103c191e9160d11b601092909101918201528451612751816016840160208901611ded565b6511103c991e9160d11b60169290910191820152835161277881601c840160208801611ded565b7f22207374726f6b653d2272676261283235352c3235352c3235352c302e342922601c9290910191820152721039ba3937b5b296bbb4b23a341e911911179f60691b603c820152604f019695505050505050565b6000826127db576127db612292565b500490565b808202811582820484141761036657610366612121565b634e487b7160e01b600052603160045260246000fdfe4142434445464748494a4b4c4d4e4f505152535455565758595a6162636465666768696a6b6c6d6e6f707172737475767778797a303132333435363738392b2fa26469706673582212202512516161fc437bb62a2e78661260800ffb71f9b5367fe409ea06c8998f963f64736f6c63430008150033",
  "linkReferences": {},
  "deployedLinkReferences": {}
}