{
  "_format": "hh-sol-artifact-1",
  "contractName": "HypurrNFTTransfer",
  "sourceName": "contracts/HypurrNFTTransfer.sol",
  "abi": [
    {
      "inputs": [],
      "stateMutability": "nonpayable",
      "type": "constructor"
    },
    {
      "inputs": [
        {
          "internalType": "address",
          "name": "target",
          "type": "address"
        }
      ],
      "name": "AddressEmptyCode",
      "type": "error"
    },
    {
      "inputs": [
        {
          "internalType": "address",
          "name": "implementation",
          "type": "address"
        }
      ],
      "name": "ERC1967InvalidImplementation",
      "type": "error"
    },
    {
      "inputs": [],
      "name": "ERC1967NonPayable",
      "type": "error"
    },
    {
      "inputs": [],
      "name": "FailedInnerCall",
      "type": "error"
    },
    {
      "inputs": [],
      "name": "InvalidInitialization",
      "type": "error"
    },
    {
      "inputs": [],
      "name": "NotInitializing",
      "type": "error"
    },
    {
      "inputs": [
        {
          "internalType": "address",
          "name": "owner",
          "type": "address"
        }
      ],
      "name": "OwnableInvalidOwner",
      "type": "error"
    },
    {
      "inputs": [
        {
          "internalType": "address",
          "name": "account",
          "type": "address"
        }
      ],
      "name": "OwnableUnauthorizedAccount",
      "type": "error"
    },
    {
      "inputs": [],
      "name": "ReentrancyGuardReentrantCall",
      "type": "error"
    },
    {
      "inputs": [],
      "name": "UUPSUnauthorizedCallContext",
      "type": "error"
    },
    {
      "inputs": [
        {
          "internalType": "bytes32",
          "name": "slot",
          "type": "bytes32"
        }
      ],
      "name": "UUPSUnsupportedProxiableUUID",
      "type": "error"
    },
    {
      "anonymous": false,
      "inputs": [
        {
          "indexed": false,
          "internalType": "bool",
          "name": "acceptAll",
          "type": "bool"
        }
      ],
      "name": "AcceptAllNFTsUpdated",
      "type": "event"
    },
    {
      "anonymous": false,
      "inputs": [
        {
          "indexed": true,
          "internalType": "address",
          "name": "nftContract",
          "type": "address"
        },
        {
          "indexed": true,
          "internalType": "address",
          "name": "from",
          "type": "address"
        },
        {
          "indexed": false,
          "internalType": "uint256[]",
          "name": "tokenIds",
          "type": "uint256[]"
        },
        {
          "indexed": true,
          "internalType": "address",
          "name": "to",
          "type": "address"
        }
      ],
      "name": "BatchTransferred",
      "type": "event"
    },
    {
      "anonymous": false,
      "inputs": [
        {
          "indexed": false,
          "internalType": "bool",
          "name": "paused",
          "type": "bool"
        }
      ],
      "name": "ContractPaused",
      "type": "event"
    },
    {
      "anonymous": false,
      "inputs": [
        {
          "indexed": true,
          "internalType": "address",
          "name": "oldWallet",
          "type": "address"
        },
        {
          "indexed": true,
          "internalType": "address",
          "name": "newWallet",
          "type": "address"
        }
      ],
      "name": "DestinationWalletUpdated",
      "type": "event"
    },
    {
      "anonymous": false,
      "inputs": [
        {
          "indexed": false,
          "internalType": "uint64",
          "name": "version",
          "type": "uint64"
        }
      ],
      "name": "Initialized",
      "type": "event"
    },
    {
      "anonymous": false,
      "inputs": [
        {
          "indexed": true,
          "internalType": "address",
          "name": "nftContract",
          "type": "address"
        }
      ],
      "name": "NFTContractAdded",
      "type": "event"
    },
    {
      "anonymous": false,
      "inputs": [
        {
          "indexed": true,
          "internalType": "address",
          "name": "nftContract",
          "type": "address"
        }
      ],
      "name": "NFTContractRemoved",
      "type": "event"
    },
    {
      "anonymous": false,
      "inputs": [
        {
          "indexed": true,
          "internalType": "address",
          "name": "nftContract",
          "type": "address"
        },
        {
          "indexed": true,
          "internalType": "address",
          "name": "from",
          "type": "address"
        },
        {
          "indexed": true,
          "internalType": "uint256",
          "name": "tokenId",
          "type": "uint256"
        },
        {
          "indexed": false,
          "internalType": "address",
          "name": "to",
          "type": "address"
        }
      ],
      "name": "NFTTransferred",
      "type": "event"
    },
    {
      "anonymous": false,
      "inputs": [
        {
          "indexed": true,
          "internalType": "address",
          "name": "previousOwner",
          "type": "address"
        },
        {
          "indexed": true,
          "internalType": "address",
          "name": "newOwner",
          "type": "address"
        }
      ],
      "name": "OwnershipTransferred",
      "type": "event"
    },
    {
      "anonymous": false,
      "inputs": [
        {
          "indexed": true,
          "internalType": "address",
          "name": "implementation",
          "type": "address"
        }
      ],
      "name": "Upgraded",
      "type": "event"
    },
    {
      "inputs": [],
      "name": "UPGRADE_INTERFACE_VERSION",
      "outputs": [
        {
          "internalType": "string",
          "name": "",
          "type": "string"
        }
      ],
      "stateMutability": "view",
      "type": "function"
    },
    {
      "inputs": [],
      "name": "acceptAllNFTs",
      "outputs": [
        {
          "internalType": "bool",
          "name": "",
          "type": "bool"
        }
      ],
      "stateMutability": "view",
      "type": "function"
    },
    {
      "inputs": [
        {
          "internalType": "address",
          "name": "_nftContract",
          "type": "address"
        }
      ],
      "name": "addNFTContract",
      "outputs": [],
      "stateMutability": "nonpayable",
      "type": "function"
    },
    {
      "inputs": [
        {
          "internalType": "address",
          "name": "wallet",
          "type": "address"
        }
      ],
      "name": "checkAllNFTs",
      "outputs": [
        {
          "internalType": "uint256",
          "name": "totalCount",
          "type": "uint256"
        }
      ],
      "stateMutability": "view",
      "type": "function"
    },
    {
      "inputs": [
        {
          "internalType": "address",
          "name": "nftContract",
          "type": "address"
        },
        {
          "internalType": "uint256[]",
          "name": "tokenIds",
          "type": "uint256[]"
        }
      ],
      "name": "checkAndTransfer",
      "outputs": [],
      "stateMutability": "nonpayable",
      "type": "function"
    },
    {
      "inputs": [
        {
          "internalType": "address",
          "name": "nftContract",
          "type": "address"
        },
        {
          "internalType": "address",
          "name": "wallet",
          "type": "address"
        }
      ],
      "name": "checkNFTs",
      "outputs": [
        {
          "internalType": "uint256",
          "name": "count",
          "type": "uint256"
        }
      ],
      "stateMutability": "view",
      "type": "function"
    },
    {
      "inputs": [],
      "name": "destinationWallet",
      "outputs": [
        {
          "internalType": "address",
          "name": "",
          "type": "address"
        }
      ],
      "stateMutability": "view",
      "type": "function"
    },
    {
      "inputs": [
        {
          "internalType": "address",
          "name": "",
          "type": "address"
        }
      ],
      "name": "enabledNFTContracts",
      "outputs": [
        {
          "internalType": "bool",
          "name": "",
          "type": "bool"
        }
      ],
      "stateMutability": "view",
      "type": "function"
    },
    {
      "inputs": [],
      "name": "getEnabledNFTContractCount",
      "outputs": [
        {
          "internalType": "uint256",
          "name": "count",
          "type": "uint256"
        }
      ],
      "stateMutability": "view",
      "type": "function"
    },
    {
      "inputs": [],
      "name": "getEnabledNFTContracts",
      "outputs": [
        {
          "internalType": "address[]",
          "name": "contracts",
          "type": "address[]"
        }
      ],
      "stateMutability": "view",
      "type": "function"
    },
    {
      "inputs": [
        {
          "internalType": "address",
          "name": "_destinationWallet",
          "type": "address"
        },
        {
          "internalType": "address",
          "name": "_owner",
          "type": "address"
        }
      ],
      "name": "initialize",
      "outputs": [],
      "stateMutability": "nonpayable",
      "type": "function"
    },
    {
      "inputs": [
        {
          "internalType": "address",
          "name": "nftContract",
          "type": "address"
        }
      ],
      "name": "isNFTContractEnabled",
      "outputs": [
        {
          "internalType": "bool",
          "name": "enabled",
          "type": "bool"
        }
      ],
      "stateMutability": "view",
      "type": "function"
    },
    {
      "inputs": [
        {
          "internalType": "uint256",
          "name": "",
          "type": "uint256"
        }
      ],
      "name": "nftContractList",
      "outputs": [
        {
          "internalType": "address",
          "name": "",
          "type": "address"
        }
      ],
      "stateMutability": "view",
      "type": "function"
    },
    {
      "inputs": [
        {
          "internalType": "address",
          "name": "",
          "type": "address"
        },
        {
          "internalType": "address",
          "name": "",
          "type": "address"
        },
        {
          "internalType": "uint256",
          "name": "",
          "type": "uint256"
        },
        {
          "internalType": "bytes",
          "name": "",
          "type": "bytes"
        }
      ],
      "name": "onERC721Received",
      "outputs": [
        {
          "internalType": "bytes4",
          "name": "",
          "type": "bytes4"
        }
      ],
      "stateMutability": "pure",
      "type": "function"
    },
    {
      "inputs": [],
      "name": "owner",
      "outputs": [
        {
          "internalType": "address",
          "name": "",
          "type": "address"
        }
      ],
      "stateMutability": "view",
      "type": "function"
    },
    {
      "inputs": [],
      "name": "paused",
      "outputs": [
        {
          "internalType": "bool",
          "name": "",
          "type": "bool"
        }
      ],
      "stateMutability": "view",
      "type": "function"
    },
    {
      "inputs": [],
      "name": "proxiableUUID",
      "outputs": [
        {
          "internalType": "bytes32",
          "name": "",
          "type": "bytes32"
        }
      ],
      "stateMutability": "view",
      "type": "function"
    },
    {
      "inputs": [
        {
          "internalType": "address",
          "name": "_nftContract",
          "type": "address"
        }
      ],
      "name": "removeNFTContract",
      "outputs": [],
      "stateMutability": "nonpayable",
      "type": "function"
    },
    {
      "inputs": [],
      "name": "renounceOwnership",
      "outputs": [],
      "stateMutability": "nonpayable",
      "type": "function"
    },
    {
      "inputs": [
        {
          "internalType": "bool",
          "name": "_acceptAll",
          "type": "bool"
        }
      ],
      "name": "setAcceptAllNFTs",
      "outputs": [],
      "stateMutability": "nonpayable",
      "type": "function"
    },
    {
      "inputs": [
        {
          "internalType": "bool",
          "name": "_paused",
          "type": "bool"
        }
      ],
      "name": "setPaused",
      "outputs": [],
      "stateMutability": "nonpayable",
      "type": "function"
    },
    {
      "inputs": [
        {
          "internalType": "address",
          "name": "nftContract",
          "type": "address"
        },
        {
          "internalType": "uint256",
          "name": "tokenId",
          "type": "uint256"
        }
      ],
      "name": "transferNFT",
      "outputs": [],
      "stateMutability": "nonpayable",
      "type": "function"
    },
    {
      "inputs": [
        {
          "internalType": "address",
          "name": "nftContract",
          "type": "address"
        },
        {
          "internalType": "uint256[]",
          "name": "tokenIds",
          "type": "uint256[]"
        }
      ],
      "name": "transferNFTs",
      "outputs": [],
      "stateMutability": "nonpayable",
      "type": "function"
    },
    {
      "inputs": [
        {
          "internalType": "address[]",
          "name": "nftContracts",
          "type": "address[]"
        },
        {
          "internalType": "uint256[][]",
          "name": "tokenIdsArray",
          "type": "uint256[][]"
        }
      ],
      "name": "transferNFTsFromMultiple",
      "outputs": [],
      "stateMutability": "nonpayable",
      "type": "function"
    },
    {
      "inputs": [
        {
          "internalType": "address",
          "name": "owner",
          "type": "address"
        },
        {
          "internalType": "address",
          "name": "nftContract",
          "type": "address"
        },
        {
          "internalType": "uint256[]",
          "name": "tokenIds",
          "type": "uint256[]"
        }
      ],
      "name": "transferNFTsOnBehalf",
      "outputs": [],
      "stateMutability": "nonpayable",
      "type": "function"
    },
    {
      "inputs": [
        {
          "internalType": "address",
          "name": "newOwner",
          "type": "address"
        }
      ],
      "name": "transferOwnership",
      "outputs": [],
      "stateMutability": "nonpayable",
      "type": "function"
    },
    {
      "inputs": [
        {
          "internalType": "address",
          "name": "_newDestination",
          "type": "address"
        }
      ],
      "name": "updateDestinationWallet",
      "outputs": [],
      "stateMutability": "nonpayable",
      "type": "function"
    },
    {
      "inputs": [
        {
          "internalType": "address",
          "name": "newImplementation",
          "type": "address"
        },
        {
          "internalType": "bytes",
          "name": "data",
          "type": "bytes"
        }
      ],
      "name": "upgradeToAndCall",
      "outputs": [],
      "stateMutability": "payable",
      "type": "function"
    }
  ],
  "bytecode": "0x60a0604052306080523480156200001557600080fd5b506200002062000026565b620000da565b7ff0c57e16840df040f15088dc2f81fe391c3923bec73e23a9662efc9c229c6a00805468010000000000000000900460ff1615620000775760405163f92ee8a960e01b815260040160405180910390fd5b80546001600160401b0390811614620000d75780546001600160401b0319166001600160401b0390811782556040519081527fc7f505b2f371ae2175ee4913f4499e1f2633a7b5936321eed1cdaeb6115181d29060200160405180910390a15b50565b608051612b9c6200010460003960008181611fd601528181611fff01526121400152612b9c6000f3fe6080604052600436106101b75760003560e01c80637c9ac3d5116100ec578063ad3cb1cc1161008a578063cfac5d7c11610064578063cfac5d7c1461053e578063d30c89381461055e578063eb7dfee71461057f578063f2fde38b1461059f57600080fd5b8063ad3cb1cc146104c0578063b40712b8146104fe578063c80e44021461051e57600080fd5b80638da5cb5b116100c65780638da5cb5b1461042e57806394172ba11461046b57806394ab67fe14610480578063a397dc94146104a057600080fd5b80637c9ac3d5146103bc57806384d9454f146103de5780638a5d6fc3146103fe57600080fd5b8063485cc9551161015957806352d1902d1161013357806352d1902d1461034357806353b7a59b146103665780635c975abb14610386578063715018a6146103a757600080fd5b8063485cc955146102f05780634a1f8366146103105780634f1ef2861461033057600080fd5b8063324d589211610195578063324d589214610258578063385bfbb4146102785780633b68a2c0146102985780633f5e988c146102b857600080fd5b806306d59477146101bc578063150b7a02146101f157806316c38b3c14610236575b600080fd5b3480156101c857600080fd5b506101dc6101d736600461242b565b6105bf565b60405190151581526020015b60405180910390f35b3480156101fd57600080fd5b5061021d61020c366004612448565b630a85bd0160e11b95945050505050565b6040516001600160e01b031990911681526020016101e8565b34801561024257600080fd5b506102566102513660046124f5565b6105f8565b005b34801561026457600080fd5b5061025661027336600461255e565b610658565b34801561028457600080fd5b5061025661029336600461242b565b61095c565b3480156102a457600080fd5b506102566102b336600461255e565b610af9565b3480156102c457600080fd5b506102d86102d33660046125b3565b610e10565b6040516001600160a01b0390911681526020016101e8565b3480156102fc57600080fd5b5061025661030b3660046125cc565b610e3a565b34801561031c57600080fd5b5061025661032b36600461242b565b61101a565b61025661033e36600461261b565b6110ca565b34801561034f57600080fd5b506103586110e9565b6040519081526020016101e8565b34801561037257600080fd5b506002546102d8906001600160a01b031681565b34801561039257600080fd5b506002546101dc90600160a01b900460ff1681565b3480156103b357600080fd5b50610256611106565b3480156103c857600080fd5b506103d161111a565b6040516101e891906126df565b3480156103ea57600080fd5b506102566103f936600461272c565b61117c565b34801561040a57600080fd5b506101dc61041936600461242b565b60006020819052908152604090205460ff1681565b34801561043a57600080fd5b507f9016d09d72d40fdae2fd8ceac6b6234c7706214fd39c1cd1e609a0528c199300546001600160a01b03166102d8565b34801561047757600080fd5b50600154610358565b34801561048c57600080fd5b5061025661049b366004612791565b6114b1565b3480156104ac57600080fd5b506102566104bb3660046124f5565b6117f4565b3480156104cc57600080fd5b506104f1604051806040016040528060058152602001640352e302e360dc1b81525081565b6040516101e891906127e1565b34801561050a57600080fd5b506103586105193660046125cc565b611849565b34801561052a57600080fd5b5061035861053936600461242b565b611932565b34801561054a57600080fd5b5061025661055936600461242b565b6119f9565b34801561056a57600080fd5b506002546101dc90600160a81b900460ff1681565b34801561058b57600080fd5b5061025661059a366004612814565b611b4b565b3480156105ab57600080fd5b506102566105ba36600461242b565b611ebd565b600254600090600160a81b900460ff16806105f257506001600160a01b03821660009081526020819052604090205460ff165b92915050565b610600611efb565b60028054821515600160a01b0260ff60a01b199091161790556040517f752d7e161ff5146f80e3820893176eb40532811e5e20400dfdde57455213706a9061064d90831515815260200190565b60405180910390a150565b610660611f56565b600254600160a01b900460ff16156106935760405162461bcd60e51b815260040161068a90612874565b60405180910390fd5b336106b05760405162461bcd60e51b815260040161068a906128a0565b6106b9836105bf565b6106d55760405162461bcd60e51b815260040161068a906128c8565b8061071a5760405162461bcd60e51b8152602060048201526015602482015274139bc81d1bdad95b8812511cc81c1c9bdd9a591959605a1b604482015260640161068a565b60405163e985e9c560e01b8152336004820181905230602483015284916001600160a01b0383169063e985e9c590604401602060405180830381865afa158015610768573d6000803e3d6000fd5b505050506040513d601f19601f8201168201806040525081019061078c91906128ff565b6107a85760405162461bcd60e51b815260040161068a9061291c565b60005b838110156108fe57816001600160a01b0316836001600160a01b0316636352211e8787858181106107de576107de612960565b905060200201356040518263ffffffff1660e01b815260040161080391815260200190565b602060405180830381865afa158015610820573d6000803e3d6000fd5b505050506040513d601f19601f820116820180604052508101906108449190612976565b6001600160a01b03161461086a5760405162461bcd60e51b815260040161068a90612993565b6002546001600160a01b03808516916342842e0e9185911688888681811061089457610894612960565b905060200201356040518463ffffffff1660e01b81526004016108b9939291906129bf565b600060405180830381600087803b1580156108d357600080fd5b505af11580156108e7573d6000803e3d6000fd5b5050505080806108f6906129f9565b9150506107ab565b506002546040516001600160a01b03918216918381169190881690600080516020612b07833981519152906109369089908990612a12565b60405180910390a450506109576001600080516020612b4783398151915255565b505050565b610964611efb565b6001600160a01b03811660009081526020819052604090205460ff1661099c5760405162461bcd60e51b815260040161068a906128c8565b6001600160a01b0381166000908152602081905260408120805460ff191690555b600154811015610ac157816001600160a01b0316600182815481106109e4576109e4612960565b6000918252602090912001546001600160a01b031603610aaf5760018054610a0d908290612a4b565b81548110610a1d57610a1d612960565b600091825260209091200154600180546001600160a01b039092169183908110610a4957610a49612960565b9060005260206000200160006101000a8154816001600160a01b0302191690836001600160a01b031602179055506001805480610a8857610a88612a5e565b600082815260209020810160001990810180546001600160a01b0319169055019055610ac1565b80610ab9816129f9565b9150506109bd565b506040516001600160a01b038216907fcdbbac87a9b6f9099da697b76c7bdc7c622274ad41d15e6ec24244eb7a06344f90600090a250565b610b01611f56565b600254600160a01b900460ff1615610b2b5760405162461bcd60e51b815260040161068a90612874565b33610b485760405162461bcd60e51b815260040161068a906128a0565b610b51836105bf565b610b6d5760405162461bcd60e51b815260040161068a906128c8565b6000610b798433611849565b905060008111610bbb5760405162461bcd60e51b815260206004820152600d60248201526c139bc81391951cc8199bdd5b99609a1b604482015260640161068a565b808214610c015760405162461bcd60e51b81526020600482015260146024820152730a8ded6cadc40c6deeadce840dad2e6dac2e8c6d60631b604482015260640161068a565b60405163e985e9c560e01b815233600482015230602482015284906001600160a01b0382169063e985e9c590604401602060405180830381865afa158015610c4d573d6000803e3d6000fd5b505050506040513d601f19601f82011682018060405250810190610c7191906128ff565b610c8d5760405162461bcd60e51b815260040161068a9061291c565b60005b83811015610dda57336001600160a01b038316636352211e878785818110610cba57610cba612960565b905060200201356040518263ffffffff1660e01b8152600401610cdf91815260200190565b602060405180830381865afa158015610cfc573d6000803e3d6000fd5b505050506040513d601f19601f82011682018060405250810190610d209190612976565b6001600160a01b031614610d465760405162461bcd60e51b815260040161068a90612993565b6002546001600160a01b03808416916342842e0e91339116888886818110610d7057610d70612960565b905060200201356040518463ffffffff1660e01b8152600401610d95939291906129bf565b600060405180830381600087803b158015610daf57600080fd5b505af1158015610dc3573d6000803e3d6000fd5b505050508080610dd2906129f9565b915050610c90565b506002546040516001600160a01b0391821691339190881690600080516020612b07833981519152906109369089908990612a12565b60018181548110610e2057600080fd5b6000918252602090912001546001600160a01b0316905081565b7ff0c57e16840df040f15088dc2f81fe391c3923bec73e23a9662efc9c229c6a008054600160401b810460ff16159067ffffffffffffffff16600081158015610e805750825b905060008267ffffffffffffffff166001148015610e9d5750303b155b905081158015610eab575080155b15610ec95760405163f92ee8a960e01b815260040160405180910390fd5b845467ffffffffffffffff191660011785558315610ef357845460ff60401b1916600160401b1785555b6001600160a01b038716610f495760405162461bcd60e51b815260206004820152601b60248201527f496e76616c69642064657374696e6174696f6e20616464726573730000000000604482015260640161068a565b6001600160a01b038616610f975760405162461bcd60e51b8152602060048201526015602482015274496e76616c6964206f776e6572206164647265737360581b604482015260640161068a565b610fa086611fa2565b610fa8611fb3565b610fb0611fc3565b600280546001600160b01b0319166001600160a01b038916179055831561101157845460ff60401b19168555604051600181527fc7f505b2f371ae2175ee4913f4499e1f2633a7b5936321eed1cdaeb6115181d29060200160405180910390a15b50505050505050565b611022611efb565b6001600160a01b0381166110785760405162461bcd60e51b815260206004820152601b60248201527f496e76616c69642064657374696e6174696f6e20616464726573730000000000604482015260640161068a565b600280546001600160a01b038381166001600160a01b0319831681179093556040519116919082907f03b2832aa1902a5d3f7d11cbdaf269bf5378d377eef871e35faad3952e8c6b7b90600090a35050565b6110d2611fcb565b6110db82612070565b6110e58282612078565b5050565b60006110f3612135565b50600080516020612b2783398151915290565b61110e611efb565b611118600061217e565b565b6060600180548060200260200160405190810160405280929190818152602001828054801561117257602002820191906000526020600020905b81546001600160a01b03168152600190910190602001808311611154575b5050505050905090565b611184611f56565b61118c611efb565b600254600160a01b900460ff16156111b65760405162461bcd60e51b815260040161068a90612874565b6001600160a01b0384166112045760405162461bcd60e51b8152602060048201526015602482015274496e76616c6964206f776e6572206164647265737360581b604482015260640161068a565b61120d836105bf565b6112295760405162461bcd60e51b815260040161068a906128c8565b8061126e5760405162461bcd60e51b8152602060048201526015602482015274139bc81d1bdad95b8812511cc81c1c9bdd9a591959605a1b604482015260640161068a565b60405163e985e9c560e01b81526001600160a01b03858116600483015230602483015284919082169063e985e9c590604401602060405180830381865afa1580156112bd573d6000803e3d6000fd5b505050506040513d601f19601f820116820180604052508101906112e191906128ff565b6112fd5760405162461bcd60e51b815260040161068a9061291c565b60005b8281101561145357856001600160a01b0316826001600160a01b0316636352211e86868581811061133357611333612960565b905060200201356040518263ffffffff1660e01b815260040161135891815260200190565b602060405180830381865afa158015611375573d6000803e3d6000fd5b505050506040513d601f19601f820116820180604052508101906113999190612976565b6001600160a01b0316146113bf5760405162461bcd60e51b815260040161068a90612993565b6002546001600160a01b03808416916342842e0e918991168787868181106113e9576113e9612960565b905060200201356040518463ffffffff1660e01b815260040161140e939291906129bf565b600060405180830381600087803b15801561142857600080fd5b505af115801561143c573d6000803e3d6000fd5b50505050808061144b906129f9565b915050611300565b506002546040516001600160a01b03918216918781169190871690600080516020612b078339815191529061148b9088908890612a12565b60405180910390a4506114ab6001600080516020612b4783398151915255565b50505050565b6114b9611f56565b600254600160a01b900460ff16156114e35760405162461bcd60e51b815260040161068a90612874565b336115005760405162461bcd60e51b815260040161068a906128a0565b611509826105bf565b6115255760405162461bcd60e51b815260040161068a906128c8565b6040516331a9108f60e11b81526004810182905282906000906001600160a01b03831690636352211e90602401602060405180830381865afa15801561156f573d6000803e3d6000fd5b505050506040513d601f19601f820116820180604052508101906115939190612976565b90506001600160a01b03811633146115ed5760405162461bcd60e51b815260206004820152601960248201527f4e6f7420746865206f776e6572206f662074686973204e465400000000000000604482015260640161068a565b60405163020604bf60e21b8152600481018490526000906001600160a01b0384169063081812fc90602401602060405180830381865afa158015611635573d6000803e3d6000fd5b505050506040513d601f19601f820116820180604052508101906116599190612976565b60405163e985e9c560e01b81526001600160a01b03848116600483015230602483015291925060009185169063e985e9c590604401602060405180830381865afa1580156116ab573d6000803e3d6000fd5b505050506040513d601f19601f820116820180604052508101906116cf91906128ff565b90506001600160a01b0382163014806116e55750805b6117295760405162461bcd60e51b815260206004820152601560248201527410dbdb9d1c9858dd081b9bdd08185c1c1c9bdd9959605a1b604482015260640161068a565b600254604051632142170760e11b81526001600160a01b03808716926342842e0e9261175d92889216908a906004016129bf565b600060405180830381600087803b15801561177757600080fd5b505af115801561178b573d6000803e3d6000fd5b50506002546040516001600160a01b0391821681528893508187169250908916907f3b2ac3acb3cb3f130ff9bc3627b6abda2deeca3a447f302c8da25cedadab99cb9060200160405180910390a4505050506110e56001600080516020612b4783398151915255565b6117fc611efb565b60028054821515600160a81b0260ff60a81b199091161790556040517f6d6f5a7306388e225c931f5e996f9cb03def2e66cf1a68c1b6a59f12cda21a2c9061064d90831515815260200190565b60006001600160a01b0383166118985760405162461bcd60e51b8152602060048201526014602482015273125b9d985b1a59081391950818dbdb9d1c9858dd60621b604482015260640161068a565b6118a1836105bf565b6118bd5760405162461bcd60e51b815260040161068a906128c8565b6040516370a0823160e01b81526001600160a01b0383811660048301528416906370a0823190602401602060405180830381865afa92505050801561191f575060408051601f3d908101601f1916820190925261191c91810190612a74565b60015b61192b575060006105f2565b9392505050565b6002546000908190600160a81b900460ff16156119525750600092915050565b60005b6001548110156119f2576000806001838154811061197557611975612960565b60009182526020808320909101546001600160a01b0316835282019290925260400190205460ff16156119e0576119d3600182815481106119b8576119b8612960565b6000918252602090912001546001600160a01b031685611849565b6119dd9083612a8d565b91505b806119ea816129f9565b915050611955565b5092915050565b611a01611efb565b6001600160a01b038116611a575760405162461bcd60e51b815260206004820152601c60248201527f496e76616c6964204e465420636f6e7472616374206164647265737300000000604482015260640161068a565b6001600160a01b03811660009081526020819052604090205460ff1615611ac05760405162461bcd60e51b815260206004820152601c60248201527f4e465420636f6e747261637420616c726561647920656e61626c656400000000604482015260640161068a565b6001600160a01b038116600081815260208190526040808220805460ff19166001908117909155805480820182559083527fb10e2d527612073b26eecdfd717e6a320cf44b4afac2b0732d9fcbe2b7fa0cf60180546001600160a01b03191684179055517f0485e5c8a0bd060dfe3c9cd330188d891c9d311258abe47715d83455bf7b2da49190a250565b611b53611f56565b600254600160a01b900460ff1615611b7d5760405162461bcd60e51b815260040161068a90612874565b33611b9a5760405162461bcd60e51b815260040161068a906128a0565b828114611be15760405162461bcd60e51b8152602060048201526015602482015274082e4e4c2f240d8cadccee8d040dad2e6dac2e8c6d605b1b604482015260640161068a565b3360005b84811015611ea4576000868683818110611c0157611c01612960565b9050602002016020810190611c16919061242b565b9050611c21816105bf565b611c3d5760405162461bcd60e51b815260040161068a906128c8565b60405163e985e9c560e01b81526001600160a01b03848116600483015230602483015282919082169063e985e9c590604401602060405180830381865afa158015611c8c573d6000803e3d6000fd5b505050506040513d601f19601f82011682018060405250810190611cb091906128ff565b611ccc5760405162461bcd60e51b815260040161068a9061291c565b366000878786818110611ce157611ce1612960565b9050602002810190611cf39190612aa0565b9150915060005b81811015611e4d57866001600160a01b0316846001600160a01b0316636352211e858585818110611d2d57611d2d612960565b905060200201356040518263ffffffff1660e01b8152600401611d5291815260200190565b602060405180830381865afa158015611d6f573d6000803e3d6000fd5b505050506040513d601f19601f82011682018060405250810190611d939190612976565b6001600160a01b031614611db95760405162461bcd60e51b815260040161068a90612993565b6002546001600160a01b03808616916342842e0e918a9116868686818110611de357611de3612960565b905060200201356040518463ffffffff1660e01b8152600401611e08939291906129bf565b600060405180830381600087803b158015611e2257600080fd5b505af1158015611e36573d6000803e3d6000fd5b505050508080611e45906129f9565b915050611cfa565b506002546040516001600160a01b03918216918881169190871690600080516020612b0783398151915290611e859087908790612a12565b60405180910390a4505050508080611e9c906129f9565b915050611be5565b50506114ab6001600080516020612b4783398151915255565b611ec5611efb565b6001600160a01b038116611eef57604051631e4fbdf760e01b81526000600482015260240161068a565b611ef88161217e565b50565b33611f2d7f9016d09d72d40fdae2fd8ceac6b6234c7706214fd39c1cd1e609a0528c199300546001600160a01b031690565b6001600160a01b0316146111185760405163118cdaa760e01b815233600482015260240161068a565b600080516020612b47833981519152805460011901611f8857604051633ee5aeb560e01b815260040160405180910390fd5b60029055565b6001600080516020612b4783398151915255565b611faa6121ef565b611ef881612238565b611fbb6121ef565b611118612240565b6111186121ef565b306001600160a01b037f000000000000000000000000000000000000000000000000000000000000000016148061205257507f00000000000000000000000000000000000000000000000000000000000000006001600160a01b0316612046600080516020612b27833981519152546001600160a01b031690565b6001600160a01b031614155b156111185760405163703e46dd60e11b815260040160405180910390fd5b611ef8611efb565b816001600160a01b03166352d1902d6040518163ffffffff1660e01b8152600401602060405180830381865afa9250505080156120d2575060408051601f3d908101601f191682019092526120cf91810190612a74565b60015b6120fa57604051634c9c8ce360e01b81526001600160a01b038316600482015260240161068a565b600080516020612b27833981519152811461212b57604051632a87526960e21b81526004810182905260240161068a565b6109578383612248565b306001600160a01b037f000000000000000000000000000000000000000000000000000000000000000016146111185760405163703e46dd60e11b815260040160405180910390fd5b7f9016d09d72d40fdae2fd8ceac6b6234c7706214fd39c1cd1e609a0528c19930080546001600160a01b031981166001600160a01b03848116918217845560405192169182907f8be0079c531659141344cd1fd0a4f28419497f9722a3daafe3b4186f6b6457e090600090a3505050565b7ff0c57e16840df040f15088dc2f81fe391c3923bec73e23a9662efc9c229c6a0054600160401b900460ff1661111857604051631afcd79f60e31b815260040160405180910390fd5b611ec56121ef565b611f8e6121ef565b6122518261229e565b6040516001600160a01b038316907fbc7cd75a20ee27fd9adebab32041f755214dbc6bffa90cc0225b39da2e5c2d3b90600090a2805115612296576109578282612303565b6110e5612379565b806001600160a01b03163b6000036122d457604051634c9c8ce360e01b81526001600160a01b038216600482015260240161068a565b600080516020612b2783398151915280546001600160a01b0319166001600160a01b0392909216919091179055565b6060600080846001600160a01b0316846040516123209190612aea565b600060405180830381855af49150503d806000811461235b576040519150601f19603f3d011682016040523d82523d6000602084013e612360565b606091505b5091509150612370858383612398565b95945050505050565b34156111185760405163b398979f60e01b815260040160405180910390fd5b6060826123ad576123a8826123ed565b61192b565b81511580156123c457506001600160a01b0384163b155b156119f257604051639996b31560e01b81526001600160a01b038516600482015260240161068a565b8051156123fd5780518082602001fd5b604051630a12f52160e11b815260040160405180910390fd5b6001600160a01b0381168114611ef857600080fd5b60006020828403121561243d57600080fd5b813561192b81612416565b60008060008060006080868803121561246057600080fd5b853561246b81612416565b9450602086013561247b81612416565b935060408601359250606086013567ffffffffffffffff8082111561249f57600080fd5b818801915088601f8301126124b357600080fd5b8135818111156124c257600080fd5b8960208285010111156124d457600080fd5b9699959850939650602001949392505050565b8015158114611ef857600080fd5b60006020828403121561250757600080fd5b813561192b816124e7565b60008083601f84011261252457600080fd5b50813567ffffffffffffffff81111561253c57600080fd5b6020830191508360208260051b850101111561255757600080fd5b9250929050565b60008060006040848603121561257357600080fd5b833561257e81612416565b9250602084013567ffffffffffffffff81111561259a57600080fd5b6125a686828701612512565b9497909650939450505050565b6000602082840312156125c557600080fd5b5035919050565b600080604083850312156125df57600080fd5b82356125ea81612416565b915060208301356125fa81612416565b809150509250929050565b634e487b7160e01b600052604160045260246000fd5b6000806040838503121561262e57600080fd5b823561263981612416565b9150602083013567ffffffffffffffff8082111561265657600080fd5b818501915085601f83011261266a57600080fd5b81358181111561267c5761267c612605565b604051601f8201601f19908116603f011681019083821181831017156126a4576126a4612605565b816040528281528860208487010111156126bd57600080fd5b8260208601602083013760006020848301015280955050505050509250929050565b6020808252825182820181905260009190848201906040850190845b818110156127205783516001600160a01b0316835292840192918401916001016126fb565b50909695505050505050565b6000806000806060858703121561274257600080fd5b843561274d81612416565b9350602085013561275d81612416565b9250604085013567ffffffffffffffff81111561277957600080fd5b61278587828801612512565b95989497509550505050565b600080604083850312156127a457600080fd5b82356127af81612416565b946020939093013593505050565b60005b838110156127d85781810151838201526020016127c0565b50506000910152565b60208152600082518060208401526128008160408501602087016127bd565b601f01601f19169190910160400192915050565b6000806000806040858703121561282a57600080fd5b843567ffffffffffffffff8082111561284257600080fd5b61284e88838901612512565b9096509450602087013591508082111561286757600080fd5b5061278587828801612512565b60208082526012908201527110dbdb9d1c9858dd081a5cc81c185d5cd95960721b604082015260600190565b6020808252600e908201526d24b73b30b634b21039b2b73232b960911b604082015260600190565b60208082526018908201527f4e465420636f6e7472616374206e6f7420656e61626c65640000000000000000604082015260600190565b60006020828403121561291157600080fd5b815161192b816124e7565b60208082526024908201527f436f6e7472616374206e6f7420617070726f76656420666f7220616c6c20746f6040820152636b656e7360e01b606082015260800190565b634e487b7160e01b600052603260045260246000fd5b60006020828403121561298857600080fd5b815161192b81612416565b6020808252601290820152712737ba1037bbb732b91037b3103a37b5b2b760711b604082015260600190565b6001600160a01b039384168152919092166020820152604081019190915260600190565b634e487b7160e01b600052601160045260246000fd5b600060018201612a0b57612a0b6129e3565b5060010190565b6020808252810182905260006001600160fb1b03831115612a3257600080fd5b8260051b80856040850137919091016040019392505050565b818103818111156105f2576105f26129e3565b634e487b7160e01b600052603160045260246000fd5b600060208284031215612a8657600080fd5b5051919050565b808201808211156105f2576105f26129e3565b6000808335601e19843603018112612ab757600080fd5b83018035915067ffffffffffffffff821115612ad257600080fd5b6020019150600581901b360382131561255757600080fd5b60008251612afc8184602087016127bd565b919091019291505056fe1f0f20fe3e9c889ae20e8d0c400c87a481755117ecb98bd1839619278d30ceb3360894a13ba1a3210667c828492db98dca3e2076cc3735a920a3ca505d382bbc9b779b17422d0df92223018b32b4d1fa46e071723d6817e2486d003becc55f00a26469706673582212200a326dbe9c5b9a1c82b36af08749f84363888218d03cc87267b1b097431b035f64736f6c63430008150033",
  "linkReferences": {},
  "deployedLinkReferences": {}
}