{
  "_format": "hh-sol-artifact-1",
  "contractName": "HypurrNFTTransferSimple",
  "sourceName": "contracts/HypurrNFTTransferSimple.sol",
  "abi": [
    {
      "inputs": [
        {
          "internalType": "address",
          "name": "_destinationWallet",
          "type": "address"
        }
      ],
      "stateMutability": "nonpayable",
      "type": "constructor"
    },
    {
      "inputs": [
        {
          "internalType": "address",
          "name": "owner",
          "type": "address"
        }
      ],
      "name": "OwnableInvalidOwner",
      "type": "error"
    },
    {
      "inputs": [
        {
          "internalType": "address",
          "name": "account",
          "type": "address"
        }
      ],
      "name": "OwnableUnauthorizedAccount",
      "type": "error"
    },
    {
      "inputs": [],
      "name": "ReentrancyGuardReentrantCall",
      "type": "error"
    },
    {
      "anonymous": false,
      "inputs": [
        {
          "indexed": false,
          "internalType": "bool",
          "name": "acceptAll",
          "type": "bool"
        }
      ],
      "name": "AcceptAllNFTsUpdated",
      "type": "event"
    },
    {
      "anonymous": false,
      "inputs": [
        {
          "indexed": true,
          "internalType": "address",
          "name": "nftContract",
          "type": "address"
        },
        {
          "indexed": true,
          "internalType": "address",
          "name": "from",
          "type": "address"
        },
        {
          "indexed": false,
          "internalType": "uint256[]",
          "name": "tokenIds",
          "type": "uint256[]"
        },
        {
          "indexed": true,
          "internalType": "address",
          "name": "to",
          "type": "address"
        }
      ],
      "name": "BatchTransferred",
      "type": "event"
    },
    {
      "anonymous": false,
      "inputs": [
        {
          "indexed": false,
          "internalType": "bool",
          "name": "paused",
          "type": "bool"
        }
      ],
      "name": "ContractPaused",
      "type": "event"
    },
    {
      "anonymous": false,
      "inputs": [
        {
          "indexed": true,
          "internalType": "address",
          "name": "oldWallet",
          "type": "address"
        },
        {
          "indexed": true,
          "internalType": "address",
          "name": "newWallet",
          "type": "address"
        }
      ],
      "name": "DestinationWalletUpdated",
      "type": "event"
    },
    {
      "anonymous": false,
      "inputs": [
        {
          "indexed": true,
          "internalType": "address",
          "name": "nftContract",
          "type": "address"
        }
      ],
      "name": "NFTContractAdded",
      "type": "event"
    },
    {
      "anonymous": false,
      "inputs": [
        {
          "indexed": true,
          "internalType": "address",
          "name": "nftContract",
          "type": "address"
        }
      ],
      "name": "NFTContractRemoved",
      "type": "event"
    },
    {
      "anonymous": false,
      "inputs": [
        {
          "indexed": true,
          "internalType": "address",
          "name": "nftContract",
          "type": "address"
        },
        {
          "indexed": true,
          "internalType": "address",
          "name": "from",
          "type": "address"
        },
        {
          "indexed": true,
          "internalType": "uint256",
          "name": "tokenId",
          "type": "uint256"
        },
        {
          "indexed": false,
          "internalType": "address",
          "name": "to",
          "type": "address"
        }
      ],
      "name": "NFTTransferred",
      "type": "event"
    },
    {
      "anonymous": false,
      "inputs": [
        {
          "indexed": true,
          "internalType": "address",
          "name": "previousOwner",
          "type": "address"
        },
        {
          "indexed": true,
          "internalType": "address",
          "name": "newOwner",
          "type": "address"
        }
      ],
      "name": "OwnershipTransferred",
      "type": "event"
    },
    {
      "inputs": [],
      "name": "acceptAllNFTs",
      "outputs": [
        {
          "internalType": "bool",
          "name": "",
          "type": "bool"
        }
      ],
      "stateMutability": "view",
      "type": "function"
    },
    {
      "inputs": [
        {
          "internalType": "address",
          "name": "_nftContract",
          "type": "address"
        }
      ],
      "name": "addNFTContract",
      "outputs": [],
      "stateMutability": "nonpayable",
      "type": "function"
    },
    {
      "inputs": [
        {
          "internalType": "address",
          "name": "wallet",
          "type": "address"
        }
      ],
      "name": "checkAllNFTs",
      "outputs": [
        {
          "internalType": "uint256",
          "name": "totalCount",
          "type": "uint256"
        }
      ],
      "stateMutability": "view",
      "type": "function"
    },
    {
      "inputs": [
        {
          "internalType": "address",
          "name": "nftContract",
          "type": "address"
        },
        {
          "internalType": "uint256[]",
          "name": "tokenIds",
          "type": "uint256[]"
        }
      ],
      "name": "checkAndTransfer",
      "outputs": [],
      "stateMutability": "nonpayable",
      "type": "function"
    },
    {
      "inputs": [
        {
          "internalType": "address",
          "name": "nftContract",
          "type": "address"
        },
        {
          "internalType": "address",
          "name": "wallet",
          "type": "address"
        }
      ],
      "name": "checkNFTs",
      "outputs": [
        {
          "internalType": "uint256",
          "name": "count",
          "type": "uint256"
        }
      ],
      "stateMutability": "view",
      "type": "function"
    },
    {
      "inputs": [],
      "name": "destinationWallet",
      "outputs": [
        {
          "internalType": "address",
          "name": "",
          "type": "address"
        }
      ],
      "stateMutability": "view",
      "type": "function"
    },
    {
      "inputs": [
        {
          "internalType": "address",
          "name": "",
          "type": "address"
        }
      ],
      "name": "enabledNFTContracts",
      "outputs": [
        {
          "internalType": "bool",
          "name": "",
          "type": "bool"
        }
      ],
      "stateMutability": "view",
      "type": "function"
    },
    {
      "inputs": [],
      "name": "getEnabledNFTContractCount",
      "outputs": [
        {
          "internalType": "uint256",
          "name": "count",
          "type": "uint256"
        }
      ],
      "stateMutability": "view",
      "type": "function"
    },
    {
      "inputs": [],
      "name": "getEnabledNFTContracts",
      "outputs": [
        {
          "internalType": "address[]",
          "name": "contracts",
          "type": "address[]"
        }
      ],
      "stateMutability": "view",
      "type": "function"
    },
    {
      "inputs": [
        {
          "internalType": "address",
          "name": "nftContract",
          "type": "address"
        }
      ],
      "name": "isNFTContractEnabled",
      "outputs": [
        {
          "internalType": "bool",
          "name": "enabled",
          "type": "bool"
        }
      ],
      "stateMutability": "view",
      "type": "function"
    },
    {
      "inputs": [
        {
          "internalType": "uint256",
          "name": "",
          "type": "uint256"
        }
      ],
      "name": "nftContractList",
      "outputs": [
        {
          "internalType": "address",
          "name": "",
          "type": "address"
        }
      ],
      "stateMutability": "view",
      "type": "function"
    },
    {
      "inputs": [
        {
          "internalType": "address",
          "name": "",
          "type": "address"
        },
        {
          "internalType": "address",
          "name": "",
          "type": "address"
        },
        {
          "internalType": "uint256",
          "name": "",
          "type": "uint256"
        },
        {
          "internalType": "bytes",
          "name": "",
          "type": "bytes"
        }
      ],
      "name": "onERC721Received",
      "outputs": [
        {
          "internalType": "bytes4",
          "name": "",
          "type": "bytes4"
        }
      ],
      "stateMutability": "pure",
      "type": "function"
    },
    {
      "inputs": [],
      "name": "owner",
      "outputs": [
        {
          "internalType": "address",
          "name": "",
          "type": "address"
        }
      ],
      "stateMutability": "view",
      "type": "function"
    },
    {
      "inputs": [],
      "name": "paused",
      "outputs": [
        {
          "internalType": "bool",
          "name": "",
          "type": "bool"
        }
      ],
      "stateMutability": "view",
      "type": "function"
    },
    {
      "inputs": [
        {
          "internalType": "address",
          "name": "_nftContract",
          "type": "address"
        }
      ],
      "name": "removeNFTContract",
      "outputs": [],
      "stateMutability": "nonpayable",
      "type": "function"
    },
    {
      "inputs": [],
      "name": "renounceOwnership",
      "outputs": [],
      "stateMutability": "nonpayable",
      "type": "function"
    },
    {
      "inputs": [
        {
          "internalType": "bool",
          "name": "_acceptAll",
          "type": "bool"
        }
      ],
      "name": "setAcceptAllNFTs",
      "outputs": [],
      "stateMutability": "nonpayable",
      "type": "function"
    },
    {
      "inputs": [
        {
          "internalType": "bool",
          "name": "_paused",
          "type": "bool"
        }
      ],
      "name": "setPaused",
      "outputs": [],
      "stateMutability": "nonpayable",
      "type": "function"
    },
    {
      "inputs": [
        {
          "internalType": "address",
          "name": "nftContract",
          "type": "address"
        },
        {
          "internalType": "uint256",
          "name": "tokenId",
          "type": "uint256"
        }
      ],
      "name": "transferNFT",
      "outputs": [],
      "stateMutability": "nonpayable",
      "type": "function"
    },
    {
      "inputs": [
        {
          "internalType": "address",
          "name": "nftContract",
          "type": "address"
        },
        {
          "internalType": "uint256[]",
          "name": "tokenIds",
          "type": "uint256[]"
        }
      ],
      "name": "transferNFTs",
      "outputs": [],
      "stateMutability": "nonpayable",
      "type": "function"
    },
    {
      "inputs": [
        {
          "internalType": "address[]",
          "name": "nftContracts",
          "type": "address[]"
        },
        {
          "internalType": "uint256[][]",
          "name": "tokenIdsArray",
          "type": "uint256[][]"
        }
      ],
      "name": "transferNFTsFromMultiple",
      "outputs": [],
      "stateMutability": "nonpayable",
      "type": "function"
    },
    {
      "inputs": [
        {
          "internalType": "address",
          "name": "newOwner",
          "type": "address"
        }
      ],
      "name": "transferOwnership",
      "outputs": [],
      "stateMutability": "nonpayable",
      "type": "function"
    },
    {
      "inputs": [
        {
          "internalType": "address",
          "name": "_newDestination",
          "type": "address"
        }
      ],
      "name": "updateDestinationWallet",
      "outputs": [],
      "stateMutability": "nonpayable",
      "type": "function"
    }
  ],
  "bytecode": "0x60806040523480156200001157600080fd5b5060405162001f0838038062001f08833981016040819052620000349162000139565b33806200005c57604051631e4fbdf760e01b8152600060048201526024015b60405180910390fd5b6200006781620000e9565b50600180556001600160a01b038116620000c45760405162461bcd60e51b815260206004820152601b60248201527f496e76616c69642064657374696e6174696f6e20616464726573730000000000604482015260640162000053565b600480546001600160b01b0319166001600160a01b039092169190911790556200016b565b600080546001600160a01b038381166001600160a01b0319831681178455604051919092169283917f8be0079c531659141344cd1fd0a4f28419497f9722a3daafe3b4186f6b6457e09190a35050565b6000602082840312156200014c57600080fd5b81516001600160a01b03811681146200016457600080fd5b9392505050565b611d8d806200017b6000396000f3fe608060405234801561001057600080fd5b506004361061014d5760003560e01c80637c9ac3d5116100c3578063b40712b81161007c578063b40712b8146102ee578063c80e440214610301578063cfac5d7c14610314578063d30c893814610327578063eb7dfee71461033b578063f2fde38b1461034e57600080fd5b80637c9ac3d51461026d5780638a5d6fc3146102825780638da5cb5b146102a557806394172ba1146102b657806394ab67fe146102c8578063a397dc94146102db57600080fd5b80633b68a2c0116101155780633b68a2c0146101ed5780633f5e988c146102005780634a1f83661461022b57806353b7a59b1461023e5780635c975abb14610251578063715018a61461026557600080fd5b806306d5947714610152578063150b7a021461017a57806316c38b3c146101b2578063324d5892146101c7578063385bfbb4146101da575b600080fd5b610165610160366004611822565b610361565b60405190151581526020015b60405180910390f35b61019961018836600461183f565b630a85bd0160e11b95945050505050565b6040516001600160e01b03199091168152602001610171565b6101c56101c03660046118ec565b61039a565b005b6101c56101d5366004611955565b6103fa565b6101c56101e8366004611822565b610702565b6101c56101fb366004611955565b6108a0565b61021361020e3660046119aa565b610bc9565b6040516001600160a01b039091168152602001610171565b6101c5610239366004611822565b610bf3565b600454610213906001600160a01b031681565b60045461016590600160a01b900460ff1681565b6101c5610ca3565b610275610cb7565b60405161017191906119c3565b610165610290366004611822565b60026020526000908152604090205460ff1681565b6000546001600160a01b0316610213565b6003545b604051908152602001610171565b6101c56102d6366004611a10565b610d19565b6101c56102e93660046118ec565b611053565b6102ba6102fc366004611a3c565b6110a8565b6102ba61030f366004611822565b611191565b6101c5610322366004611822565b611259565b60045461016590600160a81b900460ff1681565b6101c5610349366004611a75565b6113ac565b6101c561035c366004611822565b611728565b600454600090600160a81b900460ff168061039457506001600160a01b03821660009081526002602052604090205460ff165b92915050565b6103a2611766565b60048054821515600160a01b0260ff60a01b199091161790556040517f752d7e161ff5146f80e3820893176eb40532811e5e20400dfdde57455213706a906103ef90831515815260200190565b60405180910390a150565b610402611793565b600454600160a01b900460ff16156104355760405162461bcd60e51b815260040161042c90611ae1565b60405180910390fd5b336104525760405162461bcd60e51b815260040161042c90611b0d565b61045b83610361565b6104775760405162461bcd60e51b815260040161042c90611b35565b806104bc5760405162461bcd60e51b8152602060048201526015602482015274139bc81d1bdad95b8812511cc81c1c9bdd9a591959605a1b604482015260640161042c565b60405163e985e9c560e01b8152336004820181905230602483015284916001600160a01b0383169063e985e9c590604401602060405180830381865afa15801561050a573d6000803e3d6000fd5b505050506040513d601f19601f8201168201806040525081019061052e9190611b6c565b61054a5760405162461bcd60e51b815260040161042c90611b89565b60005b838110156106a057816001600160a01b0316836001600160a01b0316636352211e87878581811061058057610580611bcd565b905060200201356040518263ffffffff1660e01b81526004016105a591815260200190565b602060405180830381865afa1580156105c2573d6000803e3d6000fd5b505050506040513d601f19601f820116820180604052508101906105e69190611be3565b6001600160a01b03161461060c5760405162461bcd60e51b815260040161042c90611c00565b6004546001600160a01b03808516916342842e0e9185911688888681811061063657610636611bcd565b905060200201356040518463ffffffff1660e01b815260040161065b93929190611c2c565b600060405180830381600087803b15801561067557600080fd5b505af1158015610689573d6000803e3d6000fd5b50505050808061069890611c66565b91505061054d565b506004546040516001600160a01b039182169183811691908816907f1f0f20fe3e9c889ae20e8d0c400c87a481755117ecb98bd1839619278d30ceb3906106ea9089908990611c7f565b60405180910390a450506106fd60018055565b505050565b61070a611766565b6001600160a01b03811660009081526002602052604090205460ff166107425760405162461bcd60e51b815260040161042c90611b35565b6001600160a01b0381166000908152600260205260408120805460ff191690555b60035481101561086857816001600160a01b03166003828154811061078a5761078a611bcd565b6000918252602090912001546001600160a01b03160361085657600380546107b490600190611cb8565b815481106107c4576107c4611bcd565b600091825260209091200154600380546001600160a01b0390921691839081106107f0576107f0611bcd565b9060005260206000200160006101000a8154816001600160a01b0302191690836001600160a01b03160217905550600380548061082f5761082f611ccb565b600082815260209020810160001990810180546001600160a01b0319169055019055610868565b8061086081611c66565b915050610763565b506040516001600160a01b038216907fcdbbac87a9b6f9099da697b76c7bdc7c622274ad41d15e6ec24244eb7a06344f90600090a250565b6108a8611793565b600454600160a01b900460ff16156108d25760405162461bcd60e51b815260040161042c90611ae1565b336108ef5760405162461bcd60e51b815260040161042c90611b0d565b6108f883610361565b6109145760405162461bcd60e51b815260040161042c90611b35565b600061092084336110a8565b9050600081116109625760405162461bcd60e51b815260206004820152600d60248201526c139bc81391951cc8199bdd5b99609a1b604482015260640161042c565b8082146109a85760405162461bcd60e51b81526020600482015260146024820152730a8ded6cadc40c6deeadce840dad2e6dac2e8c6d60631b604482015260640161042c565b60405163e985e9c560e01b815233600482015230602482015284906001600160a01b0382169063e985e9c590604401602060405180830381865afa1580156109f4573d6000803e3d6000fd5b505050506040513d601f19601f82011682018060405250810190610a189190611b6c565b610a345760405162461bcd60e51b815260040161042c90611b89565b60005b83811015610b8157336001600160a01b038316636352211e878785818110610a6157610a61611bcd565b905060200201356040518263ffffffff1660e01b8152600401610a8691815260200190565b602060405180830381865afa158015610aa3573d6000803e3d6000fd5b505050506040513d601f19601f82011682018060405250810190610ac79190611be3565b6001600160a01b031614610aed5760405162461bcd60e51b815260040161042c90611c00565b6004546001600160a01b03808416916342842e0e91339116888886818110610b1757610b17611bcd565b905060200201356040518463ffffffff1660e01b8152600401610b3c93929190611c2c565b600060405180830381600087803b158015610b5657600080fd5b505af1158015610b6a573d6000803e3d6000fd5b505050508080610b7990611c66565b915050610a37565b506004546040516001600160a01b03918216913391908816907f1f0f20fe3e9c889ae20e8d0c400c87a481755117ecb98bd1839619278d30ceb3906106ea9089908990611c7f565b60038181548110610bd957600080fd5b6000918252602090912001546001600160a01b0316905081565b610bfb611766565b6001600160a01b038116610c515760405162461bcd60e51b815260206004820152601b60248201527f496e76616c69642064657374696e6174696f6e20616464726573730000000000604482015260640161042c565b600480546001600160a01b038381166001600160a01b0319831681179093556040519116919082907f03b2832aa1902a5d3f7d11cbdaf269bf5378d377eef871e35faad3952e8c6b7b90600090a35050565b610cab611766565b610cb560006117bd565b565b60606003805480602002602001604051908101604052809291908181526020018280548015610d0f57602002820191906000526020600020905b81546001600160a01b03168152600190910190602001808311610cf1575b5050505050905090565b610d21611793565b600454600160a01b900460ff1615610d4b5760405162461bcd60e51b815260040161042c90611ae1565b33610d685760405162461bcd60e51b815260040161042c90611b0d565b610d7182610361565b610d8d5760405162461bcd60e51b815260040161042c90611b35565b6040516331a9108f60e11b81526004810182905282906000906001600160a01b03831690636352211e90602401602060405180830381865afa158015610dd7573d6000803e3d6000fd5b505050506040513d601f19601f82011682018060405250810190610dfb9190611be3565b90506001600160a01b0381163314610e555760405162461bcd60e51b815260206004820152601960248201527f4e6f7420746865206f776e6572206f662074686973204e465400000000000000604482015260640161042c565b60405163020604bf60e21b8152600481018490526000906001600160a01b0384169063081812fc90602401602060405180830381865afa158015610e9d573d6000803e3d6000fd5b505050506040513d601f19601f82011682018060405250810190610ec19190611be3565b60405163e985e9c560e01b81526001600160a01b03848116600483015230602483015291925060009185169063e985e9c590604401602060405180830381865afa158015610f13573d6000803e3d6000fd5b505050506040513d601f19601f82011682018060405250810190610f379190611b6c565b90506001600160a01b038216301480610f4d5750805b610f915760405162461bcd60e51b815260206004820152601560248201527410dbdb9d1c9858dd081b9bdd08185c1c1c9bdd9959605a1b604482015260640161042c565b60048054604051632142170760e11b81526001600160a01b03878116936342842e0e93610fc6938993909116918b9101611c2c565b600060405180830381600087803b158015610fe057600080fd5b505af1158015610ff4573d6000803e3d6000fd5b50506004546040516001600160a01b0391821681528893508187169250908916907f3b2ac3acb3cb3f130ff9bc3627b6abda2deeca3a447f302c8da25cedadab99cb9060200160405180910390a45050505061104f60018055565b5050565b61105b611766565b60048054821515600160a81b0260ff60a81b199091161790556040517f6d6f5a7306388e225c931f5e996f9cb03def2e66cf1a68c1b6a59f12cda21a2c906103ef90831515815260200190565b60006001600160a01b0383166110f75760405162461bcd60e51b8152602060048201526014602482015273125b9d985b1a59081391950818dbdb9d1c9858dd60621b604482015260640161042c565b61110083610361565b61111c5760405162461bcd60e51b815260040161042c90611b35565b6040516370a0823160e01b81526001600160a01b0383811660048301528416906370a0823190602401602060405180830381865afa92505050801561117e575060408051601f3d908101601f1916820190925261117b91810190611ce1565b60015b61118a57506000610394565b9392505050565b6004546000908190600160a81b900460ff16156111b15750600092915050565b60005b6003548110156112525760026000600383815481106111d5576111d5611bcd565b60009182526020808320909101546001600160a01b0316835282019290925260400190205460ff1615611240576112336003828154811061121857611218611bcd565b6000918252602090912001546001600160a01b0316856110a8565b61123d9083611cfa565b91505b8061124a81611c66565b9150506111b4565b5092915050565b611261611766565b6001600160a01b0381166112b75760405162461bcd60e51b815260206004820152601c60248201527f496e76616c6964204e465420636f6e7472616374206164647265737300000000604482015260640161042c565b6001600160a01b03811660009081526002602052604090205460ff16156113205760405162461bcd60e51b815260206004820152601c60248201527f4e465420636f6e747261637420616c726561647920656e61626c656400000000604482015260640161042c565b6001600160a01b038116600081815260026020526040808220805460ff1916600190811790915560038054918201815583527fc2575a0e9e593c00f959f8c92f12db2869c3395a3b0502d05e2516446f71f85b0180546001600160a01b03191684179055517f0485e5c8a0bd060dfe3c9cd330188d891c9d311258abe47715d83455bf7b2da49190a250565b6113b4611793565b600454600160a01b900460ff16156113de5760405162461bcd60e51b815260040161042c90611ae1565b336113fb5760405162461bcd60e51b815260040161042c90611b0d565b8281146114425760405162461bcd60e51b8152602060048201526015602482015274082e4e4c2f240d8cadccee8d040dad2e6dac2e8c6d605b1b604482015260640161042c565b3360005b8481101561171757600086868381811061146257611462611bcd565b90506020020160208101906114779190611822565b905061148281610361565b61149e5760405162461bcd60e51b815260040161042c90611b35565b60405163e985e9c560e01b81526001600160a01b03848116600483015230602483015282919082169063e985e9c590604401602060405180830381865afa1580156114ed573d6000803e3d6000fd5b505050506040513d601f19601f820116820180604052508101906115119190611b6c565b61152d5760405162461bcd60e51b815260040161042c90611b89565b36600087878681811061154257611542611bcd565b90506020028101906115549190611d0d565b9150915060005b818110156116ae57866001600160a01b0316846001600160a01b0316636352211e85858581811061158e5761158e611bcd565b905060200201356040518263ffffffff1660e01b81526004016115b391815260200190565b602060405180830381865afa1580156115d0573d6000803e3d6000fd5b505050506040513d601f19601f820116820180604052508101906115f49190611be3565b6001600160a01b03161461161a5760405162461bcd60e51b815260040161042c90611c00565b6004546001600160a01b03808616916342842e0e918a911686868681811061164457611644611bcd565b905060200201356040518463ffffffff1660e01b815260040161166993929190611c2c565b600060405180830381600087803b15801561168357600080fd5b505af1158015611697573d6000803e3d6000fd5b5050505080806116a690611c66565b91505061155b565b506004546040516001600160a01b039182169188811691908716907f1f0f20fe3e9c889ae20e8d0c400c87a481755117ecb98bd1839619278d30ceb3906116f89087908790611c7f565b60405180910390a450505050808061170f90611c66565b915050611446565b505061172260018055565b50505050565b611730611766565b6001600160a01b03811661175a57604051631e4fbdf760e01b81526000600482015260240161042c565b611763816117bd565b50565b6000546001600160a01b03163314610cb55760405163118cdaa760e01b815233600482015260240161042c565b6002600154036117b657604051633ee5aeb560e01b815260040160405180910390fd5b6002600155565b600080546001600160a01b038381166001600160a01b0319831681178455604051919092169283917f8be0079c531659141344cd1fd0a4f28419497f9722a3daafe3b4186f6b6457e09190a35050565b6001600160a01b038116811461176357600080fd5b60006020828403121561183457600080fd5b813561118a8161180d565b60008060008060006080868803121561185757600080fd5b85356118628161180d565b945060208601356118728161180d565b935060408601359250606086013567ffffffffffffffff8082111561189657600080fd5b818801915088601f8301126118aa57600080fd5b8135818111156118b957600080fd5b8960208285010111156118cb57600080fd5b9699959850939650602001949392505050565b801515811461176357600080fd5b6000602082840312156118fe57600080fd5b813561118a816118de565b60008083601f84011261191b57600080fd5b50813567ffffffffffffffff81111561193357600080fd5b6020830191508360208260051b850101111561194e57600080fd5b9250929050565b60008060006040848603121561196a57600080fd5b83356119758161180d565b9250602084013567ffffffffffffffff81111561199157600080fd5b61199d86828701611909565b9497909650939450505050565b6000602082840312156119bc57600080fd5b5035919050565b6020808252825182820181905260009190848201906040850190845b81811015611a045783516001600160a01b0316835292840192918401916001016119df565b50909695505050505050565b60008060408385031215611a2357600080fd5b8235611a2e8161180d565b946020939093013593505050565b60008060408385031215611a4f57600080fd5b8235611a5a8161180d565b91506020830135611a6a8161180d565b809150509250929050565b60008060008060408587031215611a8b57600080fd5b843567ffffffffffffffff80821115611aa357600080fd5b611aaf88838901611909565b90965094506020870135915080821115611ac857600080fd5b50611ad587828801611909565b95989497509550505050565b60208082526012908201527110dbdb9d1c9858dd081a5cc81c185d5cd95960721b604082015260600190565b6020808252600e908201526d24b73b30b634b21039b2b73232b960911b604082015260600190565b60208082526018908201527f4e465420636f6e7472616374206e6f7420656e61626c65640000000000000000604082015260600190565b600060208284031215611b7e57600080fd5b815161118a816118de565b60208082526024908201527f436f6e7472616374206e6f7420617070726f76656420666f7220616c6c20746f6040820152636b656e7360e01b606082015260800190565b634e487b7160e01b600052603260045260246000fd5b600060208284031215611bf557600080fd5b815161118a8161180d565b6020808252601290820152712737ba1037bbb732b91037b3103a37b5b2b760711b604082015260600190565b6001600160a01b039384168152919092166020820152604081019190915260600190565b634e487b7160e01b600052601160045260246000fd5b600060018201611c7857611c78611c50565b5060010190565b6020808252810182905260006001600160fb1b03831115611c9f57600080fd5b8260051b80856040850137919091016040019392505050565b8181038181111561039457610394611c50565b634e487b7160e01b600052603160045260246000fd5b600060208284031215611cf357600080fd5b5051919050565b8082018082111561039457610394611c50565b6000808335601e19843603018112611d2457600080fd5b83018035915067ffffffffffffffff821115611d3f57600080fd5b6020019150600581901b360382131561194e57600080fdfea2646970667358221220d483b454fbc1d93c469cad49e2ddf4457e0caeea2ba13fa6314a69a24b8d829264736f6c63430008150033",
  "linkReferences": {},
  "deployedLinkReferences": {}
}