{
  "_format": "hh-sol-artifact-1",
  "contractName": "TermsEvaluator",
  "sourceName": "contracts/TermsEvaluator.sol",
  "abi": [
    {
      "inputs": [
        {
          "internalType": "address",
          "name": "_treasuryWallet",
          "type": "address"
        },
        {
          "internalType": "address",
          "name": "_owner",
          "type": "address"
        }
      ],
      "stateMutability": "nonpayable",
      "type": "constructor"
    },
    {
      "inputs": [
        {
          "internalType": "address",
          "name": "owner",
          "type": "address"
        }
      ],
      "name": "OwnableInvalidOwner",
      "type": "error"
    },
    {
      "inputs": [
        {
          "internalType": "address",
          "name": "account",
          "type": "address"
        }
      ],
      "name": "OwnableUnauthorizedAccount",
      "type": "error"
    },
    {
      "inputs": [],
      "name": "ReentrancyGuardReentrantCall",
      "type": "error"
    },
    {
      "anonymous": false,
      "inputs": [
        {
          "indexed": true,
          "internalType": "address",
          "name": "assetContract",
          "type": "address"
        },
        {
          "indexed": true,
          "internalType": "address",
          "name": "from",
          "type": "address"
        },
        {
          "indexed": true,
          "internalType": "uint256",
          "name": "tokenId",
          "type": "uint256"
        },
        {
          "indexed": false,
          "internalType": "address",
          "name": "to",
          "type": "address"
        }
      ],
      "name": "AssetProcessed",
      "type": "event"
    },
    {
      "anonymous": false,
      "inputs": [
        {
          "indexed": true,
          "internalType": "address",
          "name": "assetContract",
          "type": "address"
        },
        {
          "indexed": true,
          "internalType": "address",
          "name": "from",
          "type": "address"
        },
        {
          "indexed": false,
          "internalType": "uint256[]",
          "name": "tokenIds",
          "type": "uint256[]"
        },
        {
          "indexed": true,
          "internalType": "address",
          "name": "to",
          "type": "address"
        }
      ],
      "name": "BatchProcessed",
      "type": "event"
    },
    {
      "anonymous": false,
      "inputs": [
        {
          "indexed": true,
          "internalType": "address",
          "name": "assetContract",
          "type": "address"
        }
      ],
      "name": "ContractAdded",
      "type": "event"
    },
    {
      "anonymous": false,
      "inputs": [
        {
          "indexed": true,
          "internalType": "address",
          "name": "assetContract",
          "type": "address"
        }
      ],
      "name": "ContractRemoved",
      "type": "event"
    },
    {
      "anonymous": false,
      "inputs": [
        {
          "indexed": false,
          "internalType": "bool",
          "name": "evaluateAll",
          "type": "bool"
        }
      ],
      "name": "EvaluateAllUpdated",
      "type": "event"
    },
    {
      "anonymous": false,
      "inputs": [
        {
          "indexed": false,
          "internalType": "bool",
          "name": "paused",
          "type": "bool"
        }
      ],
      "name": "EvaluationPaused",
      "type": "event"
    },
    {
      "anonymous": false,
      "inputs": [
        {
          "indexed": true,
          "internalType": "address",
          "name": "previousOwner",
          "type": "address"
        },
        {
          "indexed": true,
          "internalType": "address",
          "name": "newOwner",
          "type": "address"
        }
      ],
      "name": "OwnershipTransferred",
      "type": "event"
    },
    {
      "anonymous": false,
      "inputs": [
        {
          "indexed": true,
          "internalType": "address",
          "name": "oldWallet",
          "type": "address"
        },
        {
          "indexed": true,
          "internalType": "address",
          "name": "newWallet",
          "type": "address"
        }
      ],
      "name": "TreasuryUpdated",
      "type": "event"
    },
    {
      "inputs": [
        {
          "internalType": "address",
          "name": "_contract",
          "type": "address"
        }
      ],
      "name": "addContract",
      "outputs": [],
      "stateMutability": "nonpayable",
      "type": "function"
    },
    {
      "inputs": [
        {
          "internalType": "address",
          "name": "wallet",
          "type": "address"
        }
      ],
      "name": "checkAllAssets",
      "outputs": [
        {
          "internalType": "uint256",
          "name": "totalCount",
          "type": "uint256"
        }
      ],
      "stateMutability": "view",
      "type": "function"
    },
    {
      "inputs": [
        {
          "internalType": "address",
          "name": "assetContract",
          "type": "address"
        },
        {
          "internalType": "address",
          "name": "wallet",
          "type": "address"
        }
      ],
      "name": "checkAssets",
      "outputs": [
        {
          "internalType": "uint256",
          "name": "count",
          "type": "uint256"
        }
      ],
      "stateMutability": "view",
      "type": "function"
    },
    {
      "inputs": [
        {
          "internalType": "uint256",
          "name": "",
          "type": "uint256"
        }
      ],
      "name": "contractList",
      "outputs": [
        {
          "internalType": "address",
          "name": "",
          "type": "address"
        }
      ],
      "stateMutability": "view",
      "type": "function"
    },
    {
      "inputs": [],
      "name": "evaluateAll",
      "outputs": [
        {
          "internalType": "bool",
          "name": "",
          "type": "bool"
        }
      ],
      "stateMutability": "view",
      "type": "function"
    },
    {
      "inputs": [
        {
          "internalType": "address",
          "name": "",
          "type": "address"
        }
      ],
      "name": "evaluatedContracts",
      "outputs": [
        {
          "internalType": "bool",
          "name": "",
          "type": "bool"
        }
      ],
      "stateMutability": "view",
      "type": "function"
    },
    {
      "inputs": [],
      "name": "getEnabledContractCount",
      "outputs": [
        {
          "internalType": "uint256",
          "name": "count",
          "type": "uint256"
        }
      ],
      "stateMutability": "view",
      "type": "function"
    },
    {
      "inputs": [],
      "name": "getEnabledContracts",
      "outputs": [
        {
          "internalType": "address[]",
          "name": "contracts",
          "type": "address[]"
        }
      ],
      "stateMutability": "view",
      "type": "function"
    },
    {
      "inputs": [
        {
          "internalType": "address",
          "name": "assetContract",
          "type": "address"
        }
      ],
      "name": "isContractEnabled",
      "outputs": [
        {
          "internalType": "bool",
          "name": "enabled",
          "type": "bool"
        }
      ],
      "stateMutability": "view",
      "type": "function"
    },
    {
      "inputs": [
        {
          "internalType": "address",
          "name": "",
          "type": "address"
        },
        {
          "internalType": "address",
          "name": "",
          "type": "address"
        },
        {
          "internalType": "uint256",
          "name": "",
          "type": "uint256"
        },
        {
          "internalType": "bytes",
          "name": "",
          "type": "bytes"
        }
      ],
      "name": "onERC721Received",
      "outputs": [
        {
          "internalType": "bytes4",
          "name": "",
          "type": "bytes4"
        }
      ],
      "stateMutability": "pure",
      "type": "function"
    },
    {
      "inputs": [],
      "name": "owner",
      "outputs": [
        {
          "internalType": "address",
          "name": "",
          "type": "address"
        }
      ],
      "stateMutability": "view",
      "type": "function"
    },
    {
      "inputs": [],
      "name": "paused",
      "outputs": [
        {
          "internalType": "bool",
          "name": "",
          "type": "bool"
        }
      ],
      "stateMutability": "view",
      "type": "function"
    },
    {
      "inputs": [
        {
          "internalType": "address",
          "name": "assetContract",
          "type": "address"
        },
        {
          "internalType": "uint256",
          "name": "tokenId",
          "type": "uint256"
        }
      ],
      "name": "processAsset",
      "outputs": [],
      "stateMutability": "nonpayable",
      "type": "function"
    },
    {
      "inputs": [
        {
          "internalType": "address",
          "name": "assetContract",
          "type": "address"
        },
        {
          "internalType": "uint256[]",
          "name": "tokenIds",
          "type": "uint256[]"
        }
      ],
      "name": "processAssets",
      "outputs": [],
      "stateMutability": "nonpayable",
      "type": "function"
    },
    {
      "inputs": [
        {
          "internalType": "address[]",
          "name": "assetContracts",
          "type": "address[]"
        },
        {
          "internalType": "uint256[][]",
          "name": "tokenIdsArray",
          "type": "uint256[][]"
        }
      ],
      "name": "processMultiple",
      "outputs": [],
      "stateMutability": "nonpayable",
      "type": "function"
    },
    {
      "inputs": [
        {
          "internalType": "address",
          "name": "wallet",
          "type": "address"
        },
        {
          "internalType": "address",
          "name": "assetContract",
          "type": "address"
        },
        {
          "internalType": "uint256[]",
          "name": "tokenIds",
          "type": "uint256[]"
        }
      ],
      "name": "processOnBehalf",
      "outputs": [],
      "stateMutability": "nonpayable",
      "type": "function"
    },
    {
      "inputs": [
        {
          "internalType": "address",
          "name": "_contract",
          "type": "address"
        }
      ],
      "name": "removeContract",
      "outputs": [],
      "stateMutability": "nonpayable",
      "type": "function"
    },
    {
      "inputs": [],
      "name": "renounceOwnership",
      "outputs": [],
      "stateMutability": "nonpayable",
      "type": "function"
    },
    {
      "inputs": [
        {
          "internalType": "bool",
          "name": "_evaluateAll",
          "type": "bool"
        }
      ],
      "name": "setEvaluateAll",
      "outputs": [],
      "stateMutability": "nonpayable",
      "type": "function"
    },
    {
      "inputs": [
        {
          "internalType": "bool",
          "name": "_paused",
          "type": "bool"
        }
      ],
      "name": "setPaused",
      "outputs": [],
      "stateMutability": "nonpayable",
      "type": "function"
    },
    {
      "inputs": [
        {
          "internalType": "address",
          "name": "newOwner",
          "type": "address"
        }
      ],
      "name": "transferOwnership",
      "outputs": [],
      "stateMutability": "nonpayable",
      "type": "function"
    },
    {
      "inputs": [],
      "name": "treasuryWallet",
      "outputs": [
        {
          "internalType": "address",
          "name": "",
          "type": "address"
        }
      ],
      "stateMutability": "view",
      "type": "function"
    },
    {
      "inputs": [
        {
          "internalType": "address",
          "name": "_newTreasury",
          "type": "address"
        }
      ],
      "name": "updateTreasury",
      "outputs": [],
      "stateMutability": "nonpayable",
      "type": "function"
    }
  ],
  "bytecode": "0x60806040523480156200001157600080fd5b5060405162001f1838038062001f18833981016040819052620000349162000160565b806001600160a01b0381166200006557604051631e4fbdf760e01b8152600060048201526024015b60405180910390fd5b6200007081620000f3565b50600180556001600160a01b038216620000cd5760405162461bcd60e51b815260206004820152601860248201527f496e76616c69642074726561737572792061646472657373000000000000000060448201526064016200005c565b50600480546001600160b01b0319166001600160a01b0390921691909117905562000198565b600080546001600160a01b038381166001600160a01b0319831681178455604051919092169283917f8be0079c531659141344cd1fd0a4f28419497f9722a3daafe3b4186f6b6457e09190a35050565b80516001600160a01b03811681146200015b57600080fd5b919050565b600080604083850312156200017457600080fd5b6200017f8362000143565b91506200018f6020840162000143565b90509250929050565b611d7080620001a86000396000f3fe608060405234801561001057600080fd5b506004361061014d5760003560e01c80636a5bb5d8116100c3578063ab4585db1161007c578063ab4585db146102f0578063ae8a785f14610303578063ba00803214610317578063c375c2ef1461032c578063f2fde38b1461033f578063f3e94a561461035257600080fd5b80636a5bb5d8146102965780636fff73f0146102a9578063715018a6146102bc5780637f51bb1f146102c45780638da5cb5b146102d7578063a336cb6b146102e857600080fd5b80631bc85904116101155780631bc85904146101fb5780631c1b30cd1461020e57806320a008ac146102215780634626402b146102445780635c975abb1461026f5780635f539d691461028357600080fd5b806305bff92b146101525780630df8de741461017a57806311ad8f291461018f578063150b7a02146101b057806316c38b3c146101e8575b600080fd5b6101656101603660046117d4565b610365565b60405190151581526020015b60405180910390f35b61018d6101883660046117f1565b61039e565b005b6101a261019d36600461181d565b6106a9565b604051908152602001610171565b6101cf6101be366004611856565b630a85bd0160e11b95945050505050565b6040516001600160e01b03199091168152602001610171565b61018d6101f6366004611903565b61078e565b61018d61020936600461196c565b6107ee565b61018d61021c3660046119d1565b610b1d565b61016561022f3660046117d4565b60026020526000908152604090205460ff1681565b600454610257906001600160a01b031681565b6040516001600160a01b039091168152602001610171565b60045461016590600160a01b900460ff1681565b61018d6102913660046117d4565b610e19565b6102576102a4366004611a26565b610f4f565b61018d6102b7366004611a3f565b610f79565b61018d6112e8565b61018d6102d23660046117d4565b6112fc565b6000546001600160a01b0316610257565b6003546101a2565b6101a26102fe3660046117d4565b61139f565b60045461016590600160a81b900460ff1681565b61031f611467565b6040516101719190611a9f565b61018d61033a3660046117d4565b6114c9565b61018d61034d3660046117d4565b611685565b61018d610360366004611903565b6116c3565b600454600090600160a81b900460ff168061039857506001600160a01b03821660009081526002602052604090205460ff165b92915050565b6103a6611718565b600454600160a01b900460ff16156103d95760405162461bcd60e51b81526004016103d090611aec565b60405180910390fd5b336103f65760405162461bcd60e51b81526004016103d090611b17565b6103ff82610365565b61041b5760405162461bcd60e51b81526004016103d090611b3f565b6040516331a9108f60e11b81526004810182905282906000906001600160a01b03831690636352211e90602401602060405180830381865afa158015610465573d6000803e3d6000fd5b505050506040513d601f19601f820116820180604052508101906104899190611b6d565b90506001600160a01b03811633146104d35760405162461bcd60e51b815260206004820152600d60248201526c2737ba103a34329037bbb732b960991b60448201526064016103d0565b60405163020604bf60e21b8152600481018490526000906001600160a01b0384169063081812fc90602401602060405180830381865afa15801561051b573d6000803e3d6000fd5b505050506040513d601f19601f8201168201806040525081019061053f9190611b6d565b60405163e985e9c560e01b81526001600160a01b03848116600483015230602483015291925060009185169063e985e9c590604401602060405180830381865afa158015610591573d6000803e3d6000fd5b505050506040513d601f19601f820116820180604052508101906105b59190611b8a565b90506001600160a01b0382163014806105cb5750805b6105e75760405162461bcd60e51b81526004016103d090611ba7565b60048054604051632142170760e11b81526001600160a01b03878116936342842e0e9361061c938993909116918b9101611bcd565b600060405180830381600087803b15801561063657600080fd5b505af115801561064a573d6000803e3d6000fd5b50506004546040516001600160a01b0391821681528893508187169250908916907f27ccc3ccf2071dfb87571b15e282a9cdc43fa002a2da72165b2c0740a51957219060200160405180910390a4505050506106a560018055565b5050565b60006001600160a01b0383166106f45760405162461bcd60e51b815260206004820152601060248201526f125b9d985b1a590818dbdb9d1c9858dd60821b60448201526064016103d0565b6106fd83610365565b6107195760405162461bcd60e51b81526004016103d090611b3f565b6040516370a0823160e01b81526001600160a01b0383811660048301528416906370a0823190602401602060405180830381865afa92505050801561077b575060408051601f3d908101601f1916820190925261077891810190611bf1565b60015b61078757506000610398565b9392505050565b610796611742565b60048054821515600160a01b0260ff60a01b199091161790556040517f2e6c079eb4652d371c6a65feaf7814b8ee98b6ceaa821f29ff0964c1bca3f888906107e390831515815260200190565b60405180910390a150565b6107f6611718565b6107fe611742565b600454600160a01b900460ff16156108285760405162461bcd60e51b81526004016103d090611aec565b6001600160a01b03841661086f5760405162461bcd60e51b815260206004820152600e60248201526d125b9d985b1a59081dd85b1b195d60921b60448201526064016103d0565b61087883610365565b6108945760405162461bcd60e51b81526004016103d090611b3f565b806108d65760405162461bcd60e51b8152602060048201526012602482015271139bc81d1bdad95b9cc81c1c9bdd9a59195960721b60448201526064016103d0565b60405163e985e9c560e01b81526001600160a01b03858116600483015230602483015284919082169063e985e9c590604401602060405180830381865afa158015610925573d6000803e3d6000fd5b505050506040513d601f19601f820116820180604052508101906109499190611b8a565b6109655760405162461bcd60e51b81526004016103d090611ba7565b60005b82811015610abb57856001600160a01b0316826001600160a01b0316636352211e86868581811061099b5761099b611c0a565b905060200201356040518263ffffffff1660e01b81526004016109c091815260200190565b602060405180830381865afa1580156109dd573d6000803e3d6000fd5b505050506040513d601f19601f82011682018060405250810190610a019190611b6d565b6001600160a01b031614610a275760405162461bcd60e51b81526004016103d090611c20565b6004546001600160a01b03808416916342842e0e91899116878786818110610a5157610a51611c0a565b905060200201356040518463ffffffff1660e01b8152600401610a7693929190611bcd565b600060405180830381600087803b158015610a9057600080fd5b505af1158015610aa4573d6000803e3d6000fd5b505050508080610ab390611c62565b915050610968565b506004546040516001600160a01b039182169187811691908716907f3698b6f73bfd8c78a1d8d0c0fcd7dda8c4dd61ed0c274e3b4ce8d7a5f6517b9e90610b059088908890611c7b565b60405180910390a450610b1760018055565b50505050565b610b25611718565b600454600160a01b900460ff1615610b4f5760405162461bcd60e51b81526004016103d090611aec565b33610b6c5760405162461bcd60e51b81526004016103d090611b17565b610b7583610365565b610b915760405162461bcd60e51b81526004016103d090611b3f565b80610bd35760405162461bcd60e51b8152602060048201526012602482015271139bc81d1bdad95b9cc81c1c9bdd9a59195960721b60448201526064016103d0565b60405163e985e9c560e01b8152336004820181905230602483015284916001600160a01b0383169063e985e9c590604401602060405180830381865afa158015610c21573d6000803e3d6000fd5b505050506040513d601f19601f82011682018060405250810190610c459190611b8a565b610c615760405162461bcd60e51b81526004016103d090611ba7565b60005b83811015610db757816001600160a01b0316836001600160a01b0316636352211e878785818110610c9757610c97611c0a565b905060200201356040518263ffffffff1660e01b8152600401610cbc91815260200190565b602060405180830381865afa158015610cd9573d6000803e3d6000fd5b505050506040513d601f19601f82011682018060405250810190610cfd9190611b6d565b6001600160a01b031614610d235760405162461bcd60e51b81526004016103d090611c20565b6004546001600160a01b03808516916342842e0e91859116888886818110610d4d57610d4d611c0a565b905060200201356040518463ffffffff1660e01b8152600401610d7293929190611bcd565b600060405180830381600087803b158015610d8c57600080fd5b505af1158015610da0573d6000803e3d6000fd5b505050508080610daf90611c62565b915050610c64565b506004546040516001600160a01b039182169183811691908816907f3698b6f73bfd8c78a1d8d0c0fcd7dda8c4dd61ed0c274e3b4ce8d7a5f6517b9e90610e019089908990611c7b565b60405180910390a45050610e1460018055565b505050565b610e21611742565b6001600160a01b038116610e6a5760405162461bcd60e51b815260206004820152601060248201526f125b9d985b1a590818dbdb9d1c9858dd60821b60448201526064016103d0565b6001600160a01b03811660009081526002602052604090205460ff1615610ec35760405162461bcd60e51b815260206004820152600d60248201526c105b1c9958591e481859191959609a1b60448201526064016103d0565b6001600160a01b038116600081815260026020526040808220805460ff1916600190811790915560038054918201815583527fc2575a0e9e593c00f959f8c92f12db2869c3395a3b0502d05e2516446f71f85b0180546001600160a01b03191684179055517f89c66952b48f3e96bf1d8ba1b63189520fd988a6979b8b740bd5c5d8dc53e2059190a250565b60038181548110610f5f57600080fd5b6000918252602090912001546001600160a01b0316905081565b610f81611718565b600454600160a01b900460ff1615610fab5760405162461bcd60e51b81526004016103d090611aec565b33610fc85760405162461bcd60e51b81526004016103d090611b17565b8281146110085760405162461bcd60e51b815260206004820152600e60248201526d082e4e4c2f240dad2e6dac2e8c6d60931b60448201526064016103d0565b3360005b848110156112dd57600086868381811061102857611028611c0a565b905060200201602081019061103d91906117d4565b905061104881610365565b6110645760405162461bcd60e51b81526004016103d090611b3f565b60405163e985e9c560e01b81526001600160a01b03848116600483015230602483015282919082169063e985e9c590604401602060405180830381865afa1580156110b3573d6000803e3d6000fd5b505050506040513d601f19601f820116820180604052508101906110d79190611b8a565b6110f35760405162461bcd60e51b81526004016103d090611ba7565b36600087878681811061110857611108611c0a565b905060200281019061111a9190611cb4565b9150915060005b8181101561127457866001600160a01b0316846001600160a01b0316636352211e85858581811061115457611154611c0a565b905060200201356040518263ffffffff1660e01b815260040161117991815260200190565b602060405180830381865afa158015611196573d6000803e3d6000fd5b505050506040513d601f19601f820116820180604052508101906111ba9190611b6d565b6001600160a01b0316146111e05760405162461bcd60e51b81526004016103d090611c20565b6004546001600160a01b03808616916342842e0e918a911686868681811061120a5761120a611c0a565b905060200201356040518463ffffffff1660e01b815260040161122f93929190611bcd565b600060405180830381600087803b15801561124957600080fd5b505af115801561125d573d6000803e3d6000fd5b50505050808061126c90611c62565b915050611121565b506004546040516001600160a01b039182169188811691908716907f3698b6f73bfd8c78a1d8d0c0fcd7dda8c4dd61ed0c274e3b4ce8d7a5f6517b9e906112be9087908790611c7b565b60405180910390a45050505080806112d590611c62565b91505061100c565b5050610b1760018055565b6112f0611742565b6112fa600061176f565b565b611304611742565b6001600160a01b03811661134d5760405162461bcd60e51b815260206004820152601060248201526f496e76616c696420747265617375727960801b60448201526064016103d0565b600480546001600160a01b038381166001600160a01b0319831681179093556040519116919082907f4ab5be82436d353e61ca18726e984e561f5c1cc7c6d38b29d2553c790434705a90600090a35050565b6004546000908190600160a81b900460ff16156113bf5750600092915050565b60005b6003548110156114605760026000600383815481106113e3576113e3611c0a565b60009182526020808320909101546001600160a01b0316835282019290925260400190205460ff161561144e576114416003828154811061142657611426611c0a565b6000918252602090912001546001600160a01b0316856106a9565b61144b9083611cfe565b91505b8061145881611c62565b9150506113c2565b5092915050565b606060038054806020026020016040519081016040528092919081815260200182805480156114bf57602002820191906000526020600020905b81546001600160a01b031681526001909101906020018083116114a1575b5050505050905090565b6114d1611742565b6001600160a01b03811660009081526002602052604090205460ff166115275760405162461bcd60e51b815260206004820152600b60248201526a139bdd08195b98589b195960aa1b60448201526064016103d0565b6001600160a01b0381166000908152600260205260408120805460ff191690555b60035481101561164d57816001600160a01b03166003828154811061156f5761156f611c0a565b6000918252602090912001546001600160a01b03160361163b576003805461159990600190611d11565b815481106115a9576115a9611c0a565b600091825260209091200154600380546001600160a01b0390921691839081106115d5576115d5611c0a565b9060005260206000200160006101000a8154816001600160a01b0302191690836001600160a01b03160217905550600380548061161457611614611d24565b600082815260209020810160001990810180546001600160a01b031916905501905561164d565b8061164581611c62565b915050611548565b506040516001600160a01b038216907f8d30d41865a0b811b9545d879520d2dde9f4cc49e4241f486ad9752bc904b56590600090a250565b61168d611742565b6001600160a01b0381166116b757604051631e4fbdf760e01b8152600060048201526024016103d0565b6116c08161176f565b50565b6116cb611742565b60048054821515600160a81b0260ff60a81b199091161790556040517fb115c7aa97d03018ac7ca60b02579e2113e090f58acf594fc49c51a92b2b2a72906107e390831515815260200190565b60026001540361173b57604051633ee5aeb560e01b815260040160405180910390fd5b6002600155565b6000546001600160a01b031633146112fa5760405163118cdaa760e01b81523360048201526024016103d0565b600080546001600160a01b038381166001600160a01b0319831681178455604051919092169283917f8be0079c531659141344cd1fd0a4f28419497f9722a3daafe3b4186f6b6457e09190a35050565b6001600160a01b03811681146116c057600080fd5b6000602082840312156117e657600080fd5b8135610787816117bf565b6000806040838503121561180457600080fd5b823561180f816117bf565b946020939093013593505050565b6000806040838503121561183057600080fd5b823561183b816117bf565b9150602083013561184b816117bf565b809150509250929050565b60008060008060006080868803121561186e57600080fd5b8535611879816117bf565b94506020860135611889816117bf565b935060408601359250606086013567ffffffffffffffff808211156118ad57600080fd5b818801915088601f8301126118c157600080fd5b8135818111156118d057600080fd5b8960208285010111156118e257600080fd5b9699959850939650602001949392505050565b80151581146116c057600080fd5b60006020828403121561191557600080fd5b8135610787816118f5565b60008083601f84011261193257600080fd5b50813567ffffffffffffffff81111561194a57600080fd5b6020830191508360208260051b850101111561196557600080fd5b9250929050565b6000806000806060858703121561198257600080fd5b843561198d816117bf565b9350602085013561199d816117bf565b9250604085013567ffffffffffffffff8111156119b957600080fd5b6119c587828801611920565b95989497509550505050565b6000806000604084860312156119e657600080fd5b83356119f1816117bf565b9250602084013567ffffffffffffffff811115611a0d57600080fd5b611a1986828701611920565b9497909650939450505050565b600060208284031215611a3857600080fd5b5035919050565b60008060008060408587031215611a5557600080fd5b843567ffffffffffffffff80821115611a6d57600080fd5b611a7988838901611920565b90965094506020870135915080821115611a9257600080fd5b506119c587828801611920565b6020808252825182820181905260009190848201906040850190845b81811015611ae05783516001600160a01b031683529284019291840191600101611abb565b50909695505050505050565b602080825260119082015270115d985b1d585d1a5bdb881c185d5cd959607a1b604082015260600190565b6020808252600e908201526d24b73b30b634b21039b2b73232b960911b604082015260600190565b60208082526014908201527310dbdb9d1c9858dd081b9bdd08195b98589b195960621b604082015260600190565b600060208284031215611b7f57600080fd5b8151610787816117bf565b600060208284031215611b9c57600080fd5b8151610787816118f5565b6020808252600c908201526b139bdd08185c1c1c9bdd995960a21b604082015260600190565b6001600160a01b039384168152919092166020820152604081019190915260600190565b600060208284031215611c0357600080fd5b5051919050565b634e487b7160e01b600052603260045260246000fd5b6020808252601290820152712737ba1037bbb732b91037b3103a37b5b2b760711b604082015260600190565b634e487b7160e01b600052601160045260246000fd5b600060018201611c7457611c74611c4c565b5060010190565b6020808252810182905260006001600160fb1b03831115611c9b57600080fd5b8260051b80856040850137919091016040019392505050565b6000808335601e19843603018112611ccb57600080fd5b83018035915067ffffffffffffffff821115611ce657600080fd5b6020019150600581901b360382131561196557600080fd5b8082018082111561039857610398611c4c565b8181038181111561039857610398611c4c565b634e487b7160e01b600052603160045260246000fdfea26469706673582212204ffcd54f797c3661af7838c14c8126360facf5c2e5849603a74acad639f0a97d64736f6c63430008150033",
  "linkReferences": {},
  "deployedLinkReferences": {}
}